:020000042000DA
:1080000028050120AD810020218B00201B8B002042
:108010000000000000000000000000000000000060
:10802000000000000000000000000000318B002074
:108030000000000000000000238B0020338B002094
:10804000698B0020738B00207D8B0020878B0020A4
:10805000038B0020918B0020938B0020958B0020B8
:108060002D8B00202F8B00201D8B0020198B0020D2
:10807000BF810020018B0020258B0020BF810020C4
:10808000BF8100201F8B0020BF810020BF81002006
:10809000BF810020BF810020BF810020BF81002060
:1080A0000B8B00200D8B00200F8B0020118B0020EC
:1080B000138B0020158B0020178B0020FF8A0020D7
:1080C00000F002F800F046F80CA030C80838241878
:1080D0002D18671EA246AB4654465D46AC4201D100
:1080E00000F038F87E460F3EB6460FCC01263342EC
:1080F00000D0FB1A3343A246AB461847A026000027
:10810000E0260000103A02D378C878C1FAD85207A6
:1081100001D330C830C101D504680C60704700003D
:108120000023002400250026103A01D378C1FBD893
:10813000520700D330C100D50B60704710B57329CA
:1081400002D100F086FC10BD002010BD1FB51FBD80
:1081500010B510BD03488546FFF7F8FF01F054FE47
:1081600000F0A8FC0000022003B4FFF7F1FF03BCFD
:1081700000F011FD70B505460C46164602E00FCC26
:108180000FC5103E102EFAD2082E02D303CC03C521
:10819000083E042E07D301CC01C5361F03E0217829
:1081A0002970641C6D1C761EF9D270BD074880478B
:1081B00007480047FEE7FEE7FEE7FEE7FEE7FEE7CB
:1081C00004480549054A064B70470000358B0020DE
:1081D000C180002028020120280501202803012059
:1081E00028030120704700000FB4054910B503AA09
:1081F000029800F033FC10BC08BC04B01847000023
:10820000A0010120F8B50E46044600202062204659
:10821000E1688847002829D0252802D06268A16833
:1082200020E0E16820460027884705001ED0284648
:108230004138192802D80127FF022035324620464E
:1082400027602946FFF77AFF002808D0012804D0CC
:10825000F61DF608F6000836D9E7361DD7E762683E
:108260002846A1689047206A401CCFE7206AF8BDE5
:1082700070B50C460546012A05D02878800600D541
:10828000EA69002302E0012305E05B1C934202D26D
:10829000E05C0028F9D1A869E618C01AA861286A2C
:1082A000C01828622846C046C04604E06A682078A4
:1082B000A968641C9047B442F8D32846C046C0461B
:1082C00070BD01E004C0091F0429FBD28B0701D552
:1082D0000280801CC90700D00270704700290BD0B3
:1082E000C30702D00270401C491E022904D3830731
:1082F00002D50280801C891EE3E70022EEE70022FF
:10830000DFE70000002203098B422CD3030A8B42D3
:1083100011D300239C464EE003460B433CD400227D
:1083200043088B4231D303098B421CD3030A8B428F
:1083300001D394463FE0C3098B4201D3CB01C01A5D
:10834000524183098B4201D38B01C01A5241430928
:108350008B4201D34B01C01A524103098B4201D316
:108360000B01C01A5241C3088B4201D3CB00C01A83
:10837000524183088B4201D38B00C01A52414308FB
:108380008B4201D34B00C01A5241411A00D2014620
:108390005241104670475DE0CA0F00D049420310B9
:1083A00000D3404253409C46002203098B422DD308
:1083B000030A8B4212D38901FC2212BA030A8B42B0
:1083C0000CD3890192118B4208D3890192118B42FF
:1083D00004D389013AD0921100E08909C3098B4284
:1083E00001D3CB01C01A524183098B4201D38B01C7
:1083F000C01A524143098B4201D34B01C01A52416A
:1084000003098B4201D30B01C01A5241C3088B42AE
:1084100001D3CB00C01A524183088B4201D38B0099
:10842000C01A5241D9D243088B4201D34B00C01A23
:108430005241411A00D201465241104663465B1038
:1084400001D34042002B00D54942704763465B1080
:1084500000D3404201B50549002802DC491C084010
:1084600000E00846C046C04602BD00BFFFFFFF7FD8
:108470007047704770470000F0B50C46871A9C4162
:108480000D46861A9D4103D2C01BA141D2196341FA
:108490000D0D1F0DC94EEC1BAE435CD07F057F0D4B
:1084A0000026002F51D02D05AC46A943DD02012343
:1084B000ED0A1B051D4320231B1B24D41746E74050
:1084C000381871412F46E740CC199D402818314695
:1084D00061410C0D27D161449A4013D50023401C03
:1084E000594152000ED14008400001224B00520574
:1084F000D34207D305204007C14201D5B04900E06F
:10850000B0493046F0BD6B00002A00D001229A1815
:108510001F23203C1B1B01D5002302E0E540281847
:1085200071410C0DD7D0012424050919C407CD07CA
:1085300040084908E40F28436144002CD5D00024AA
:10854000401C61419A40D0D1CDE76A05520DD9D186
:10855000C90FC907D5E79C4D4E00002801D0012462
:1085600000E0002434195F00002A01D0012600E059
:108570000026BE19954FAC420CD8AE420AD8B44280
:1085800006D001256D05EC42BCD010461946F0BD61
:108590009942FCD000203946F0BDF0B51FB40C461E
:1085A0000F46811A9F412546861A9D4106D2012514
:1085B000ED076F40401ABC4152187B41210D1E0D42
:1085C0008D1BAC467D4D8D437ED075056D0D7CD0E9
:1085D0000D05AE46AC431B031B0B794D52429D412A
:1085E000202366469B1B14D31746F74038180026F5
:1085F0000090744160462F460741E41900989D4061
:108600002818664116D4714671189A4025D5012361
:1086100020E093182A466A415200002B00D0521CD9
:108620001E23203E9B1B002B61DD3541EE172818D1
:108630006641E8D5001876415B1C9A4000D3401C87
:108640004B05F3181524E34010D3002B52D071468C
:108650007118D30FC01802D3491C05B0F0BD012317
:10866000DB079A42F9D140084000F6E701225205A3
:10867000B21801D1002853D00123CC0ADB02994360
:10868000891E002A08D1020C03D0020C0004103904
:1086900002E00246002020390023550B05D11202CA
:1086A0000823550B01D152010D23550C01D11201A4
:1086B0001B1DD50C01D192009B1C150D01D1520040
:1086C0005B1C2025EE1A01E02CE022E00546F54077
:1086D00015439840CA1AE10769181305C918002AFA
:1086E000BBDA032040070818C10FC9070FE0714625
:1086F0006118B2E7F10740080843711071444A005D
:108700000CD001235B059A42A7D2C90FC9070020EC
:10871000A3E74905490D26D1002001E00028F4D146
:1087200000219AE7284D6600002801D0012100E0D1
:10873000002171185F00002A01D0012600E0002608
:10874000BE19224FA94210D8AE420ED8B14208D06D
:1087500001256D05E94206D01946A80241401046A0
:108760007BE79C4201D0214677E70020394674E739
:1087700010B50C465C4005D50124E4076340FFF7C3
:108780000CFF10BDFFF778FE10BD30B40C465C4006
:1087900004D50124E407634030BC6DE630BCFCE640
:1087A00070B50124E40761400D465D4002D4FFF737
:1087B00063FE70BD6340FFF7F0FE70BDFF07000071
:1087C0000000F0FF0000F07F0000E0FF0000F87FF5
:1087D0000346CA02400D10B510430A1504D0012407
:1087E000E4072043002A05DB0A4CA21A04D4D04037
:1087F000FF2A00DD002010BD4A00002B01D001201F
:1088000000E00020101801225205D042F2D8C8170B
:10881000C04310BD1E0400000121C90501234118F9
:1088200042001B06D3185B0E0AD0C1100722D206E5
:10883000891840075242D14201D552008918704729
:10884000090208D50146002A03D0C10FC90700203C
:10885000704710467047420202D00020024970471C
:10886000072109050143F4E70000F87FF0B5FF2573
:108870002D04C609C209FF2704462E400137CB0943
:108880003E4348402A402B400746002A6BD0002B2D
:1088900069D0AA4267D0AB4265D0002800DA3246E0
:1088A0000125ED0529432C4309022002090AD21AA9
:1088B0004B0C7F24E31A434C000A7C44E35C7D2488
:1088C0002404121914145B00A218884201D3521C0C
:1088D00000E0400049420C465C4324115C43DB014C
:1088E0006415E318040A5C43C502200D0C4644439A
:1088F0006419250A5D432303EC0C0D466543000310
:108900000019EB184C42A34201D35B18401CD4055C
:108910002018002B07D05B00C91804D3401C002985
:1089200001D1400840003F2189048A4209D3002A2E
:1089300008DC1106090F04D0032149074018C00FB5
:10894000C007F0BD01224100120689187F2252069D
:108950009142F6D205214907C84201D59010F0BDD9
:10896000FF20C005F0BD002F00DA32461648AA42AB
:1089700007D2AB4205D21902090E17D0F80FC00773
:10898000F0BDFF2563002D06AB42F9D84900A9428E
:10899000F6D8AB4201D1A942F2D0A94201D10021BF
:1089A00001E061004908D0050843F0BD1102090E3D
:1089B000FBD0FF200243D005F0BD0A460146104619
:1089C00054E70000861E00000000C07F1F22030C39
:1089D00002D10F2200041CD0030E01D10002083A7C
:1089E000030F01D10001121F830F01D18000921EDD
:1089F000002801DB4000521ED20551180212511806
:108A00001922904004D3491C002801D1490849008B
:108A100008467047C10FC90700D0404201229207A3
:108A20001143D3E701218907D0E7704710B54369A7
:108A3000002B02D0C046C04601E0FFF719FC012020
:108A400010BD1278014624310A7000224A700122BA
:108A5000ECE711680022D243E8E70000084B70B54C
:108A60000D467B4400F013F80446284600F05AFBFC
:108A7000002802D00020C04370BD204670BD000019
:108A8000530B000001694A1C02610878704700B569
:108A90008FB002910021059105490193794403911A
:108AA000114604906846FFF7ADFB0FB000BD000013
:108AB000E5FFFFFF10B50446C046C0462046FFF75D
:108AC00053FB10BD30B58C180278401C13071B0FE8
:108AD00001D10378401C120906D10278401C03E042
:108AE0000578401C0D70491C5B1EF9D101E00B702C
:108AF000491C521EFBD1A142E6D3002030BD704775
:108B0000704780B500F0CAFA80BD70477047704763
:108B1000704770477047704770477047704770479D
:108B20007047704780B501F015FB80BD70477047F6
:108B300070477047074808490160084820210160D4
:108B4000BFF34F8FBFF36F8F62B6054805490160D1
:108B50007047C04608ED00E00080002080E100E0A2
:108B60004400012000E1F50580B5002001F0E2FCA1
:108B700080BD80B5012001F0DDFC80BD80B5022004
:108B800001F0D8FC80BD80B5032001F0D3FC80BD8E
:108B9000704770477047FEE7B0B584B00024039477
:108BA00002940194022000F0A9FD00F0E1FD01F023
:108BB00081FC01A98C710125CD720E488880E120CD
:108BC00000030190204601F061F800F0A7FF0A4A77
:108BD0002846214600F0F6FD0320084A214600F011
:108BE000F1FD01F057F9294800F0ECFC01F09EFA84
:108BF00004B0B0BD030200008593002069A60020E8
:108C000070B586B007F0FCF91648057807F00AFA47
:108C10000024002D22D014A069460A4668C868C204
:108C200068C868C2022000F0D7FD012085031448FF
:108C300014492A46FFF79EFA032000F01FFC124851
:108C400001680029FCD004602320C1000F4801F016
:108C500089F90F48294601F085F900E0E4432046F0
:108C600006B070BD08020120100040004000400026
:108C700040000000004002200080022069A6002081
:108C80000040022000000220200201208800012074
:108C900000800220014908607047C046280001405A
:108CA00010B503239C0780030019074C04401804E7
:108CB0000918890889B20919044B1960101880082D
:108CC00080B2586010BDC0460000FFFF2C0001407C
:108CD00048490A6801239A43101808607047C04643
:108CE000104908607047C046411E884140010C4948
:108CF0000A6820239A4302430A6001208003014945
:108D00000860704700E100E080B50120400304499D
:108D10000A6802430A6003480068804780BDC04675
:108D200034000140FC010120B0B507220240FF21C0
:108D3000CB01440A1C40A21843097824234078330D
:108D40002340D2182B4B5C68054D254052195A60C0
:108D500009041A688A43000E000410181860B0BD98
:108D60000080FFFFB0B5441A012C04D0022C04D1BE
:108D70000120850705E07F2002E0062C1AD2812021
:108D8000C5051046FFF74EFE0146284601F082FC5D
:108D900005462046FFF746FE01462846FFF766FDDA
:108DA000FFF73AFD0022074BFFF7E2FCFFF710FD4B
:108DB00080B2B0BD092C01D30025E2E741200506B1
:108DC000DFE7C0460000E03F81090C220A40C107EE
:108DD000890F8918020E12028918000BF022024036
:108DE000F032D0B2081803490A68034B1340C01888
:108DF00008607047200001400100FFFF1048006834
:108E00007047C0460B49022806D0012809D0002827
:108E10000ED10868086009E0012042070868104385
:108E200005E0012000070A6802430A60086808603C
:108E30007047C04608501040014802490160704721
:108E400014020120005A62020020704780B500F031
:108E50006BFC80BD80B500F06FFC80BD164A515C94
:108E60006722D20081508018002141607047C046BF
:108E7000114A515C0A0251181D225201815080187A
:108E8000002141607047C046B0B57321C900421847
:108E9000536844580125254345505360B0BD000038
:108EA0001D22520183185B68034B595C80580840AF
:108EB000411E88417047C04684A7002049006F4B7F
:108EC000595A0818C16983698361034B1340034AE7
:108ED0000A40D118C1617047FF0F000000F0FFFF8A
:108EE0004900664B595A08188168C168C1608260A0
:108EF0007047C0464900614B595A08188169C369D7
:108F0000C3610323DB0199439207D20D8918816164
:108F10007047C0464900594B595A08188169C369BE
:108F2000C3610723DB0299435207920C89188161C0
:108F30007047C0464900514B595A0818416C036CA0
:108F400003640F23DB0299431207520C8918416412
:108F50007047C0464900494B595A0818016C436C88
:108F6000436401239B029943D207520D891801647F
:108F70007047C0464900414B595A08188169C36976
:108F8000C36101239B049943D207520B8918816165
:108F90007047C0464900394B595A08188169C3695E
:108FA000C3610E2399435207120F891881617047DC
:108FB0004900324B595A08188169C369C3610723B4
:108FC0001B0599435207520A891881617047C046B0
:108FD00049002A4B595A08188169C369C3610123A2
:108FE0001A409943891881617047C04610B54900FD
:108FF000224B595A0B580B185C680A505C6010BD24
:1090000049001E4B595A08188169C369C36103237B
:109010005B0299439207520D891881617047C046DF
:109020004900164B595A08188169C369C36107235F
:109030009B0399435207D20B891881617047C04640
:1090400049000E4B595A08188169C369C36101234D
:109050005B049943D207920B891881617047C0461F
:109060004900064B595A08188169C369C3617023C6
:1090700099435207520E89188161704788A70020D2
:109080000021024A026041607047C04602010001AF
:10909000C0002349081840684068704710B5204C4C
:1090A00060684169002905D00121C160206800285D
:1090B00000D08047E0684169002905D00121C160E6
:1090C000A068002800D0804710BDC04680B501F0E0
:1090D000FBF980BD10B5C900114A511849684268B2
:1090E0000A6003789C1E62426241002B01D092010B
:1090F00000E0412283789B001343C2785207120E8E
:109100001A43407840001043886010BDC0000449F5
:1091100008184068816880220A4382607047C04610
:10912000500001200020C04370470000F0B5944C6F
:1091300025680226B54325600504174E2E401E25DE
:1091400005400F07FF0A7D19AD196668134F3740B8
:10915000ED196560050C6D1E624E2E409202384D71
:1091600052192A409219E26089015F4A8918114018
:10917000A16003218A07059DAD03AA183F4D154044
:1091800009045918890889B249192161C007800F5B
:10919000216801432160F0BD0000E07FE1FF010094
:1091A00071490A6801239A43101808607047C04645
:1091B000F0B581B0009313460A4601460F246604B9
:1091C000C4033440C50B1E272F403F196C4C606808
:1091D0001A4D28403818401C606008023040CE0705
:1091E000B60A1707FF0EBE19301892013E4E9219AB
:1091F000324080186A1CA56815404019A060180C00
:10920000401ED44A02409802D44BC018184080181F
:10921000E06003208207069B9B039A18D04B134003
:109220000004009A1018800880B2C0182061022043
:10923000084021680143216001B0F0BDE0FF01005A
:1092400000FC0F0003490A6801239A4310180860C4
:109250007047C0460800014010B5074A1368032351
:109260009C0789030919BE4C0C401904401880085A
:1092700080B22018106010BD100001400000FFFFF8
:109280003F490A68164B134003229204800080185D
:10929000164A0240981808607047C046B0B5384B6F
:1092A0001C680225AC431C601C680D4D25401D60E8
:1092B000040C641EA74D2540DD6089050A4C091980
:1092C0009960C007800F196801431960032080046A
:1092D0009100081805490140186808431860B0BD9E
:1092E0000F00F0FFFF0300000000C0FFF0FF0F00C1
:1092F000411E8841800022490A6804239A430243A0
:109300000A607047B0B5012214040A4B164A0A4D90
:10931000012907D1116829400001001918400843AC
:109320001060B0BD51682940000100191840084381
:109330005060B0BDC0FF01003F00FEFF0A4A012996
:1093400008D1411E884140011168202399430143FF
:1093500011607047411E88414001516820239943A4
:10936000014351607047C04604000140411E8841DE
:10937000C00003490A6808239A4302430A60704701
:109380000000014003480221017003488168491C24
:1093900081607047080201208800012080B54A1EC4
:1093A000022A0AD21C224A43064909688918C96858
:1093B00049080918FFF750FF80BD0029FCD1FFF7CD
:1093C0005FFF80BD040201207A490A6804239A43A2
:1093D000C007400F101808607047C0462649086053
:1093E0007047C046134A002810D04B1ED9B2012046
:1093F0000229014603D859B289000FA359581368AE
:109400000B4313608003EE4908607047032906D0C0
:10941000022907D0012908D11068022107E010684D
:10942000082104E01068042101E01068012188434C
:10943000106070473400014002000000040000008A
:1094400008000000F0B581B004460025094E0A4F1F
:109450002046E840C00708D03968E8B288470120B4
:109460000002A8403168014331606D1C042DEFD12A
:1094700001B0F0BD340001400002012080B5032896
:1094800001D100F06FF880BD3F2809DC072815DD09
:1094900008281FD010281FD0202827D1052070476A
:1094A000FF2811DD01210A02904217D08A02904262
:1094B00016D04902884219D109207047022811D0DC
:1094C000042813D10220704740280DD080280DD1E8
:1094D000072070470320704704207047082070471A
:1094E0000A20704701207047062070470020C043C3
:1094F00070470000F0B58408082525400C07240AB1
:109500000601F6B2341965192A4C2668104F374007
:10951000ED192560090C491E0E4D0D4011050E4A2E
:1095200089181140491980090C4A104080181040D0
:109530000818606003208107059A92035118084AB1
:109540000A4000041818800880B28018A060F0BD9E
:1095500007FF0FFFFF0300000000F03F00FC0F00BB
:109560000000FFFF134801680222114301600168F7
:10957000914301607047C0460E490A68054B13408D
:109580000122D204C0018018034A024098180860E2
:109590007047C046FF01F0FF00FE0F00411E8841EA
:1095A000000201210902034A13688B43034313603D
:1095B0007047C0461400014080B5C1B2002001F0E0
:1095C00023F880BD70B50446FA20A07400266674A6
:1095D000FF2020740125E5730220A07360732573BA
:1095E0001048114921606060A66020461330212197
:1095F000FEF783FE3420C4212154E6630B48A063A8
:10960000204634303C22C2708170427065756421FE
:10961000074A084B084D056143618261C1610748F3
:10962000206470BD3E004608FF7F026208002800EB
:10963000E803E8030200B80B28A0A00F809698006A
:10964000F0B50B78032B01D0302200E070225C1EB5
:10965000651EAC41640012194C78651E6E426E4165
:10966000B5005219A41E65426541EC001219092883
:1096700007D801258540204C022B0FD16668AE43E8
:109680000EE010281AD804460A3CE4B20126A6408F
:10969000184CA579022B13D0354312E066682E438F
:1096A00066608507ED0EFF26AE40FC270740E419F3
:1096B000E768B743AA403A43E26006E0012217E0B8
:1096C000B543A571035D02550B7800220C280FD01D
:1096D000022B0DD10C2800D9401E4006000E8978BF
:1096E000814003238340044804689C430C43046086
:1096F0001046F0BD443810402C50104010B50446C0
:10970000FFF79AFB064801210170FFF79DFB054911
:10971000087000F04DFC204600F02AFA10BDC0464B
:109720000C0201201002012080B57D21C9004843B0
:1097300000F002F880BD0000B0B582B00546FFF72A
:109740005DFB0A49FEF7DEFD04466C430BD00120A9
:10975000FFF79EFC05460120FFF79AFC0190019857
:10976000281AA042F7D302B0B0BDC04640420F0055
:1097700070B582B0FFF7AAFC6D462846FFF780FC63
:1097800001242C706C80002628463146FFF7A2FC8D
:109790002846FFF775FCEE702C7028462146FFF72F
:1097A00099FC3046FFF7B2FC2046FFF7AFFC0348B8
:1097B00010210160E248016002B070BD80E200E06B
:1097C00000E100E01C234343DB480068C018D14B94
:1097D00010300EC07047C046F0B58BB0062800D9D7
:1097E00096E10C46800001A10858874609980020A0
:1097F00015980020339800208D980020AB98002009
:10980000B7980020AB9900202588E80700D0F0E049
:10981000002012E12078411E88416178FFF7BEFEEA
:109820002078002800D173E161786068FFF7A4FE1A
:109830006EE16088FFF728FE0790A0880A902788CD
:10984000BD48006861698166208801252840E1687B
:10985000099121890891E6882469FFF7B5FD0094F4
:109860001F2007990840390120220A4010180A9940
:1098700009044018B90832045118089A099BFFF7E7
:1098800039FE03212846FFF7ADFD41E12078411E56
:1098900088416178FFF752FD2078002800D137E138
:1098A00061786068FFF72EFD32E12788F80700D065
:1098B000CCE0002010E12178C80700D123E19E48C8
:1098C000056860780591A17809020818E178227985
:1098D0001202511809040F18380E6179A279120288
:1098E0005118E27912048E183102401880B2FFF745
:1098F000CBFD0A90300AFFF7C7FD0790A089618968
:10990000089009914843810069642078814A2A655A
:1099100026692E64AE630007C00F48434018686490
:10992000FA087F235B02134006937A06D20D049255
:109930008919039105998F0821890591217820299A
:1099400002D36169A96440008019E863A069E864F2
:109950002078022101404808FFF708FD0398009095
:10996000079880B205990904091808980004099A13
:109970008218032007400A980004C019049B18436A
:10998000069B18433346FFF713FC2078C00600D52A
:10999000ABE000252846FFF79BF92846FFF7A4F91E
:1099A00001200221FFF71EFDADE0A2786578207846
:1099B000460828463146FFF7D5F9A070E2782846D8
:1099C0003146FFF7CFF9E070E2796179A079FFF7CE
:1099D000C9F9E0716068FFF7F7F92068FFF7A4F9AB
:1099E000A068FFF757F922460C3207CAFFF758F96B
:1099F0008EE0EF4800686388E9081A464A4356003B
:109A0000C6602788434A8261626882600260BF073D
:109A1000FF0F7743BE19C660AD07ED0F27787F07AC
:109A200002D5A76807617600B6184660E668466109
:109A300018044019FFF732FC01200021FFF7D2FC87
:109A4000218801200840FFF753FC61E0ED480568DC
:109A50003809FFF719FD0790E188A2880A91099259
:109A600051438A0060880690AA622188294E6E635D
:109A7000A6686E62EE614907C90F51438918A96251
:109A80000F23034008937F07FF0F07980007C00EBE
:109A9000C0190790971906980009069020780007CA
:109AA00002D5E068E86249008819286220692863C5
:109AB0002088022101404808FFF758FC00970998C8
:109AC00000040799401806990904089A89180A9A07
:109AD0003346FFF72BFB012001252946FFF782FCC7
:109AE00020882840FFF75CFB12E000200221FFF7EE
:109AF00079FC0948FFF7F4F801252846FFF7E8F854
:109B00002846FFF7F1F8217801200840FFF79AFB7B
:109B10000BB0F0BD9D930020819D002010B5012465
:109B2000204600F099FDB74908600448FFF756FC4D
:109B3000A0039049086010BD04020120B59D0020DB
:109B400000E100E010B5044600F0C8FC204600F03B
:109B500073FA002010BD80B500F00CFC00F0ECFAA8
:109B600080BD80B500F0EEFA00F0FEFB80BD000085
:109B7000F0B581B00024052822D83C4A3C4B3D4E2C
:109B8000800003A1085835461F4611468746C04647
:109B9000AB9B0020A99B0020C79B0020C59B0020F9
:109BA000E19B0020DF9B00201D463448012101700D
:109BB000002000F0E7FB0220FFF724F9FF2421E05A
:109BC000E44350E017462D480121017020461E460F
:109BD00000F0D8FB0220FFF715F93D4612E02649B8
:109BE0000F46264E01253570204600F0CBFB0220A3
:109BF000FFF708F930780028284600D1E0431B4ED3
:109C00003D46044660B200F001FC1D4806601D4858
:109C100085420BDC1848854215D0144885420DD189
:109C200016480078002812D0012016E0114885421D
:109C300010D00F48854201D100200EE00024E043FF
:109C400000F0C2FB0FE00D480078002804D100208E
:109C5000C04302E0FF2000E0022040B200F0B4FB6D
:109C6000094805600024204601B0F0BD005A620298
:109C700000B4C40400688909002D31010C020120E0
:109C800048000120FFB3C4044C000120F0B581B0AE
:109C9000022801D9022062E00D46044681204000DE
:109CA00069460880012C0BD0002C1BD16E46002782
:109CB000B77006203146FFF7C3FCB77007270DE0E9
:109CC0006E460120B07009203146FFF7B9FC03272A
:109CD000B77002203146FFF7B3FCB77069463846CB
:109CE000FFF7AEFCA0001FA108588047204600F0F7
:109CF00081FC204600F0A4FC2968204600F02AFCE4
:109D00002979204600F048FC6979204600F05EFC85
:109D1000A979204600F088FC29460B31204600F046
:109D200045FCE979204600F079FC11A0005D297A14
:109D3000002906D01F210840012181400D48016003
:109D400009E01F210840012181400B480160BFF359
:109D50004F8FBFF36F8F094820210155002001B0BC
:109D6000F0BDC046F5A4002009A500201DA50020D7
:109D70000506070000E100E080E100E01D0201208F
:109D800010B5204C2068416C026C51180164C26B04
:109D9000914205D1C06C80472168886B086403E05C
:109DA000806C80472168086C0A6D0221904710BDC5
:109DB0000402012070B50446124E3068032C05D30E
:109DC0001C21614340184069804770BD1C256543D4
:109DD0004019C1688268511881604268914206D179
:109DE0004069804731684A194859906004E0006929
:109DF000804731684819806849198A692146904727
:109E000070BDC04604020120FEF7C6FE14A01AA1D0
:109E10001CA2FEF7E9F9002000F01EFC00681C4CB3
:109E2000A060FFF798FEFEF7EBFE0028FBD1FFF7DE
:109E300098FE002000F010FCA16801600C20FFF7E4
:109E400005F87D2000F0EEF8042000F0B3F80120C2
:109E500000F0DCF81F2000F0C7F800F0B3F8FEE7D0
:109E6000554C502052616D52756E202D2D2025735A
:109E70002C202573200D0A004465632032342032E3
:109E80003032340031353A31313A32360000000098
:109E900088000120F0B583B000240294019400945E
:109EA0002C4D2846FEF7F0FF2B4A28462146FFF7A7
:109EB00017F80226284621463246FFF73BF8694646
:109EC0000720C8720C722548019025480090012790
:109ED0003846FFF7DBFE284621462246FFF778F892
:109EE000284621463A46FFF763F8102228462146C5
:109EF000FEF7E4FF284621462246FFF72BF82846C6
:109F000021462246FFF746F8284621462246FFF71B
:109F100001F8284621463246FEF7ECFF2846214646
:109F20002246FFF727F8284621462246FFF798F8F1
:109F3000284621462246FFF773F828462146224646
:109F4000FFF75EF8284621462246FFF779F803B06E
:109F5000F0BDC04600001040007000400302000148
:109F6000404B4C00F0B581B00E460546080B15D0AD
:109F70000E4FF40A3E40009600F07CFB7E1C284603
:109F8000314600F073FAAD19641EF5D1009C002C27
:109F90000AD000F06FFB2846214603E000F06AFB80
:109FA0002846314600F062FA01B0F0BDFF0700001C
:109FB0007047000002490A7802430A707047C046A1
:109FC000183410400748017820220A430270417972
:109FD000BF220A4042711248017801220A430270EE
:109FE0007047C0464A341040024900220A70487047
:109FF0007047C0461534104007210140D64802780A
:10A00000F8231340591801707047C046414241413E
:10A01000880003490A78FB2313401818087070471A
:10A02000063410404101034A1170C1085170C00A42
:10A03000907070472434104010B50446012001464A
:10A0400000F028FACE48047010BDC046F0B582B0CA
:10A05000C3494A7ABB2313404B72CA7BEF23009358
:10A060001A40CA738A7EDE252A408A760C7FFE2239
:10A0700014400C77CC7F7F262640CE77B94C2678CB
:10A0800016402670B54CE67E1640E676267FDF2722
:10A0900037402777677FBF26374067778F7E374007
:10A0A0008F762378F8273B402370237A134023725E
:10A0B0000190012805D123793B402371237B134074
:10A0C00023730B7B33400B734B7BF72633404B736F
:10A0D0008B7B2B408B73CB7B3340CB73A37F1F26B3
:10A0E0001E40A6778B78FD261E408E70A67C0198B8
:10A0F000002806D02E40A674637C00980340637449
:10A1000002E01640A6740098237C03402374207D4F
:10A11000FB2303402375E07F1040E0770878104070
:10A12000087088781040887002B0F0BD80B50020BB
:10A13000FFF708FD80BD00000548016805220A43BD
:10A140000260704702480168052291430160704730
:10A150000420014010B50C4C6068010702D0FFF7E5
:10A1600071F910BD81060CD4000609D507480068B6
:10A17000002800D080470120C003216801432160EE
:10A1800010BDFEF7C1FD10BD3400014018020120D2
:10A19000F0B583B0029005F033FF6F48007800906F
:10A1A0000720FFF729FF012501952846FEF752FEFB
:10A1B0006A4FF87F2843F877694C2078284320704D
:10A1C000A0782843A07002263046FEF743FEF82010
:10A1D00000990840C01C6049087005F023FF217BEE
:10A1E0008020009001432173617B10221143617331
:10A1F000A17B42230B43A373217F3143217759482D
:10A20000C1783143C170237B40210B432373637BAF
:10A21000082003436373A57B21231D43A573E57BBE
:10A220000543E573B87FE0250543BD77A07830434B
:10A23000A070607A442505436572E07B1043E073AB
:10A24000A07E1843019BA076207F18432077E07FF3
:10A25000009A1043E077434A107818431070F87E54
:10A260001843F876387F202202433A77787F0843F4
:10A270007877A07E0843A076B87C0299002906D0A2
:10A2800063210843B874797C5020084309E0032116
:10A290000843B874B87C9F210140B974787C502180
:10A2A00088437874387C502101433974387D0C21FF
:10A2B0000143397539781720014339703A7A0321FF
:10A2C0000A433A72FD26029A012A354606D13A79A6
:10A2D00002433A71387B08433873BD25387D1843F3
:10A2E00038751846FEF7B6FD207B7F2101402173AB
:10A2F000617BEF2001406173A17BBD220A40A27304
:10A30000217F31402177174AD1783140D170B97C13
:10A310002940B974397DF7220A403A753A7CBF2149
:10A320000A403A743A7802403A703A7A32403A72C5
:10A33000029A012A09D17A7C0A407A74397901405B
:10A340003971387BFD2101403973387DFE21014090
:10A35000397503B0F0BDC0464F3410400030104096
:10A36000213010404130104080B505480078FFF79B
:10A370006DFE80BD80B502480078FFF709FF80BD03
:10A380001C02012010B5012293040E490C681C43E5
:10A390000C600B68002811D4FF242405A343C0B22D
:10A3A00000051818086050040B6803430B600B6825
:10A3B00083430B6010040B68834301E010040343E4
:10A3C0000B6010BD0850104010B524490B680028E0
:10A3D00016D40122940323430B60FF231B040C6853
:10A3E0009C43C0B200042018086050030B6803436C
:10A3F0000B600B6883430B6010030B68834302E020
:10A400000120000303430B6010BDC04680B5134913
:10A410000A6800281AD404231A430A60FF22120192
:10A420000B689343C0B202019A180A600A680223BB
:10A430001A430A600A689A430A600A6801239A4329
:10A440000A60411C0748FDF75DFF03E0012002435D
:10A450000A6003480449086080BDC0460C501040A3
:10A460000068890900B4C4041402012070B50C46C8
:10A470000246874D002628463146FEF7B7FD28469E
:10A4800031462246FEF71AFD28463146FEF7F0FC1B
:10A4900070BDC04610B5064A13680C24A343C0071C
:10A4A000400FC907090F08181818106010BDC046E2
:10A4B000045010400E480168012211430160816878
:10A4C000114381607047C04619480168202211433A
:10A4D00001608168114381607047C046012000021D
:10A4E00003490A6802430A608A6802438A60704727
:10A4F000185010400E4801684022114301608168E5
:10A50000114381607047C0460948016880221143A9
:10A5100001608168114381607047C04601200002DC
:10A5200003490A6802430A608A6802438A607047E6
:10A530001C501040B0B5C400054D2959002901D068
:10A5400000208847281940680121C160B0BDC0467D
:10A5500060000120F0B581B00C4680003D490E58E6
:10A56000FEF74CFCF16880273943F1600509284665
:10A570002146FDF7C7FEC1B23160010A7160604338
:10A58000281A80012146FDF7BDFEC0217050F068F9
:10A59000B843F06001B0F0BD0322114080002D4BA4
:10A5A0001858C36893435918C1607047097801224D
:10A5B0000A40C90030230B409A18C0230B40D11821
:10A5C0008000244A105881607047C0468000214AAC
:10A5D0001058C268002903D0022906D1082102E0E0
:10A5E00008210A4310218A4301E018210A43C2606E
:10A5F0007047C046800017490858882142580223F6
:10A60000134343507047C0468000124A1058C26F2F
:10A610009207FCD5016008467047C04680000D4A8D
:10A6200010589422815070474A1E91418900800041
:10A63000084A1058C26804239A435118C1607047F1
:10A64000800004490858882142580423134343508A
:10A650007047C04690A7002080000249096808584A
:10A660007047C04680000120014801210160704709
:10A670002002012010B5064C00212046FEF710FCF8
:10A680000128F9D000212046FEF7E8FB10BDC046A6
:10A690000000104070B5420064414B005C41120E56
:10A6A00039D01B0E38D0FF2A3CD0FF2B3AD0D2181D
:10A6B0007F3A40024902400A490A4518ED01060066
:10A6C0004E43000A090A48430104731A4019190C41
:10A6D0004318990F04D05B08012149075B1A521CEB
:10A6E000D80904D3401CF50301D19D0607D0FF2AE9
:10A6F00008D2D50506D0E4072043401970BD0125D6
:10A70000A843F4E7002A01DCE00770BD2402FF2023
:10A710002043C00570BD1B0EFF2A03D0FF2B01D0C4
:10A72000E00770BDFF2636064500B54206D84D004D
:10A73000B54203D8D218FF2A00D0E7E7004870BD21
:10A740000000C07F8182838485868788898B8C8D79
:10A750008E8F919293959697999A9C9D9FA0A2A374
:10A76000A5A7A8AAACAEB0B2B3B5B7B9BCBEC0C2BB
:10A77000C5C7C9CCCED1D4D7D9DCDFE2E6E9ECF04D
:10A78000F3F7FAFE0102040800005800B0000801C7
:10A79000006000400070004000800040E0A7002002
:10A7A00000000120440000000481002024A80020B3
:10A7B00044000120440000000481002080A8002003
:10A7C0000000022000C00000C48A002068A8002009
:10A7D00088000120A004000020810020000000006B
:10A7E00006480168002905D1EFF3108172B6044ACA
:10A7F00011600168491C01607047C046F4010120E6
:10A80000F801012005480168491E016000D0704729
:10A810000348006880F310887047C046F4010120A7
:10A82000F801012000E1F50500B4C40400B4C4043B
:10A8300000000000005000400000000020500040D8
:10A840000000000000100040000000000020004058
:10A850000000000000300040000000000040004008
:10A860000040002000000000000000000000000088
:10A8700000000000000000000000000000000000D8
:10A8800001FF01FF01FF01FF01FF01FF01FF01FFC8
:10A8900001FF01FF01FF01FF01FF01FF01FF01FFB8
:10A8A00001FF01FF01FF01FF01FF01FF01FF01FFA8
:10A8B00001FF01FF01FF01FF01FF01FF01FF01FF98
:10A8C00001FF01FF01FF01FF01FF01FF01FF01FF88
:10A8D00001FF01FF01FF01FF01FF01FF01FF01FF78
:10A8E00001FF01FF01FF01FF01FF01FF01FF01FF68
:10A8F00001FF01FF01FF01FF01FF01FF01FF01FF58
:10A9000001FF01FF01FF01FF01FF01FF01FF01FF47
:10A9100001FF01FF01FF01FF01FF01FF01FF01FF37
:10A9200001FF01FF01FF01FF01FF01FF01FF01FF27
:10A9300001FF01FF01FF01FF01FF01FF01FF01FF17
:10A9400001FF01FF01FF01FF01FF01FF01FF01FF07
:10A9500001FF01FF01FF01FF01FF01FF01FF01FFF7
:10A9600001FF01FF01FF01FF01FF01FF01FF01FFE7
:10A9700001FF01FF01FF01FF01FF01FF01FF01FFD7
:10A9800001FF01FF01FF01FF01FF01FF01FF01FFC7
:10A9900001FF01FF01FF01FF01FF01FF01FF01FFB7
:10A9A00001FF01FF01FF01FF01FF01FF01FF01FFA7
:10A9B00001FF01FF01FF01FF01FF01FF01FF01FF97
:10A9C00001FF01FF01FF01FF01FF01FF01FF01FF87
:10A9D00001FF01FF01FF01FF01FF01FF01FF01FF77
:10A9E00001FF01FF01FF01FF01FF01FF01FF01FF67
:10A9F00001FF01FF01FF01FF01FF01FF01FF01FF57
:04AA000001FF0183CE
:04000005200080C196
:00000001FF
