:020000040800F2
:10010000201300209D030008394F00083B4F0008D2
:1001100000000000000000000000000000000000DF
:100120000000000000000000000000003D4F00083B
:1001300000000000000000003F4F0008414F000891
:10014000434F00084D4F0008574F0008614F00080B
:100150006B4F0008734F0008754F0008774F000879
:10016000794F00087B4F00087D4F00087F4F000843
:10017000AF030008814F0008834F0008AF03000859
:10018000AF0300088B4F0008AF030008AF0300085F
:10019000AF030008AF030008AF030008AF03000877
:1001A0008D4F00088F4F0008914F0008934F0008B3
:1001B000954F0008974F0008994F00089B4F000883
:1001C00000F002F800F0BDF80CA030C80838241880
:1001D0002D18671EA246AB4654465D46AC4201D17F
:1001E00000F0AFF87E460F3EB6460FCC01263342F4
:1001F00000D0FB1A3343A246AB46184764A0000068
:10020000B4A00000103A02D378C878C1FAD85207D7
:1002100001D330C830C101D504680C6070470000BC
:100220000023002400250026103A01D378C1FBD812
:10023000520700D330C100D50B60704710B56E294E
:1002400002D106F05BFB10BD702902D106F08BFCD9
:1002500010BD662902D109F0E7FB10BD652902D166
:1002600009F0E2FB10BD672902D109F0DDFB10BDEA
:10027000612902D109F0E0FB10BD03681B0A01D31C
:1002800080231943692902D106F002FB10BD6429BD
:1002900002D106F0FDFA10BD752902D106F0F8FA78
:1002A00010BD6F2902D106F009FC10BD782902D1DA
:1002B00006F046FC10BDE92902D106F0A5FB10BDF1
:1002C000E42902D106F0A0FB10BDF52902D106F009
:1002D0009BFB10BDEF2902D106F0FCFB10BDF829F5
:1002E00002D106F03BFC10BD0368DB0901D380237B
:1002F0001943632902D107F036F910BD732902D1E1
:1003000007F039F910BDE32902D107F043F910BD18
:10031000F32902D107F046F910BD002010BD1FB52A
:1003200007F082F904000020002109F00FFB401CB7
:1003300060600020002109F0F3FAE0601FBD10B5F5
:1003400010BD04488546FFF7EAFF00F0B9F807F052
:10035000DFFC00000010002003B4FFF7F0FF03BC37
:1003600000F095F870B505460C46164602E00FCC35
:100370000FC5103E102EFAD2082E02D303CC03C5AF
:10038000083E042E07D301CC01C5361F03E02178B7
:100390002970641C6D1C761EF9D270BD0748804719
:1003A00007480047FEE7FEE7FEE7FEE7FEE7FEE759
:1003B00004480549034A044B7047000095070008AC
:1003C000C1010008201300202013002080B582B056
:1003D0000190009101A80178002004F05DF802B0BE
:1003E00080BD80B582B001900020009004F0AAF892
:1003F0000146009804F050F802B080BD81B0009032
:100400000020C04301B0704782B0019000910120EC
:10041000000202B0704781B00090002001B0704728
:1004200084B00390029101920093002004B07047C1
:1004300084B00390029101920093002004B07047B1
:1004400080B582B0019001A80178002004F024F862
:1004500002B080BD81B00090012001B0704782B031
:10046000019000910020C04302B0704781B000901D
:10047000002001B0704781B00090002001B07047AB
:1004800083B0029001910092002003B0704781B0C8
:100490000090FFE7FEE781B00090002001B07047B8
:1004A00080B582B00190019800F06EFA02B080BD74
:1004B00080B582B00190019800F09BFA02B080BD37
:1004C000F0B59BB0002007901A90169015901490EC
:1004D00013901290119010900F900E900D900C9020
:1004E0000B900A90099000F0E5F8674803902321EB
:1004F000C9004018654906910860022004906449CB
:1005000004F006FB049A0798E1210903179117A943
:100510004A71887103220A71CA7A012305931A432A
:10052000CA7200F083FC00F061F900F0C3F8039890
:1005300005F0FCFB00F0C0FE01F05CFB00F0C2F82F
:100540000499079A059B109C0C4310A8089004700E
:10055000109C1C430470109C04252C430470109CB8
:1005600010252C4304700478F7252C4004708478FF
:10057000C57806790671C5704170F0252C408470ED
:100580008478457845700F252C4030348470C270D3
:10059000C47945788678C778827982710698089AF6
:1005A0005171079A08990A71CF708E704D70CC7195
:1005B000CA7140228A715B020B8160234B818A8160
:1005C0000068149008781F221040203008703148CD
:1005D000159031481690052000F026FF1098C006AF
:1005E000C00F002823D0FFE72C480F902C480E9016
:1005F0002C480D902C480C900AA902910878FE22F4
:1006000010400870087801221040001D0870082072
:10061000487028238B706423CB700A7102224A71C0
:1006200088713220C871062000F0FEFEFFE705F059
:1006300099FA002008F0B8FC08F0AAFCFFE7FFE7F1
:100640001A480068002802D1FFE700BFF8E700F071
:1006500071F809900998002814D0FFE71448006841
:100660002321C90005F0F8FA0998032101914903F3
:1006700005F0F2FA01990948090205F0EDFA08F0CF
:1006800087FCFFE7DBE7C04600000120E8110020FF
:1006900000B4C404FD0600081907000820C10120A9
:1006A00020C4012020C70120204E0000F0110020AE
:1006B0007010002080B504F047FB04F029FB04F023
:1006C000BDFB80BD80B584B00A48416803910068D5
:1006D00002900320009002A9019100F0A5FE00986D
:1006E0000199054A039202224A7000F09DFE04B06F
:1006F00080BDC046849B00080014014004490120CD
:100700000860044801688868401C88607047C046DB
:10071000F0110020701000200449022008600448F5
:1007200001688868401C88607047C046F01100204E
:100730007010002080B582B00020019009F0AEF862
:100740000E480068012804D1FFE70D4800680190B9
:100750000CE00A480068022807D1FFE70848006853
:100760000321490340180190FFE7FFE703490020F8
:10077000086009F099F8019802B080BDF0110020DE
:10078000E811002001490248086070476810002005
:1007900000E1F50580B5054805490860052000F031
:1007A0000DF862B603490448086080BD00010008E6
:1007B00008ED00E06810002000E1F50581B0014679
:1007C00068460170007840B200280DD4FFE7684603
:1007D00001781F20014001208840AD490860BFF327
:1007E0004F8FBFF36F8FFFE701B0704780B586B0C2
:1007F00003F0F4FB04A8009003F006FC009801222B
:100800000292027000210191C170827003F00EFC0F
:10081000009803F0F9FB0098019A02990170C270E8
:1008200003F004FC019803F05BFC029803F058FC11
:100830000420039000F006F8039800F019F806B0C1
:1008400080BDC04681B0014668460170007840B264
:10085000002809D4FFE7684601781F2001400120E5
:10086000884002490860FFE701B0704780E200E07D
:1008700081B0014668460170007840B2002809D472
:10088000FFE7684601781F200140012088400249A7
:100890000860FFE701B0704700E100E010B58CB0E0
:1008A00004460BA804700AAC2170099208930078E2
:1008B00003F068FC00280DD0FFE70BA80490007837
:1008C00003F020FC0420FFF7BDFF0498007803F03C
:1008D0002BFCFFE705A8019003F096FB01980A990D
:1008E00001700BA90391097803F0A0FB099802900D
:1008F00004F0F0F9094905F0D5FB029A0146039886
:10090000514307910078079A002103F0C9FB03982F
:100910000078089903F026FC0CB010BD40420F008F
:1009200080B588B007AB0393187006A802900170D9
:1009300005920598019004F0CDF9084905F0B2FB45
:10094000019B0299024603985A4304920078097861
:10095000049A03F0A5FB08B080BDC04640420F00DA
:1009600080B582B0014601A80170007803F0B8FBA1
:1009700002B080BD80B582B0014601A80170007848
:1009800003F0C0FB02B080BD80B584B00390039833
:10099000019004F09FF9064905F084FB0199484352
:1009A00002900298012100F005F804B080BDC04615
:1009B00040420F0080B584B0039002A801700398F4
:1009C000002814D0FFE702A8007803F0BDFB0190D7
:1009D000FFE702A8007803F0B7FB0090FFE701985B
:1009E0000099401A03998842F3D3FFE7FFE704B068
:1009F00080BD80B582B0019001997D20C000484340
:100A0000FFF7C2FF02B080BD80B582B0012003F0C5
:100A10009BFB0190019802B080BDC04680B584B0B8
:100A200003900020029004F055F9084905F03AFBC4
:100A30000190012003F088FB029003980299401A6C
:100A4000019905F02FFB04B080BDC04640420F0065
:100A500080B5042000F004F803F0C4FA80BDC0465D
:100A600081B0014668460170007840B200280DD47C
:100A7000FFE7684601781F200140012088400449B3
:100A80000860BFF34F8FBFF36F8FFFE701B0704770
:100A900080E100E080B584B003A90291087003F002
:100AA00035FF094901910120087203F03DFF01461D
:100AB00001984172407A03F03DFF0298007800F0FF
:100AC00005F804B080BDC0467410002080B586B023
:100AD000014605A8017000210491007801900528C5
:100AE0002BD80198810001A040588746050B0008CB
:100AF0000D0B0008170B00081F0B0008290B00083E
:100B0000310B00081848029003901AE01648029032
:100B10001448039015E013480290039011E0114827
:100B200002900E4803900CE00C480290039008E0FD
:100B30000A4802900A48039003E00020C043049052
:100B4000FFE70498002805D1FFE70399029800F019
:100B500027F8FFE7049806B080BDC046005A62023D
:100B6000002D310100B4C4040068890901484068BF
:100B70007047C04674100020014800687047C046A6
:100B8000741000200148407A7047C046741000205D
:100B900080B50248407A03F0ABFF80BD741000209E
:100BA00080B584B00391029001A9002008700399D8
:100BB000029800F043F8002803D0FFE700F074F833
:100BC00005E014490020087203F0ECFEFFE7022064
:100BD00003F0F2FE029800F071F8014601A80170DE
:100BE0000078002801D0FFE703E002980949086077
:100BF000FFE7039800F0B2F8014601A80170007801
:100C0000002801D0FFE703E0039802494860FFE7AE
:100C100004B080BD7410002080B582B001900198AE
:100C20000090054800687D21C90005F03BFA009955
:100C3000484302B080BDC0467410002083B00291CA
:100C4000019069460020087002981449884204D334
:100C5000FFE76946012008701CE001980F498842AF
:100C600004D3FFE769460120087012E001980C499F
:100C7000884209D1FFE70B48407A002804D1FFE7FA
:100C800069460120087003E0694600200870FFE70C
:100C9000FFE7FFE76846007803B07047005A62023A
:100CA00000B4C4047410002080B503490120087208
:100CB000002003F045FE80BD7410002080B584B094
:100CC000039002A9FF20087001A900200870039872
:100CD00000901E49884212D0FFE700981C498842C4
:100CE00009D0FFE700981B49884220D1FFE702A9FD
:100CF000FF2008701FE002A9002008701BE01648C2
:100D0000007A002804D0FFE702A9012008700DE056
:100D10001148407A012801D1FFE706E00E48407AE9
:100D2000002801D1FFE7FFE7FFE7FFE703E001A9A4
:100D3000FF200870FFE702A8007840B203F068FEC9
:100D400001A8007840B204B080BDC046005A6202DB
:100D500000B4C404006889097410002080B584B010
:100D6000039002A9FF20087001A9002008700398D1
:100D70000090294988422FD0FFE7009827498842F0
:100D800012D0FFE700982649884209D0FFE7009873
:100D90002449884232D1FFE702A9FF20087031E0E0
:100DA00002A9002008702DE01F48007A002804D016
:100DB000FFE702A9012008700DE01B48407A0128D6
:100DC00001D1FFE706E01848407A002801D1FFE78B
:100DD000FFE7FFE7FFE715E01348007A002804D09B
:100DE000FFE702A90220087007E00F48407A0128B7
:100DF00001D1FFE700E0FFE7FFE703E001A9FF20E3
:100E00000870FFE702A8007840B203F041FE01A895
:100E1000007840B204B080BD002D3101005A62025A
:100E200000B4C404006889097410002080B584B03F
:100E3000024602A8027001910078032804DBFFE754
:100E400003A90220087043E002A80090007800F097
:100E500045F80098007800F07DF80098007803F0DD
:100E600037FD0098007803F021FD00980078019983
:100E7000096803F0C5F9009800780199097903F031
:100E800087FA009800780199497903F0A1FA00984F
:100E900000780199897903F0CDFA009800780199DA
:100EA0000B3103F0D9FC009800780199C97903F05F
:100EB000E1FA009800780199097A00F059F8009851
:100EC000027805492020885403A900200870FFE714
:100ED00003A8007804B080BDFC12002080B588B063
:100EE000014607A8017006AA002191701180022115
:100EF00011700121517000780590002808D0FFE79B
:100F00000598012813D0FFE7059802281ED01EE09F
:100F100006A90391002004908870062004F0A4FA2A
:100F2000039904988870072004F09EFA10E006A93F
:100F30000191002002908870082004F095FA019930
:100F400002988870092004F08FFA01E000E0FFE7C2
:100F500008B080BD80B582B0014601A8017000785C
:100F6000810002484058804702B080BDF09C0008D4
:100F700080B582B001AA1070684601700078002820
:100F800007D1FFE701A801780648405600F064F950
:100F900006E001A801780348405600F077F9FFE722
:100FA00002B080BD089D000880B582B0014601A84E
:100FB00000900170007800F009F80098027802496A
:100FC0000020885402B080BDFC12002080B582B0A1
:100FD000014601A80170007881000248405880470E
:100FE00002B080BDE49C000881B0014668460170F3
:100FF00001780248405C01B07047C046FC120020F6
:1010000010B586B001920A460199044605A80470FD
:10101000049203AA1180029304780D4B21211955E3
:1010200000780499128803F053FAFFE705A80078C6
:10103000002103F09FFA002801D1FFE7F6E705A899
:101040000278034920208854002006B010BDC04615
:10105000FC12002010B586B0044604A80470039169
:1010600002A90A8001930078032804DBFFE705A9A1
:101070000220087031E004A80078FFF7B5FF2028AF
:1010800004D0FFE705A90A20087026E004A802782A
:10109000144922208854694600200880FFE76846EA
:1010A000008802A9098888420EDAFFE704A80078C0
:1010B00003F048FA03996A4612888854FFE70098BB
:1010C000401C69460880EAE704A802780549202008
:1010D000885405A900200870FFE705A8007806B02D
:1010E00010BDC046FC12002010B588B006900591D6
:1010F00004A8028006980078032804DBFFE707A90C
:10110000022008701BE0069801690391059902917D
:10111000007803F0EFFB02990246039804AB1B88AA
:101120000124009402F0DBFB002804D0FFE707A9AC
:101130000A20087003E007A900200870FFE707A84D
:10114000007808B010BD10B586B00490039102A8D5
:10115000028004980078032804DBFFE705A9022039
:10116000087019E0049841690191007803F0C2FB0E
:1011700001460198039A02AB1B880124009402F0F7
:10118000AEFB002804D0FFE705A90A20087003E0A1
:1011900005A900200870FFE705A8007806B010BD7B
:1011A00010B588B00690059104A8028006980078D2
:1011B000032804DBFFE707A9022008701BE006985C
:1011C0000169039105990291007803F093FB02995C
:1011D0000246039804AB1B880124009402F048FAED
:1011E000002804D0FFE707A90A20087003E007A938
:1011F00000200870FFE707A8007808B010BD10B500
:1012000086B00490039102A8028004980078032815
:1012100004DBFFE705A90220087019E00498416982
:101220000191007803F066FB01460198039A02AB36
:101230001B880124009402F01BFA002804D0FFE769
:1012400005A90A20087003E005A900200870FFE73F
:1012500005A8007806B010BD81B00146684601704F
:10126000007840B200280DD4FFE7684601781F20BF
:1012700001400120884004490860BFF34F8FBFF34D
:101280006F8FFFE701B0704780E100E081B0014659
:1012900068460170007840B2002809D4FFE768462C
:1012A00001781F2001400120884002490860FFE7C3
:1012B00001B0704700E100E080B507F02FFB024865
:1012C00007F052FB80BDC046CD120008B0B584B017
:1012D000014603A80170007803280ADBFFE72648CF
:1012E000006803A90A781C215143401840698047CF
:1012F0003FE02148036803AA15781C210C466C4383
:101300001C19E568A3685B19A36000681278514353
:10131000411888684968884216D1FFE7164800904E
:10132000006803A901910A781C21029151434018D9
:101330004069804700980199029A006809784A43F9
:1013400081188058886009E00B48006803A90A7872
:101350001C215143401800698047FFE70648006898
:1013600003A909781C224A43801882698068904743
:10137000FFE704B0B0BDC0466C10002070B583B06C
:1013800002AB1870019100920B4908681D781C226D
:1013900014466C4304190948A06100980C681E7833
:1013A0001546754364196061019809681B785A43B2
:1013B0008918086103B070BD6C100020C1130008CB
:1013C00080B584B0039002A80170002101910078DB
:1013D000002804D1FFE7039807F006FA1BE002A8F3
:1013E0000078012805D0FFE702A80078022811D173
:1013F000FFE703980949096802AA13781C225A4397
:101400008918C9684908401801900398019907F0A4
:10141000D9F9FFE7FFE704B080BDC0466C1000209B
:1014200080B507F061FA80BD10B58EB002460DA8F8
:1014300002700C9100210B910A910078049006280B
:1014400000D993E00498810001A040588746C04627
:101450006D140008751400089F1400082B1500086F
:10146000551500085D150008651500080C9800F07A
:1014700081F87BE00C980B900B990878421E904104
:10148000497807F017FB0B980078002806D0FFE793
:101490000B994868497807F0FBFAFFE766E00C987B
:1014A0000A900A98408800F0D7F8024605A90291F0
:1014B00008781F231A40E0231840801808700A9803
:1014C00002780878120120231A40DF231840801880
:1014D00008700A98808848800A9800888008888068
:1014E0000A98C088C8800A98008908810A98C0684C
:1014F00008900A98006909900A9840691C4909688F
:1015000088660A98008801210391084007F022FAB2
:10151000089B079A06990598099C009407F076FAAB
:101520000398032107F024FA20E00C980B900B9904
:101530000878421E9041497807F0B4F90B9800787A
:10154000002806D0FFE70B994868497807F08EF924
:10155000FFE70BE00C9800F0DBF807E00C9800F0D8
:1015600079F903E00C9800F053FAFFE70EB010BDD4
:101570006C10002080B586B0059005980490344822
:101580000068009004980078C007002852D0FFE758
:10159000049800888007C00F01A90880049840883B
:1015A000488004980088C0088880049840680390A8
:1015B00004980188C9084088484340000099C860E1
:1015C0000099C868049A12889207D20F4243801883
:1015D000C86000991F488861049840680099886035
:1015E00000990860049800884007C00F00280CD0BC
:1015F000FFE70498806800990861049840680099A2
:10160000CA6852008018486006E004984068009953
:10161000CA6880184860FFE70498C068009948616C
:10162000039A0299019807F0EDF80120002107F0D4
:101630009FF904E00021084607F09AF9FFE70498B3
:1016400000880121084007F007F906B080BDC046B8
:101650006C100020C113000883B0014602A801806D
:101660000021C943019100880090022845D0FFE77E
:10167000009804283ED0FFE70098082837D0FFE7FD
:101680000098102830D0FFE70098202829D0FFE7E5
:101690000098402822D0FFE7009880281BD0FFE761
:1016A000009801210902884212D0FFE70098012129
:1016B0004902884209D0FFE7009801218902884247
:1016C0001ED1FFE70A2001901EE0092001901BE0D7
:1016D0000820019018E00720019015E006200190F5
:1016E00012E0052001900FE0042001900CE003209F
:1016F000019009E00220019006E00120019003E042
:101700000020C0430190FFE7019803B07047C04636
:1017100010B58AB00990099808904B4800681C30B1
:10172000029008980078C007002800D17FE0089850
:1017300000880009FFF790FF024603A9019108887D
:101740001207D20E1E2398438018088008883F4A4B
:1017500010400880089880884880089840880F22A8
:1017600010408880089840880009C8800898C08880
:101770000881089800884007C20F08880123984311
:101780008018088008988068069008998868CA8838
:10179000898851438900401807900898C18880883B
:1017A000484380000299C8600299C868089A128864
:1017B0005207D20F42438018C860029924488861BA
:1017C00008988068029988600299086008980088E3
:1017D0000007C00F00280CD0FFE70898C0680299E6
:1017E0000861089880680299CA68520080184860A9
:1017F00006E0089880680299CA6880184860FFE788
:101800000898006902994861089800888007C00F0D
:1018100007F060F8069B059A04990398079C0094CA
:1018200006F03AFF0121084607F0A2F804E0002084
:10183000012107F09DF8FFE7089800880121084082
:1018400006F064FF0AB010BD6C1000201F8000007D
:10185000C1130008B0B58EB00D900D980C9067487C
:101860000068383005900C980078C007002800D137
:10187000BCE00C990879497909024018FFF7ECFEA1
:1018800006A9049148800C98C17909048079000266
:101890004018000AFFF7E0FE049988800C98007851
:1018A0004007C20F088801239843801808800C98CD
:1018B000427808885206D20D514B18408018088093
:1018C0000C9AD37810790002C018000492781202A2
:1018D0008018020B088852024A4B18408018088072
:1018E0000C980089C8800C98027808889208022316
:1018F0001A409843801808800C98408908810C98F9
:10190000808948810C98006909900C9908694A8976
:1019100089895143890040180A900C98418980892F
:10192000484380000599C8600599C8680C9A1278E8
:101930001207D20F42438018C86005993248886167
:101940000C98006905998860059908600C980078E2
:10195000400900280CD0FFE70C9840690599086100
:101960000C9800690599CA6852008018486006E022
:101970000C9800690599CA6880184860FFE70C98C0
:101980008069059948610C9800788007C00F06F0BF
:10199000A1FF099B089A079906980A9C0B9D01953F
:1019A000009406F0BBFE0C980078C006C00F00281B
:1019B0000CD1FFE70020039006F032FA039806F0FE
:1019C0003BFA0120022106F0D3FF0EE000200221A5
:1019D00006F0CEFF0D4806F02BFA0120029006F02B
:1019E0001FFA029806F028FAFFE7FFE70C98007844
:1019F0000121084006F0DCFE0EB0B0BD6C100020E6
:101A000003FE0000FF010000C1130008B91A00081E
:101A100080B582B00190019A507811784908927887
:101A200000F092F801998870019A5078117849086D
:101A3000D27800F089F80199C870019A90795179AB
:101A4000D27900F081F80199C8710198406806F0D8
:101A500031FA0198006806F00FFA0198806806F0E4
:101A6000C1F9019842690169C06806F0C1F902B084
:101A700080BD80B5002006F049FE80BD80B5012004
:101A800006F044FE80BD80B5002006F091FE80BDCA
:101A900080B5012006F08CFE80BD80B582B0014685
:101AA00001A801700078032803D1FFE706F0E6FFE4
:101AB00000E0FFE702B080BDB0B584B003AA022009
:101AC00010702048036815781C210C466C431C19C3
:101AD000E568A3685B19A360006812785143411858
:101AE00088684968884216D1FFE716480090006868
:101AF00003A901910A781C210291514340184069C1
:101B0000804700980199029A006809784A43811831
:101B10008058886009E00B48006803A90A781C21F6
:101B20005143401800698047FFE70648006803A951
:101B300009781C224A43801882698068904704B063
:101B4000B0BDC0466C10002080B588B00B46014681
:101B500007A8017006A90B7005AB1A800022049239
:101B600003AB1A8000780978401A02900298012885
:101B700003D1FFE70120049017E00298022803D167
:101B8000FFE7022004900FE00298052803D8FFE742
:101B90000420049007E00298082803D8FFE70820F3
:101BA0000490FFE7FFE7FFE7FFE705A8008804F0E0
:101BB00009FE0090049804F005FE0146009807F025
:101BC000DBFE0190029804F0FDFD0146019804F04F
:101BD0001DFD04F0F1FC0022054B04F099FC04F01B
:101BE000C7FC014603A80180008808B080BDC0463C
:101BF0000000E03F80B5D2B009495120820001A821
:101C00000090FEF7AFFB009800F00EF8002804D01B
:101C1000FFE7044804F0F6F9FFE752B080BDC04684
:101C20008C9B00085C9D000880B5B2B031900FA974
:101C300000200C9088700880C0430D9003F068F875
:101C400031982EA90B9100F086F80B9807F0B8F99F
:101C50000C980EA90870FFE70EA80078072813D883
:101C6000FFE70EA80990007831992CAA0A9200F09B
:101C70008AF809980A99007807F0ECFDFFE70E98BA
:101C8000401C0EA90870E7E70EA900200870FFE7C6
:101C90000EA80078072824D8FFE70EA80790007840
:101CA00031991AAA089200F07FF8079808990078ED
:101CB00006F098FF2398002808D0FFE723980D9995
:101CC000884203D2FFE72398069002E00D98069021
:101CD000FFE706980D90FFE70E98401C0EA90870CC
:101CE000D6E70EA900200870FFE70EA800780728A5
:101CF00013D8FFE70EA804900078319916AA059230
:101D000000F0E2F804980599007807F063FDFFE71A
:101D10000E98401C0EA90870E7E7319810A90191B0
:101D200000F01AF9019807F0CFF80D9800F043F988
:101D300007F06CF8319826A9029100F05CF902983E
:101D400007F070F80FA800210391017007F0A6F8C2
:101D5000039832B080BD80B582B0019000910198A7
:101D600000F01EFA411E8841009908700198007821
:101D7000009948700098801C0199491C072204F0C2
:101D80004FF902B080BD83B002AB18700191009290
:101D90000099012008600099022008710099002034
:101DA000487103B07047C04610B586B00092034634
:101DB000009805AA137004910390049814781821D0
:101DC0000B466343C0188068039B1860049814781E
:101DD0000B466343C018C068039B5860049814788E
:101DE0000B466343C0180069039B986004981478FD
:101DF0000B466343C0184069039BD860049812786F
:101E00005143401880690399086103990020C86113
:101E100003990120087503995020886103990620D1
:101E2000086203980169C0684843264988420AD37A
:101E3000FFE7039908687D221201801888620399E0
:101E40008220C86205E00399002088620399C86275
:101E5000FFE703998A69086A5043C96A40180290EB
:101E600002981921090140180190049805A90A78DF
:101E7000182151434018C069002804D1FFE7039995
:101E8000002048621CE0049805A90A7818215143F3
:101E90004018C069019988420CD9FFE7049805A948
:101EA0000A78182151434018C0690299401A0399D1
:101EB000486204E00399192000014862FFE7FFE748
:101EC00006B010BD81841E0010B584B00092034698
:101ED000009803AA137002910190029814780C21C3
:101EE0000B466343C018C823C05C019B187002985E
:101EF00014780B466343C018C923C05C019B58701B
:101F0000029814780B466343C018CA23C05C019B37
:101F10009870029814780B466343C018CB23C05CBA
:101F2000019BD870029814780B466343C018CC23E9
:101F3000C05A019B98800298127851434018D021D2
:101F400040580199C8600199002088710199C871B1
:101F50000199886004B010BD83B00290019102988D
:101F60002521C90040580199086002984B21890039
:101F700040580199486000200090FFE7009807282A
:101F80000ED8FFE70298009A801813210901405CDF
:101F9000019989180873FFE70098401C0090EDE74D
:101FA00002982721C900405C019908750199002019
:101FB000886003B0704782B001900198C00801901A
:101FC0000198312804D8FFE76946142008700EE014
:101FD000019840088F2804D3FFE76946FF20087066
:101FE00004E001981E3869460870FFE7FFE768467D
:101FF000007802B0704782B00190009101984F21A3
:102000008900405C009948700198407800990870F8
:1020100001989F214900405A0099C88001980521E4
:102020008901405C0099C8700198FF214231405CF1
:102030000099087100990020887000990872009931
:10204000487200997820488100998881009A7D2102
:102050004801D081009A08011082009BCA005A8270
:10206000009A890191820099C88202B0704780B5B8
:1020700082B001A90091087002F04AFE0098007831
:1020800006F0A4FD002002B080BD80B506F086FFFA
:1020900007F062FB80BD80B507F066FB06F078FFB5
:1020A00080BD80B502F050FE002080BD80B586B0B6
:1020B000002004900390029007F0C2F9014605A8A1
:1020C00001700078FF2811D1FFE705A8019000F00A
:1020D000C9F9019802A904220A7000224A708A7084
:1020E0000122CA70007800F09BF8FFE705A800788D
:1020F00007F06EF906B080BD80B507F07BF980BDB2
:1021000080B507F0C3FB80BD80B507F0B3FB80BD91
:1021100080B584B0024603A80270029101AA002192
:1021200011700078C1000A484058002808D0FFE725
:1021300003A80078C100064841580298884703E088
:1021400001A908200870FFE701A8007804B080BD4D
:10215000149D000880B584B0024603A80270029165
:1021600001AA002111700078C1000C484018406895
:1021700000280AD0FFE703A80078C10007484018EC
:10218000406880470299086003E001A908200870B0
:10219000FFE701A8007804B080BDC046149D000888
:1021A00083B0029001A901200870694600200870E0
:1021B000FFE768460078072827D8FFE702986946B6
:1021C0000A7818215143401880681349884212D870
:1021D000FFE7029869460A781821514341188A6836
:1021E0007D20C00050434A698969514340180B491A
:1021F000884204D3FFE701A90020087005E0FFE74B
:102200000098401C69460870D3E701A800780121B6
:10221000084003B07047C04660EA0000018793039E
:10222000B0B588B0024607A8049002700691007805
:1022300000F05EF8049800780699097803F02AFB0C
:10224000049A06980378107803210C4644432748E3
:102250000355069B5B7815780C466C430419637034
:10226000127851434118012088700698C0780028E0
:102270000CD0FFE707A8039000780699496803F09F
:1022800045FC0398007803F02FFB04E007A80078D2
:1022900003F078FBFFE706988068401C002804D113
:1022A000FFE70020C043029007E007A800780699E6
:1022B000896800F043F80290FFE70298059007A8AC
:1022C00001900078059903F0EDFB019800780599DD
:1022D00003F0C6FB06988078002805D0FFE707A822
:1022E000007803F085FBFFE708B0B0BDA512002021
:1022F00080B582B0014601A80170007800900328E3
:1023000018D80098810001A0405887461D23000876
:1023100023230008292300082F23000802F0DCFDF6
:1023200009E002F0DFFD06E002F0E2FD03E002F06A
:10233000E5FD00E0FFE702B080BDC04680B58AB091
:1023400009AA019210700891FEF716FC0146019847
:1023500005910078032141432248405C04A9029181
:1023600008700598204903F09DFE014602980691E9
:102370000078039004282ED80398810001A04058CB
:102380008746C046A3230008AF230008BB230008EC
:10239000C723000899230008089906984843079026
:1023A0001DE00899069848430009079017E008992E
:1023B000069848434009079011E008990698484359
:1023C000800907900BE0089840017D21C90003F0C7
:1023D00069FE079003E00020C0430790FFE70798DD
:1023E0000AB080BDA512002040420F0080B582B027
:1023F000014601A800900170007800F00DF80098E7
:10240000007803214143034841180020887002B03E
:1024100080BDC046A512002080B582B0014601A84B
:10242000017000780090032818D80098810001A05E
:1024300040588746452400084B24000851240008D2
:102440005724000802F060FD09E002F063FD06E099
:1024500002F066FD03E002F069FD00E0FFE702B074
:1024600080BDC04683B00290694600200870FFE737
:1024700068460078032811DCFFE7684600780321EE
:102480004143124840188078002801D1FFE705E059
:10249000FFE70098401C69460870E9E76846007845
:1024A000032807DCFFE700980299087001A90020C3
:1024B000087006E00299FF20087001A90A20087040
:1024C000FFE701A8007803B07047C046A5120020BE
:1024D00080B586B0034605A801900370049103926D
:1024E000007803F099FA0198007803F0EDFA01986A
:1024F00000780499FFF722FF0146019802910078C5
:10250000029903F0CFFA01980078002103F0A8FAAD
:1025100001980078039903F0F9FA06B080BD80B500
:1025200082B0014601A80170007803F061FA02B0A0
:1025300080BD80B582B0014601A80170007803F02B
:102540006BFA02B080BDC04680B584B0014603A8D6
:1025500001900170007803F073FA0146019802912E
:10256000007803214143084840184078002803D1EF
:10257000FFE70298009003E00298C0430090FFE755
:10258000009804B080BDC046A512002080B584B07C
:1025900002900298002805D1FFE703A901200870E6
:1025A00000F07EFC0298006801900298406800905C
:1025B0000198FE49884201D1FFE705E0FC48FD4A49
:1025C000FD4B6D2100F088FC009800280CD0FFE73F
:1025D0000098012808D0FFE70098022804D0FFE700
:1025E0000098032801D1FFE705E0F148F14AF34BD9
:1025F0006E2100F071FC0298C0680007400F0028AF
:1026000023D0FFE70298C0680007400F01281CD0C4
:10261000FFE70298C0680007400F022815D0FFE7C7
:102620000298C0680007400F03280ED0FFE7029809
:10263000C0680007400F042807D0FFE70298C06871
:102640000007400F052801D1FFE705E0D848D94A27
:10265000DB4B702100F040FC0298C0684006400F40
:10266000002823D0FFE70298C0684006400F0128E9
:102670001CD0FFE70298C0684006400F022815D022
:10268000FFE70298C0684006400F03280ED0FFE71E
:102690000298C0684006400F042807D0FFE7029860
:1026A000C0684006400F052801D1FFE705E0C0489B
:1026B000C04AC44B712100F00FFC0298C068C005ED
:1026C000800F00280ED0FFE70298C068C005800F79
:1026D000012807D0FFE70298C068C005800F0228D4
:1026E00001D1FFE705E0B248B24AB74B722100F0D2
:1026F000F3FB0298C0684005800F00280ED0FFE76A
:102700000298C0684005800F012807D0FFE70298B3
:10271000C0684005800F022801D1FFE705E0A4480A
:10272000A44AAA4B732100F0D7FB0298C06880042A
:10273000400F002831D0FFE70298C0688004400FA6
:1027400001282AD0FFE70298C0688004400F0228C1
:1027500023D0FFE70298C0688004400F03281CD0F4
:10276000FFE70298C0688004400F042815D0FFE7F7
:102770000298C0688004400F05280ED0FFE7029839
:10278000C0688004400F062807D0FFE70298C068A1
:102790008004400F072801D1FFE705E08448854AFF
:1027A0008B4B742100F098FB0298C068C003400F67
:1027B000002831D0FFE70298C068C003400F01280D
:1027C0002AD0FFE70298C068C003400F022823D038
:1027D000FFE70298C068C003400F03281CD0FFE742
:1027E0000298C068C003400F042815D0FFE7029884
:1027F000C068C003400F05280ED0FFE70298C068EC
:10280000C003400F062807D0FFE70298C068C00346
:10281000400F072801D1FFE705E06548654A6D4B89
:10282000752100F059FB0298C0688003C00F002892
:1028300007D0FFE70298C0688003C00F002801D0CE
:10284000FFE705E05A485B4A634B762100F044FB02
:102850000298C0684003C00F002807D0FFE7029825
:10286000C0684003C00F002801D0FFE705E05048D2
:10287000504A5A4B772100F02FFB0298C068400263
:10288000400F002831D0FFE70298C0684002400F97
:1028900001282AD0FFE70298C0684002400F0228B2
:1028A00023D0FFE70298C0684002400F03281CD0E5
:1028B000FFE70298C0684002400F042815D0FFE7E8
:1028C0000298C0684002400F05280ED0FFE702982A
:1028D000C0684002400F062807D0FFE70298C06892
:1028E0004002400F072801D1FFE705E03048314A98
:1028F0003B4B782100F0F0FA0298C0680001C00F4D
:10290000002807D0FFE70298C0680001C00F002828
:1029100001D0FFE705E02648264A324B792100F036
:10292000DBFA0298C068C000C00F002807D0FFE79C
:102930000298C068C000C00F002801D0FFE705E082
:102940001B481C4A284B7A2100F0C6FA0298007DE9
:102950004007002851D0FFE70298808A07210840ED
:1029600001284AD0FFE70298808A07210840022800
:1029700043D0FFE70298808A0721084003283CD013
:10298000FFE70298808A07210840042835D0FFE736
:102990000298808A0721084005282ED0FFE7029878
:1029A000808A07210840062827D01FE00000104039
:1029B00018A2000842A20008B3A10008C9A100089B
:1029C000BB9F00088A9F0008ED9D0008B79D000886
:1029D000559F0008209F0008E5A0000819A10008E5
:1029E000909D0008B6A0000887A000080298808A81
:1029F00007210840072801D1FFE705E0F848F94A18
:102A0000F64B7B2100F068FA02994122022088549B
:102A1000FFE70299402200208854FFE701980099BF
:102A200005F0A0FAFFE70198009905F073FB002874
:102A300001D0FFE7F7E701980099002205F0DCFCE0
:102A40000198009905F0C0FA0198009905F094FAF0
:102A50000198009905F0A4FA0198009905F0AAFAE6
:102A60000198009905F092FA0198009905F070FA22
:102A70000198009905F044FA0198009905F054FA7C
:102A80000198009905F05AFA0198009905F042FA68
:102A90000298806801282DD0FFE7029880680228FC
:102AA00028D0FFE702988068032823D0FFE7029828
:102AB000806804281ED0FFE702988068052819D096
:102AC000FFE702988068062814D0FFE70298806824
:102AD00007280FD0FFE70298806808280AD0FFE790
:102AE00002988068092805D0FFE7029880680A28C4
:102AF00001D1FFE705E0EC48EC4AEE4B982100F0ED
:102B0000EBF901980099029A926800F0F7F90198A0
:102B10000099029AD26905F07DFC01980099029A09
:102B2000D2685206520F05F0A7FD01980099029A4B
:102B3000D2681207520F05F025FC01980099029AFD
:102B4000D2685205920F05F0CBFC01980099029AC9
:102B5000D268D205920F05F061FB01980099029AA4
:102B6000D268D203520F05F0CBFC01980099029A6B
:102B7000D2689204520F05F061FB01980099029A05
:102B8000D2689203D20F05F0DDFC0298006A000BB8
:102B9000002801D1FFE705E0C348C44AC64BA6217F
:102BA00000F09AF90298406A000D002801D1FFE771
:102BB00005E0BD48BD4AC14BA72100F08DF9019841
:102BC0000099029A126A05F0ADFC01980099029AE8
:102BD000526A05F0C9FC01980099029AD268520322
:102BE000D20F05F099FB0298806A000B002801D1F2
:102BF000FFE705E0AC48AD4AB14BAC2100F06CF901
:102C00000298C06A000D002801D1FFE705E0A64840
:102C1000A64AAC4BAD2100F05FF901980099029AE9
:102C2000926A05F06BFB01980099029AD26A05F04E
:102C300083FB01980099029AD2685202520F05F064
:102C4000CBFB0298007D4007002831D0FFE70298B7
:102C5000808A0721084001282AD0FFE70298808A4D
:102C600007210840022823D0FFE70298808A072125
:102C7000084003281CD0FFE70298808A07210840FB
:102C8000042815D0FFE70298808A0721084005280C
:102C90000ED0FFE70298808A07210840062807D057
:102CA000FFE70298808A07210840072801D1FFE743
:102CB00005E07D487D4A7E4BB32100F00DF9019877
:102CC0000099029A928A07231A4005F07FFA029827
:102CD000808A0007C00F002807D0FFE70298808A8B
:102CE0000007C00F002801D0FFE705E06E486F4ADB
:102CF000754BB62100F0F0F80298808AC006C00F2C
:102D0000002807D0FFE70298808AC006C00F00287D
:102D100001D0FFE705E06448644A6C4BB72100F03E
:102D2000DBF801980099029A928A1207D20F05F0F7
:102D300053FC01980099029A928AD206D20F05F0AC
:102D4000AFFA0298808A0007C00F00280FD1FFE772
:102D500001980099029AD28A05F01AFC019800990C
:102D6000029A927E01231A4005F024FC00E0FFE75E
:102D70000298808AC006C00F00280FD1FFE7019893
:102D80000099029A128B05F06BFA01980099029A49
:102D9000927E9207D20F05F073FA00E0FFE70198E8
:102DA0000099029A927ED206D20F05F055FC019846
:102DB0000099029A927E9206D20F05F0D5FA0298F7
:102DC000807EC006C00F00280ED0FFE70198009952
:102DD000029A126B05F034FC0CE0C046DFA100083B
:102DE00018A2000842A2000801980099002205F0EC
:102DF00027FCFFE70298807E8006C00F002807D0DE
:102E0000FFE701980099029A526B05F0A3FA05E0DA
:102E100001980099002205F09DFAFFE70298807E54
:102E20004006C00F002807D0FFE70298807E4006CA
:102E3000C00F002801D0FFE705E01B481B4A244BC8
:102E4000DB2100F049F801980099029A927E52061F
:102E5000D20F05F0A5FA0298807EC009002806D09E
:102E6000FFE70298807EC009012801D1FFE705E055
:102E70000D480E4A174BDF2100F02EF801980099FB
:102E8000029A927ED20905F099FA019805F0B2F8FB
:102E9000029941220120885403A900200870FFE70D
:102EA00003A8007804B080BD18A2000842A2000860
:102EB000DFA10008F19E00084FA10008EC9F000868
:102EC00080A1000827A00008799E0008B59E000890
:102ED000239E0008519E000886B00590049103923D
:102EE00002930599049A039B02980090024803F00C
:102EF00089F8FFE7FEE7C046769D000880B594B0EC
:102F00001290119110921298119905F003F900286E
:102F100003D0FFE70120139016E11098401E0F9098
:102F2000092800D90CE10F98810001A0405887467C
:102F3000592F00088F2F0008C52F0008FB2F00080D
:102F4000333000085F3000088B300008B9300008CB
:102F5000E5300008133100081298119900220E92F2
:102F600005F058FA0E9A1298119905F047FB0E9A3F
:102F70001298119905F0A4F90E9A1298119905F07A
:102F80004FFB0E9A1298119905F0AAF9D9E0129800
:102F9000119900220D9205F03DFA0D9A129811999F
:102FA00005F02CFB0D9A1298119905F089F90D9AEC
:102FB0001298119905F034FB12981199012205F02D
:102FC0008FF9BEE01298119900220C9205F022FAB6
:102FD0000C9A1298119905F011FB0C9A12981199FC
:102FE00005F06EF912981199012205F019FB0C9A5F
:102FF0001298119905F074F9A3E012981199002222
:103000000A9205F007FA0A9A1298119905F0F6FA51
:103010000A9A1298119905F053F912981199012200
:103020000B9205F0FDFA0B9A1298119905F058F9D8
:1030300087E0129811990022099205F0DFFA099AA7
:103040001298119905F03CF9099A1298119905F016
:10305000E7FA099A1298119905F042F971E012986D
:1030600011990022089205F0C9FA129811990122CB
:1030700005F026F9089A1298119905F0D1FA089AE4
:103080001298119905F02CF95BE012981199002221
:10309000079205F0B3FA129811990122069205F0F1
:1030A0000FF9069A1298119905F0BAFA079A129830
:1030B000119905F015F944E012981199012205F0D3
:1030C0009DFA129811990022059205F0F9F8059AD7
:1030D0001298119905F0A4FA059A1298119905F021
:1030E000FFF82EE0129811990122049205F086FA59
:1030F000129811990022039205F0E2F8039A1298AF
:10310000119905F08DFA049A1298119905F0E8F8D2
:1031100017E0129811990122019205F06FFA019AB5
:103120001298119905F0CCF8129811990022029288
:1031300005F076FA029A1298119905F0D1F800E09C
:10314000FFE700201390FFE7139814B080BDC0463E
:1031500080B586B004900498002804D1FFE705A943
:103160000120087033E104980068039004984068D7
:10317000029004984121405C022804D1FFE705A990
:103180000220087023E10498406800280FD0FFE770
:103190000498406801280AD0FFE704984068022894
:1031A00005D0FFE704984068032801D1FFE705E058
:1031B00089488A4A8A4BFD21FFF78EFE03980299BF
:1031C00004F0D0FE039802990022019205F07EF9E6
:1031D000019A0398029905F017F8039802990222C0
:1031E00004F0E2FF019A0398029905F007FA019AA8
:1031F0000398029905F064F803980299032205F0F8
:10320000EBF8019A0398029905F086F8019A039861
:10321000029905F097F9039802990122009205F0AE
:103220006FF9009A0398029905F008F8019A03983B
:10323000029905F055F9019A0398029904F0EEFFFE
:10324000019A0398029905F017FA019A03980299D6
:1032500005F098F8009A0398029905F0CDF8019AC4
:103260000398029905F094F9019A0398029904F0E1
:10327000F7FF019A0398029905F0EEF9019A039875
:10328000029905F071F8009A0398029905F010F977
:10329000019A0398029905F083F8019A039802991C
:1032A00005F08CF8019A0398029905F019F8019A33
:1032B0000398029905F0B4F9019A0398029905F070
:1032C00079F9019A0398029904F0DAFF019A0398B8
:1032D000029905F0ADF8019A0398029905F0C8F833
:1032E000019A0398029905F0B3F8019A039802999C
:1032F00005F0CEF8009A0398029905F06DF9009A4E
:103300000398029904F0CCFF019A0398029904F003
:103310006BFF019A0398029904F058FF019A0398F1
:10332000029905F0FFF8019A0398029905F01CF93B
:10333000019A0398029904F0E1FF019A0398029917
:1033400004F0FAFF0398029904F03EFE03980299F4
:1033500004F012FE0398029904F02CFE03980299DF
:1033600004F014FE0398029904F01AFE01980499DF
:1033700088640499C86404990865049948650499A7
:1033800088650499C8650398029904F0E1FD0398E3
:10339000029904F0B5FD0398029904F0CFFD03985B
:1033A000029904F0B7FD0398029904F0BDFD01985D
:1033B00004990866049941228854FFE70499402241
:1033C00000208854FFE705A900200870FFE705A842
:1033D000007806B080BDC04618A200084FA20008C1
:1033E00064A00008B0B584B002900298002804D10F
:1033F000FFE703A901200870A8E0029900200090CF
:103400000860029B9A68012101918A439A60029B9D
:103410009A680E24A2439A60029B9A687024A24381
:103420009A60029B9A680C0222438024A2439A600D
:10343000029B9A6803246402A2438C0212199A60C8
:10344000029B9A680724E502AA439A60029B9A6845
:10345000A503AA439A60029B9A684D04AA439A6006
:10346000029B9A688D04AA439A60029B9A6825057C
:10347000AA439A60029B9A68CD06AA439A60029B6F
:103480009A680D07AA439A60029BDA68314D2A4078
:10349000DA60029BDA680D03AA43DA60029B1A8A9B
:1034A000A2431A82029C238A082213432382029C8D
:1034B000238A10252B432382029B5A82029B0922D6
:1034C0009A82029B9A7DFB2422409A75029B9A7DE8
:1034D000F72422409A75029B9A7DEF2422409A7528
:1034E000029B9A7DDF2422409A75029B9A7DBF241D
:1034F00022409A75029B9A7D7F2422409A75029BF6
:10350000DA7DFE242240DA75029BDA7DFD2422401A
:10351000DA75029BDA7DF3242240DA75029BDA7DAC
:10352000CF242240DA75029A51600299886102998B
:10353000C8610299086202994862029988620299F8
:10354000C8620299086303A90870FFE703A800781E
:1035500004B0B0BD00F0FFFFB0B585B0039002919C
:103560000398002804D1FFE704A90120087078E03F
:1035700000200190FFE70198029988426DD2FFE791
:103580000398019A1C215143401800900099002093
:1035900008600099486000998860009AD16801230A
:1035A0001943D160009AD1680E24A143D160009ADA
:1035B000D1687024A143D160009AD1680324E50149
:1035C000A943D160009AD1686402A143D160009AF6
:1035D000D1680724E502A943D160009AD168A50308
:1035E000A943D160009AD1685D04A943D160009AD3
:1035F000D1689D04A943D160009AD1682405A143F4
:10360000D160009AD168DC06A143D160009AD168EC
:103610001C07A143D160009A1169144C214011612B
:10362000009A11691B03994311610099486100993F
:10363000886101980299491E884209D2FFE70398E0
:10364000019A1C21514340181C3000998860FFE703
:10365000FFE70198401C01908DE704A90020087045
:10366000FFE704A8007805B0B0BDC04600F0FFFF3A
:1036700010B58AB00C9C089007910692059304A996
:10368000002008700898006803900898406802902D
:10369000FFE708984021405C012804D1FFE709A911
:1036A000022008703AE00899402201208854FFE780
:1036B000FFE708984121405C012821D1FFE70899E4
:1036C0004122022088540899002001900866089839
:1036D0000799069A059B00F025F80398029904F0D3
:1036E00003FC019A0C98089988630898C2630398B0
:1036F000029904F081FE0398029904F06FFC09E03E
:10370000FFE70899402200208854FFE704A902201F
:103710000870FFE7049809A90870FFE709A8007876
:103720000AB010BD80B586B0059004910392029353
:1037300005980068019005984068009001980099EC
:10374000049A04F0C3FE01980099039A04F05CFD0A
:1037500001980099029A04F027FD06B080BD80B55B
:1037600086B00490322003900498002804D1FFE72B
:1037700005A90120087073E004980068029004987D
:103780004068019004984121405C02280DD0FFE779
:10379000049910200866FFE704994022002088540D
:1037A000FFE705A9012008705AE00298019904F08A
:1037B0000BFC0298019904F0DFFB0298019904F0D8
:1037C000F9FB0298019904F0D7FB0298019904F0E3
:1037D000E7FB0298019904F0C5FBFFE70298019905
:1037E00004F098FC002818D0FFE70398401E0390CF
:1037F000002811D1FFE704990420086604994122AA
:1038000003208854FFE70499402200208854FFE7F2
:1038100005A90320087023E0E0E70298019904F06D
:1038200097FB0298019904F06BFB0298019904F050
:1038300085FB0298019904F06DFB0298019904F050
:1038400073FB0499412201208854FFE70499402228
:1038500000208854FFE7FFE705A900200870FFE774
:1038600005A8007806B080BD80B586B005900491AB
:1038700003A9002008700598006802900598406828
:103880000190FFE70298019904F044FC002801D060
:10389000FFE7F7E70298019904F0F4FB00280AD04B
:1038A000FFE7059941220120885405990020086608
:1038B00003A9087009E0059941220420885405995C
:1038C0000120086603A90870FFE7FFE70599402279
:1038D00000208854FFE703A8007806B080BD10B52B
:1038E0008AB00C9C089007910692059304A90020C9
:1038F0000870089800680390089840680290FFE7F5
:1039000008984021405C012804D1FFE709A9022062
:103910000870CBE00899402201208854FFE7FFE7B8
:1039200008984121405C012800D0B1E0089941226B
:103930000220885408990020019008660898079989
:10394000069A059BFFF7EEFE0398029904F0CCFA65
:1039500001980C99089A91630899C8630398029991
:1039600004F0E2FA0398029904F0F2FA039802993B
:1039700004F0C6FA0398029904F0E0FA0398029959
:1039800004F0C8FA0398029904F058FB03980299CE
:1039900004F03CFB0398029904F068FB0898808AC5
:1039A0000007C00F00280FD1FFE703980299089A7B
:1039B000D28A04F0EDFD03980299089A927E0123C1
:1039C0001A4004F0F7FD21E00898C0684002400F5B
:1039D000022815D0FFE70898C0684002400F04286D
:1039E0000ED0FFE70898C0684002400F052807D0B6
:1039F000FFE70898C0684002400F072805D1FFE79D
:103A00000398029904F026FBFFE7FFE70898808AF5
:103A1000C006C00F00280FD1FFE703980299089A4B
:103A2000128B04F01DFC03980299089A927E92076B
:103A3000D20F04F025FC21E00898C0684002400F36
:103A4000012815D0FFE70898C0684002400F0628FB
:103A50000ED0FFE70898C0684002400F052807D045
:103A6000FFE70898C0684002400F072805D1FFE72C
:103A70000398029904F0D6FAFFE7FFE7039802994A
:103A8000012204F0B9FC0398029904F0A7FA09E0B6
:103A9000FFE70899402200208854FFE704A902208C
:103AA0000870FFE7049809A90870FFE709A80078E3
:103AB0000AB010BD80B584B002900298002804D1ED
:103AC000FFE703A9012008701FE002980068019039
:103AD00002984068009002984121405C022807D07B
:103AE000FFE702991020086603A9012008700CE086
:103AF00002994122052088540198009904F032FA75
:103B0000FFE703A900200870FFE703A8007804B0CE
:103B100080BDC04680B586B00590059800680490C9
:103B20000598406803900498039904F0CFFA0028A0
:103B300013D0FFE70498039904F010FB00280CD081
:103B4000FFE70498039904F02BFA0498039904F012
:103B5000EBF9059901200866FFE70498039904F042
:103B6000CDFA002800D187E00498039904F00EFBF9
:103B7000002800D180E00599C86B401CC8630598F7
:103B80008068042826D1FFE70599C86B896B8842B5
:103B90001FD3FFE70598806C002804D0FFE7059845
:103BA000816C8847FFE704980399002204F024FC05
:103BB0000498039904F0CCF90498039904F0BEF931
:103BC0000498039904F0A6F90498039904F098F96D
:103BD000FFE71EE10598806C002804D0FFE70598F8
:103BE000816C8847FFE70498039904F0B1F90498C1
:103BF000039904F085F90498039904F09FF9049857
:103C0000039904F087F90498039904F0DDF9049806
:103C1000039904F0B1F90498039904F0CBF90498DE
:103C2000039904F0B3F90498039904F0B9F90598DD
:103C30004121405C052814D1FFE70598C06D00289C
:103C400004D0FFE70598C16D8847FFE70599412239
:103C500001208854FFE70599402200208854FFE79F
:103C6000D7E00599412201208854FFE705994022B9
:103C700000208854FFE7FFE70498039904F00EFA48
:103C800000285DD0FFE70498039904F04FFA00285C
:103C900056D0FFE70599C86B401CC8630599C86BEF
:103CA000896B491E884235D1FFE705988068801EE0
:103CB000029007282CD80298810001A0405887461E
:103CC000E13C0008ED3C0008F93C0008113D00080B
:103CD000113D0008ED3C0008113D0008E13C0008E2
:103CE00004980399002204F0FBFA12E00498039967
:103CF000002204F095FC0CE0049803990022019244
:103D000004F08EFC019A0498039904F0E9FA00E0AB
:103D1000FFE7FFE70598006D002804D0FFE705984E
:103D2000016D8847FFE70498039904F007F90498A8
:103D3000039904F0EFF80498039904F0E1F8FFE721
:103D40000498039904F0CEF9002815D0FFE70498F1
:103D5000039904F00FFA00280ED0FFE70598406D94
:103D6000002804D0FFE70598416D8847FFE70498D5
:103D7000039904F0E3F8FFE70498039904F09AF933
:103D8000002815D0FFE70498039904F0DBF9002818
:103D90000ED0FFE70598806D002804D0FFE7059856
:103DA000816D8847FFE70498039904F0B3F8FFE7B3
:103DB0000598006E00282CD0FFE70598006EC0071C
:103DC00000281CD0FFE7059941220520885404985B
:103DD000039904F0C7F8FFE70498039904F09AF9EF
:103DE000002801D0FFE7F7E7059941220120885418
:103DF000FFE70599402200208854FFE7FFE7059878
:103E0000C06C002804D0FFE70598C16C8847FFE725
:103E1000FFE706B080BDC04686B0049003A80170DD
:103E2000029201A900200870FFE704984021405C3D
:103E3000012804D1FFE705A9022008704DE004998C
:103E4000402201208854FFE7FFE704984121405CAD
:103E5000012834D1FFE703A800780090052829D86D
:103E60000098810001A040588746C046853E000862
:103E70008D3E0008953E00089D3E0008A53E0008C6
:103E8000AD3E000802980499886417E002980499EE
:103E9000C86413E00298049908650FE00298049939
:103EA00048650BE002980499886507E00298049938
:103EB000C86503E001A901200870FFE703E001A93C
:103EC00001200870FFE7FFE7049940220020885492
:103ED000FFE7019805A90870FFE705A8007806B07C
:103EE0007047C04685B0039002A8017001A9002068
:103EF0000870FFE703984021405C012804D1FFE7E8
:103F000004A90220087058E0039940220120885437
:103F1000FFE7FFE703984121405C012843D1FFE719
:103F200002A800780090062838D80098810001A0E7
:103F300040588746513F0008593F0008613F00083C
:103F4000693F0008713F0008793F0008813F000881
:103F500003990020886425E003990020C86421E0CB
:103F60000399002008651DE003990020486519E0C9
:103F700003990020886515E003990020C86511E0C9
:103F80000399002088640399C8640399086503991C
:103F90004865039988650399C86503E001A9012074
:103FA0000870FFE7FFE7FFE70399402200208854ED
:103FB000FFE7019804A90870FFE704A8007805B09E
:103FC000704781B0009000984121405C01B070477B
:103FD00081B000900098006E01B0704780B500F08D
:103FE000CFFE80BD80B50748436899688022D243E0
:103FF00011409960C16888681040886000F0DAFE5E
:1040000080BDC0468010002081B000900099022041
:104010000870009801214170009A00209070009A69
:10402000D1700099486001B07047C04683B00290DB
:1040300001A801700020009002980078002803D1A8
:10404000FFE7412000900BE002980078022803D19E
:10405000FFE74020009002E000200090FFE7FFE72C
:10406000029881788900C278D207920E1143407875
:10407000400001430098084300900298406801AA5C
:104080001178CB000549CB185B681860009812784E
:10409000D20089184968886003B0704780100020FA
:1040A00083B002AB187001A801700092007800285C
:1040B00009D1FFE7009802A90978CA0007498918C1
:1040C0004968086008E0009802A90978CA00034915
:1040D000891849688861FFE703B0704780100020A5
:1040E00081B00146684601700078C100044840185C
:1040F0004168886880221043886001B07047C046DC
:104100008010002081B00146684601700078C1002F
:10411000044840184168886880229043886001B054
:104120007047C0468010002081B00146684601708B
:104130000078C1000348401841680120C86001B000
:104140007047C0468010002081B00146684601706B
:104150000078C100024840184068406801B07047CC
:104160008010002083B000910246009802A90A70D6
:10417000019001980978CA000149885003B070473E
:104180008010002082B0014601A801700078C100B3
:1041900005484018406880688021084000900098D9
:1041A000411E884102B070478010002080B513483E
:1041B0004068406900280DD0FFE70020FFF7B4FFFA
:1041C0000E480068002804D0FFE70C4800688047CC
:1041D000FFE7FFE70948C068406900280DD0FFE706
:1041E0000120FFF7A1FF05488068002804D0FFE701
:1041F000024880688047FFE7FFE780BD801000200D
:1042000080B588B007AA01921070069100F062FD97
:10421000029002980009069901F044FF0590029867
:104220000009069901F03EFF049104988001069967
:1042300001F038FF01460198039100780599039A2F
:1042400000F002F808B080BD84B0034603A80370F4
:1042500002910192007881000C484058009000992A
:10426000C86880221043C86002A8007800990860DE
:104270000298000A0099486001980099C023C8502C
:104280000099C8689043C86004B07047FC9C00085F
:1042900080B586B0024605A80270049100788100BE
:1042A00017484058039000200290FFE70398C06F22
:1042B0004007002801D4FFE7F8E7FFE70398C06F45
:1042C000C007002801D0FFE7F8E70520019000F0C3
:1042D00019F8019800F030F80198039949680291A3
:1042E000039A0021516000F03DF805A80078049978
:1042F000FFF786FF02980399486006B080BDC0466C
:10430000FC9C000881B0014668460170007840B20C
:1043100000280DD4FFE7684601781F2001400120E6
:10432000884004490860BFF34F8FBFF36F8FFFE7EA
:1043300001B0704780E100E081B00146684601703D
:10434000007840B2002809D4FFE7684601781F20B2
:1043500001400120884002490860FFE701B0704732
:1043600080E200E081B0014668460170007840B20A
:10437000002809D4FFE7684601781F20014001208A
:10438000884002490860FFE701B0704700E100E0A3
:1043900084B00A46014603A8017002A90A70007899
:1043A00082000A48805801900198C0680090009AE5
:1043B000032082430092097801400098084300904E
:1043C00000980199C86004B07047C046FC9C000882
:1043D00084B00A4603A9087002A8027009788A000E
:1043E0001349895801910199C96800910078022800
:1043F00005D1FFE7009808218843009013E000985A
:1044000008210843009002A80078002805D1FFE7A2
:10441000009810218843009004E000981021084380
:104420000090FFE7FFE700980199C86004B070476B
:10443000FC9C000883B00A4602A9087001A802701B
:1044400009788A000A49895800910078002806D125
:10445000FFE70099C86804229043C86005E000990E
:10446000C86804221043C860FFE703B07047C04625
:10447000FC9C000882B00A4601A9087068460270D8
:10448000007809788A00034989589422885002B03C
:104490007047C046FC9C000883B0024602A8027028
:1044A00001AA117000788100084840580090FFE789
:1044B0000098C06F8007002801D4FFE7F8E701A843
:1044C0000178009A1160007803B07047FC9C0008E6
:1044D00080B584B003AB1870029101A802806946D0
:1044E00000200880FFE76846008801A90988884203
:1044F0000EDAFFE703A8007802996A461288895C01
:10450000FFF7CAFFFFE70098401C69460880EAE70A
:1045100004B080BD80B582B001AA10700091FFE7A1
:104520000098007800280AD0FFE701A800780099D9
:104530000978FFF7B1FF0098401C0090F0E702B047
:1045400080BDC04682B0014601A80170007881009C
:10455000074840580090FFE70098C06F0007002808
:1045600001D4FFE7F8E700980068C0B202B07047D6
:10457000FC9C000884B003AA107002A801700078A7
:104580000090052853D80098810001A04058874624
:10459000A9450008BD450008D7450008EB450008BF
:1045A000074600081B46000803A80078810023483E
:1045B000405840694006C00F01903BE003A80078D6
:1045C00081001E484058406901210840019001982F
:1045D000484001902EE003A8007881001748405819
:1045E00040698007C00F019024E003A80078810093
:1045F00012484058C06F8007C00F019001980121F8
:104600004840019016E003A8007881000B4840580C
:10461000C06FC006C00F01900CE003A800788100B5
:1046200006484058C06F01210840019002E0002078
:104630000190FFE701A8007804B07047FC9C0008D7
:1046400084B000920B460246009803A90A7002AAA1
:10465000137001900198097818234B430349C91836
:1046600012789200885004B07047C046B4120020FF
:1046700084B00A4603A9087002A8027009788A006B
:1046800019498958019100780090052829D8009887
:10469000810001A040588746B1460008BD46000889
:1046A000BD460008C9460008D5460008E146000896
:1046B0000199486802221043486013E00199486854
:1046C0000122104348600DE001994868042210431C
:1046D000486007E00199486808221043486001E0FB
:1046E00000E0FFE704B07047FC9C000884B00A4675
:1046F00003A9087002A8027009788A00194989582C
:10470000019100780090052829D80098810001A027
:10471000405887462D4700083947000839470008A8
:1047200045470008514700085D470008019948685F
:1047300002229043486013E00199486801229043A7
:1047400048600DE00199486804229043486007E002
:104750000199486808229043486001E000E0FFE7C3
:1047600004B07047FC9C000880B586B0014605A8DF
:1047700001700078810036484058039003988068A3
:104780000F2108400290029801900C2853D80198FC
:10479000810001A040588746CD47000837480008EF
:1047A000DF47000837480008EF470008374800088F
:1047B0000148000813480008374800083748000837
:1047C00037480008374800082548000805A8007841
:1047D000182141431F484018006904902EE005A8A5
:1047E0000078182141431B484058049026E005A852
:1047F00000781821414317484018406804901DE094
:1048000005A800781821414312484018C068049058
:1048100014E005A80078182141430E48401840696B
:1048200004900BE005A8007818214143094840187E
:104830008068049002E000200490FFE704980028BC
:1048400003D0FFE704988047FFE706B080BDC0466D
:10485000FC9C0008B412002084B00091024600982D
:1048600003A90A70029000200190029802780120AA
:10487000024001981043019002980078C200302055
:10488000024001981043019002980078C200C020B5
:104890000240019810430190019809788A0002496A
:1048A0008958886004B07047FC9C000881B00146BC
:1048B0006846017000788100044841588822885871
:1048C00004231843885001B07047C046FC9C000880
:1048D00081B0014668460170007881000448415863
:1048E0008822885802231843885001B07047C04678
:1048F000FC9C000881B00146684601700078810088
:104900000148405801B07047FC9C00080349002052
:1049100008700349034808607047C0460013002030
:1049200058120020005A6202014800787047C046C1
:104930000013002081B06946087001B07047C0467E
:1049400082B0014601A80170154A116801239B0439
:1049500019431160007840B2002818D4FFE71049CD
:1049600000910868FF221205904301AA12781205EF
:10497000801808600868012253041843086008681A
:1049800098430860086812049043086006E00449F0
:1049900008680122120410430860FFE702B0704764
:1049A00008501040034908680122920490430860AF
:1049B0007047C0460850104082B0014601A80170FF
:1049C00000780090002808D0FFE7009801280AD05E
:1049D000FFE7009802280FD015E00C49086808602E
:1049E0000868086010E009490868012212071043AE
:1049F00008600868086007E0044908680122520757
:104A00001043086000E0FFE702B070470850104014
:104A100080B582B0014601A80170007840B200283C
:104A200022D4FFE7164A0092106804210843106060
:104A30001168FF200001814301A803781B01C918F8
:104A400011601168022319431160116899431160C4
:104A500011680123994311600078411C0B4801F053
:104A600021FB0849086008E0054908680122104355
:104A70000860044904480860FFE702B080BDC046F2
:104A80000C501040581200200068890900B4C4047A
:104A900082B0014601A80170007840B200281CD401
:104AA000FFE7124900910868012293031843086048
:104AB0000868FF231B04984301AB1B781B04C01834
:104AC0000860086853031843086008689843086042
:104AD000086812039043086006E004490868012250
:104AE000120310430860FFE702B070470C501040FB
:104AF00081B06946087001B07047C046024800782E
:104B00008100024840587047001300200C9D0008A7
:104B100010B586B0024605A8027004910078029094
:104B2000002808D0FFE70298012813D0FFE7029879
:104B3000022851D091E04A4908680122130798439E
:104B40000860086852079043086048497D200002C9
:104B5000086083E042490868042210430860049812
:104B6000434900F089F8014603A8018000883E49C6
:104B7000884209D1FFE73A490868012210430860DA
:104B80003A493B4808601CE0354A019211683948AF
:104B9000014003A803881B051B0CC918116011688C
:104BA00002231943116011689943116011680123B0
:104BB0009943116001882E4800F07CF82B49086069
:104BC000FFE72749086801221307184308600868AF
:104BD00052079043086041E021490868012292048D
:104BE0001043086004981F4900F046F8014603A8E6
:104BF000018000881C4988420AD1FFE718490868EB
:104C000001221204104308601849164808601DE08C
:104C1000134A00921168FF200005814303A803781E
:104C20001B05C9181160116801235C042143116040
:104C30001168A143116011681B0499431160018838
:104C4000084800F037F809490860FFE70449086898
:104C5000012252071043086000E0FFE706B010BDD4
:104C60000850104000D01213FFFF0000581200201F
:104C7000005A62020F00FFFF80B584B003900291DA
:104C800002984008039901F00DFA014601A801803D
:104C90000088002805D0FFE701A80088401E00908A
:104CA00002E003480090FFE7009880B204B080BDA6
:104CB000FFFF000080B584B0019101460198039187
:104CC00002A90880039840080988491C01F0EAF904
:104CD00004B080BD014800687047C04658120020EB
:104CE00010B582B001AA10706B46197007490868A8
:104CF0000C24A0431278D207520F1B78DB071B0F3E
:104D0000D2188018086002B010BDC0460450104090
:104D100080B501200102084600F002F880BDC046BF
:104D200082B001900091019A05490868104308601B
:104D3000009A044908681043086002B07047C046F2
:104D4000185010402050104080B501200102084644
:104D500000F002F880BDC04682B001900091019A37
:104D60000549086890430860009A04490868904320
:104D7000086002B07047C0461850104020501040E4
:104D800080B52021084600F001F880BD82B0019076
:104D90000091019A0549086810430860009A044987
:104DA00008681043086002B07047C0461C501040AD
:104DB0002450104080B52021084600F001F880BD45
:104DC00082B001900091019A0549086890430860FB
:104DD000009A044908689043086002B07047C046D2
:104DE0001C5010402450104080B50120410308465B
:104DF000FFF796FF80BD80B5012041030846FFF70D
:104E0000ABFF80BD80B5012041020846FFF788FF57
:104E100080BD80B5012081020846FFF781FF80BD7B
:104E200080B5012041020846FFF796FF80BD80B59E
:104E3000012081020846FFF78FFF80BD80B5012168
:104E40000846FFF76DFF80BD80B501210846FFF7DA
:104E500083FF80BD80B5012081020846FFF796FFE1
:104E600080BD80B5012081020846FFF7A9FF80BD03
:104E700080B5012041020846FFF788FF80BD80B55C
:104E8000012041020846FFF79BFF80BD80B540210D
:104E90000846FFF77BFF80BD80B540210846FFF73D
:104EA0008FFF80BD80B580210846FFF76FFF80BD72
:104EB00080B580210846FFF783FF80BD80B50120C3
:104EC00001020846FFF762FF80BD80B501200102A4
:104ED0000846FFF775FF80BD80B502210846FFF741
:104EE00055FF80BD80B504210846FFF74FFF80BD08
:104EF00080B508210846FFF749FF80BD80B5102125
:104F00000846FFF743FF80BD80B502210846FFF742
:104F100057FF80BD80B504210846FFF751FF80BDD3
:104F200080B508210846FFF74BFF80BD80B51021F2
:104F30000846FFF745FF80BD7047704770477047D0
:104F4000704780B5002000F0F1FD80BD80B50120E4
:104F500000F0ECFD80BD80B5022000F0E7FD80BDD3
:104F600080B5032000F0E2FD80BD80B5FFF71EF99B
:104F700080BD7047704770477047704770477047F3
:104F8000704780B504F0F0F980BD704770477047F6
:104F900070477047704770477047704780B582B060
:104FA0000190019800F00AF8014668460170007807
:104FB000022108404142484102B080BD80B584B022
:104FC00003900398092813D8FFE7039800F03CFCEE
:104FD0000290029800680190039800F041FC694635
:104FE000087001980978C8400F210840019013E02B
:104FF00003980A280CD3FFE70398102808D8FFE786
:10500000039800F0B5F8029002980078019002E051
:1050100000200190FFE7FFE701A8007804B080BD01
:1050200080B582B00190684601700198092809D8BE
:10503000FFE701980099C943C9078A0F022100F0D0
:1050400016F812E001980A280DD3FFE701981028FE
:1050500009D8FFE701980099C943C9078A0F0221BF
:1050600000F02EF800E0FFE7FFE702B080BD80B55A
:1050700088B0079006A80090017005A80190027002
:10508000079800F0E1FB0490079800F0E9FB009A14
:105090000199034603A80370049B1B6802931378CD
:1050A00002789340029A9A430292097800788140EC
:1050B00002980843029002980499086008B080BDE5
:1050C00080B586B0059004A8017003A80270059809
:1050D00000F04EF802900298007801A90870049A36
:1050E000019890430870039A019810430870019842
:1050F0000299087006B080BD80B584B0039000208E
:105100000290019003980C280CD1FFE7039800F05F
:105110002FF8019001980078029002980121084030
:1051200002901EE003980B2808D8FFE70F4800689C
:105130000399C84001210840029011E003980D280E
:105140000DD3FFE70398102809D8FFE70748006848
:105150000399491EC840012108400290FFE7FFE77C
:10516000FFE702A8007804B080BDC04600401040B0
:1051700081B0009000980249401801B07047C046C5
:105180004438104080B582B00190684601700198A3
:10519000092808D8FFE7019869460A7801210A40E2
:1051A000FFF765FF11E001980A280CD3FFE701988B
:1051B000102808D8FFE7019869460A7801210A40BB
:1051C000FFF77EFF00E0FFE7FFE702B080BD80B59C
:1051D00082B00190019800210091FFF721FF009813
:1051E00002B080BD80B582B00190009101986946FF
:1051F0000978FFF7C7FF01980121FFF711FF002091
:1052000002B080BD80B582B001900091019809285C
:1052100005D8FFE70198009900F012F80EE0019818
:105220000A2809D3FFE70198102805D8FFE701985D
:10523000009900F025F800E0FFE7FFE702B080BD2D
:1052400083B0029001910298694608700198012884
:1052500009D1FFE7684600780122824007490868C3
:105260001043086008E06846007801228240034944
:10527000086890430860FFE703B070473050104063
:1052800083B00290019102980A386946087001982B
:10529000012809D1FFE768460078012282400849C9
:1052A00008781043087008E06846007801228240C0
:1052B0000349087890430870FFE703B07047C04681
:1052C0004A38104080B584B0024603A8027002AA92
:1052D0001170007810281FD8FFE703A800780C2869
:1052E0001AD0FFE703A8007800F01AF8014601A8D9
:1052F00001700A490A680092027803239340009AD9
:105300009A43009202AA12780078824000981043D3
:10531000009000980860FFE704B080BD2C5010405A
:1053200083B0014602A8017000780D2805DBFFE775
:1053300002A80078401E009003E002A800780090C8
:10534000FFE7009801A9087001984000C0B203B0BF
:10535000704780B582B0019000910198092808D863
:10536000FFE701980099C9074A0E4021FFF77FFE29
:1053700011E001980A280CD3FFE70198102808D8FB
:10538000FFE701980099C9074A0E4021FFF798FEF0
:1053900000E0FFE7FFE702B080BDC04683B00290A7
:1053A00001910C48006800900198002808D0FFE7A0
:1053B0000098029A0121914008430649086007E0DD
:1053C0000098029A01219140884302490860FFE752
:1053D00003B070470840104080B582B00190009142
:1053E0000198092808D8FFE701980099C9074A0FD2
:1053F0000421FFF73CFE11E001980A280CD3FFE7D7
:105400000198102808D8FFE701980099C9074A0FAA
:105410000421FFF755FE00E0FFE7FFE702B080BD83
:1054200080B582B0019000910198092808D8FFE763
:1054300001980099C9070A0F0821FFF718FE11E02B
:1054400001980A280CD3FFE70198102808D8FFE735
:1054500001980099C9070A0F0821FFF731FE00E003
:10546000FFE7FFE702B080BDB0B58CB002460AA8E6
:105470000270099109990978891E4A1E914108AA6A
:105480001170099909784A1E511E8A4106A90A70AD
:10549000099A1278D21E53425A4105AC2270099AD9
:1054A0005278931E5A42534104AA1370099B5B78A9
:1054B0005D1E6B425D4103AB1D700978C907890F02
:1054C0002478E407640E09191B78DB075B0FC91801
:1054D0001278D207120F8918303107AA117000789C
:1054E00009280FDCFFE70AA80290007808A90978CC
:1054F000FFF7A6FE0298007807A90A78FF21FFF7B8
:10550000B6FD1DE00AA800780A2814DBFFE70AA808
:10551000007810280FDCFFE70AA80190007808A99E
:105520000978FFF7ADFE0198007807A90A78FF21F6
:10553000FFF7C6FD03E00BA90120087010E0FFE7AC
:1055400009980078022807D1FFE70AA8007809998E
:105550008978FFF7B7FEFFE70BA900200870FFE787
:105560000BA800780CB0B0BD80B586B0024605A887
:10557000027004AA01921170007800F071F80146DF
:10558000019803910078401E029004285CD802988C
:10559000810001A040588746AD550008CF5500084E
:1055A000EF5500080756000829560008039A012005
:1055B00001469140294A1160039A01469140264ACA
:1055C0001160039988400004224908603DE0039A75
:1055D000012001469140214A1160039902468A4008
:1055E0001C490A60039A9040000408602DE0039A69
:1055F000012001469140194A116003998840000436
:105600001549086021E0039A012001469140104AA3
:105610001160039A014691400F4A11600399884036
:1056200000040C49086010E0039A012001469140F3
:10563000074A1160039902468A4006490A60039AA4
:1056400090400004086000E0FFE706B080BDC0465F
:105650002C40104034401040304010402840104052
:1056600082B0014601A8017000780B2804DCFFE736
:1056700001A80078009004E001A80078401E009086
:10568000FFE7009802B0704780B582B001900198A2
:10569000810006484058002806D0FFE701988100A5
:1056A000024840588047FFE702B080BD5C120020EE
:1056B00080B582B01148006801A9088069460020C1
:1056C0000870FFE7684600780F2815D8FFE701A8A3
:1056D0000088C007002805D0FFE768460078FFF77C
:1056E000D3FFFFE701A9088840080880FFE700987A
:1056F000401C69460870E5E702B080BD38401040A4
:1057000080B584B0024603A8027002910078FFF7CA
:10571000A7FF0190029801998A000249885004B0BD
:1057200080BDC0465C12002080B582B0014601A851
:1057300001700078FFF794FF0090009901208840E5
:105740000149086002B080BD2040104080B582B0A1
:10575000014601A801700078FFF782FF00900099D0
:10576000012088400149086002B080BD24401040FB
:1057700080B582B0014601A801700078FFF770FF84
:1057800000900099012088400149086002B080BD66
:105790003840104080B584B0014603A80170084924
:1057A000096802910078FFF75BFF01900298019968
:1057B000C840012108400290029804B080BDC04654
:1057C0003840104080B584B0014603A801700849F4
:1057D000096802910078FFF743FF01900298019950
:1057E000C840C003C00F0290029804B080BDC046FC
:1057F0003840104080B582B001900198112801D343
:10580000FFE709E0019801210091FFF7FBFC0099F7
:105810000198FFF705FCFFE702B080BD80B582B0BC
:105820000190019810280CD8FFE70198FFF764FC5D
:10583000694608700198097801225140FFF7A2FCDF
:10584000FFE702B080BDC04681B000900098FC2107
:1058500008400249401801B07047C0463850104017
:1058600081B0009000988007C00E01B07047000022
:1058700081B000200090EFF31080009072B6009885
:1058800001B0704781B00090009880F3108801B09B
:105890007047000083B00A4602A9087001A8027090
:1058A0000978CA000F4989184968009100780428CE
:1058B00006D1FFE7009908680622904308600EE0D1
:1058C0000099086830229043086001A80078000120
:1058D00000990A681043062210430860FFE703B0EE
:1058E0007047C0469410002080B584B0014603A8DC
:1058F00001700078C1000C4840184068029003997C
:1059000001A800900170029A1168082319431160E0
:10591000007840B200F00AF80098007840B200F039
:105920001BF804B080BDC0469410002081B0014631
:1059300068460170007840B2002809D4FFE7684645
:1059400001781F2001400120884002490860FFE7DC
:1059500001B0704780E200E081B001466846017006
:10596000007840B2002809D4FFE7684601781F207C
:1059700001400120884002490860FFE701B07047FC
:1059800000E100E080B584B0014603A80170007812
:10599000C1000948401840680290039901A80170AD
:1059A000029A1168082399431160007840B200F010
:1059B00005F804B080BDC0469410002081B00146B7
:1059C00068460170007840B200280DD4FFE76846B1
:1059D00001781F2001400120884004490860BFF37E
:1059E0004F8FBFF36F8FFFE701B0704780E100E09A
:1059F00082B0014601A801700078C1000548401836
:105A0000406800900099086801221043086002B0C5
:105A10007047C0469410002082B0014601A8017072
:105A20000078C10005484018406800900099086857
:105A300001229043086002B07047C04694100020D5
:105A400082B0014601A801700078C10003484018E7
:105A5000406800900098406802B0704794100020A1
:105A600083B0024602A8027001910078C100044888
:105A700040184068009001980099486003B0704752
:105A80009410002082B0014601A801700078C10086
:105A900003484018406800900098806802B0704742
:105AA0009410002083B0024602A802700191007891
:105AB000C10004484018406800900198009988602F
:105AC00003B070479410002082B0014601A8017015
:105AD0000078C100044840184068009000990120F7
:105AE000C86002B07047C0469410002082B00146E2
:105AF00001A801700078C100034840184068009078
:105B00000098C06802B070479410002083B00091E4
:105B10000246009802A90A70019001980978CA000B
:105B20000149885003B070479410002080B582B0BE
:105B3000014601A801700078C100094840580028BA
:105B400008D0FFE701A80078C100054841580020AF
:105B50008847FFE701A80078FFF7B6FF02B080BDD5
:105B60009410002010B584B0002000F053F8FFE737
:105B70002548264901614864FFE700200190039011
:105B800022480290001DFDF72DFC02990198204A41
:105B90000A60486001238B60888A072290438882CC
:105BA000C8689843C860C8681405A0431C0500195C
:105BB000C860C8687024A043C860C8680E24A043A9
:105BC000C860C86803246402A043C860C8681B0298
:105BD000184380239843C860C86893039843C860FB
