:020000040800F2
:1001000000060120B9020008491000084310000849
:1001100000000000000000000000000000000000DF
:10012000000000000000000000000000591000085E
:1001300000000000000000004B1000085B100008E9
:10014000911000089B100008A5100008AF100008CF
:100150002B100008B9100008BB100008BD100008E3
:1001600055100008571000084510000841100008FD
:10017000CB020008291000084D100008CB0200082F
:10018000CB02000847100008CB020008CB02000891
:10019000CB020008CB020008CB020008CB0200080B
:1001A0003310000835100008371000083910000817
:1001B0003B1000083D1000083F1000082710000801
:1001C00000F002F800F04BF80CA030C808382418F2
:1001D0002D18671EA246AB4654465D46AC4201D17F
:1001E00000F03DF87E460F3EB6460FCC0126334266
:1001F00000D0FB1A3343A246AB461847EC5C000024
:100200003C5D0000103A02D378C878C1FAD8520792
:1002100001D330C830C101D504680C6070470000BC
:100220000023002400250026103A01D378C1FBD812
:10023000520700D330C100D50B60704710B5642958
:1002400002D100F085F910BD732902D100F081FEC2
:1002500010BD002010BD1FB51FBD10B510BD044856
:100260008546FFF7F8FF04F029F800F0B7FE00001C
:100270000000022003B4FFF7F0FF03BC00F01FFFF3
:1002800070B505460C46164602E00FCC0FC5103E71
:10029000102EFAD2082E02D303CC03C5083E042E3A
:1002A00007D301CC01C5361F03E021782970641CF7
:1002B0006D1C761EF9D270BD07488047074800477D
:1002C000FEE7FEE7FEE7FEE7FEE7FEE70448054936
:1002D000054A064B704700005D100008C101000888
:1002E0000003012000060120000401200004012079
:1002F000704710B5202A04DB0146203A91400020C7
:1003000010BD914020239C1A0346E34019439040BE
:1003100010BD10B5202A04DB0846203AD040002149
:1003200010BD0B462024D340D040A21A9140084370
:10033000194610BD4343514330B55C18010C130CF2
:100340000D4692B25D4380B251432C190546554388
:100350000A0C09044D1962415843010C000440196C
:10036000514130BDFEB5044610460D46184373D0CA
:10037000A6468C460020A41A01469D4167D36646D6
:10038000002701243D46B61A9D4102D313463A4642
:100390002124654676462F04360C3E432D0CB61AB2
:1003A0009D4104D3150C1B042B43120410346546E5
:1003B00076462F06360A3E432D0AB61A9D4104D3CF
:1003C000150E1B022B4312020834654676462F0792
:1003D00036093E432D09B61A9D4104D3150F1B0162
:1003E0002B431201241D65467646AF07B6083E43EF
:1003F000AD08B61A9D4104D3950F9B002B43920084
:10040000A41C65467646EF0776083E436D08B61A8B
:100410009D411AD392185B41641C16E00018764681
:1004200065464941B71A9D410191009009D3604644
:10043000B11A98418E468446009801990025401CC7
:100440006941DD0752082A435B08641EE6D57246FF
:10045000634603B0F0BDFFE72046284307D00020E5
:10046000C0430146C046C04622462B46F1E7002065
:100470000146F7E70FB4054910B503AA029800F04A
:100480006DFD10BC08BC04B018470000D801012065
:10049000F8B50E460446002020622046E1688847F1
:1004A000002829D0252802D06268A16820E0E168F0
:1004B00020460027884705001ED0284641381928C5
:1004C00002D80127FF022035324620462760294600
:1004D000FFF7B4FE002808D0012804D0F61DF60866
:1004E000F6000836D9E7361DD7E762682846A168C6
:1004F0009047206A401CCFE7206AF8BD70B50C46D3
:100500000546012A05D02878800600D5EA6900232F
:1005100002E0012305E05B1C934202D2E05C00286C
:10052000F9D1A869E618C01AA861286AC01828621B
:100530002846C046C04604E06A682078A968641C62
:100540009047B442F8D32846C046C04670BD00006C
:10055000F7B5002575291068009914A611D0C0467A
:10056000C046002802DA404211A608E00099096856
:100570008A0701D50FA602E0490704D50EA601257A
:1005800001E0C046C046009F0024243704E000F08C
:10059000F9FC30313955641C0028F8D12B4632461D
:1005A0002146009800F06AFCFEBD0000000000003B
:1005B0002D0000002B0000002000000010B50446B4
:1005C00003E001F0DFFD401C08D020780549641CE1
:1005D0000028F6D10A2001F0D5FD10BD0020C0434F
:1005E00010BD0000D8010120F8B5042A2CD38307E0
:1005F00012D00B78491C0370401C521E83070BD08D
:100600000B78491C0370401C521E830704D00B78E2
:10061000491C0370401C521E8B079B0F05D0C91A42
:10062000DF002023DE1B08C90AE0FFF729FEF8BD22
:100630001D4608C9FD401C46B4402C4310C0121F83
:10064000042AF5D2F308C91A521EF0D40B78491CBB
:100650000370401C521EEAD40B78491C0370401CE6
:10066000012AE4D409780170F8BD431A70B59342A9
:100670001BD28918801804E0491E401E0B78521EB8
:1006800003709307F8D106E01039103878C9103993
:1006900078C01038103A102AF6D203E0091F001F64
:1006A0000B680360121FF9D570BDFFF7E9FD70BD3F
:1006B000F8B5064614460843800707D0751AA542C8
:1006C00019D20819102D13D2311907E03046FFF75F
:1006D000CCFFF8BD401E491E02780A70641EF9D294
:1006E000F8BD471B2A463946FFF77EFF641B384694
:1006F000A542F6D3011B22463046FFF775FFF8BD31
:10070000D2B210B513029A1813049A1800F00EF81A
:1007100010BD01E004C0091F0429FBD28B0701D5DD
:100720000280801CC90700D00270704700290BD0DE
:10073000C30702D00270401C491E022904D383075C
:1007400002D50280801C891EE3E70022EEE700222A
:10075000DFE70000002203098B422CD3030A8B42FF
:1007600011D300239C464EE003460B433CD40022A9
:1007700043088B4231D303098B421CD3030A8B42BB
:1007800001D394463FE0C3098B4201D3CB01C01A89
:10079000524183098B4201D38B01C01A5241430954
:1007A0008B4201D34B01C01A524103098B4201D342
:1007B0000B01C01A5241C3088B4201D3CB00C01AAF
:1007C000524183088B4201D38B00C01A5241430827
:1007D0008B4201D34B00C01A5241411A00D201464C
:1007E0005241104670475DE0CA0F00D049420310E5
:1007F00000D3404253409C46002203098B422DD334
:10080000030A8B4212D38901FC2212BA030A8B42DB
:100810000CD3890192118B4208D3890192118B422A
:1008200004D389013AD0921100E08909C3098B42AF
:1008300001D3CB01C01A524183098B4201D38B01F2
:10084000C01A524143098B4201D34B01C01A524195
:1008500003098B4201D30B01C01A5241C3088B42DA
:1008600001D3CB00C01A524183088B4201D38B00C5
:10087000C01A5241D9D243088B4201D34B00C01A4F
:100880005241411A00D201465241104663465B1064
:1008900001D34042002B00D54942704763465B10AC
:1008A00000D3404201B50549002802DC491C08403C
:1008B00000E00846C046C04602BD00BFFFFFFF7F04
:1008C0007047704770470000F0B50C46871A9C418E
:1008D0000D46861A9D4103D2C01BA141D219634126
:1008E0000D0D1F0DC94EEC1BAE435CD07F057F0D77
:1008F0000026002F51D02D05AC46A943DD0201236F
:10090000ED0A1B051D4320231B1B24D41746E7407B
:10091000381871412F46E740CC199D4028183146C0
:1009200061410C0D27D161449A4013D50023401C2E
:10093000594152000ED14008400001224B0052059F
:10094000D34207D305204007C14201D5B04900E09A
:10095000B0493046F0BD6B00002A00D001229A1841
:100960001F23203C1B1B01D5002302E0E540281873
:1009700071410C0DD7D0012424050919C407CD07F6
:1009800040084908E40F28436144002CD5D00024D6
:10099000401C61419A40D0D1CDE76A05520DD9D1B2
:1009A000C90FC907D5E79C4D4E00002801D001248E
:1009B00000E0002434195F00002A01D0012600E085
:1009C0000026BE19954FAC420CD8AE420AD8B442AC
:1009D00006D001256D05EC42BCD010461946F0BD8D
:1009E0009942FCD000203946F0BDF0B51FB40C464A
:1009F0000F46811A9F412546861A9D4106D2012540
:100A0000ED076F40401ABC4152187B41210D1E0D6D
:100A10008D1BAC467D4D8D437ED075056D0D7CD014
:100A20000D05AE46AC431B031B0B794D52429D4155
:100A3000202366469B1B14D31746F7403818002620
:100A40000090744160462F460741E41900989D408C
:100A50002818664116D4714671189A4025D501238D
:100A600020E093182A466A415200002B00D0521C05
:100A70001E23203E9B1B002B61DD3541EE172818FD
:100A80006641E8D5001876415B1C9A4000D3401CB3
:100A90004B05F3181524E34010D3002B52D07146B8
:100AA0007118D30FC01802D3491C05B0F0BD012343
:100AB000DB079A42F9D140084000F6E701225205CF
:100AC000B21801D1002853D00123CC0ADB0299438C
:100AD000891E002A08D1020C03D0020C0004103930
:100AE00002E00246002020390023550B05D11202F6
:100AF0000823550B01D152010D23550C01D11201D0
:100B00001B1DD50C01D192009B1C150D01D152006B
:100B10005B1C2025EE1A01E02CE022E00546F540A2
:100B200015439840CA1AE10769181305C918002A25
:100B3000BBDA032040070818C10FC9070FE0714650
:100B40006118B2E7F10740080843711071444A0088
:100B50000CD001235B059A42A7D2C90FC907002018
:100B6000A3E74905490D26D1002001E00028F4D172
:100B700000219AE7284D6600002801D0012100E0FD
:100B8000002171185F00002A01D0012600E0002634
:100B9000BE19224FA94210D8AE420ED8B14208D099
:100BA00001256D05E94206D01946A80241401046CC
:100BB0007BE79C4201D0214677E70020394674E765
:100BC00010B50C465C4005D50124E4076340FFF7EF
:100BD0000CFF10BDFFF778FE10BD30B40C465C4032
:100BE00004D50124E407634030BC6DE630BCFCE66C
:100BF00070B50124E40761400D465D4002D4FFF763
:100C000063FE70BD6340FFF7F0FE70BDFF0700009C
:100C10000000F0FF0000F07F0000E0FF0000F87F20
:100C20000346CA02400D10B510430A1504D0012432
:100C3000E4072043002A05DB0A4CA21A04D4D04062
:100C4000FF2A00DD002010BD4A00002B01D001204A
:100C500000E00020101801225205D042F2D8C81737
:100C6000C04310BD1E0400000121C9050123411825
:100C700042001B06D3185B0E0AD0C1100722D20611
:100C8000891840075242D14201D552008918704755
:100C9000090208D50146002A03D0C10FC907002068
:100CA000704710467047420202D000200249704748
:100CB000072109050143F4E70000F87FF0B5FF259F
:100CC0002D04C609C209FF2704462E400137CB096F
:100CD0003E4348402A402B400746002A6BD0002B59
:100CE00069D0AA4267D0AB4265D0002800DA32460C
:100CF0000125ED0529432C4309022002090AD21AD5
:100D00004B0C7F24E31A434C000A7C44E35C7D24B3
:100D10002404121914145B00A218884201D3521C37
:100D200000E0400049420C465C4324115C43DB0177
:100D30006415E318040A5C43C502200D0C464443C5
:100D40006419250A5D432303EC0C0D46654300033B
:100D50000019EB184C42A34201D35B18401CD40588
:100D60002018002B07D05B00C91804D3401C0029B1
:100D700001D1400840003F2189048A4209D3002A5A
:100D800008DC1106090F04D0032149074018C00FE1
:100D9000C007F0BD01224100120689187F225206C9
:100DA0009142F6D205214907C84201D59010F0BD05
:100DB000FF20C005F0BD002F00DA32461648AA42D7
:100DC00007D2AB4205D21902090E17D0F80FC0079F
:100DD000F0BDFF2563002D06AB42F9D84900A942BA
:100DE000F6D8AB4201D1A942F2D0A94201D10021EB
:100DF00001E061004908D0050843F0BD1102090E69
:100E0000FBD0FF200243D005F0BD0A460146104644
:100E100054E70000823600000000C07F1F22030C50
:100E200002D10F2200041CD0030E01D10002083AA7
:100E3000030F01D10001121F830F01D18000921E08
:100E4000002801DB4000521ED20551180212511831
:100E50001922904004D3491C002801D149084900B7
:100E600008467047C10FC90700D0404201229207CF
:100E70001143D3E701218907D0E77047FFB5044646
:100E80000D4681B0243000902168880604D51022D8
:100E9000E0699143216000E00120A84201DD471B89
:100EA00000E000270498A1697A191018081AA061B7
:100EB0002078C00602D42046C046C046002608E07E
:100EC00003986268A168805D9047206A401C761C88
:100ED000206204988642F3DB2078C0060AD52046BB
:100EE000C046C04606E06268A16830209047206A8C
:100EF000401C206238467F1E0028F4DC07E0009882
:100F00006268A168405D9047206A401C20622846C4
:100F10006D1E0028F3DC2046C046C046207800063F
:100F200002D5022005B0F0BD0120FBE710B54369F2
:100F3000002B02D0C046C04601E0FFF7DFFA0120D7
:100F400010BD1278014624310A7000224A70012235
:100F5000ECE711680022D243E8E70000084B70B5C7
:100F60000D467B4400F027F80446284600F07EFE3C
:100F7000002802D00020C04370BD204670BD000094
:100F80001F12000001468008081A02091018020A00
:100F90001018020C1018C008820012185200891A8A
:100FA00001E0401C0A390A29FBD2704701694A1C3A
:100FB00002610878704700B58FB002910021059159
:100FC0000549019379440391114604906846FFF75F
:100FD0005FFA0FB000BD0000E5FFFFFF10B504464B
:100FE000C046C0462046FFF745F910BD30B58C1805
:100FF0000278401C13071B0F01D10378401C120913
:1010000006D10278401C03E00578401C0D70491C95
:101010005B1EF9D101E00B70491C521EFBD1A142AD
:10102000E6D3002030BD7047704780B500F0DAFD90
:1010300080BD704770477047704770477047704772
:1010400070477047704770477047704780B502F02F
:1010500067FB80BD70477047704770470748084975
:101060000160084820210160BFF34F8FBFF36F8FED
:1010700062B60548054901607047C04608ED00E0CA
:101080000001000880E100E07C00012000E1F5059E
:1010900080B5002002F0CAFD80BD80B5012002F0BD
:1010A000C5FD80BD80B5022002F0C0FD80BD80B5C9
:1010B000032002F0BBFD80BD704770477047FEE71C
:1010C000F0B593B0540DD902091901240A94E6072A
:1010D0000F91B143D20207925A00550D189CF94A5C
:1010E00095420ED1002B054602D52D220270451CDB
:1010F000079A0A43413C002A16D0192C21D84121D5
:1011000020E02F460894462C01D166220892079AC7
:101110003A430A430DD0EC497F180F9931430F91A0
:10112000002B1CD40F9B05E0192C00D9C4E14622EA
:10113000C3E10B463E46089A1A99002909D02B2193
:1011400011E06121192C01D84E2300E06E231A46CC
:1011500023E21B99002900D128E2202103E02D2160
:101160000F9B3E46089A0170411C0391089204901F
:101170000021C84311900420C04312900220C043B4
:10118000099086423ADC0021CC43D04D079F109451
:101190000C91E01B284698410AD20120384079087A
:1011A000DA0789185A08002347185341761CF0E7DC
:1011B00005220024384619462346FFF7BBF80B46A4
:1011C000129A151D11996141761C0746281A9941FA
:1011D0000CDA119D101D29466141FA0F5B009B1826
:1011E000129A761E7F00C01B9941F3DB0C99491EB1
:1011F00009988642109CEE4DCADD00E0079F012E43
:1012000040DBEC480D960C910025BE1C6B412F462F
:101210002C460F93425D0E9230461946FFF779F83F
:101220000521FFF797FA002110910E9AFFF761F858
:10123000C7194C41129A119BFFF77CF80F9B861936
:10124000DC484B416D1C032DE3D1119A0D9E2046C5
:101250003D461299091D0F9111461746109A5141AA
:10126000EA0F63009C183A4603466F00761E0F98FB
:10127000401B9941EBDB0C99491C701C01282F463F
:10128000CC48BFDC0C911C9D19980690301F1E465F
:101290000A9B79081F40F2078918760800247F18F6
:1012A0006641401CF5D30F96002D089900D5062500
:1012B000202208469043472803D1672903D04521BF
:1012C00002E0681C14E065210C9E681C0B908642AD
:1012D000084600DC6620099CA64200DB0146002D82
:1012E000184600DC0020069E7442744104400B98AE
:1012F000662904D10C984619F017864330462E46CD
:101300000797102800DB1020DD060027002809972A
:10131000089101920294059633D00B90A54A384665
:10132000871C09984541044606461090125D0E92AE
:1013300038462946FEF7EDFF0521FFF70BFA00219D
:101340000D910E9AFEF7D5FF8619109A4A41109218
:10135000129A119BFEF7EEFF964AC7194D41641C85
:10136000032CE3D170080A9B1E40109CE107401833
:10137000650830180D994D410B99491E0B91CFD13D
:1013800000E03846D9438C4A0E91891C099B534191
:10139000079A80180F9A5541411A2946994102D25D
:1013A00012950C9E2DE00027841C7D413E4610972F
:1013B0008048C25D0F9220462946FEF7AAFF05210C
:1013C000FFF7C8F900210D910F9AFEF792FF8619D9
:1013D000109A4A411092129A119BFEF7ABFF041922
:1013E0004D417F1C032FE3D10A9A32407008109EB2
:1013F000F1074018710810180D9A514112910C9E76
:10140000761C089C662C059D21D1012E039B5FDB79
:10141000751C1024129E012C0FDB0A221F4600238C
:101420003146FEF787FF3B460E460E990840310FC6
:10143000614A16403031641E00E0302119706D1E83
:101440005B1C012DE7DC12960026059D44E00A2274
:1014500000231299FEF76EFF0A0F3032039B1A70B9
:10146000302A00D0761E069A002A03D1012D01DA17
:101470005B1C02E02E225A709B1C012D57DB4E4A4A
:1014800011400E9A10406C1C0F25012D0DDB0A2215
:101490001F460023FEF74EFF3B460E9A10400A0FF0
:1014A000454F394030326D1E00E030221A70641E04
:1014B0005B1C012CE9DC3AE06622192C67D84E212E
:1014C00066E0C046FF07000002FCFFFF3233333303
:1014D000302119705B1C10240699002901D1012DBF
:1014E00002DB2E2119705B1C012D20DB6D1C002EF0
:1014F00012D4012C14DB0A221F4600231299FEF796
:1015000019FF3B460E460E990840310F2A4A1640F5
:1015100012963031641E04E030211970761C02E00E
:101520003021197000266D1E5B1C012DDFDC029836
:1015300000280BD00020C043195C1B183029FBD0B9
:101540002E290199089A03D05B1C01E00199089AA1
:1015500010468843452818D11A70002E01D42B203C
:1015600000E02D205870F017341844400A2520461A
:1015700029461F46FFF7EEF83B4645433030B8702A
:10158000601B30210143F9703B1D049809E06E2176
:10159000192C01D8492300E06923AA7069702B70C7
:1015A000EB1C00211970181A13B0F0BD0146DCE5E0
:1015B00032333333DC5E0008FFFFFF0FF0B581B03C
:1015C000009316460F460546002438463146FFF77D
:1015D000C1F831464143791A092900DD27313031FC
:1015E0002955641CB7420746EFD22E190098844251
:1015F00008DA0098071B302230463946FFF780F89A
:10160000F619009C00213170701EA84208D9C94308
:1016100002782B7803702A7040186D1CA842F7D806
:10162000204601B0F0BD000010B584B0022000F0EB
:101630004BFE00F083FE02F0AFFA02F0C1FA002484
:10164000019469468C7102940120C872104A8A8004
:10165000E1221203009201F03DFA02F08DFB00F04E
:1016600097FE01F0A3FB1A4800F092FD01F016FE70
:1016700016480470074803901648019006480090E9
:1016800002946946204600F097FE04B010BDC046A3
:1016900003020000011F000801102000B0B502F095
:1016A00013FE0A48057802F015FE0024002D0AD02A
:1016B0002320C100064801F0DBFB0120C1030548DF
:1016C00001F0D6FB00E0E4432046B0BD400201201B
:1016D000C00001200000022070B504460020072C45
:1016E00001D9C04370BD049D14266643254CA25108
:1016F000CA18A4196160A260E1602361002D09D0BD
:101700000C220020204C183B11C108390D46083529
:101710001CC5486170BDC046B0B50024072828D854
:101720001422424317488018C268002A21D00C298D
:1017300000DC0C21CB1C0320834315689D4211461D
:10174000104608DA104601468068002811D08558F6
:1017500080189D42F7DB1C460C34A5420BDD2D1B87
:1017600025502418084D65608568A5600360A21A9D
:1017700002E02046B0BD82688A60044941600C30B6
:10178000B0BDC0465C020120F0F00000F1F10000A5
:1017900010B501F0CFFB0446002803D06C2C14D008
:1017A0006A2C0FD10A4802680A480B49FEF71CFF51
:1017B0006C2001F0DBFB012001F0EAFB1F2001F0AF
:1017C000C5FB02E0002001F0D1FB204610BDC04661
:1017D000D85E0008008000203445000801490860F8
:1017E0007047C0462800014010B503239C078003C2
:1017F0000019074C044018040918890889B209190E
:10180000044B19601018800880B2586010BDC046A3
:101810000000FFFF2C00014048490A6801239A4359
:10182000101808607047C046104908607047C046ED
:10183000411E884140010C490A6820239A43024313
:101840000A600120800301490860704700E100E060
:1018500080B50120400304490A6802430A60034836
:101860000068804780BDC04634000140340201203A
:10187000B0B507220240FF21CB01440A1C40A21848
:1018800043097824234078332340D2182B4B5C68DB
:10189000054D254052195A6009041A688A43000E02
:1018A000000410181860B0BD0080FFFFB0B5441AE6
:1018B000012C04D0022C04D10120850705E07F20F3
:1018C00002E0062C1AD28120C5051046FFF7D2FA95
:1018D0000146284602F004FD05462046FFF7CAFAF5
:1018E00001462846FFF7EAF9FFF7BEF90022074B49
:1018F000FFF766F9FFF794F980B2B0BD092C01D368
:101900000025E2E741200506DFE7C0460000E03F92
:1019100081090C220A40C107890F8918020E1202A0
:101920008918000BF0220240F032D0B208180349A7
:101930000A68034B1340C01808607047200001403C
:101940000100FFFF104800687047C0460B4902289D
:1019500006D0012809D000280ED10868086009E0E7
:10196000012042070868104305E0012000070A68CB
:1019700002430A60086808607047C046085010407B
:1019800001480249016070474C020120005A62027E
:101990000020704780B500F0ADFC80BD80B500F040
:1019A000B1FC80BD164A515C6722D200815080187C
:1019B000002141607047C046114A515C0A0251182B
:1019C0001D22520181508018002141607047C0469D
:1019D000B0B57321C9004218536844580125254306
:1019E00045505360B0BD00001D22520183185B6852
:1019F000034B595C80580840411E88417047C046DF
:101A00001445000849006F4B595A0818C169836989
:101A10008361034B1340034A0A40D118C1617047E8
:101A2000FF0F000000F0FFFF4900664B595A0818ED
:101A30008168C168C16082607047C0464900614BDF
:101A4000595A08188169C369C3610323DB019943AB
:101A50009207D20D891881617047C0464900594BE1
:101A6000595A08188169C369C3610723DB02994386
:101A70005207920C891881617047C0464900514B4A
:101A8000595A0818416C036C03640F23DB02994315
:101A90001207520C891841647047C0464900494BEF
:101AA000595A0818016C436C436401239B02994303
:101AB000D207520D891801647047C0464900414B56
:101AC000595A08188169C369C36101239B0499436A
:101AD000D207520B891881617047C0464900394BC3
:101AE000595A08188169C369C3610E239943520783
:101AF000120F8918816170474900324B595A0818F2
:101B00008169C369C36107231B0599435207520AC0
:101B1000891881617047C04649002A4B595A0818F4
:101B20008169C369C36101231A409943891881619E
:101B30007047C04610B54900224B595A0B580B1834
:101B40005C680A505C6010BD49001E4B595A081869
:101B50008169C369C36103235B0299439207520DF4
:101B6000891881617047C0464900164B595A0818B8
:101B70008169C369C36107239B0399435207D20B51
:101B8000891881617047C04649000E4B595A0818A0
:101B90008169C369C36101235B049943D207920B36
:101BA000891881617047C0464900064B595A081888
:101BB0008169C369C361702399435207520E891822
:101BC00081617047184500080021024A02604160A7
:101BD0007047C04602010001C00023490818406850
:101BE0004068704710B5204C60684169002905D0F5
:101BF0000121C1602068002800D08047E068416969
:101C0000002905D00121C160A068002800D08047CC
:101C100010BDC04680B501F0C9FF80BD10B5C90038
:101C2000114A5118496842680A6003789C1E624252
:101C30006241002B01D0920100E0412283789B0099
:101C40001343C2785207120E1A43407840001043E3
:101C5000886010BDC000044908184068816880226F
:101C60000A4382607047C046880001200020C043BC
:101C700070470000F0B5A14C25680226B5432560E9
:101C80000504174E2E401E2505400F07FF0A7D193B
:101C9000AD196668134F3740ED196560050C6D1E70
:101CA000624E2E409202384D52192A409219E2603B
:101CB00089015F4A89181140A16003218A07059DA7
:101CC000AD03AA183F4D154009045918890889B277
:101CD00049192161C007800F216801432160F0BDCF
:101CE0000000E07FE1FF010071490A6801239A4387
:101CF000101808607047C046F0B581B000931346D5
:101D00000A4601460F246604C4033440C50B1E274F
:101D10002F403F19794C60681A4D28403818401CF4
:101D2000606008023040CE07B60A1707FF0EBE19E2
:101D3000301892013E4E9219324080186A1CA568F4
:101D400015404019A060180C401EDF4A024098025E
:101D5000DF4BC01818408018E06003208207069B04
:101D60009B039A18DB4B13400004009A101880085C
:101D700080B2C01820610220084021680143216020
:101D800001B0F0BDE0FF010000FC0F0003490A684C
:101D900001239A43101808607047C04608000140AC
:101DA00010B5074A136803239C0789030919C94C16
:101DB0000C4019044018800880B22018106010BD33
:101DC000100001400000FFFF4C490A68164B134009
:101DD0000322920480008018164A02409818086076
:101DE0007047C046B0B5454B1C680225AC431C602B
:101DF0001C680D4D25401D60040C641EB24D25402D
:101E0000DD6089050A4C09199960C007800F1968BF
:101E1000014319600320800491000818054901401E
:101E2000186808431860B0BD0F00F0FFFF03000002
:101E30000000C0FFF0FF0F00411E884180002F49C5
:101E40000A6804239A4302430A607047B0B501222E
:101E500014040A4B164A0A4D012907D1116829407A
:101E600000010019184008431060B0BD51682940B6
:101E700000010019184008435060B0BDC0FF0100C8
:101E80003F00FEFF0A4A012908D1411E8841400156
:101E9000116820239943014311607047411E884116
:101EA0004001516820239943014351607047C04667
:101EB00004000140411E8841C00010490A680823FF
:101EC0009A4302430A6070470C48026801218A4322
:101ED000026002680A430260FF221202436B13434E
:101EE0004363436B93434363426B802313434E220C
:101EF0009343436388033249086070470000014000
:101F000003480221017003488168491C81607047C1
:101F100040020120C000012080B54A1E022A0AD2D8
:101F20001C224A43064909688918C96849080918E2
:101F3000FFF736FF80BD0029FCD1FFF745FF80BDCC
:101F40003C02012073490A6804239A43C007400FEA
:101F5000101808607047C046274908607047C0469F
:101F6000134A002810D04B1ED9B201200229014685
:101F700003D859B289000FA3595813680B43136053
:101F800080030F4908607047032906D0022907D053
:101F9000012908D11068022107E01068082104E037
:101FA0001068042101E01068012188431060704727
:101FB000340001400200000004000000080000009E
:101FC00000E100E0F0B581B004460025094E0A4F5B
:101FD0002046E840C00708D03968E8B288470120A9
:101FE0000002A8403168014331606D1C042DEFD11F
:101FF00001B0F0BD34000140380201203F2809DC67
:10200000072815DD08281FD010281FD0202827D129
:1020100005207047FF2811DD01210A02904217D0E8
:102020008A02904216D04902884219D1092070478D
:10203000022811D0042813D10220704740280DD067
:1020400080280DD107207047032070470420704777
:10205000082070470A20704701207047062070470B
:102060000020C04370470000F0B5840808252540D3
:102070000C07240A0601F6B234196519254C2668A6
:10208000104F3740ED192560090C491E0E4D0D40CB
:1020900011050E4A89181140491980090C4A10404F
:1020A000801810400818606003208107059A920389
:1020B0005118084A0A4000041818800880B2801895
:1020C000A060F0BD07FF0FFFFF0300000000F03F1E
:1020D00000FC0F000000FFFF0E490A68054B13408B
:1020E0000122D204C0018018034A024098180860F7
:1020F0007047C046FF01F0FF00FE0F00411E8841FF
:10210000000201210902034A13688B430343136051
:102110007047C0461400014070B5154D29787F24E2
:1021200021402970800013A10858144E7070010AD4
:10213000B170C003C00FF070FFF72AFC400010A17F
:10214000085A3071C005C00F10307071307801210D
:1021500001433170B079C007FCD03078FE210140D6
:102160003170F0798021014329700440204670BD10
:102170003C30104025960000439100006130104033
:10218000D601860180B5C1B2012001F0B9FD80BD44
:1021900070B504460125C573857345730573FA2030
:1021A000A07400266674FF20207411481149216034
:1021B0006060A660204613302121FEF7C6FA342065
:1021C000C4212154E6630C48A063204634303C22ED
:1021D000C2708170427065756421084A084B094DD0
:1021E000056143618261C1610748206470BDC046DA
:1021F0003E004608FF7F026220000002E803E80379
:102200000200B80B28A0A00F80969800F0B50B78BC
:10221000032B01D0302200E070225C1E651EAC4111
:10222000640012194C78651E6E426E41B500521959
:10223000A41E65426541EC001219092807D8012542
:102240008540204C022B0FD16668AE430EE010286B
:102250001AD804460A3CE4B20126A640184CA579D7
:10226000022B13D0354312E066682E436660850763
:10227000ED0EFF26AE40FC270740E419E768B743A0
:10228000AA403A43E26006E0012217E0B543A57197
:10229000035D02550B7800220C280FD0022B0DD1C4
:1022A0000C2800D9401E4006000E89788140032387
:1022B0008340044804689C430C4304601046F0BD0E
:1022C000443810402C50104010B50446FFF758FB1E
:1022D000064801210170FFF75BFB0549087000F01B
:1022E000EDFD204600F068FB10BDC0464402012011
:1022F0004802012080B57D21C900484300F002F862
:1023000080BD0000B0B582B00546FFF71BFB0A494F
:10231000FEF720FA04466C430BD00120FFF75CFC6B
:1023200005460120FFF758FC01900198281AA042A9
:10233000F7D302B0B0BDC04640420F0070B582B0C6
:10234000FFF768FC6D462846FFF73EFC01242C7021
:102350006C80002628463146FFF760FC2846FFF7D0
:1023600033FCEE702C7028462146FFF757FC3046B0
:10237000FFF770FC2046FFF76DFC03481021016059
:102380000248016002B070BD80E200E000E100E0C0
:1023900080B500207021FFF7BFF90146D5480160E4
:1023A000012001F03BFDFFF78FFD0248FFF7D4FD50
:1023B00080BDC046F92B0008F0B58BB0062800D9C7
:1023C00096E10C46800001A108588746E9230008E1
:1023D000F5230008132400086D2400088B2400084E
:1023E000972400088B2500082588E80700D0F0E036
:1023F000002012E12078411E88416178FFF77EFEBF
:102400002078002800D173E161786068FFF764FEEE
:102410006EE16088FFF7F2FD0790A0880A90278898
:10242000B448006861698166208801252840E16818
:10243000099121890891E6882469FFF783FD0094BA
:102440001F2007990840390120220A4010180A99D4
:1024500009044018B90832045118089A099BFFF77B
:1024600003FE03212846FFF77BFD41E12078411E52
:1024700088416178FFF706FD2078002800D137E118
:1024800061786068FFF7E2FC32E12788F80700D046
:10249000CCE0002010E12178C80700D123E1954865
:1024A000056860780591A17809020818E178227919
:1024B0001202511809040F18380E6179A27912021C
:1024C0005118E27912048E183102401880B2FFF7D9
:1024D00095FD0A90300AFFF791FD0790A089618968
:1024E000089009914843810069642078824A2A65EE
:1024F00026692E64AE630007C00F48434018686425
:10250000FA087F235B02134006937A06D20D0492E9
:102510008919039105998F0821890591217820292E
:1025200002D36169A96440008019E863A069E86486
:102530002078022101404808FFF7BCFC0398009076
:10254000079880B205990904091808980004099AA7
:102550008218032007400A980004C019049B1843FE
:10256000069B18433346FFF7C7FB2078C00600D50B
:10257000ABE000252846FFF74FF92846FFF758F94A
:1025800001200221FFF7ECFCADE0A278657820780D
:10259000460828463146FFF789F9A070E2782846B8
:1025A0003146FFF783F9E070E2796179A079FFF7AE
:1025B0007DF9E0716068FFF7ABF92068FFF758F923
:1025C000A068FFF70BF922460C3207CAFFF70CF997
:1025D0008EE0484800686388E9081A464A43560076
:1025E000C6602788444A8261626882600260BF07D1
:1025F000FF0F7743BE19C660AD07ED0F27787F0741
:1026000002D5A76807617600B6184660E66846619D
:1026100018044019FFF7E6FB01200021FFF7A0FC9A
:10262000218801200840FFF707FC61E03148056878
:102630003809FFF7E3FC0790E188A2880A91099224
:1026400051438A0060880690AA6221882A4E6E63F0
:10265000A6686E62EE614907C90F51438918A962E5
:102660000F23034008937F07FF0F07980007C00E52
:10267000C01907909719069800090690207800075E
:1026800002D5E068E8624900881928622069286359
:102690002088022101404808FFF70CFC00970998A8
:1026A00000040799401806990904089A89180A9A9B
:1026B0003346FFF7DFFA012001252946FFF750FCDA
:1026C00020882840FFF710FB12E000200221FFF7CE
:1026D00047FC0A48FFF7A8F801252846FFF79CF8B1
:1026E0002846FFF7A5F8217801200840FFF74EFBA8
:1026F0000BB0F0BD3C020120191F0008C92B0008D7
:10270000F0B5ADB006460BA80027877007802520DE
:10271000C50001F05FFA3720000105905F200A90A4
:10272000C0430390B468974884423B462ED805982E
:102730007830099044437069B1694143081992495E
:1027400088423B4622D808953546303500231C4642
:10275000072B15D003988000401917210901415813
:10276000884A91420CD8631C099A51430A9A9200F4
:1027700080582A6842435018183583498842E6D960
:10278000062C01D8002300E00123089D7019029057
:102790002AAD2B7030786870A81C711C0722FDF7D9
:1027A00023FF284600F0E8FD28A9022088800124A4
:1027B0002894FDB2284601F039F97F1C072DF3D388
:1027C000039A5F3219200001049000231D461F4622
:1027D0000A9307960694099216A804751D9306207D
:1027E0001E9050201C9070198268C168046943696A
:1027F000866916921791189419931A967343634930
:102800008B4201D80A9E00E08226079C0699089612
:1028100021965E4EB34202D80A9B1A4603E07D23FE
:102820001B01D2180A9B26460C462092C06900283C
:102830001A4609D0089A059B1A439042049A03D974
:102840000899401A524942181F92F8B216A900F08E
:10285000B5FB1F98099A9042014600D31146002803
:1028600000D1114618357F1CC02D0A460A9BB2D1F3
:1028700001913046CC300A903046CB30099030463A
:10288000CA3008903046C93006903046C8300590AE
:10289000002427463546039E12A9CC80059880194E
:1028A0006022805C087006988019805C48700898E7
:1028B0008019805C887009988019805CC8700A98BB
:1028C0008019805A88801494A81913221201805804
:1028D0001590F8B201F06AF80C367F1C002EDBD19F
:1028E000029C217C0CA8017500260E9606CC0C914A
:1028F0000D922179627912025118A279E3791B02B3
:102900009A18120451181091217862781202511805
:10291000A278E3781B029A18120451180F91083C10
:1029200000F0E0FC04980199814201D2142006E0F5
:1029300008098E2801D9FF2001E0C8081E38C0B25E
:1029400000F04EFC22A88670217D417007994978DD
:102950000170E18AC180217EC170617E01710D49E3
:1029600027910D4926910D4925910F21C9042491E4
:1029700000F042FC0BA8067000F07AFC30462DB047
:10298000F0BDC04660EA00000087930380841E000B
:1029900020FEFFFF401FD007D007E8037800A00FFC
:1029A00080B500F0CDFF00F0D9FC80BD80B500F00F
:1029B000DBFC00F0BFFF80BDF0B581B0002405282E
:1029C00022D83C4A3C4B3D4E800003A10858354676
:1029D0001F4611468746C046F3290008F129000822
:1029E0000F2A00080D2A0008292A0008272A0008B3
:1029F0001D46344801210170002001F027F8022013
:102A0000FEF7A4FFFF2421E0E44350E017462D48E1
:102A10000121017020461E4601F018F80220FEF741
:102A200095FF3D4612E026490F46264E012535709A
:102A3000204601F00BF80220FEF788FF30780028CE
:102A4000284600D1E0431B4E3D46044660B201F0EB
:102A500041F81D4806601D4885420BDC1848854238
:102A600015D0144885420DD116480078002812D0A0
:102A7000012016E01148854210D00F48854201D14F
:102A800000200EE00024E04301F002F80FE00D48C2
:102A90000078002804D10020C04302E0FF2000E0BD
:102AA000022040B200F0F4FF0948056000242046EF
:102AB00001B0F0BD005A620200B4C4040068890984
:102AC000002D31014402012080000120FFB3C40425
:102AD00084000120F0B581B0022801D9022062E013
:102AE0000D4604468120400069460880012C0BD029
:102AF000002C1BD16E460027B77006203146FFF729
:102B000085FBB77007270DE06E460120B0700920E5
:102B10003146FFF77BFB0327B77002203146FFF7F2
:102B200075FBB77069463846FFF770FBA0001FA120
:102B300008588047204601F0D9F8204601F00CF9EA
:102B40002968204601F082F82979204601F0A0F892
:102B50006979204601F0B6F8A979204601F0F0F82D
:102B600029460B31204601F09DF8E979204601F015
:102B7000E1F811A0005D297A002906D01F21084044
:102B8000012181400D48016009E01F210840012119
:102B900081400B480160BFF34F8FBFF36F8F09482F
:102BA00020210155002001B0F0BDC046ED3B0008DA
:102BB000013C0008153C00080506070000E100E0A4
:102BC00080E100E05502012010B51F4C2068416CE7
:102BD000026C51180164C26B914205D1C06C8047F0
:102BE0002168886B086403E0806C80472168086C6A
:102BF0000A6D0221904710BD70B50446124E306830
:102C0000032C05D31C21614340184069804770BDE7
:102C10001C2565434019C16882685118816042686B
:102C2000914206D14069804731684A1948599060FD
:102C300004E00069804731684819806849198A6949
:102C40002146904770BDC0463C02012082B0F0B5DD
:102C5000C3B00C4606464892499302AFF81C0121C6
:102C60000D022946FDF771FD5D20B8705B203870BC
:102C7000052E16D80DA0805D02A948700D48007879
:102C8000B0420ED348AB019302A8C01C294622468D
:102C900001F0CAF8401EFE2803D8012002A901F065
:102CA00039F843B0F0BC01BC02B0004761657772EF
:102CB0006976000098000120FEF7B6FC1BA022A157
:102CC00024A2FDF7D7FBFEF763FD00200421FEF7E9
:102CD00023FD002804D00146002001F09FF803E006
:102CE0001FA00421FDF7C6FBFFF75AFEFEF7D6FC36
:102CF0000028FBD1FFF75AFE002001F039F82449E3
:102D0000896801600C20FEF745FEFA2000F04CF9BE
:102D1000042000F0F7F8012000F03AF91F2000F03D
:102D200015F901F095F800F0F5F8FEE7554C502044
:102D3000466C61736852756E202D2D2025732C20F2
:102D40002573200D0A0000004465632032342032D0
:102D50003032340031353A31303A3236000000003A
:102D60004572726F723A2061745F6D616C6C6F6353
:102D70005F706F6F6C20504F4F4C203020666F7229
:102D80002025642062797465732121210D0A0000D9
:102D9000C0000120431E002A06D0581C521E5B783A
:102DA0008B420346F7D1704700207047B0B584B01E
:102DB000002403942A4D2846FEF70AFE294A284695
:102DC0002146FEF731FE284621462246FEF756FEF2
:102DD00001A90720C8722448029024480190204687
:102DE000FFF778FE284621462246FEF795FE01228F
:102DF00028462146FEF780FE102228462146FEF78F
:102E000001FE284621462246FEF748FE2846214676
:102E10002246FEF763FE284621462246FEF71EFEA6
:102E2000022228462146FEF709FE28462146224670
:102E3000FEF744FE284621462246FEF7B5FE284608
:102E400021462246FEF790FE284621462246FEF7FE
:102E50007BFE284621462246FEF796FE04B0B0BD12
:102E6000000010400060004003020001404B4C0095
:102E7000F0B581B00E460546080B15D00E4FF40A8A
:102E80003E40009600F0E4FF7E1C2846314600F0EC
:102E90005FFEAD19641EF5D1009C002C0AD000F035
:102EA000D7FF2846214603E000F0D2FF28463146EE
:102EB00000F04EFE01B0F0BDFF07000070470000BB
:102EC00070B504460E4D6E1F00F0D2FF3178082217
:102ED0000A433270001940082146FDF73BFC29786F
:102EE00007220A40C000801808382870287802217C
:102EF000014329702878FD210140297070BDC0462A
:102F00000534104002490A7802430A707047C046EF
:102F1000183410400C48017820220A43027041798D
:102F2000BF220A4042711F48017801220A43027001
:102F30007047C0460F4800787047C0460248017885
:102F4000DF220A40027070474A34104002490022D2
:102F50000A7048707047C046153410400248017826
:102F600080220A430270704766341040014908709D
:102F70007047C0462A3410400721014003480278B8
:102F8000F8231340591801707047C0464F34104061
:102F900041424141880003490A78FB231340181835
:102FA00008707047063410404101034A1170C1088F
:102FB0005170C00A9070704724341040F0B58DB045
:102FC0000F460490096878680590B8680190FE681B
:102FD0003C6906966643386A0A90786ABD6ABB699E
:102FE00000220C918D420B90089307941DD9F86A2A
:102FF00009907D20C10030461446FDF7ABFB224608
:103000000C994018854221462C4610D8E000001D3E
:103010000A21FDF79FFB02460999002902D0080406
:10302000CC4941180120024301E011462C462720DB
:10303000C301387D002809920391029310D0002A21
:103040000C9D03D0601B7D21CE00464370011818F3
:1030500008302549FDF77EFB4000441C019F09E034
:10306000F8694003C0182049FDF774FB1F4C044069
:10307000019F0C9D690BE804001D0A2200263346BF
:10308000FDF770F904994901194A88508D183804E0
:10309000B04FC0190599491E89B20143696006986D
:1030A0004003029940181049FDF754FB07990904A1
:1030B000C91980B20843A86020040899491E89B242
:1030C0004018E8600A98401E80B22861FF20000680
:1030D0000B9981436961AE61099880B203990843F5
:1030E000E8610DB0F0BDC04610270000FEFF0700EC
:1030F00000280140F0B582B036494A7ABB2313401C
:103100004B72CA7BEF2300931A40CA738A7EDE2576
:103110002A408A760C7FFE2214400C77CC7F7F26D3
:103120002640CE772C4C2678164026702B4CE67E17
:103130001640E676267FDF2737402777677FBF2652
:10314000374067778F7E37408F762378F8273B406C
:103150002370237A134023720190012805D123792B
:103160003B402371237B134023730B7B33400B7352
:103170004B7BF72633404B738B7B2B408B73CB7B86
:103180003340CB73A37F1F261E40A6778B78FD2686
:103190001E408E70A67C0198002806D02E40A67492
:1031A000637C00980340637402E01640A6740098A4
:1031B000237C03402374207DFB2303402375E07FA1
:1031C0001040E077087810400870887810408870C8
:1031D00002B0F0BD213010404130104000301040AE
:1031E000FF210904034A13688B4300041818106078
:1031F0007047C04660200140027801210A404378B0
:10320000DB079B0F9A1883789B071B0FD218C37894
:103210001B019A1803791B03D218C3885B1E9B05F8
:103220009B08D218037ADB075B08D218437ADB07C6
:1032300013430E4A1360C90413690B431361418998
:1032400083891B0459185160C189038A1B045918CA
:103250009160418A838A1B045918D16011693D4BE2
:103260000B40C08A181810617047C04600300140FA
:1032700007210904084A13688B430178C907C90B61
:10328000C9184378DB079B0BC9188078C007400B2F
:10329000081810607047C0461030014010B5D2B019
:1032A0005120820001AC07492046FCF7E9FF204687
:1032B000FFF726FA002802D003A0FDF77FF952B0ED
:1032C00010BDC046D04300084552524F523A2072BA
:1032D0006164617220696E6974206661696C210D98
:1032E000000000000521890142684A430121C90309
:1032F0005118184A0A400168491E89B28A181649AD
:103300000A60027B07231340427B5207920ED218B9
:10331000837B5B07DB0D9A18C37B5B071B0DD21801
:10332000037C5B075B0CD218437C5B079B0BD218BA
:10333000837C5B07DB0AD218C37C5B071B0A134341
:10334000027D521E920692081A438A608068C86005
:103350007047C0460000FFFF00200140054801689B
:1033600005220A4302607047024801680522914322
:103370000160704704200140F0B58FB00B9001262A
:103380003046314600F0F8FBFFF7E8FDFFF7D6FDC9
:10339000DC48FFF795FDDC4DA87A1821029108431F
:1033A000A872687BE0210D910840083068733046B0
:1033B000FEF7F4FA00F088FF28780E900720FFF758
:1033C000DBFD3046FEF7EAFAD049C87F3043C877C4
:1033D000CF4F387830433870B8783043B870022017
:1033E00004460A90FEF7DAFAF8200E990840C01C4D
:1033F000287000F06FFF387B40210E91084338732E
:10340000787B082108437873B87B21220C92104303
:10341000B873F87B0843F873BC49887F0D9A104352
:103420008877B8782043B870387B80252843387374
:10343000787B1021099108437873B87B4221009171
:103440000843B87305242046FEF7A8FA387B7F218D
:10345000079108403873787BEF2106910840787314
:10346000B87BBD210140B973787A442103910843A8
:103470007872F87B099B1843F873B87E0C9908435F
:10348000B876387F30433877F87F08952843F87747
:10349000A04D2878304328709C4AD07E0196304356
:1034A000D076107F202101431177507F0E99084379
:1034B0005077387F0A9908433877E8780843E870EE
:1034C000049420461C46FEF769FA387FFD21084027
:1034D0003877E8780C910840E8700B98024600783D
:1034E000002800D0029CF97A032319400919F972C7
:1034F0000028099301D0062100E0042116460D9D05
:10350000824C3A7BC023134059183973397C2940C7
:103510001E313974797C1F2211437974B97C29409A
:103520001231B974F97C1143F9740028059202D064
:103530000A9B029A01E00B220A9B397D29408918D7
:103540003975797D294018317975B97D0028039A3C
:1035500000D01122BA75F97DFA75397E002801D0A4
:103560000D2100E0192139767A7E7976002800D085
:10357000019BB87FFC210140C818B8770498FEF77A
:103580000DFA3078FEF7C8FD63490870B87E0E99D1
:103590000843B8763220FEF701FAB01C0E90A07CEA
:1035A000B178002906D063210843A074617C5020C3
:1035B000084309E009990843A074A07C9F210140B9
:1035C000A174607C502188436074207C50210143A9
:1035D0002174207D0C21014321750520FEF7DEF9C1
:1035E0000E980078012801D0022000E00098C04326
:1035F000A17C0140A174207DF721014021750E9D21
:10360000284600F0A5F92178172001432170217A7E
:10361000099A114321722978012905D121790143A1
:103620002171207B10432073207D01210A910843E2
:1036300020757078400039490A5C059E3240A37DB0
:1036400025460D9C2340D318AB75EB7D23409A187B
:10365000EA75081840783040297E21402C464018F1
:103660002876687DFE2630406875A87DBF252840F5
:10367000A075E07D2840E0750520FEF78FF9207CDD
:10368000284020742078069908402070207A0C9AEF
:10369000104020720B988078012809D1607C284066
:1036A0006074207908402071207B0C9908402073B9
:1036B000207D304020750520FEF770F9207AFB212F
:1036C000084020720E980078012802D1227B0A401F
:1036D0002273217D0C9A11402175954A9178079BA0
:1036E00019409170B97A0A9A1143B972797A089A95
:1036F00011437972217E19402176944908700FB0E8
:10370000F0BDC046601823004F3410400030104018
:10371000213010404130104058020120204500085F
:1037200010B50C4C6068010702D0FEF74BFC10BDD1
:1037300081060CD4000609D507480068002800D08F
:1037400080470120C00321680143216010BDFEF7BE
:103750007FF810BD3400014050020120F0B583B065
:10376000029000F0B1FD6F48007800900720FFF74D
:1037700003FC012501952846FEF710F96A4FF87FF2
:103780002843F877694C207828432070A078284394
:10379000A07002263046FEF701F9F8200099084093
:1037A000C01C6049087000F095FD217B80200090CE
:1037B00001432173617B102211436173A17B42237A
:1037C0000B43A373217F314321775948C17831439B
:1037D000C170237B40210B432373637B0820034389
:1037E0006373A57B21231D43A573E57B0543E57327
:1037F000B87FE0250543BD77A0783043A070607A9C
:10380000442505436572E07B1043E073A07E1843B6
:10381000019BA076207F18432077E07F009A104319
:10382000E077434A107818431070F87E1843F87612
:10383000387F202202433A77787F08437877A07E4A
:103840000843A076B87C0299002906D0632108437A
:10385000B874797C5020084309E003210843B87408
:10386000B87C9F210140B974787C502188437874DA
:10387000387C502101433974387D0C21014339755E
:1038800039781720014339703A7A03210A433A7292
:10389000FD26029A012A354606D13A7902433A7149
:1038A000387B08433873BD25387D18433875184672
:1038B000FEF774F8207B7F2101402173617BEF20AC
:1038C00001406173A17BBD220A40A273217F314078
:1038D0002177174AD1783140D170B97C2940B97429
:1038E000397DF7220A403A753A7CBF210A403A7482
:1038F0003A7802403A703A7A32403A72029A012A91
:1039000009D17A7C0A407A74397901403971387B5F
:10391000FD2101403973387DFE210140397503B026
:10392000F0BDC0464F3410400030104021301040F0
:103930004130104080B505480078FFF7DBFB80BDC3
:1039400080B502480078FFF709FF80BD54020120CE
:10395000F0B581B01449842200920A70427807259C
:103960002A4083785B079B0E9B184B7010248C7049
:1039700002792A40C6787607B60EB6180E7282799A
:10398000D207970E10374F7242792A408A72007818
:10399000012806D1009808714B718C710E734F731A
:1039A0008A7301B0F0BDC0460130104010B50A78EE
:1039B0001F2313404A78D206920DD2188B78DB066B
:1039C0005B0CD218CB78DB061B0BD2188B885B1EE6
:1039D0009B059B08D2188B79DB075B08D218CB7943
:1039E000DB07D318C4000E4AA350A3188C685C6090
:1039F00001230340C9680A244C438034210A002B68
:103A000000D00904002B01D0074B00E0054B400813
:103A100080008018026C1A400A43026410BDC04640
:103A2000102001400000FFFFFFFF00000A794B79E2
:103A30009B00DBB213431A040968491E89B251186E
:103A40008000014A815070470029014010B50122D1
:103A500093040E490C681C430C600B68002811D4B9
:103A6000FF242405A343C0B20005181808605004C1
:103A70000B6803430B600B6883430B6010040B68F7
:103A8000834301E0100403430B6010BD0850104055
:103A900010B524490B68002816D40122940323434F
:103AA0000B60FF231B040C689C43C0B20004201869
:103AB000086050030B6803430B600B6883430B6083
:103AC00010030B68834302E00120000303430B60F3
:103AD00010BDC04680B513490A6800281AD40423D3
:103AE0001A430A60FF2212010B689343C0B202011D
:103AF0009A180A600A6802231A430A600A689A43FD
:103B00000A600A6801239A430A60411C0748FCF7CF
:103B100021FE03E0012002430A60034804490860D3
:103B200080BDC0460C5010400068890900B4C40430
:103B30004C0201204A68022A07DB0A6810700868F4
:103B4000401C08604868401E486000207047000024
:103B500070B50C460246C54D002628463146FDF795
:103B6000E9FF284631462246FDF74CFF28463146FC
:103B7000FDF722FF70BDC04610B5064A13680C243D
:103B8000A343C007400FC907090F08181818106091
:103B900010BDC04604501040134801680122114373
:103BA00001608168114381607047C0461E4801680A
:103BB0002022114301608168114381607047C04633
:103BC0000120400308490A6802430A608A680243E8
:103BD0008A6070470120000203490A6802430A60B4
:103BE0008A6802438A607047185010400E48016886
:103BF0004022114301608168114381607047C046D3
:103C00000948016880221143016081681143816085
:103C10007047C0460120000203490A6802430A6057
:103C20008A6802438A6070471C501040B0B5C400D7
:103C3000054D2959002901D00020884728194068DE
:103C40000121C160B0BDC0469C000120F0B581B02B
:103C50000C46800045490E58FDF774FEF168802738
:103C60003943F160050928462146FCF773FDC1B2CE
:103C70003160010A71606043281A80012146FCF717
:103C800069FDC0217050F068B843F06001B0F0BD2C
:103C9000032211408000354B1858C36893435918CC
:103CA000C1607047097801220A40C90030230B40E7
:103CB0009A18C0230B40D11880002C4A10588160FC
:103CC0007047C0468000294A1058C268002903D0B6
:103CD000022906D1082102E008210A4310218A4363
:103CE00001E018210A43C2607047C04680001F49A6
:103CF0000858882142580223134343507047C04656
:103D000080001A4A1058C26F9207FCD5016008461D
:103D10007047C0460A78002A0BD08000134B185811
:103D2000C36F9B07FCD502604B1C4A78002A1946DA
:103D3000F6D1704780000D4A105894228150704788
:103D40004A1E914189008000084A1058C268042325
:103D50009A435118C160704780000449085888216F
:103D600042580423134343507047C0462845000877
:103D700080002C4908587047F0B581B001260096A4
:103D80000F27FB010024114920460A46FDF7A4FC39
:103D9000002803D0054601200DA10BE00096FB0290
:103DA000144930460A46FDF797FC002807D005461F
:103DB000012011A1FEF74AFF284601B0F0BD1948C5
:103DC0008021FCF7C4FC2546F6E7C0468040002071
:103DD00061745F6D616C6C6F635F696E69745F7055
:103DE0006F6F6C2030206661696C65642121212031
:103DF0000D0A00000048002061745F6D616C6C6FFB
:103E0000635F696E69745F706F6F6C2031206661EB
:103E1000696C6564212121200D0A00008000014A9F
:103E2000115070470040002010B584B0039101ACE0
:103E3000002900D004460294044802A900F01CF8AE
:103E40000021029A117004B010BDC046353B000835
:103E500010B5064C00212046FDF7C6FD0128F9D01B
:103E600000212046FDF79EFD10BDC0460000104019
:103E700000487047005A6202F0B5C5B01F461446AC
:103E80000991089012A8811C0591401C0690002001
:103E90000790C0430B900D972078671C252800D011
:103EA000E2E065780622574E30462946FEF772FF5B
:103EB000A41C00282FD0002020270E9010901190D5
:103EC0000F902A2D08DD2B2D0DD0302D0ED02D2D4D
:103ED00014D10120109011E0202D09D0232D0AD1FA
:103EE00001200F900AE001200E9007E0302705E046
:103EF0000120119002E0002D00D1D3E125780622A7
:103F000030462946FEF746FF641C0028D9D10A979F
:103F10000B98271806E020200A90002010900E90A1
:103F20000F9011902A2D0ED10D9F01CF002801D5A1
:103F300001211091C11746184E402578641CC72EE8
:103F40000CD9C8260AE028463038092804D8284663
:103F50003038092814D97C1C00260D9F2E2D05D140
:103F600021782A2905D101CF641C24E00B980C90FC
:103F700028E008463038092810D900200C901FE0AE
:103F800000260A2070432E18303E7C1C7D7828467F
:103F900030380A282746F4D30D9FCFE700200A22A5
:103FA000424388183038621C61780B46303B0A2B3C
:103FB0001446F4D31446C8280B9900DC01460C9132
:103FC0002578641C0522BAA02946FEF7E3FE0028E6
:103FD00001D02578641C2846572D22DD633815282A
:103FE00051D8C04678440079400087447F0D1E1E9A
:103FF0001EDD0DDDDDDDDD878BA3DDDDB3DDCBDD9E
:10400000DD4FC046DF5E0008384680C80D90002FA7
:1040100000D5CCE00E98002800D1CDE012A82B21CD
:10402000D1E04538032800D3BAE0FF1D07208743BD
:104030000D970CCF00950F9801900E980290119D4E
:1040400003950C9904910543681E854112AF3846CB
:10405000FDF736F8034638780D9F2D38414241412F
:104060000D4311950837CDE0002800D11AE10999D8
:10407000089A9047401C00D116E10798401C079011
:104080003C460D9F07E7582D00D08DE002CF12ABC4
:104090000F98002803D012A8874A0280059B10229F
:1040A0000E9318460C9BFDF789FA12A9582D0ED1D4
:1040B000097800290BD012AA0B46613BDBB2192B01
:1040C00001D8203911705178521C0029F4D10C9973
:1040D000491C01D020210A910F9A511E8A4151009A
:1040E000119112A90E9A511A0B188BE001CF12A947
:1040F000002211924A700870012385E001CF0799D0
:104100000160C8E602CF12AB0F98002806D012A8B3
:10411000302202700029069B00D1B3E011930822DF
:1041200018460C9D2B46FDF749FA12A9119A511A0F
:104130000B182FE002CF12A85F4A0280102208233A
:104140000598FDF73BFA0C99491C01D020210A91F2
:10415000831C23E002CF00200C9D0A5C002A03D0C0
:10416000401CC828F9D1C820854200D30546012D3E
:1041700000DA90E612A82A46FCF736FA00201190E1
:104180002B463FE002CF12A80A220C9D2B46FDF7DA
:1041900015FA0346681C01D020200A90002030E068
:1041A000002D7FD0252D73D0C82D7DDC73E612A89D
:1041B0002D210170794208E012AD1198002839468E
:1041C00004D012A8202101703946069D0A222846F3
:1041D0000C9BFDF7F3F912A9119B0E9A13435A1E7B
:1041E00093411193002F01D4002200E001220D9F82
:1041F00028180C9B5B1C01D020230A93431A1198AA
:1042000010431190C82B4FDC9E4207DD1098002808
:1042100006D012A8C018F11A20221DE01E461DE08B
:104220000D97F71A12A9C8191D465A1CFCF740FA37
:104230000A98C2B2202A01D100201190012F1FDB61
:1042400012A8119BC0189919491B5B1C99420D9F1C
:1042500000DC1946119BC91AFCF752FA012E00DA4C
:1042600019E607983018079012AD28780999089A2E
:104270009047401C18D0761E6D1C002EF5D10AE622
:104280000D9FEBE712A80021417001230C9D81E7EF
:1042900025200999089A9047401C05D00798401C92
:1042A0000790F8E5079800E00B9845B0F0BDC046D0
:1042B000686C4C7A000000003078000003B40148BC
:1042C000019001BD0100012003B40148019001BD2E
:1042D0002D00012003B40148019001BD51000120CF
:1042E00070B5420064414B005C41120E39D01B0E88
:1042F00038D0FF2A3CD0FF2B3AD0D2187F3A400268
:104300004902400A490A4518ED0106004E43000AD9
:10431000090A48430104731A4019190C4318990FEC
:1043200004D05B08012149075B1A521CD80904D349
:10433000401CF50301D19D0607D0FF2A08D2D50500
:1043400006D0E4072043401970BD0125A843F4E7D7
:10435000002A01DCE00770BD2402FF202043C005D5
:1043600070BD1B0EFF2A03D0FF2B01D0E00770BDEC
:10437000FF2636064500B54206D84D00B54203D8A3
:10438000D218FF2A00D0E7E7004870BD0000C07FC8
:104390008182838485868788898B8C8D8E8F91928C
:1043A00093959697999A9C9D9FA0A2A3A5A7A8AA2A
:1043B000ACAEB0B2B3B5B7B9BCBEC0C2C5C7C9CC4C
:1043C000CED1D4D7D9DCDFE2E6E9ECF0F3F7FAFEA0
:1043D000000007000600040178E60000000000006D
:1043E00000000000000000000000000000000000CD
:1043F00078E600000000000000000000000000005F
:10440000000000000000000078E60000000000004E
:10441000000000000000000000000000000000009C
:1044200078E600000000000000000000000000002E
:10443000000000000000000078E60000000000001E
:10444000000000000000000000000000000000006C
:1044500078E60000000000000000000000000000FE
:10446000000000000000000078E6000000000000EE
:10447000000000000000000000000000000000003C
:1044800030F2000020000000020000004A0000009E
:1044900030110000280A00000000000000000000A9
:1044A000000000000707020201000000C800000031
:1044B00000000000000000000000000000000000FC
:1044C00000000000000000000000000000000000EC
:1044D00000000000000000000000000000000000DC
:1044E00000000000000000000000000000000000CC
:1044F00000000000000000000100000090D0030058
:1045000001000000000000000100000000000002A7
:1045100001E000000102040800005800B00008019A
:104520000A10011001080101006000400070004005
:104530000080004020050120758100203585002085
:104540002F85002000000000000000000000000097
:10455000000000000000000000000000000000005B
:104560004585002000000000000000003785002085
:10457000478500207D8500208785002091850020CB
:104580009B85002017850020A5850020A785002099
:10459000A985002041850020438500203185002029
:1045A0002D85002087810020158500203985002079
:1045B00087810020878100203385002087810020AB
:1045C000878100208781002087810020878100204B
:1045D000878100201F850020218500202385002061
:1045E0002585002027850020298500202B85002097
:1045F0001385002000F002F800F046F80CA030C847
:10460000083824182D18671EA246AB4654465D464E
:10461000AC4201D100F038F87E460F3EB6460FCCD2
:104620000126334200D0FB1A3343A246AB4618475B
:10463000DC1600001C170000103A02D378C878C1BD
:10464000FAD8520701D330C830C101D504680C60D4
:10465000704700000023002400250026103A01D3F3
:1046600078C1FBD8520700D330C100D50B6070472A
:1046700010B5732902D100F090F910BD002010BDD3
:104680001FB51FBD10B510BD03488546FFF7F8FFE5
:1046900000F0EAFE00F0B2F90000022003B4FFF7D8
:1046A000F1FF03BC00F01BFA0748804707480047AA
:1046B000FEE7FEE7FEE7FEE7FEE7FEE70448054902
:1046C000054A064B7047000049850020C180002044
:1046D00020020120200501202003012020030120C9
:1046E000704700000FB4054910B503AA029800F006
:1046F00059F910BC08BC04B018470000A001012003
:10470000F8B50E460446002020622046E16888473E
:10471000002829D0252802D06268A16820E0E1683D
:1047200020460027884705001ED028464138192812
:1047300002D80127FF02203532462046276029464D
:10474000FFF796FF002808D0012804D0F61DF608D0
:10475000F6000836D9E7361DD7E762682846A16813
:104760009047206A401CCFE7206AF8BD70B50C4620
:104770000546012A05D02878800600D5EA6900237D
:1047800002E0012305E05B1C934202D2E05C0028BA
:10479000F9D1A869E618C01AA861286AC018286269
:1047A0002846C046C04604E06A682078A968641CB0
:1047B0009047B442F8D32846C046C04670BD01E0D9
:1047C00004C0091F0429FBD28B0701D50280801C7D
:1047D000C90700D00270704700290BD0C30702D070
:1047E0000270401C491E022904D3830702D50280AF
:1047F000801C891EE3E70022EEE70022DFE70000CD
:10480000002203098B422CD3030A8B4211D30023CD
:104810009C464EE003460B433CD4002243088B42A7
:1048200031D303098B421CD3030A8B4201D3944634
:104830003FE0C3098B4201D3CB01C01A5241830927
:104840008B4201D38B01C01A524143098B4201D3E1
:104850004B01C01A524103098B4201D30B01C01A0C
:104860005241C3088B4201D3CB00C01A5241830886
:104870008B4201D38B00C01A524143088B4201D3B3
:104880004B00C01A5241411A00D201465241104613
:1048900070475DE0CA0F00D04942031000D3404288
:1048A00053409C46002203098B422DD3030A8B42BE
:1048B00012D38901FC2212BA030A8B420CD389015C
:1048C00092118B4208D3890192118B4204D3890142
:1048D0003AD0921100E08909C3098B4201D3CB0180
:1048E000C01A524183098B4201D38B01C01A524135
:1048F00043098B4201D34B01C01A524103098B4239
:1049000001D30B01C01A5241C3088B4201D3CB0023
:10491000C01A524183088B4201D38B00C01A524106
:10492000D9D243088B4201D34B00C01A5241411ADD
:1049300000D201465241104663465B1001D340420B
:10494000002B00D54942704763465B1000D34042BC
:1049500001B50549002802DC491C084000E0084672
:10496000C046C04602BD00BFFFFFFF7F70477047D3
:104970007047704710B54369002B02D0C046C0464F
:1049800001E0FFF7F3FE012010BD1278014624314B
:104990000A7000224A700122ECE711680022D2431B
:1049A000E8E70000084B70B50D467B4400F013F8B3
:1049B0000446284600F084FA002802D00020C043B4
:1049C00070BD204670BD0000EB05000001694A1C67
:1049D00002610878704700B58FB0029100210591FF
:1049E0000549019379440391114604906846FFF705
:1049F00087FE0FB000BD0000E5FFFFFF10B50446C5
:104A0000C046C0462046FFF749FE10BD30B58C18A1
:104A10000278401C13071B0F01D10378401C1209B8
:104A200006D10278401C03E00578401C0D70491C3B
:104A30005B1EF9D101E00B70491C521EFBD1A14253
:104A4000E6D3002030BD7047704780B500F0F4F920
:104A500080BD704770477047704770477047704718
:104A600070477047704770477047704780B500F0D7
:104A70009DFE80BD704770477047704707480849E2
:104A80000160084820210160BFF34F8FBFF36F8F93
:104A900062B60548054901607047C04608ED00E070
:104AA0000080002080E100E04400012000E1F505E5
:104AB00080B5002001F074F880BD80B5012001F0C0
:104AC0006FF880BD80B5022001F06AF880BD80B526
:104AD000032001F065F880BD704770477047FEE71E
:104AE00010B584B0022000F0F9FA00F02FFB01F0BD
:104AF0000DF801F01FF80024029401A98C710394B1
:104B00000120C8720B4A8A80E1221203019200F050
:104B100007FC00F04FFB084A2046214600F03EFB10
:104B200000F0EAFC124800F03DFA00F02BFE04B061
:104B300010BDC04603020000E5890020B0B507F0B3
:104B4000F9FC0A48057807F007FD0024002D0AD07B
:104B50002320C100064800F031FD0120C1030548B3
:104B600000F02CFD00E0E4432046B0BD0802012027
:104B7000880001200000022080B501204003044984
:104B80000A6802430A6003480068804780BDC04647
:104B900034000140FC010120104800687047C04605
:104BA0000B49022806D0012809D000280ED1086838
:104BB000086009E0012042070868104305E0012071
:104BC00000070A6802430A60086808607047C04628
:104BD000085010400148024901607047140201204A
:104BE000005A62020020704780B500F08BFA80BD49
:104BF00080B500F08FFA80BD164A515C6722D20062
:104C000081508018002141607047C046114A515CB4
:104C10000A0251181D225201815080180021416062
:104C20007047C046B0B57321C90042185368445854
:104C30000125254345505360B0BD00001D2252019F
:104C400083185B68034B595C80580840411E8841BB
:104C50007047C046C097002049006F4B595A08184A
:104C6000C16983698361034B1340034A0A40D11829
:104C7000C1617047FF0F000000F0FFFF4900664B65
:104C8000595A08188168C168C16082607047C0467F
:104C90004900614B595A08188169C369C3610323EC
:104CA000DB0199439207D20D891881617047C04694
:104CB0004900594B595A08188169C369C3610723D0
:104CC000DB0299435207920C891881617047C046F4
:104CD0004900514B595A0818416C036C03640F2367
:104CE000DB0299431207520C891841647047C04691
:104CF0004900494B595A0818016C436C436401231D
:104D00009B029943D207520D891801647047C0462F
:104D10004900414B595A08188169C369C36101238D
:104D20009B049943D207520B891881617047C04692
:104D30004900394B595A08188169C369C3610E2368
:104D400099435207120F8918816170474900324B0D
:104D5000595A08188169C369C36107231B05994320
:104D60005207520A891881617047C04649002A4B90
:104D7000595A08188169C369C36101231A409943CC
:104D8000891881617047C04610B54900224B595AB5
:104D90000B580B185C680A505C6010BD49001E4B34
:104DA000595A08188169C369C36103235B02994397
:104DB0009207520D891881617047C0464900164B11
:104DC000595A08188169C369C36107239B03994332
:104DD0005207D20B891881617047C04649000E4BBB
:104DE000595A08188169C369C36101235B04994357
:104DF000D207920B891881617047C0464900064B63
:104E0000595A08188169C369C361702399435207CD
:104E1000520E891881617047C49700200021024A10
:104E2000026041607047C04602010001C000234992
:104E3000081840684068704710B5204C60684169A8
:104E4000002905D00121C1602068002800D08047DA
:104E5000E0684169002905D00121C160A0680028EF
:104E600000D0804710BDC04680B500F059FE80BD1F
:104E700010B5C900114A5118496842680A600378A0
:104E80009C1E62426241002B01D0920100E041224F
:104E900083789B001343C2785207120E1A4340785E
:104EA00040001043886010BDC000044908184068E5
:104EB000816880220A4382607047C046500001200A
:104EC0000020C0437047000010B5074A1368032351
:104ED0009C0789030919054C0C40190440188008E7
:104EE00080B22018106010BD100001400000FFFFCC
:104EF00006490A68064B134003229204800080187A
:104F0000044A0240981808607047C04600000140FB
:104F10000F00F0FFF0FF0F0003480221017003486B
:104F20008168491C816070470802012088000120C7
:104F300080B54A1E022A0AD21C224A43A4490968A3
:104F40008918C96849080918FFF7BEFF80BD002904
:104F5000FCD1FFF7CDFF80BD0E4908607047C04609
:104F6000F0B581B004460025094E0A4F2046E840BE
:104F7000C00708D03968E8B2884701200002A8407D
:104F80003168014331606D1C042DEFD101B0F0BDDB
:104F9000340001400002012080B5C1B2012000F0C0
:104FA00069FE80BD70B504460125C57385734573E0
:104FB0000573FA20A07400266674FF20207411483F
:104FC000114921606060A660204613302121FFF75F
:104FD00012FC3420C4212154E6630C48A06320460F
:104FE00034303C22C2708170427065756421084A79
:104FF000084B094D056143618261C1610748206426
:1050000070BDC0463E004608FF7F026220000002DD
:10501000E803E8030200B80B28A0A00F80969800D0
:10502000F0B50B78032B01D0302200E070225C1E1B
:10503000651EAC41640012194C78651E6E426E41CB
:10504000B5005219A41E65426541EC0012190928E9
:1050500007D801258540204C022B0FD16668AE434E
:105060000EE010281AD804460A3CE4B20126A640F5
:10507000184CA579022B13D0354312E066682E43F5
:1050800066608507ED0EFF26AE40FC270740E41959
:10509000E768B743AA403A43E26006E0012217E01E
:1050A000B543A571035D02550B7800220C280FD083
:1050B000022B0DD10C2800D9401E4006000E897825
:1050C000814003238340044804689C430C430460EC
:1050D0001046F0BD443810402C50104010B5044626
:1050E000FFF778FD8A4801210170FFF77BFD044935
:1050F000087000F089FA204600F084F810BDC04620
:105100001002012080B57D21C900484300F002F85B
:1051100080BD0000B0B582B00546FFF73DFD0A49ED
:10512000FFF76EFB04466C430BD00120FFF77EFEB9
:1051300005460120FFF77AFE01900198281AA04247
:10514000F7D302B0B0BDC04640420F0070B582B088
:10515000FFF78AFE6D462846FFF760FE01242C709B
:105160006C80002628463146FFF782FE2846FFF76E
:1051700055FEEE702C7028462146FFF779FE30462A
:10518000FFF792FE2046FFF78FFE034810210160D3
:105190009D48016002B070BD80E200E01C234343E3
:1051A000B0480068C018024B10300EC07047C046AF
:1051B000FD89002010B50124204600F083FDA94997
:1051C00008600448FFF7C8FEA0038F49086010BDBF
:1051D00004020120E18E002010B5044600F0B4FC6A
:1051E000204600F055FA002010BD80B500F0EEFB1F
:1051F00000F0CEFA80BD80B500F0D0FA00F0E0FB00
:1052000080BD0000F0B581B00024052822D83C4ABA
:105210003C4B3D4E800003A1085835461F461146C1
:105220008746C0460B8D0020098D0020278D002069
:10523000258D0020418D00203F8D00201D463448E3
:1052400001210170002000F0C9FB0220FFF7A8FC3B
:10525000FF2421E0E44350E017462D48012101706E
:1052600020461E4600F0BAFB0220FFF799FC3D469F
:1052700012E026490F46264E01253570204600F0E3
:10528000ADFB0220FFF78CFC30780028284600D1C7
:10529000E0431B4E3D46044660B200F0E3FB1D4870
:1052A00006601D4885420BDC1848854215D014481D
:1052B00085420DD116480078002812D0012016E052
:1052C0001148854210D00F48854201D100200EE0E0
:1052D0000024E04300F0A4FB0FE00D480078002814
:1052E00004D10020C04302E0FF2000E0022040B2D1
:1052F00000F096FB094805600024204601B0F0BD8F
:10530000005A620200B4C40400688909002D31010A
:105310000C02012048000120FFB3C4044C0001200E
:10532000F0B581B0022801D9022062E00D460446A2
:105330008120400069460880012C0BD0002C1BD135
:105340006E460027B77006203146FFF769FEB7703A
:1053500007270DE06E460120B07009203146FFF7A7
:105360005FFE0327B77002203146FFF759FEB77082
:1053700069463846FFF754FEA0001FA10858804731
:10538000204600F06DFC204600F090FC2968204685
:1053900000F016FC2979204600F034FC697920469B
:1053A00000F04AFCA979204600F074FC29460B3134
:1053B000204600F031FCE979204600F065FC11A0A0
:1053C000005D297A002906D01F2108400121814073
:1053D0000D48016009E01F210840012181400B4870
:1053E0000160BFF34F8FBFF36F8F09482021015534
:1053F000002001B0F0BDC0462D960020419600204F
:10540000559600200506070000E100E080E100E07D
:105410001D02012070B50446124E3068032C05D3DE
:105420001C21614340184069804770BD1C256543BD
:105430004019C1688268511881604268914206D162
:105440004069804731684A194859906004E0006912
:10545000804731684819806849198A692146904710
:1054600070BDC04604020120FFF73AFB15A01BA146
:105470001DA2FFF737F9002000F024FC00681D4C46
:10548000A060FFF7B2FEFFF759FB0028FBD1FFF742
:10549000B2FE002000F016FCA16801600C20FFF7AE
:1054A000A3FBFA2000F0EAF8042000F0AFF8012096
:1054B00000F0D8F81F2000F0C3F800F00BFC00F05B
:1054C000ADF8FEE7554C502052616D52756E202D9F
:1054D0002D2025732C202573200D0A0044656320A0
:1054E000323420323032340031353A31303A3133CF
:1054F0000000000088000120B0B584B000240394AF
:105500002A4D2846FFF78EFB294A28462146FFF7F9
:10551000B5FB284621462246FFF7DAFB01A9072002
:10552000C87224480290244801902046FFF7F8FEF4
:10553000284621462246FFF719FC0122284621462B
:10554000FFF704FC102228462146FFF785FB28467A
:1055500021462246FFF7CCFB284621462246FFF78C
:10556000E7FB284621462246FFF7A2FB02222846F7
:105570002146FFF78DFB284621462246FFF7C8FB50
:10558000284621462246FFF739FC28462146224676
:10559000FFF714FC284621462246FFF7FFFB28466A
:1055A00021462246FFF71AFC04B0B0BD00001040AF
:1055B0000060004003020001404B4C00F0B581B098
:1055C0000E460546080B15D00E4FF40A3E400096D5
:1055D00000F080FB7E1C2846314600F073FAAD19BE
:1055E000641EF5D1009C002C0AD000F073FB284605
:1055F000214603E000F06EFB2846314600F062FAD7
:1056000001B0F0BDFF0700007047000002490A78B2
:1056100002430A707047C0461834104007480178AA
:1056200020220A4302704179BF220A404271124887
:10563000017801220A4302707047C0464A34104084
:10564000024900220A7048707047C0461534104065
:1056500007210140D6480278F823134059180170F9
:105660007047C04641424141880003490A78FB2304
:105670001340181808707047063410404101034A5F
:105680001170C1085170C00A9070704724341040E6
:1056900010B504460120014600F028FACE480470F7
:1056A00010BDC046F0B582B0C3494A7ABB2313404F
:1056B0004B72CA7BEF2300931A40CA738A7EDE25A1
:1056C0002A408A760C7FFE2214400C77CC7F7F26FE
:1056D0002640CE77B94C267816402670B54CE67E2B
:1056E0001640E676267FDF2737402777677FBF267D
:1056F000374067778F7E37408F762378F8273B4097
:105700002370237A134023720190012805D1237955
:105710003B402371237B134023730B7B33400B737C
:105720004B7BF72633404B738B7B2B408B73CB7BB0
:105730003340CB73A37F1F261E40A6778B78FD26B0
:105740001E408E70A67C0198002806D02E40A674BC
:10575000637C00980340637402E01640A6740098CE
:10576000237C03402374207DFB2303402375E07FCB
:105770001040E077087810400870887810408870F2
:1057800002B0F0BD80B50020FFF726FD80BD00000F
:105790000548016805220A43026070470248016813
:1057A00005229143016070470420014010B50C4C64
:1057B0006068010702D0FFF7D3FB10BD81060CD44F
:1057C000000609D507480068002800D0804701205E
:1057D000C00321680143216010BDFFF7CDF910BD62
:1057E0003400014018020120F0B583B0029006F0A9
:1057F000A1FE6F48007800900720FFF729FF0125E0
:1058000001952846FFF7F4F96A4FF87F2843F877A7
:10581000694C207828432070A0782843A070022685
:105820003046FFF7E5F9F82000990840C01C6049B0
:10583000087006F091FE217B8020009001432173C7
:10584000617B102211436173A17B42230B43A3733D
:10585000217F314321775948C1783143C170237B7F
:1058600040210B432373637B082003436373A57BB1
:1058700021231D43A573E57B0543E573B87FE02530
:105880000543BD77A0783043A070607A4425054376
:105890006572E07B1043E073A07E1843019BA07605
:1058A000207F18432077E07F009A1043E077434A37
:1058B000107818431070F87E1843F876387F20224D
:1058C00002433A77787F08437877A07E0843A07632
:1058D000B87C0299002906D063210843B874797C0A
:1058E0005020084309E003210843B874B87C9F2185
:1058F0000140B974787C502188437874387C5021F9
:1059000001433974387D0C210143397539781720EA
:10591000014339703A7A03210A433A72FD26029A0A
:10592000012A354606D13A7902433A71387B084359
:105930003873BD25387D184338751846FFF758F978
:10594000207B7F2101402173617BEF200140617347
:10595000A17BBD220A40A273217F31402177174AE3
:10596000D1783140D170B97C2940B974397DF722A2
:105970000A403A753A7CBF210A403A743A780240AC
:105980003A703A7A32403A72029A012A09D17A7C04
:105990000A407A74397901403971387BFD21014020
:1059A0003973387DFE210140397503B0F0BDC04622
:1059B0004F34104000301040213010404130104032
:1059C00080B505480078FFF76DFE80BD80B50248C0
:1059D0000078FFF709FF80BD1C02012010B50122ED
:1059E00093040E490C681C430C600B68002811D40A
:1059F000FF242405A343C0B2000518180860500412
:105A00000B6803430B600B6883430B6010040B6847
:105A1000834301E0100403430B6010BD08501040A5
:105A200010B524490B68002816D40122940323439F
:105A30000B60FF231B040C689C43C0B200042018B9
:105A4000086050030B6803430B600B6883430B60D3
:105A500010030B68834302E00120000303430B6043
:105A600010BDC04680B513490A6800281AD4042323
:105A70001A430A60FF2212010B689343C0B202016D
:105A80009A180A600A6802231A430A600A689A434D
:105A90000A600A6801239A430A60411C0748FEF71E
:105AA000AFFE03E0012002430A6003480449086096
:105AB00080BDC0460C5010400068890900B4C40481
:105AC0001402012070B50C460246894D0026284676
:105AD0003146FFF759F9284631462246FFF7BCF810
:105AE00028463146FFF792F870BDC04610B5064A09
:105AF00013680C24A343C007400FC907090F0818F7
:105B00001818106010BDC0460450104013480168BA
:105B10000122114301608168114381607047C046D2
:105B20001E48016820221143016081681143816091
:105B30007047C0460120400308490A6802430A60D2
:105B40008A6802438A6070470120000203490A689C
:105B500002430A608A6802438A6070471850104006
:105B60000E48016840221143016081681143816041
:105B70007047C0460948016880221143016081686E
:105B8000114381607047C0460120000203490A6842
:105B900002430A608A6802438A6070471C501040C2
:105BA000B0B5C400054D2959002901D0002088470F
:105BB000281940680121C160B0BDC04660000120C5
:105BC000F0B581B00C4680003D490E58FEF7E4FF69
:105BD000F16880273943F160050928462146FEF720
