:020000040800F2
:10010000981600209D030008A5210008A7210008DB
:1001100000000000000000000000000000000000DF
:10012000000000000000000000000000A9210008FD
:100130000000000000000000AB210008AD21000815
:10014000AF210008B1210008B3210008B521000843
:10015000B7210008BF210008C1210008C321000801
:10016000C5210008C7210008C9210008CB210008CB
:10017000AF030008CD210008CF210008AF0300081D
:10018000AF030008D7210008AF030008AF03000841
:10019000AF030008AF030008AF030008AF03000877
:1001A000D9210008DB210008DD210008DF2100083B
:1001B000E1210008E3210008E5210008E72100080B
:1001C00000F002F800F0BDF80CA030C80838241880
:1001D0002D18671EA246AB4654465D46AC4201D17F
:1001E00000F0AFF87E460F3EB6460FCC01263342F4
:1001F00000D0FB1A3343A246AB461847888F000055
:10020000C88F0000103A02D378C878C1FAD85207D4
:1002100001D330C830C101D504680C6070470000BC
:100220000023002400250026103A01D378C1FBD812
:10023000520700D330C100D50B60704710B56E294E
:1002400002D105F06DFB10BD702902D105F09DFCB7
:1002500010BD662902D108F06DFB10BD652902D1E1
:1002600008F068FB10BD672902D108F063FB10BDE0
:10027000612902D108F066FB10BD03681B0A01D397
:1002800080231943692902D105F014FB10BD6429AC
:1002900002D105F00FFB10BD752902D105F00AFB54
:1002A00010BD6F2902D105F01BFC10BD782902D1C9
:1002B00005F058FC10BDE92902D105F0B7FB10BDCF
:1002C000E42902D105F0B2FB10BDF52902D105F0F9
:1002D000ADFB10BDEF2902D105F00EFC10BDF829D1
:1002E00002D105F04DFC10BD0368DB0901D380236A
:1002F0001943632902D106F04CF910BD732902D1CC
:1003000006F04FF910BDE32902D106F059F910BDEE
:10031000F32902D106F05CF910BD002010BD1FB515
:1003200006F018FC04000020002108F095FA401C9B
:1003300060600020002108F079FAE0601FBD10B570
:1003400010BD04488546FFF7EAFF00F0BFF806F04D
:1003500075FF00000010002003B4FFF7F0FF03BC9E
:1003600001F0A3FF70B505460C46164602E00FCC1F
:100370000FC5103E102EFAD2082E02D303CC03C5AF
:10038000083E042E07D301CC01C5361F03E02178B7
:100390002970641C6D1C761EF9D270BD0748804719
:1003A00007480047FEE7FEE7FEE7FEE7FEE7FEE759
:1003B00004480549054A064B704700001909000822
:1003C000C1010008981300209816002098140020FE
:1003D0009814002003490120086003498868401CE4
:1003E00088607047B8110020A010002080B500F090
:1003F000F1FD00F0D3FD00F067FE80BD80B588B050
:100400002F4807900020049006900590079801213E
:10041000490304F0EFFC04980590FFE70598FF28D6
:1004200038DCFFE7059805F0CBF92649009108F084
:1004300029FA8121C905019105F0EEF805F0C2F80D
:1004400008F0A6F9002202921F4B039304F096FFD6
:1004500004F03AFF07998A1C07920880059805F076
:10046000AFF9009908F00EFA019905F0D5F805F0FA
:10047000A9F808F041F9029A039B04F07FFF04F009
:1004800023FF07998A1C07920880FFE70598401C04
:100490000590C3E701200690FFE7069807280DDCCA
:1004A000FFE7069880020649081801229202FFF72A
:1004B00059FFFFE70698401C0690EEE708B080BDA4
:1004C00000000120DB0FC93F00408F4080B586B09F
:1004D0000020029005900490FFF788FF022003900F
:1004E0001C4900F05BFC02981B4901F0F7FE02F08A
:1004F0003BF900F023F9194800F03EF8184804F0E1
:100500004FFCFFF77BFF1749012002F0E5F9039844
:10051000154902F0E1F9FFE7032002F016FDFFE7BD
:1005200012480068002801D1FFE7F9E70F490020D1
:1005300008600A482321C90000F07CF90C48012119
:100540004903019100F076F901990A4800F072F927
:10055000E2E7C04600B4C40418100020A010002038
:10056000808C00083C8C000800100020B81100208E
:10057000000001200020012070B58AB0099008A970
:10058000002008700999079107990C310691069986
:100590002C310591079A55491180079902228A70DA
:1005A000079B2021D970079B3C219980079B5049CC
:1005B000D98007998860069B01211970069B5A70A3
:1005C000069B9A70069AD170069AFF2111710699BE
:1005D0004871069A192191710699C87106990831D6
:1005E00004910390FFE7039807280ADCFFE70499CA
:1005F0000398820000208850FFE70398401C039076
:10060000F1E706990120487206992823C422CA54AA
:10061000069B29243C211955069B2A241A55069A23
:100620002B23D154059C08AA009213781C21019118
:100630000D465D4305236353059B15780C466C43BB
:100640001B1900025880059814780B466343C318A1
:10065000002002909880059B15780C466C431B196E
:10066000D880059814780B466343C3182148D88175
:1006700005981278514341181F4888601F4800F0C0
:1006800041F8009B019A01460298059C1E78154688
:1006900075436419A18105991D7814466C430C19A2
:1006A0000221218205991D7814466C430C191449C6
:1006B000618205991D7814466C430C197D21C9008F
:1006C000A182059C1E78154675436419E18205993F
:1006D0001D7814466C430C196421218305991B78FD
:1006E0005A43891848830AB070BDC046FF7F000096
:1006F00046080000102700008096980048EE000091
:10070000B80B000082B0019001980949884203D8D3
:10071000FFE70198009007E001980649401840085B
:10072000054940180090FFE7009802B07047C046A6
:100730001F4E0000E0B1FFFF204E000010B584B056
:10074000002000F053F8FFE725482649016148647E
:10075000FFE700200190039022480290001D03F063
:1007600021FD02990198204A0A60486001238B60AC
:10077000888A072290438882C8689843C860C868FE
:100780001405A0431C050019C860C8687024A04364
:10079000C860C8680E24A043C860C8680324640207
:1007A000A043C860C8681B02184380239843C860F0
:1007B000C86893039843C860C868D2029043C86071
:1007C000888A1022904388820398088300F082FC74
:1007D00000F07AFC029802F0B9FD04B010BDC046EA
:1007E00080130020881200200000104010B582B055
:1007F000014601A8017001990C4B19700C49596010
:10080000191D03221A7202225A7200229A720124BE
:10081000DC72DA7B2243DA73DA7B06242243DA7352
:10082000007801F05BFD02B010BDC04680130020CF
:10083000404B4C0080B586B0059004910498000BA5
:1008400000282DD0FFE70498C00A039000200290F2
:100850000498184908400190FFE70398411E03914E
:1008600000280FD0FFE700F027F8059802994018FC
:100870000121C902009100F039F80099029840184E
:100880000290EAE70198002809D0FFE700F014F889
:10089000059802994018019900F028F8FFE706E052
:1008A00000F00AF80598049900F020F8FFE706B078
:1008B00080BDC046FF07000080B50B48006904F00A
:1008C00060FA022806D1FFE707480069642103F0B7
:1008D000ABFEFFE7FFE70448006904F052FA012885
:1008E00001D0FFE7F7E780BD8013002080B582B01C
:1008F00001900091019968460288024801F0A8FE23
:1009000002B080BD80130020014902480860704792
:100910002410002000E1F50580B505480549086070
:10092000052000F00DF862B603490448086080BD58
:100930000001000808ED00E02410002000E1F505AA
:1009400081B0014668460170007840B200280DD49D
:10095000FFE7684601781F200140012088400449D4
:100960000860BFF34F8FBFF36F8FFFE701B0704791
:1009700080E100E080B500F049FB80BD80B507480C
:10098000436899688022D24311409960C1688868A1
:100990001040886000F054FB80BDC0462C10002041
:1009A00081B00090009902200870009801214170E8
:1009B000009A00209070009AD1700099486001B0B0
:1009C0007047C04683B0029001A8017000200090DB
:1009D00002980078002803D1FFE7412000900BE047
:1009E00002980078022803D1FFE74020009002E03F
:1009F00000200090FFE7FFE7029881788900C27825
:100A0000D207920E114340784000014300980843FA
:100A100000900298406801AA1178CB000549CB18D4
:100A20005B68186000981278D2008918496888605D
:100A300003B070472C10002083B002AB187001A8DF
:100A4000017000920078002809D1FFE7009802A900
:100A50000978CA00074989184968086008E00098C1
:100A600002A90978CA000349891849688861FFE723
:100A700003B070472C10002081B001466846017019
:100A80000078C100044840184168886880221043FB
:100A9000886001B07047C0462C10002081B001462C
:100AA000684601700078C1000448401841688868B1
:100AB00080229043886001B07047C0462C1000200F
:100AC00081B00146684601700078C10003484018B3
:100AD00041680120C86001B07047C0462C1000205A
:100AE00081B00146684601700078C1000248401894
:100AF0004068406801B070472C10002083B000911E
:100B00000246009802A90A70019001980978CA006B
:100B10000149885003B070472C10002082B0014674
:100B200001A801700078C10005484018406880683D
:100B30008021084000900098411E884102B0704713
:100B40002C10002080B513484068406900280DD063
:100B5000FFE70020FFF7B4FF0E480068002804D02C
:100B6000FFE70C4800688047FFE7FFE70948C068D7
:100B7000406900280DD0FFE70120FFF7A1FF0548DD
:100B80008068002804D0FFE7024880688047FFE7BC
:100B9000FFE780BD2C1000200349002008700349A6
:100BA000034808607047C0467F130020EC12002005
:100BB000005A6202014800787047C0467F13002047
:100BC00081B06946087001B07047C04682B00146E6
:100BD00001A80170154A116801239B041943116093
:100BE000007840B2002818D4FFE710490091086847
:100BF000FF221205904301AA12781205801808609E
:100C00000868012253041843086008689843086084
:100C1000086812049043086006E00449086801224D
:100C2000120410430860FFE702B0704708501040FC
:100C30000349086801229204904308607047C04647
:100C40000850104082B0014601A801700078009061
:100C5000002808D0FFE7009801280AD0FFE7009895
:100C600002280FD015E00C49086808600868086081
:100C700010E009490868012212071043086008685B
:100C8000086007E004490868012252071043086021
:100C900000E0FFE702B070470850104080B582B016
:100CA000014601A80170007840B2002822D4FFE775
:100CB000164A009210680421084310601168FF2052
:100CC0000001814301A803781B01C9181160116854
:100CD00002231943116011689943116011680123BF
:100CE000994311600078411C0B4804F087F80849CB
:100CF000086008E0054908680122104308600449BB
:100D000004480860FFE702B080BDC0460C501040A8
:100D1000EC1200200068890900B4C40482B00146C6
:100D200001A80170007840B200281CD4FFE71249E6
:100D30000091086801229303184308600868FF23A4
:100D40001B04984301AB1B781B04C018086008689B
:100D50005303184308600868984308600868120342
:100D60009043086006E0044908680122120310431A
:100D70000860FFE702B070470C50104081B0694630
:100D8000087001B07047C0460248007881000248F0
:100D9000405870477F130020788C000810B586B04B
:100DA000024605A80270049100780290002808D03D
:100DB000FFE70298012813D0FFE70298022851D0DC
:100DC00091E04A49086801221307984308600868BF
:100DD00052079043086048497D200002086083E084
:100DE000424908680422104308600498434900F00F
:100DF00089F8014603A8018000883E49884209D14C
:100E0000FFE73A4908680122104308603A493B4825
:100E100008601CE0354A019211683948014003A876
:100E200003881B051B0CC9181160116802231943A4
:100E30001160116899431160116801239943116091
:100E400001882E4800F07CF82B490860FFE727490D
:100E50000868012213071843086008685207904386
:100E6000086041E0214908680122920410430860AB
:100E700004981F4900F046F8014603A80180008845
:100E80001C4988420AD1FFE7184908680122120468
:100E9000104308601849164808601DE0134A009284
:100EA0001168FF200005814303A803781B05C918BA
:100EB0001160116801235C04214311601168A14392
:100EC000116011681B04994311600188084800F003
:100ED00037F809490860FFE704490868012252070A
:100EE0001043086000E0FFE706B010BD0850104056
:100EF00000D01213FFFF0000EC120020005A620223
:100F00000F00FFFF80B584B0039002910298400863
:100F1000039903F073FF014601A8018000880028AF
:100F200005D0FFE701A80088401E009002E00348BA
:100F30000090FFE7009880B204B080BDFFFF000082
:100F400080B584B0019101460198039102A90880FF
:100F5000039840080988491C03F050FF04B080BD85
:100F6000014800687047C046EC12002010B582B0FE
:100F700001AA10706B461970074908680C24A04339
:100F80001278D207520F1B78DB071B0FD21880187C
:100F9000086002B010BDC0460450104080B501206A
:100FA0000102084600F002F880BDC04682B0019000
:100FB0000091019A0549086810430860009A0449A5
:100FC00008681043086002B07047C04618501040CF
:100FD0002050104080B501200102084600F002F8C0
:100FE00080BDC04682B001900091019A0549086811
:100FF00090430860009A044908689043086002B072
:101000007047C046185010402050104080B5202135
:10101000084600F001F880BD82B001900091019A6D
:101020000549086810430860009A0449086810439D
:10103000086002B07047C0461C5010402450104059
:1010400080B52021084600F001F880BD82B00190F3
:101050000091019A0549086890430860009A044984
:1010600008689043086002B07047C0461C501040AA
:101070002450104080B5012041030846FFF796FF39
:1010800080BD80B5012041030846FFF7ABFF80BD5E
:1010900080B5012041020846FFF788FF80BD80B57A
:1010A000012081020846FFF781FF80BD80B5012045
:1010B00041020846FFF796FF80BD80B501208102FE
:1010C0000846FFF78FFF80BD80B501210846FFF776
:1010D0006DFF80BD80B501210846FFF783FF80BD0D
:1010E00080B5012081020846FFF796FF80BD80B5DC
:1010F000012081020846FFF7A9FF80BD80B50120CD
:1011000041020846FFF788FF80BD80B501204102FB
:101110000846FFF79BFF80BD80B540210846FFF7DA
:101120007BFF80BD80B540210846FFF78FFF80BD63
:1011300080B580210846FFF76FFF80BD80B5802114
:101140000846FFF783FF80BD80B5012001020846F5
:10115000FFF762FF80BD80B5012001020846FFF75E
:1011600075FF80BD80B502210846FFF755FF80BDA1
:1011700080B504210846FFF74FFF80BD80B50821E8
:101180000846FFF749FF80BD80B510210846FFF7EC
:1011900043FF80BD80B502210846FFF757FF80BDA1
:1011A00080B504210846FFF751FF80BD80B50821B6
:1011B0000846FFF74BFF80BD80B510210846FFF7BA
:1011C00045FF80BD80B582B00190019800F00AF81B
:1011D00001466846017000780221084041424841BA
:1011E00002B080BD80B584B003900398092813D85D
:1011F000FFE7039800F03CFC029002980068019021
:10120000039800F041FC6946087001980978C840CD
:101210000F210840019013E003980A280CD3FFE740
:101220000398102808D8FFE7039800F0B5F802905B
:1012300002980078019002E000200190FFE7FFE7AC
:1012400001A8007804B080BD80B582B001906846E6
:1012500001700198092809D8FFE701980099C9434E
:10126000C9078A0F022100F016F812E001980A2837
:101270000DD3FFE70198102809D8FFE701980099DE
:10128000C943C9078A0F022100F02EF800E0FFE7EA
:10129000FFE702B080BD80B588B0079006A8009037
:1012A000017005A801900270079800F0E1FB04901E
:1012B000079800F0E9FB009A0199034603A8037020
:1012C000049B1B680293137802789340029A9A4316
:1012D00002920978007881400298084302900298AF
:1012E0000499086008B080BD80B586B0059004A858
:1012F000017003A80270059800F04EF80290029861
:10130000007801A90870049A019890430870039A24
:1013100001981043087001980299087006B080BDCA
:1013200080B584B0039000200290019003980C28AF
:101330000CD1FFE7039800F02FF801900198007896
:10134000029002980121084002901EE003980B28A9
:1013500008D8FFE70F4800680399C84001210840FA
:10136000029011E003980D280DD3FFE70398102891
:1013700009D8FFE7074800680399491EC8400121C2
:1013800008400290FFE7FFE7FFE702A8007804B0FB
:1013900080BDC0460040104081B0009000980249D6
:1013A000401801B07047C0464438104080B582B044
:1013B0000190684601700198092808D8FFE7019854
:1013C00069460A7801210A40FFF765FF11E001989C
:1013D0000A280CD3FFE70198102808D8FFE70198E6
:1013E00069460A7801210A40FFF77EFF00E0FFE727
:1013F000FFE702B080BD80B582B001900198002166
:101400000091FFF721FF009802B080BD80B582B047
:1014100001900091019869460978FFF7C7FF01988C
:101420000121FFF711FF002002B080BD80B582B01E
:10143000019000910198092805D8FFE701980099CB
:1014400000F012F80EE001980A2809D3FFE701988E
:10145000102805D8FFE70198009900F025F800E072
:10146000FFE7FFE702B080BD83B0029001910298D0
:10147000694608700198012809D1FFE7684600789D
:1014800001228240074908681043086008E0684666
:101490000078012282400349086890430860FFE712
:1014A00003B070473050104083B002900191029811
:1014B0000A38694608700198012809D1FFE7684693
:1014C000007801228240084908781043087008E03B
:1014D00068460078012282400349087890430870EA
:1014E000FFE703B07047C0464A38104080B584B06B
:1014F000024603A8027002AA1170007810281FD8B3
:10150000FFE703A800780C281AD0FFE703A80078AB
:1015100000F01AF8014601A801700A490A68009211
:10152000027803239340009A9A43009202AA127809
:101530000078824000981043009000980860FFE710
:1015400004B080BD2C50104083B0014602A8017049
:1015500000780D2805DBFFE702A80078401E009008
:1015600003E002A800780090FFE7009801A9087046
:1015700001984000C0B203B0704780B582B00190BE
:1015800000910198092808D8FFE701980099C90738
:101590004A0E4021FFF77FFE11E001980A280CD384
:1015A000FFE70198102808D8FFE701980099C907BC
:1015B0004A0E4021FFF798FE00E0FFE7FFE702B088
:1015C00080BDC04683B0029001910C480068009035
:1015D0000198002808D0FFE70098029A0121914065
:1015E00008430649086007E00098029A01219140EB
:1015F000884302490860FFE703B070470840104085
:1016000080B582B0019000910198092808D8FFE7C1
:1016100001980099C9074A0F0421FFF73CFE11E029
:1016200001980A280CD3FFE70198102808D8FFE793
:1016300001980099C9074A0F0421FFF755FE00E001
:10164000FFE7FFE702B080BD80B582B00190009156
:101650000198092808D8FFE701980099C9070A0FDF
:101660000821FFF718FE11E001980A280CD3FFE7C4
:101670000198102808D8FFE701980099C9070A0FB8
:101680000821FFF731FE00E0FFE7FFE702B080BD71
:10169000B0B58CB002460AA8027009910999097880
:1016A000891E4A1E914108AA1170099909784A1E9B
:1016B000511E8A4106A90A70099A1278D21E534215
:1016C0005A4105AC2270099A5278931E5A425341EE
:1016D00004AA1370099B5B785D1E6B425D4103ABEE
:1016E0001D700978C907890F2478E407640E091969
:1016F0001B78DB075B0FC9181278D207120F891805
:10170000303107AA1170007809280FDCFFE70AA81A
:101710000290007808A90978FFF7A6FE02980078E1
:1017200007A90A78FF21FFF7B6FD1DE00AA8007897
:101730000A2814DBFFE70AA8007810280FDCFFE76F
:101740000AA80190007808A90978FFF7ADFE019872
:10175000007807A90A78FF21FFF7C6FD03E00BA96F
:101760000120087010E0FFE709980078022807D1EF
:10177000FFE70AA8007809998978FFF7B7FEFFE725
:101780000BA900200870FFE70BA800780CB0B0BDD3
:1017900080B586B0024605A8027004AA01921170B5
:1017A000007800F071F80146019803910078401E1E
:1017B000029004285CD80298810001A04058874616
:1017C000D5170008F7170008171800082F18000889
:1017D00051180008039A012001469140294A1160DE
:1017E000039A01469140264A1160039988400004FB
:1017F000224908603DE0039A012001469140214AB8
:101800001160039902468A401C490A60039A90407D
:10181000000408602DE0039A012001469140194A16
:1018200011600399884000041549086021E0039A7B
:10183000012001469140104A1160039A01469140EF
:101840000F4A11600399884000040C49086010E0B9
:10185000039A012001469140074A1160039902460C
:101860008A4006490A60039A90400004086000E03C
:10187000FFE706B080BDC0462C4010403440104009
:10188000304010402840104082B0014601A801704D
:1018900000780B2804DCFFE701A80078009004E042
:1018A00001A80078401E0090FFE7009802B0704742
:1018B00080B582B001900198810006484058002808
:1018C00006D0FFE701988100024840588047FFE7B3
:1018D00002B080BDF012002080B582B011480068CF
:1018E00001A90880694600200870FFE76846007873
:1018F0000F2815D8FFE701A80088C007002805D0E9
:10190000FFE768460078FFF7D3FFFFE701A90888E3
:1019100040080880FFE70098401C69460870E5E72A
:1019200002B080BD3840104080B584B0024603A8A4
:10193000027002910078FFF7A7FF019002980199C9
:101940008A000249885004B080BDC046F0120020D1
:1019500080B582B0014601A801700078FFF794FFBE
:1019600000900099012088400149086002B080BDC4
:101970002040104080B582B0014601A80170007877
:10198000FFF782FF0090009901208840014908601C
:1019900002B080BD2440104080B582B0014601A84D
:1019A00001700078FFF770FF0090009901208840D7
:1019B0000149086002B080BD3840104080B584B055
:1019C000014603A801700849096802910078FFF7F1
:1019D0005BFF019002980199C840012108400290E4
:1019E000029804B080BDC0463840104080B584B035
:1019F000014603A801700849096802910078FFF7C1
:101A000043FF019002980199C840C003C00F0290A3
:101A1000029804B080BDC0463840104080B582B006
:101A200001900198112801D3FFE709E001980121F5
:101A30000091FFF7FBFC00990198FFF705FCFFE719
:101A400002B080BD80B582B00190019810280CD8FA
:101A5000FFE70198FFF764FC694608700198097870
:101A600001225140FFF7A2FCFFE702B080BDC04653
:101A700081B000900098FC2108400249401801B054
:101A80007047C0463850104081B0009000988007E1
:101A9000C00E01B07047000080B588B007AA01925F
:101AA00010700691FFF75CFA0290029800090699FF
:101AB00003F0A4F9059002980009069903F09EF935
:101AC000049104988001069903F098F90146019861
:101AD000039100780599039A00F002F808B080BDE0
:101AE00084B0034603A8037002910192007881003C
:101AF0000C48405800900099C86880221043C86084
:101B000002A80078009908600298000A00994860CD
:101B100001980099C023C8500099C8689043C860D4
:101B200004B07047688C000880B586B0024605A8EE
:101B300002700491007881001748405803900020FB
:101B40000290FFE70398C06F4007002801D4FFE729
:101B5000F8E7FFE70398C06FC007002801D0FFE750
:101B6000F8E70520019000F019F8019800F030F82E
:101B70000198039949680291039A0021516000F08D
:101B80003DF805A800780499FFF786FF02980399AD
:101B9000486006B080BDC046688C000881B0014630
:101BA00068460170007840B200280DD4FFE768460F
:101BB00001781F2001400120884004490860BFF3DC
:101BC0004F8FBFF36F8FFFE701B0704780E100E0F8
:101BD00081B0014668460170007840B2002809D4FF
:101BE000FFE7684601781F20014001208840024934
:101BF0000860FFE701B0704780E200E081B0014675
:101C000068460170007840B2002809D4FFE76846B2
:101C100001781F2001400120884002490860FFE749
:101C200001B0704700E100E084B00A46014603A815
:101C3000017002A90A70007882000A488058019059
:101C40000198C0680090009A0320824300920978AE
:101C5000014000980843009000980199C86004B0C2
:101C60007047C046688C000884B00A4603A9087013
:101C700002A8027009788A001349895801910199D4
:101C8000C96800910078022805D1FFE70098082173
:101C90008843009013E0009808210843009002A8B0
:101CA0000078002805D1FFE70098102188430090B4
:101CB00004E00098102108430090FFE7FFE7009838
:101CC0000199C86004B07047688C000883B00A4668
:101CD00002A9087001A8027009788A000A49895887
:101CE00000910078002806D1FFE70099C868042217
:101CF0009043C86005E00099C86804221043C8609A
:101D0000FFE703B07047C046688C000882B00A46FF
:101D100001A9087068460270007809788A000349B2
:101D200089589422885002B07047C046688C0008D9
:101D300083B0024602A8027001AA117000788100E7
:101D4000084840580090FFE70098C06F80070028BF
:101D500001D4FFE7F8E701A80178009A1160007844
:101D600003B07047688C000880B584B003AB18706E
:101D7000029101A80280694600200880FFE76846BA
:101D8000008801A9098888420EDAFFE703A80078D5
:101D900002996A461288895CFFF7CAFFFFE700983C
:101DA000401C69460880EAE704B080BD80B582B077
:101DB00001AA10700091FFE70098007800280AD06F
:101DC000FFE701A8007800990978FFF7B1FF0098B4
:101DD000401C0090F0E702B080BDC04682B00146D2
:101DE00001A8017000788100074840580090FFE783
:101DF0000098C06F0007002801D4FFE7F8E70098BB
:101E00000068C0B202B07047688C000884B003AAB2
:101E1000107002A8017000780090052853D800982F
:101E2000810001A040588746411E0008551E000849
:101E30006F1E0008831E00089F1E0008B31E0008C6
:101E400003A8007881002348405840694006C00F2D
:101E500001903BE003A8007881001E48405840698B
:101E60000121084001900198484001902EE003A80C
:101E7000007881001748405840698007C00F0190E2
:101E800024E003A80078810012484058C06F800702
:101E9000C00F0190019801214840019016E003A86D
:101EA000007881000B484058C06FC006C00F0190F9
:101EB0000CE003A80078810006484058C06F01215B
:101EC0000840019002E000200190FFE701A800789F
:101ED00004B07047688C000884B000920B4602463C
:101EE000009803A90A7002AA13700190019809785A
:101EF00018234B430349C91812789200885004B044
:101F00007047C0463413002084B00A4603A9087005
:101F100002A8027009788A0019498958019100784D
:101F20000090052829D80098810001A040588746D4
:101F3000491F0008551F0008551F0008611F0008B1
:101F40006D1F0008791F000801994868022210439C
:101F5000486013E0019948680122104348600DE091
:101F60000199486804221043486007E001994868D5
:101F700008221043486001E000E0FFE704B070472A
:101F8000688C000884B00A4603A9087002A8027091
:101F900009788A001949895801910078009005282C
:101FA00029D80098810001A040588746C51F000825
:101FB000D11F0008D11F0008DD1F0008E91F00081D
:101FC000F51F00080199486802229043486013E019
:101FD000019948680122904348600DE001994868E2
:101FE00004229043486007E0019948680822904322
:101FF000486001E000E0FFE704B07047688C00082B
:1020000080B586B0014605A8017000788100364889
:1020100040580390039880680F210840029002986E
:1020200001900C2853D80198810001A040588746A0
:1020300065200008CF20000877200008CF20000886
:1020400087200008CF20000899200008AB20000856
:10205000CF200008CF200008CF200008CF200008A4
:10206000BD20000805A80078182141431F484018EA
:10207000006904902EE005A80078182141431B4810
:102080004058049026E005A80078182141431748DD
:102090004018406804901DE005A8007818214143CD
:1020A00012484018C068049014E005A80078182170
:1020B00041430E484018406904900BE005A80078A1
:1020C00018214143094840188068049002E000202C
:1020D0000490FFE70498002803D0FFE704988047A6
:1020E000FFE706B080BDC046688C000834130020AE
:1020F00084B000910246009803A90A700290002063
:10210000019002980278012002400198104301904A
:1021100002980078C20030200240019810430190DC
:1021200002980078C200C02002400198104301903C
:10213000019809788A0002498958886004B070477C
:10214000688C000881B00146684601700078810003
:10215000044841588822885804231843885001B005
:102160007047C046688C000881B00146684601701F
:102170000078810004484158882288580223184377
:10218000885001B07047C046688C000881B0014695
:1021900068460170007881000148405801B07047DE
:1021A000688C0008704770477047704770477047E9
:1021B00070477047704780B5FEF7C4FC80BD70471C
:1021C000704770477047704770477047704780B5D9
:1021D00005F012FF80BD7047704770477047704729
:1021E000704770477047704780B582B0019000918A
:1021F00001A801780020FFF79BFD02B080BD80B5EB
:1022000082B0019000200090FFF7E8FD01460098A1
:10221000FFF78EFD02B080BD81B000900020C0436A
:1022200001B0704782B0019000910120000202B01D
:10223000704781B00090002001B0704784B00390D7
:10224000029101920093002004B0704784B0039083
:10225000029101920093002004B0704780B582B0D3
:10226000019001A801780020FFF762FD02B080BD57
:1022700081B00090012001B0704782B001900091C0
:102280000020C04302B0704781B00090002001B030
:10229000704781B00090002001B0704783B0029079
:1022A00001910092002003B0704781B00090FFE7D9
:1022B000FEE781B00090002001B0704780B582B089
:1022C0000190019800F0BCFF02B080BD80B582B0E3
:1022D0000190019800F0E9FF02B080BD80B584B0A4
:1022E000024602A8027001910078032804DBFFE790
:1022F00003A90220087043E002A80090007800F0D3
:1023000045F80098007800F07DF800980078FFF715
:102310002BFF00980078FFF715FF009800780199CF
:102320000968FFF7B9FB0098007801990979FFF770
:102330007BFC0098007801994979FFF795FC00989B
:10234000007801998979FFF7C1FC0098007801991C
:102350000B31FFF7CDFE009800780199C979FFF79E
:10236000D5FC009800780199097A00F059F8009896
:10237000027805492020885403A900200870FFE74F
:1023800003A8007804B080BD7C13002080B588B01D
:10239000014607A8017006AA002191701180022150
:1023A00011700121517000780590002808D0FFE7D6
:1023B0000598012813D0FFE7059802281ED01EE0DB
:1023C00006A903910020049088700620FFF760F9A9
:1023D0000399049888700720FFF75AF910E006A9BE
:1023E00001910020029088700820FFF751F90199AF
:1023F000029888700920FFF74BF901E000E0FFE741
:1024000008B080BD80B582B0014601A80170007897
:10241000810002484058804702B080BD5C8C0008B3
:1024200080B582B001AA107068460170007800285B
:1024300007D1FFE701A801780648405600F064F98B
:1024400006E001A801780348405600F077F9FFE75D
:1024500002B080BD748C000880B582B0014601A82E
:1024600000900170007800F009F8009802780249A5
:102470000020885402B080BD7C13002080B582B05B
:10248000014601A801700078810002484058804749
:1024900002B080BD508C000881B0014668460170D2
:1024A00001780248405C01B07047C0467C130020B0
:1024B00010B586B001920A460199044605A8047039
:1024C000049203AA1180029304780D4B212119551F
:1024D000007804991288FFF747FCFFE705A8007809
:1024E0000021FFF793FC002801D1FFE7F6E705A8DC
:1024F0000278034920208854002006B010BDC04651
:102500007C13002010B586B0044604A80470039123
:1025100002A90A8001930078032804DBFFE705A9DC
:102520000220087031E004A80078FFF7B5FF2028EA
:1025300004D0FFE705A90A20087026E004A8027865
:10254000144922208854694600200880FFE7684625
:10255000008802A9098888420EDAFFE704A80078FB
:10256000FFF73CFC03996A4612888854FFE70098FD
:10257000401C69460880EAE704A802780549202043
:10258000885405A900200870FFE705A8007806B068
:1025900010BDC0467C13002010B588B00690059190
:1025A00004A8028006980078032804DBFFE707A947
:1025B000022008701BE006980169039105990291B9
:1025C0000078FFF7E3FD02990246039804AB1B88ED
:1025D0000124009402F063F8002804D0FFE707A963
:1025E0000A20087003E007A900200870FFE707A889
:1025F000007808B010BD10B586B00490039102A811
:10260000028004980078032804DBFFE705A9022074
:10261000087019E00498416901910078FFF7B6FD50
:1026200001460198039A02AB1B880124009402F032
:1026300036F8002804D0FFE705A90A20087003E057
:1026400005A900200870FFE705A8007806B010BDB6
:1026500010B588B00690059104A80280069800780D
:10266000032804DBFFE707A9022008701BE0069897
:1026700001690391059902910078FFF787FD02999E
:102680000246039804AB1B880124009401F0D0FE9D
:10269000002804D0FFE707A90A20087003E007A973
:1026A00000200870FFE707A8007808B010BD10B53B
:1026B00086B00490039102A8028004980078032851
:1026C00004DBFFE705A90220087019E004984169BE
:1026D00001910078FFF75AFD01460198039A02AB79
:1026E0001B880124009401F0A3FE002804D0FFE71A
:1026F00005A90A20087003E005A900200870FFE77B
:1027000005A8007806B010BD81B00146684601708A
:10271000007840B200280DD4FFE7684601781F20FA
:1027200001400120884004490860BFF34F8FBFF388
:102730006F8FFFE701B0704780E100E081B0014694
:1027400068460170007840B2002809D4FFE7684667
:1027500001781F2001400120884002490860FFE7FE
:1027600001B0704700E100E080B505F06DFB024864
:1027700005F090FB80BDC0467D270008B0B584B051
:10278000014603A80170007803280ADBFFE726480A
:10279000006803A90A781C2151434018406980470A
:1027A0003FE02148036803AA15781C210C466C43BE
:1027B0001C19E568A3685B19A3600068127851438F
:1027C000411888684968884216D1FFE7164800908A
:1027D000006803A901910A781C2102915143401815
:1027E0004069804700980199029A006809784A4335
:1027F00081188058886009E00B48006803A90A78AE
:102800001C215143401800698047FFE706480068D3
:1028100003A909781C224A4380188269806890477E
:10282000FFE704B0B0BDC0462810002070B583B0EB
:1028300002AB1870019100920B4908681D781C22A8
:1028400014466C4304190948A06100980C681E786E
:102850001546754364196061019809681B785A43ED
:102860008918086103B070BD281000207128000885
:1028700080B584B0039002A8017000210191007816
:10288000002804D1FFE7039805F044FA1BE002A8F2
:102890000078012805D0FFE702A80078022811D1AE
:1028A000FFE703980949096802AA13781C225A43D2
:1028B0008918C9684908401801900398019905F0E2
:1028C00017FAFFE7FFE704B080BDC04628100020DC
:1028D00080B505F09FFA80BD10B58EB002460DA8F8
:1028E00002700C9100210B910A9100780490062847
:1028F00000D993E00498810001A040588746C04663
:102900001D290008252900084F290008DB29000897
:10291000052A00080D2A0008152A00080C9800F066
:1029200081F87BE00C980B900B990878421E90413F
:10293000497805F053FB0B980078002806D0FFE794
:102940000B994868497805F037FBFFE766E00C987B
:102950000A900A98408800F0D7F8024605A902912B
:1029600008781F231A40E0231840801808700A983E
:1029700002780878120120231A40DF2318408018BB
:1029800008700A98808848800A98008880088880A3
:102990000A98C088C8800A98008908810A98C06887
:1029A00008900A98006909900A9840691C490968CA
:1029B00088660A98008801210391084005F060FAB2
:1029C000089B079A06990598099C009405F0B2FAAD
:1029D0000398032105F062FA20E00C980B900B9904
:1029E0000878421E9041497805F0F2F90B9800787A
:1029F000002806D0FFE70B994868497805F0CCF924
:102A0000FFE70BE00C9800F0DBF807E00C9800F013
:102A100079F903E00C9800F053FAFFE70EB010BD0F
:102A20002810002080B586B00590059804903448A1
:102A30000068009004980078C007002852D0FFE793
:102A4000049800888007C00F01A908800498408876
:102A5000488004980088C0088880049840680390E3
:102A600004980188C9084088484340000099C8601C
:102A70000099C868049A12889207D20F42438018BE
:102A8000C86000991F488861049840680099886070
:102A900000990860049800884007C00F00280CD0F7
:102AA000FFE70498806800990861049840680099DD
:102AB000CA6852008018486006E00498406800998F
:102AC000CA6880184860FFE70498C06800994861A8
:102AD000039A0299019805F02BF90120002105F0D5
:102AE000DDF904E00021084605F0D8F9FFE7049875
:102AF00000880121084005F045F906B080BDC046B8
:102B0000281000207128000883B0014602A8018027
:102B10000021C943019100880090022845D0FFE7B9
:102B2000009804283ED0FFE70098082837D0FFE738
:102B30000098102830D0FFE70098202829D0FFE720
:102B40000098402822D0FFE7009880281BD0FFE79C
:102B5000009801210902884212D0FFE70098012164
:102B60004902884209D0FFE7009801218902884282
:102B70001ED1FFE70A2001901EE0092001901BE012
:102B80000820019018E00720019015E00620019030
:102B900012E0052001900FE0042001900CE00320DA
:102BA000019009E00220019006E00120019003E07D
:102BB0000020C0430190FFE7019803B07047C04672
:102BC00010B58AB00990099808904B4800681C30ED
:102BD000029008980078C007002800D17FE008988C
:102BE00000880009FFF790FF024603A901910888B9
:102BF0001207D20E1E2398438018088008883F4A87
:102C000010400880089880884880089840880F22E3
:102C100010408880089840880009C8800898C088BB
:102C20000881089800884007C20F0888012398434C
:102C30008018088008988068069008998868CA8873
:102C4000898851438900401807900898C188808876
:102C5000484380000299C8600299C868089A12889F
:102C60005207D20F42438018C860029924488861F5
:102C7000089880680299886002990860089800881E
:102C80000007C00F00280CD0FFE70898C068029921
:102C90000861089880680299CA68520080184860E4
:102CA00006E0089880680299CA6880184860FFE7C3
:102CB0000898006902994861089800888007C00F49
:102CC00005F09EF8069B059A04990398079C0094CA
:102CD00004F078FF0121084605F0E0F804E0002048
:102CE000012105F0DBF8FFE7089800880121084082
:102CF00004F0A2FF0AB010BD281000201F800000C1
:102D000071280008B0B58EB00D900D980C906748F2
:102D10000068383005900C980078C007002800D172
:102D2000BCE00C990879497909024018FFF7ECFEDC
:102D300006A9049148800C98C179090480790002A1
:102D40004018000AFFF7E0FE049988800C9800788C
:102D50004007C20F088801239843801808800C9808
:102D6000427808885206D20D514B184080180880CE
:102D70000C9AD37810790002C018000492781202DD
:102D80008018020B088852024A4B184080180880AD
:102D90000C980089C8800C98027808889208022351
:102DA0001A409843801808800C98408908810C9834
:102DB000808948810C98006909900C9908694A89B2
:102DC00089895143890040180A900C98418980896B
:102DD000484380000599C8600599C8680C9A127824
:102DE0001207D20F42438018C860059932488861A3
:102DF0000C98006905998860059908600C9800781E
:102E0000400900280CD0FFE70C984069059908613B
:102E10000C9800690599CA6852008018486006E05D
:102E20000C9800690599CA6880184860FFE70C98FB
:102E30008069059948610C9800788007C00F04F0FC
:102E4000DFFF099B089A079906980A9C0B9D01953C
:102E5000009404F0F9FE0C980078C006C00F00281A
:102E60000CD1FFE70020039004F070FA039804F0FF
:102E700079FA0120022105F011F80EE0002002216C
:102E800005F00CF80D4804F069FA0120029004F0F6
:102E90005DFA029804F066FAFFE7FFE70C98007805
:102EA0000121084004F01AFF0EB0B0BD2810002028
:102EB00003FE0000FF01000071280008692F0008D0
:102EC00080B582B00190019A5078117849089278C3
:102ED00000F092F801998870019A507811784908A9
:102EE000D27800F089F80199C870019A90795179E7
:102EF000D27900F081F80199C8710198406804F016
:102F00006FFA0198006804F04DFA0198806804F0A7
:102F1000FFF9019842690169C06804F0FFF902B045
:102F200080BD80B5002004F087FE80BD80B5012003
:102F300004F082FE80BD80B5002004F0CFFE80BD8D
:102F400080B5012004F0CAFE80BD80B582B0014684
:102F500001A801700078032803D1FFE705F022F8EB
:102F600000E0FFE702B080BDB0B584B003AA022044
:102F700010702048036815781C210C466C431C19FE
:102F8000E568A3685B19A360006812785143411893
:102F900088684968884216D1FFE7164800900068A3
:102FA00003A901910A781C210291514340184069FC
:102FB000804700980199029A006809784A4381186D
:102FC0008058886009E00B48006803A90A781C2132
:102FD0005143401800698047FFE70648006803A98D
:102FE00009781C224A43801882698068904704B09F
:102FF000B0BDC0462810002080B588B00B46014601
:1030000007A8017006A90B7005AB1A800022049274
:1030100003AB1A8000780978401A029002980128C0
:1030200003D1FFE70120049017E00298022803D1A2
:10303000FFE7022004900FE00298052803D8FFE77D
:103040000420049007E00298082803D8FFE708202E
:103050000490FFE7FFE7FFE7FFE705A8008802F01D
:10306000B7FB0090049802F0B3FB0146009805F00E
:1030700009FC0190029802F0ABFB0146019802F0B6
:10308000CBFA02F09FFA0022054B02F0EDF802F0B5
:1030900051F9014603A80180008808B080BDC046F0
:1030A0000000E03F80B586B0FDF764FC04A8009006
:1030B000FDF776FC00980122029202700021019136
:1030C000C1708270FDF77EFC0098FDF769FC0098E6
:1030D000019A02990170C270FDF774FC0198FDF726
:1030E000CBFC0298FDF7C8FC0420039000F006F822
:1030F000039800F019F806B080BDC04681B00146C3
:1031000068460170007840B2002809D4FFE768469D
:1031100001781F2001400120884002490860FFE734
:1031200001B0704780E200E081B00146684601705E
:10313000007840B2002809D4FFE7684601781F20D4
:1031400001400120884002490860FFE701B0704754
:1031500000E100E010B58CB004460BA804700AAC86
:103160002170099208930078FDF7D8FC00280DD053
:10317000FFE70BA804900078FDF790FC0420FFF710
:10318000BDFF04980078FDF79BFCFFE705A80190C0
:10319000FDF706FC01980A9901700BA903910978C3
:1031A000FDF710FC09980290FDF7DAFE094901F0DD
:1031B00025FE029A01460398514307910078079A29
:1031C0000021FDF739FC039800780899FDF796FC7B
:1031D0000CB010BD40420F0080B588B007AB039320
:1031E000187006A802900170059205980190FDF7ED
:1031F000B7FE084901F002FE019B029902460398BE
:103200005A43049200780978049AFDF715FC08B037
:1032100080BDC04640420F0080B582B0014601A883
:1032200001700078FDF728FC02B080BD80B582B047
:10323000014601A801700078FDF730FC02B080BDA6
:1032400080B584B0039003980190FDF789FE06498C
:1032500001F0D4FD0199484302900298012100F049
:1032600005F804B080BDC04640420F0080B584B070
:10327000039002A801700398002814D0FFE702A869
:103280000078FDF72DFC0190FFE702A80078FDF71C
:1032900027FC0090FFE701980099401A03998842A3
:1032A000F3D3FFE7FFE704B080BD80B582B00190A3
:1032B00001997D20C0004843FFF7C2FF02B080BDE6
:1032C00080B582B00120FDF70BFC0190019802B09F
:1032D00080BDC04680B584B0039000200290FDF709
:1032E0003FFE084901F08AFD01900120FDF7F8FB3F
:1032F000029003980299401A019901F07FFD04B0F1
:1033000080BDC04640420F0080B5042000F004F8A4
:10331000FDF734FB80BDC04681B0014668460170B0
:10332000007840B200280DD4FFE7684601781F20DE
:1033300001400120884004490860BFF34F8FBFF36C
:103340006F8FFFE701B0704780E100E080B584B087
:1033500002900298002805D1FFE703A90120087018
:1033600000F07EFC0298006801900298406800908E
:103370000198FE49884201D1FFE705E0FC48FD4A7B
:10338000FD4B6D2100F088FC009800280CD0FFE771
:103390000098012808D0FFE70098022804D0FFE732
:1033A0000098032801D1FFE705E0F148F14AF34B0B
:1033B0006E2100F071FC0298C0680007400F0028E1
:1033C00023D0FFE70298C0680007400F01281CD0F7
:1033D000FFE70298C0680007400F022815D0FFE7FA
:1033E0000298C0680007400F03280ED0FFE702983C
:1033F000C0680007400F042807D0FFE70298C068A4
:103400000007400F052801D1FFE705E0D848D94A59
:10341000DB4B702100F040FC0298C0684006400F72
:10342000002823D0FFE70298C0684006400F01281B
:103430001CD0FFE70298C0684006400F022815D054
:10344000FFE70298C0684006400F03280ED0FFE750
:103450000298C0684006400F042807D0FFE7029892
:10346000C0684006400F052801D1FFE705E0C048CD
:10347000C04AC44B712100F00FFC0298C068C0051F
:10348000800F00280ED0FFE70298C068C005800FAB
:10349000012807D0FFE70298C068C005800F022806
:1034A00001D1FFE705E0B248B24AB74B722100F004
:1034B000F3FB0298C0684005800F00280ED0FFE79C
:1034C0000298C0684005800F012807D0FFE70298E6
:1034D000C0684005800F022801D1FFE705E0A4483D
:1034E000A44AAA4B732100F0D7FB0298C06880045D
:1034F000400F002831D0FFE70298C0688004400FD9
:1035000001282AD0FFE70298C0688004400F0228F3
:1035100023D0FFE70298C0688004400F03281CD026
:10352000FFE70298C0688004400F042815D0FFE729
:103530000298C0688004400F05280ED0FFE702986B
:10354000C0688004400F062807D0FFE70298C068D3
:103550008004400F072801D1FFE705E08448854A31
:103560008B4B742100F098FB0298C068C003400F99
:10357000002831D0FFE70298C068C003400F01283F
:103580002AD0FFE70298C068C003400F022823D06A
:10359000FFE70298C068C003400F03281CD0FFE774
:1035A0000298C068C003400F042815D0FFE70298B6
:1035B000C068C003400F05280ED0FFE70298C0681E
:1035C000C003400F062807D0FFE70298C068C00379
:1035D000400F072801D1FFE705E06548654A6D4BBC
:1035E000752100F059FB0298C0688003C00F0028C5
:1035F00007D0FFE70298C0688003C00F002801D001
:10360000FFE705E05A485B4A634B762100F044FB34
:103610000298C0684003C00F002807D0FFE7029857
:10362000C0684003C00F002801D0FFE705E0504804
:10363000504A5A4B772100F02FFB0298C068400295
:10364000400F002831D0FFE70298C0684002400FC9
:1036500001282AD0FFE70298C0684002400F0228E4
:1036600023D0FFE70298C0684002400F03281CD017
:10367000FFE70298C0684002400F042815D0FFE71A
:103680000298C0684002400F05280ED0FFE702985C
:10369000C0684002400F062807D0FFE70298C068C4
:1036A0004002400F072801D1FFE705E03048314ACA
:1036B0003B4B782100F0F0FA0298C0680001C00F7F
:1036C000002807D0FFE70298C0680001C00F00285B
:1036D00001D0FFE705E02648264A324B792100F069
:1036E000DBFA0298C068C000C00F002807D0FFE7CF
:1036F0000298C068C000C00F002801D0FFE705E0B5
:103700001B481C4A284B7A2100F0C6FA0298007D1B
:103710004007002851D0FFE70298808A072108401F
:1037200001284AD0FFE70298808A07210840022832
:1037300043D0FFE70298808A0721084003283CD045
:10374000FFE70298808A07210840042835D0FFE768
:103750000298808A0721084005282ED0FFE70298AA
:10376000808A07210840062827D01FE0000010406B
:103770003D91000867910008D8900008EE9000087D
:10378000E08E0008AF8E0008128D0008DC8C000867
:103790007A8E0008458E00080A9000083E900008C6
:1037A000B58C0008DB8F0008AC8F00080298808A77
:1037B00007210840072801D1FFE705E0F848F94A4A
:1037C000F64B7B2100F068FA0299412202208854CE
:1037D000FFE70299402200208854FFE701980099F2
:1037E00003F056FEFFE70198009903F029FF002837
:1037F00001D0FFE7F7E701980099002204F092F862
:103800000198009903F076FE0198009903F04AFEB2
:103810000198009903F05AFE0198009903F060FEA8
:103820000198009903F048FE0198009903F026FEE4
:103830000198009903F0FAFD0198009903F00AFE3F
:103840000198009903F010FE0198009903F0F8FD2B
:103850000298806801282DD0FFE70298806802282E
:1038600028D0FFE702988068032823D0FFE702985A
:10387000806804281ED0FFE702988068052819D0C8
:10388000FFE702988068062814D0FFE70298806856
:1038900007280FD0FFE70298806808280AD0FFE7C2
:1038A00002988068092805D0FFE7029880680A28F6
:1038B00001D1FFE705E0EC48EC4AEE4B982100F01F
:1038C000EBF901980099029A926800F0F7F90198D3
:1038D0000099029AD26904F033F801980099029A8B
:1038E000D2685206520F04F05DF901980099029ACD
:1038F000D2681207520F03F0DBFF01980099029A79
:10390000D2685205920F04F081F801980099029A4A
:10391000D268D205920F03F017FF01980099029A1E
:10392000D268D203520F04F081F801980099029AEC
:10393000D2689204520F03F017FF01980099029A7F
:10394000D2689203D20F04F093F80298006A000B39
:10395000002801D1FFE705E0C348C44AC64BA621B1
:1039600000F09AF90298406A000D002801D1FFE7A3
:1039700005E0BD48BD4AC14BA72100F08DF9019873
:103980000099029A126A04F063F801980099029A69
:10399000526A04F07FF801980099029AD2685203A3
:1039A000D20F03F04FFF0298806A000B002801D16C
:1039B000FFE705E0AC48AD4AB14BAC2100F06CF933
:1039C0000298C06A000D002801D1FFE705E0A64873
:1039D000A64AAC4BAD2100F05FF901980099029A1C
:1039E000926A03F021FF01980099029AD26A03F0CB
:1039F00039FF01980099029AD2685202520F03F0DF
:103A000081FF0298007D4007002831D0FFE702982F
:103A1000808A0721084001282AD0FFE70298808A7F
:103A200007210840022823D0FFE70298808A072157
:103A3000084003281CD0FFE70298808A072108402D
:103A4000042815D0FFE70298808A0721084005283E
:103A50000ED0FFE70298808A07210840062807D089
:103A6000FFE70298808A07210840072801D1FFE775
:103A700005E07D487D4A7E4BB32100F00DF90198A9
:103A80000099029A928A07231A4003F035FE0298A1
:103A9000808A0007C00F002807D0FFE70298808ABD
:103AA0000007C00F002801D0FFE705E06E486F4A0D
:103AB000754BB62100F0F0F80298808AC006C00F5E
:103AC000002807D0FFE70298808AC006C00F0028B0
:103AD00001D0FFE705E06448644A6C4BB72100F071
:103AE000DBF801980099029A928A1207D20F04F02B
:103AF00009F801980099029A928AD206D20F03F02F
:103B000065FE0298808A0007C00F00280FD1FFE7EA
:103B100001980099029AD28A03F0D0FF0198009987
:103B2000029A927E01231A4003F0DAFF00E0FFE7D9
:103B30000298808AC006C00F00280FD1FFE70198C5
:103B40000099029A128B03F021FE01980099029AC3
:103B5000927E9207D20F03F029FE00E0FFE7019862
:103B60000099029A927ED206D20F04F00BF80198C7
:103B70000099029A927E9206D20F03F08BFE029871
:103B8000807EC006C00F00280ED0FFE70198009984
:103B9000029A126B03F0EAFF0CE0C04604910008A1
:103BA0003D9100086791000801980099002203F0F8
:103BB000DDFFFFE70298807E8006C00F002807D057
:103BC000FFE701980099029A526B03F059FE05E055
:103BD00001980099002203F053FEFFE70298807ECF
:103BE0004006C00F002807D0FFE70298807E4006FD
:103BF000C00F002801D0FFE705E01B481B4A244BFB
:103C0000DB2100F049F801980099029A927E520651
:103C1000D20F03F05BFE0298807EC009002806D018
:103C2000FFE70298807EC009012801D1FFE705E087
:103C30000D480E4A174BDF2100F02EF8019800992D
:103C4000029A927ED20903F04FFE019803F068FCBD
:103C5000029941220120885403A900200870FFE73F
:103C600003A8007804B080BD3D910008679100086A
:103C700004910008168E000874900008118F000847
:103C8000A59000084C8F00089E8D0008DA8D000872
:103C9000488D0008768D000886B005900491039247
:103CA00002930599049A039B02980090024801F040
:103CB00077F8FFE7FEE7C0469B8C000880B594B01C
:103CC0001290119110921298119903F0B9FC0028EA
:103CD00003D0FFE70120139016E11098401E0F90CB
:103CE000092800D90CE10F98810001A040588746AF
:103CF000193D00084F3D0008853D0008BB3D000808
:103D0000F33D00081F3E00084B3E0008793E0008C6
:103D1000A53E0008D33E00081298119900220E9289
:103D200003F00EFE0E9A1298119903F0FDFE0E9A02
:103D30001298119903F05AFD0E9A1298119903F0F6
:103D400005FF0E9A1298119903F060FDD9E01298C0
:103D5000119900220D9203F0F3FD0D9A129811991A
:103D600003F0E2FE0D9A1298119903F03FFD0D9AAF
:103D70001298119903F0EAFE12981199012203F0AA
:103D800045FDBEE01298119900220C9203F0D8FD77
:103D90000C9A1298119903F0C7FE0C9A1298119977
:103DA00003F024FD12981199012203F0CFFE0C9A22
:103DB0001298119903F02AFDA3E01298119900229C
:103DC0000A9203F0BDFD0A9A1298119903F0ACFE15
:103DD0000A9A1298119903F009FD1298119901227B
:103DE0000B9203F0B3FE0B9A1298119903F00EFD9B
:103DF00087E0129811990022099203F095FE099A22
:103E00001298119903F0F2FC099A1298119903F093
:103E10009DFE099A1298119903F0F8FC71E012982E
:103E200011990022089203F07FFE12981199012245
:103E300003F0DCFC089A1298119903F087FE089AA7
:103E40001298119903F0E2FC5BE01298119900229C
:103E5000079203F069FE129811990122069203F06D
:103E6000C5FC069A1298119903F070FE079A1298F1
:103E7000119903F0CBFC44E012981199012203F050
:103E800053FE129811990022059203F0AFFC059A97
:103E90001298119903F05AFE059A1298119903F09D
:103EA000B5FC2EE0129811990122049203F03CFE19
:103EB000129811990022039203F098FC039A129829
:103EC000119903F043FE049A1298119903F09EFC95
:103ED00017E0129811990122019203F025FE019A30
:103EE0001298119903F082FC129811990022029203
:103EF00003F02CFE029A1298119903F087FC00E05F
:103F0000FFE700201390FFE7139814B080BDC04670
:103F100080B586B004900498002804D1FFE705A975
:103F20000120087033E10498006803900498406809
:103F3000029004984121405C022804D1FFE705A9C2
:103F40000220087023E10498406800280FD0FFE7A2
:103F50000498406801280AD0FFE7049840680228C6
:103F600005D0FFE704984068032801D1FFE705E08A
:103F700089488A4A8A4BFD21FFF78EFE03980299F1
:103F800003F086FA039802990022019203F034FDAF
:103F9000019A0398029903F0CDFB0398029902223B
:103FA00003F098FB019A0398029903F0BDFD019A72
:103FB0000398029903F01AFC03980299032203F074
:103FC000A1FC019A0398029903F03CFC019A039822
:103FD000029903F04DFD039802990122009203F02B
:103FE00025FD009A0398029903F0BEFB019A0398FD
:103FF000029903F00BFD019A0398029903F0A4FBC8
:10400000019A0398029903F0CDFD019A0398029951
:1040100003F04EFC009A0398029903F083FC019A86
:104020000398029903F04AFD019A0398029903F05C
:10403000ADFB019A0398029903F0A4FD019A03983D
:10404000029903F027FC009A0398029903F0C6FC3A
:10405000019A0398029903F039FC019A0398029996
:1040600003F042FC019A0398029903F0CFFB019AF6
:104070000398029903F06AFD019A0398029903F0EC
:104080002FFD019A0398029903F090FB019A03987F
:10409000029903F063FC019A0398029903F07EFCF5
:1040A000019A0398029903F069FC019A0398029916
:1040B00003F084FC009A0398029903F023FD009A10
:1040C0000398029903F082FB019A0398029903F086
:1040D00021FB019A0398029903F00EFB019A0398C1
:1040E000029903F0B5FC019A0398029903F0D2FCFF
:1040F000019A0398029903F097FB019A0398029999
:1041000003F0B0FB0398029903F0F4F903980299C5
:1041100003F0C8F90398029903F0E2F903980299B1
:1041200003F0CAF90398029903F0D0F901980499B1
:1041300088640499C86404990865049948650499D9
:1041400088650499C8650398029903F097F9039864
:10415000029903F06BF90398029903F085F903982B
:10416000029903F06DF90398029903F073F901982D
:1041700004990866049941228854FFE70499402273
:1041800000208854FFE705A900200870FFE705A874
:10419000007806B080BDC0463D91000874910008CB
:1041A000898F0008B0B584B002900298002804D12D
:1041B000FFE703A901200870A8E002990020009001
:1041C0000860029B9A68012101918A439A60029BD0
:1041D0009A680E24A2439A60029B9A687024A243B4
:1041E0009A60029B9A680C0222438024A2439A6040
:1041F000029B9A6803246402A2438C0212199A60FB
:10420000029B9A680724E502AA439A60029B9A6877
:10421000A503AA439A60029B9A684D04AA439A6038
:10422000029B9A688D04AA439A60029B9A682505AE
:10423000AA439A60029B9A68CD06AA439A60029BA1
:104240009A680D07AA439A60029BDA68314D2A40AA
:10425000DA60029BDA680D03AA43DA60029B1A8ACD
:10426000A2431A82029C238A082213432382029CBF
:10427000238A10252B432382029B5A82029B092208
:104280009A82029B9A7DFB2422409A75029B9A7D1A
:10429000F72422409A75029B9A7DEF2422409A755A
:1042A000029B9A7DDF2422409A75029B9A7DBF244F
:1042B00022409A75029B9A7D7F2422409A75029B28
:1042C000DA7DFE242240DA75029BDA7DFD2422404D
:1042D000DA75029BDA7DF3242240DA75029BDA7DDF
:1042E000CF242240DA75029A5160029988610299BE
:1042F000C86102990862029948620299886202992B
:10430000C8620299086303A90870FFE703A8007850
:1043100004B0B0BD00F0FFFFB0B585B003900291CE
:104320000398002804D1FFE704A90120087078E071
:1043300000200190FFE70198029988426DD2FFE7C3
:104340000398019A1C2151434018009000990020C5
:1043500008600099486000998860009AD16801233C
:104360001943D160009AD1680E24A143D160009A0C
:10437000D1687024A143D160009AD1680324E5017B
:10438000A943D160009AD1686402A143D160009A28
:10439000D1680724E502A943D160009AD168A5033A
:1043A000A943D160009AD1685D04A943D160009A05
:1043B000D1689D04A943D160009AD1682405A14326
:1043C000D160009AD168DC06A143D160009AD1681F
:1043D0001C07A143D160009A1169144C214011615E
:1043E000009A11691B039943116100994861009972
:1043F000886101980299491E884209D2FFE7039813
:10440000019A1C21514340181C3000998860FFE735
:10441000FFE70198401C01908DE704A90020087077
:10442000FFE704A8007805B0B0BDC04600F0FFFF6C
:1044300010B58AB00C9C089007910692059304A9C8
:10444000002008700898006803900898406802905F
:10445000FFE708984021405C012804D1FFE709A943
:10446000022008703AE00899402201208854FFE7B2
:10447000FFE708984121405C012821D1FFE7089916
:10448000412202208854089900200190086608986B
:104490000799069A059B00F025F80398029902F007
:1044A000B9FF019A0C98089988630898C263039829
:1044B000029903F037FA0398029903F025F809E00E
:1044C000FFE70899402200208854FFE704A9022052
:1044D0000870FFE7049809A90870FFE709A80078A9
:1044E0000AB010BD80B586B0059004910392029386
:1044F000059800680190059840680090019800991F
:10450000049A03F079FA01980099039A03F012F9DA
:1045100001980099029A03F0DDF806B080BD80B5DD
:1045200086B00490322003900498002804D1FFE75D
:1045300005A90120087073E00498006802900498AF
:104540004068019004984121405C02280DD0FFE7AB
:10455000049910200866FFE704994022002088543F
:10456000FFE705A9012008705AE00298019902F0BE
:10457000C1FF0298019902F095FF0298019902F09B
:10458000AFFF0298019902F08DFF0298019902F0A5
:104590009DFF0298019902F07BFFFFE702980199C5
:1045A00003F04EF8002818D0FFE70398401E039050
:1045B000002811D1FFE704990420086604994122DC
:1045C00003208854FFE70499402200208854FFE725
:1045D00005A90320087023E0E0E70298019902F0A2
:1045E0004DFF0298019902F021FF0298019902F013
:1045F0003BFF0298019902F023FF0298019902F013
:1046000029FF0499412201208854FFE704994022A0
:1046100000208854FFE7FFE705A900200870FFE7A6
:1046200005A8007806B080BD80B586B005900491DD
:1046300003A900200870059800680290059840685A
:104640000190FFE70298019902F0FAFF002801D0DB
:10465000FFE7F7E70298019902F0AAFF00280AD0C5
:10466000FFE705994122012088540599002008663A
:1046700003A9087009E0059941220420885405998E
:104680000120086603A90870FFE7FFE705994022AB
:1046900000208854FFE703A8007806B080BD10B55D
:1046A0008AB00C9C089007910692059304A90020FB
:1046B0000870089800680390089840680290FFE727
:1046C00008984021405C012804D1FFE709A9022095
:1046D0000870CBE00899402201208854FFE7FFE7EB
:1046E00008984121405C012800D0B1E0089941229E
:1046F00002208854089900200190086608980799BC
:10470000069A059BFFF7EEFE0398029902F082FEDF
:1047100001980C99089A91630899C86303980299C3
:1047200002F098FE0398029902F0A8FE03980299FD
:1047300002F07CFE0398029902F096FE039802991B
:1047400002F07EFE0398029902F00EFF0398029990
:1047500002F0F2FE0398029902F01EFF0898808A88
:104760000007C00F00280FD1FFE703980299089AAD
:10477000D28A03F0A3F903980299089A927E012342
:104780001A4003F0ADF921E00898C0684002400FDC
:10479000022815D0FFE70898C0684002400F04289F
:1047A0000ED0FFE70898C0684002400F052807D0E8
:1047B000FFE70898C0684002400F072805D1FFE7CF
:1047C0000398029902F0DCFEFFE7FFE70898808A71
:1047D000C006C00F00280FD1FFE703980299089A7E
:1047E000128B02F0D3FF03980299089A927E9207E7
:1047F000D20F02F0DBFF21E00898C0684002400FB2
:10480000012815D0FFE70898C0684002400F06282D
:104810000ED0FFE70898C0684002400F052807D077
:10482000FFE70898C0684002400F072805D1FFE75E
:104830000398029902F08CFEFFE7FFE703980299C4
:10484000012203F06FF80398029902F05DFE09E07F
:10485000FFE70899402200208854FFE704A90220BE
:104860000870FFE7049809A90870FFE709A8007815
:104870000AB010BD80B584B002900298002804D11F
:10488000FFE703A9012008701FE00298006801906B
:1048900002984068009002984121405C022807D0AD
:1048A000FFE702991020086603A9012008700CE0B8
:1048B00002994122052088540198009902F0E8FDF0
:1048C000FFE703A900200870FFE703A8007804B001
:1048D00080BDC04680B586B00590059800680490FC
:1048E0000598406803900498039902F085FE00281B
:1048F00013D0FFE70498039902F0C6FE00280CD0FD
:10490000FFE70498039902F0E1FD0498039902F08F
:10491000A1FD059901200866FFE70498039902F0BC
:1049200083FE002800D187E00498039902F0C4FEBA
:10493000002800D180E00599C86B401CC863059829
:104940008068042826D1FFE70599C86B896B8842E7
:104950001FD3FFE70598806C002804D0FFE7059877
:10496000816C8847FFE704980399002202F0DAFF80
:104970000498039902F082FD0498039902F074FDF3
:104980000498039902F05CFD0498039902F04EFD2F
:10499000FFE71EE10598806C002804D0FFE705982A
:1049A000816C8847FFE70498039902F067FD04983B
:1049B000039902F03BFD0498039902F055FD049819
:1049C000039902F03DFD0498039902F093FD0498C9
:1049D000039902F067FD0498039902F081FD0498A1
:1049E000039902F069FD0498039902F06FFD0598A0
:1049F0004121405C052814D1FFE70598C06D0028CF
:104A000004D0FFE70598C16D8847FFE7059941226B
:104A100001208854FFE70599402200208854FFE7D1
:104A2000D7E00599412201208854FFE705994022EB
:104A300000208854FFE7FFE70498039902F0C4FDC3
:104A400000285DD0FFE70498039902F005FE0028D6
:104A500056D0FFE70599C86B401CC8630599C86B21
:104A6000896B491E884235D1FFE705988068801E12
:104A7000029007282CD80298810001A04058874650
:104A8000A14A0008AD4A0008B94A0008D14A000806
:104A9000D14A0008AD4A0008D14A0008A14A0008DE
:104AA00004980399002202F0B1FE12E004980399E1
:104AB000002203F04BF80CE00498039900220192C5
:104AC00003F044F8019A0498039902F09FFE00E075
:104AD000FFE7FFE70598006D002804D0FFE7059881
:104AE000016D8847FFE70498039902F0BDFC049824
:104AF000039902F0A5FC0498039902F097FCFFE7E4
:104B00000498039902F084FD002815D0FFE704986B
:104B1000039902F0C5FD00280ED0FFE70598406D0F
:104B2000002804D0FFE70598416D8847FFE7049807
:104B3000039902F099FCFFE70498039902F050FDF5
:104B4000002815D0FFE70498039902F091FD002892
:104B50000ED0FFE70598806D002804D0FFE7059888
:104B6000816D8847FFE70498039902F069FCFFE72D
:104B70000598006E00282CD0FFE70598006EC0074E
:104B800000281CD0FFE7059941220520885404988D
:104B9000039902F07DFCFFE70498039902F050FDB1
:104BA000002801D0FFE7F7E705994122012088544A
:104BB000FFE70599402200208854FFE7FFE70598AA
:104BC000C06C002804D0FFE70598C16C8847FFE758
:104BD000FFE706B080BDC04686B0049003A8017010
:104BE000029201A900200870FFE704984021405C70
:104BF000012804D1FFE705A9022008704DE00499BF
:104C0000402201208854FFE7FFE704984121405CDF
:104C1000012834D1FFE703A800780090052829D89F
:104C20000098810001A040588746C046454C0008C6
:104C30004D4C0008554C00085D4C0008654C0008C0
:104C40006D4C000802980499886417E00298049952
:104C5000C86413E00298049908650FE0029804996B
:104C600048650BE002980499886507E0029804996A
:104C7000C86503E001A901200870FFE703E001A96E
:104C800001200870FFE7FFE70499402200208854C4
:104C9000FFE7019805A90870FFE705A8007806B0AE
:104CA0007047C04685B0039002A8017001A900209A
:104CB0000870FFE703984021405C012804D1FFE71A
:104CC00004A90220087058E003994022012088546A
:104CD000FFE7FFE703984121405C012843D1FFE74C
:104CE00002A800780090062838D80098810001A01A
:104CF00040588746114D0008194D0008214D000805
:104D0000294D0008314D0008394D0008414D00087B
:104D100003990020886425E003990020C86421E0FD
:104D20000399002008651DE003990020486519E0FB
:104D300003990020886515E003990020C86511E0FB
:104D40000399002088640399C8640399086503994E
:104D50004865039988650399C86503E001A90120A6
:104D60000870FFE7FFE7FFE703994022002088541F
:104D7000FFE7019804A90870FFE704A8007805B0D0
:104D8000704781B0009000984121405C01B07047AD
:104D900081B000900098006E01B07047704700002D
:104DA0000FB4054910B503AA029800F0CDFD10BC60
:104DB00008BC04B018470000BC11002001E004C08A
:104DC000091F0429FBD28B0701D50280801CC9076B
:104DD00000D00270704700290BD0C30702D00270C8
:104DE000401C491E022904D3830702D50280801C7F
:104DF000891EE3E70022EEE70022DFE70022030935
:104E00008B422CD3030A8B4211D300239C464EE0E5
:104E100003460B433CD4002243088B4231D30309A1
:104E20008B421CD3030A8B4201D394463FE0C30953
:104E30008B4201D3CB01C01A524183098B4201D36B
:104E40008B01C01A524143098B4201D34B01C01A56
:104E5000524103098B4201D30B01C01A5241C308CE
:104E60008B4201D3CB00C01A524183088B4201D33D
:104E70008B00C01A524143088B4201D34B00C01A29
:104E80005241411A00D201465241104670475DE03E
:104E9000CA0F00D04942031000D3404253409C4601
:104EA000002203098B422DD3030A8B4212D38901BE
:104EB000FC2212BA030A8B420CD3890192118B4255
:104EC00008D3890192118B4204D389013AD09211FF
:104ED00000E08909C3098B4201D3CB01C01A5241BA
:104EE00083098B4201D38B01C01A524143098B4283
:104EF00001D34B01C01A524103098B4201D30B016C
:104F0000C01A5241C3088B4201D3CB00C01A524190
:104F100083088B4201D38B00C01A5241D9D2430877
:104F20008B4201D34B00C01A5241411A00D20146B4
:104F30005241104663465B1001D34042002B00D51E
:104F40004942704763465B1000D3404201B50549B2
:104F5000002802DC491C084000E00846C046C04664
:104F600002BD00BFFFFFFF7F704770477047000022
:104F7000F0B50C46871A9C410D46861A9D4103D216
:104F8000C01BA141D21963410D0D1F0DC94EEC1B71
:104F9000AE435CD07F057F0D0026002F51D02D053C
:104FA000AC46A943DD020123ED0A1B051D43202366
:104FB0001B1B24D41746E740381871412F46E740A1
:104FC000CC199D402818314661410C0D27D1614410
:104FD0009A4013D50023401C594152000ED140087D
:104FE000400001224B005205D34207D30520400761
:104FF000C14201D5B04900E0B0493046F0BD6B0078
:10500000002A00D001229A181F23203C1B1B01D527
:10501000002302E0E540281871410C0DD7D001248F
:1050200024050919C407CD0740084908E40F28439F
:105030006144002CD5D00024401C61419A40D0D15D
:10504000CDE76A05520DD9D1C90FC907D5E79C4DE7
:105050004E00002801D0012400E0002434195F0034
:10506000002A01D0012600E00026BE19954FAC426F
:105070000CD8AE420AD8B44206D001256D05EC42E8
:10508000BCD010461946F0BD9942FCD000203946EC
:10509000F0BDF0B51FB40C460F46811A9F4125465E
:1050A000861A9D4106D20125ED076F40401ABC418A
:1050B00052187B41210D1E0D8D1BAC467D4D8D433D
:1050C0007ED075056D0D7CD00D05AE46AC431B033F
:1050D0001B0B794D52429D41202366469B1B14D3E6
:1050E0001746F740381800260090744160462F4656
:1050F0000741E41900989D402818664116D471466E
:1051000071189A4025D5012320E093182A466A4158
:105110005200002B00D0521C1E23203E9B1B002B54
:1051200061DD3541EE1728186641E8D50018764153
:105130005B1C9A4000D3401C4B05F3181524E34038
:1051400010D3002B52D071467118D30FC01802D360
:10515000491C05B0F0BD0123DB079A42F9D1400894
:105160004000F6E701225205B21801D1002853D0C1
:105170000123CC0ADB029943891E002A08D1020CC4
:1051800003D0020C0004103902E00246002020394E
:105190000023550B05D112020823550B01D15201F2
:1051A0000D23550C01D112011B1DD50C01D192000C
:1051B0009B1C150D01D152005B1C2025EE1A01E04D
:1051C0002CE022E00546F54015439840CA1AE10755
:1051D00069181305C918002ABBDA0320400708180C
:1051E000C10FC9070FE071466118B2E7F107400827
:1051F0000843711071444A000CD001235B059A42A8
:10520000A7D2C90FC9070020A3E74905490D26D138
:10521000002001E00028F4D100219AE7284D660023
:10522000002801D0012100E0002171185F00002A50
:1052300001D0012600E00026BE19224FA94210D855
:10524000AE420ED8B14208D001256D05E94206D024
:105250001946A802414010467BE79C4201D02146F6
:1052600077E70020394674E710B50C465C4005D559
:105270000124E4076340FFF70CFF10BDFFF778FE41
:1052800010BD30B40C465C4004D50124E4076340F3
:1052900030BC6DE630BCFCE670B50124E40761402B
:1052A0000D465D4002D4FFF763FE70BD6340FFF71B
:1052B000F0FE70BDFF0700000000F0FF0000F07F6F
:1052C0000000E0FF0000F87F30B50346CA02400D41
:1052D0001043164D164C0A1502D02043002A06DB57
:1052E000AA1A002A12DDD040FF2A0BDC30BD52057D
:1052F000520D01D140004008AA1A07D4D0404042C4
:10530000FF2A01DD002030BD0028FCDD4A00002B13
:1053100001D0012000E00020101801225205D042E7
:10532000F0D8C817C043604030BD00001E04000024
:10533000000000800346CA02400D10B510430A1554
:1053400004D00124E4072043002A05DB0A4CA21AFA
:1053500004D4D040FF2A00DD002010BD4A00002BFD
:1053600001D0012000E00020101801225205D04297
:10537000F2D8C817C04310BD1E040000F0B58B4C16
:105380000F09254689B0BD437BD01D092646AE4393
:10539000FAD00E465E402740F60F3E43254071D0BE
:1053A00024012142FBD0FF24AD19A4042D1B039539
:1053B00001252D05DB02DB0AC9022B43C90A29435B
:1053C0001E010901040F130F050121431701880B6A
:1053D000820391432D098C46A90B1E438A039543F2
:1053E000B30B9A0396433F09BA0B9403A743029663
:1053F0002E467E430497B6464E19D7190C460196A1
:10540000544305977E43371B7646BF1B3601B6468D
:10541000BE0B361900967646BC043719009C01D3A2
:10542000641C00946400002F01D001263443029EC6
:10543000049F754366467E430496760034196E00D9
:1054400034190094029C019E1C196643751BAE46DC
:10545000069465464519059C05956C435943754668
:105460000891691A0191049E01465143A41B0491BD
:10547000611A009C0791E10605D0610901221143E0
:1054800002E072E06EE06109089D00272C0A2D06FB
:105490006918049D7C412A0A2D066918019D624104
:1054A000AC0DAD026D185441079A910D9202551939
:1054B0006141029A644658435443069B059A5A43F5
:1054C000121A131B9A0E9B015B187A41010B0005FF
:1054D000C3185141220A200644195A419A4200D267
:1054E000491C01204002814203D315230226F643C2
:1054F00002E014230326F6432020C51AA9401746CC
:10550000AF40DA400A4320460399D8400914731883
:1055100019055118039A3843D2075140AC4009D0BD
:105520000122944006D30022401C5141002C01D19D
:10553000400840001E4A934212D30122039892066B
:10554000904207DB0520400709181A480143C012A2
:10555000414004E0032040070818C10FC90700209C
:1055600009B0F0BD0020F107FAE705180C464C41E0
:1055700011486D42A04115D394181A465A410E485D
:10558000644290410ED301204A004005824209D373
:105590005A00824206D35940C90F084AC907002061
:1055A0001143DDE700200649DAE700000000FF07AD
:1055B000FE070000FFFFFF7F0000E0FF0000F07F1C
:1055C0000000F87F0121C9050123411842001B0694
:1055D000D3185B0E0AD0C1100722D20689184007E3
:1055E0005242D14201D5520089187047090208D5AC
:1055F0000146002A03D0C10FC9070020704710469A
:105600007047420202D00020024970470721090575
:105610000143F4E70000F87FF0B5FF252D04C6092B
:10562000C209FF2704462E400137CB093E434840BC
:105630002A402B400746002A6BD0002B69D0AA4293
:1056400067D0AB4265D0002800DA32460125ED056F
:1056500029432C4309022002090AD21A4B0C7F2449
:10566000E31A434C000A7C44E35C7D2424041219B1
:1056700014145B00A218884201D3521C00E04000C1
:1056800049420C465C4324115C43DB016415E3187A
:10569000040A5C43C502200D0C4644436419250AE4
:1056A0005D432303EC0C0D46654300030019EB1822
:1056B0004C42A34201D35B18401CD4052018002B98
:1056C00007D05B00C91804D3401C002901D1400851
:1056D00040003F2189048A4209D3002A08DC1106D0
:1056E000090F04D0032149074018C00FC007F0BDBF
:1056F00001224100120689187F2252069142F6D2F9
:1057000005214907C84201D59010F0BDFF20C00512
:10571000F0BD002F00DA32461648AA4207D2AB424B
:1057200005D21902090E17D0F80FC007F0BDFF25EA
:1057300063002D06AB42F9D84900A942F6D8AB4226
:1057400001D1A942F2D0A94201D1002101E06100BA
:105750004908D0050843F0BD1102090EFBD0FF2017
:105760000243D005F0BD0A460146104654E700004A
:10577000EA3200000000C07F1F22030C02D10F227A
:1057800000041CD0030E01D10002083A030F01D11E
:105790000001121F830F01D18000921E002801DB3F
:1057A0004000521ED2055118021251181922904081
:1057B00004D3491C002801D1490849000846704714
:1057C000C10FC90700D04042012292071143D3E71D
:1057D00001218907D0E7704710B500F0A7FA0068EB
:1057E00010BD10B5044600F0A1FA046010BD70B5FC
:1057F000044685690068C10601D5302600E02026F0
:10580000C00707D070BD62683046A1689047206A23
:10581000401C20626D1EF6D570BD70B504468569CA
:105820000078C00707D170BD6268A168202090474A
:10583000206A401C20626D1EF6D570BD09684A05BD
:1058400001D540B27047C905FCD500B27047096860
:105850004A0501D5C0B27047C905FCD580B2704772
:1058600070B50C460546012A05D02878800600D57B
:10587000EA69002302E0012305E05B1C934202D2A7
:10588000E05C0028F9D1A869E618C01AA861286A66
:10589000C01828622846FFF7AAFF04E06A6820784B
:1058A000A968641C9047B442F8D32846FFF7B5FFB7
:1058B00070BD0000F7B5002575291068009914A681
:1058C00011D0FFF7BBFF002802DA404211A608E022
:1058D000009909688A0701D50FA602E0490704D597
:1058E0000EA6012501E0FFF7B2FF009F0024243738
:1058F00004E000F092FE30313955641C0028F8D1E4
:105900002B4632462146009800F051FAFEBD0000B9
:10591000000000002D0000002B000000200000000F
:1059200011680268006A530501D5087009E0D305C3
:1059300001D5088005E0130602D5C21705C100E0B5
:105940000860012070470000084B70B50D467B448D
:1059500000F001FE04462846FCF75EFC002802D059
:105960000020C04370BD204670BD000097C8FFFFF7
:10597000F7B50446154686B02B487844002703C87F
:105980003E460090019111E007986A467100415A25
:1059900002A800F021FE411C07D02178890603D51A
:1059A000E269391891420ED83F18761C207880069B
:1059B00002D5E069B84206DDAE42E5DB079871002A
:1059C000405A0028E0D1A069C01BA0612046FFF723
:1059D0000EFF154878445A3803C800900020019102
:1059E00016E041006A460798415A02A800F0F4FD0B
:1059F0000590401C0AD0002505E0626802A8A16855
:105A0000405D90476D1C05988542F6D30498401C74
:105A1000B0420490E5DB206AC01920622046FFF7FF
:105A2000FCFE09B0F0BD000016300000F7B5D21D35
:105A30000025D20815A6D200F52905CA11D0002AE2
:105A400005DA00214042914111A60A4608E000997A
:105A500009688B0701D50FA602E0490701D50EA6FC
:105A600001251146009F0024243704E000F062F96C
:105A700030323A55641C02460A43F7D12B4632466F
:105A80002146009800F093F9FEBD000000000000E0
:105A90002D0000002B0000002000000070B504461F
:105AA0000021243408E05507D2086D0F30356554C5
:105AB0005D072A43DB08491C15461D43F3D10468E2
:105AC000002310A2250708D520252C400C4304D024
:105AD000C46901230CA2641EC46100F068F970BDA2
:105AE00010B5044621461068FFF7B1FE00230246B8
:105AF0002046FFF7D3FF10BDD21DD108C9000CC945
:105B0000CCE700000000000030000000F8B50F46B0
:105B10000188090502D5224C7C4402E0204C7C44DB
:105B20000E3405460021243508E016071209360F09
:105B3000A65D6E541E0732431B09491C16461E43C0
:105B4000F3D1224604780023240705D5702F06D010
:105B5000002901D00223113200F029F9F8BD0123F8
:105B60001032F9E770B504460D4621461068FFF77C
:105B70006EFE0023024629462046FFF7C7FF70BD90
:105B8000D21DD308DB000CCBC0E730B4036820245F
:105B90001268234303600823C36130BC0023B5E7C8
:105BA000802E0000F3B50446002081B0206220461C
:105BB000E1688847002872D0252802D06268A16871
:105BC000ABE0594F00267F442046E16888472028F3
:105BD000054608DB312D06D27819203800780028D8
