:020000040800F2
:1001000000060120C1020008A9100008A310000881
:1001100000000000000000000000000000000000DF
:10012000000000000000000000000000B9100008FE
:100130000000000000000000AB100008BB10000829
:10014000F1100008FB100008051100080F1100084D
:100150008B100008191100081B1100081D11000860
:10016000B5100008B7100008A5100008A11000087D
:10017000D302000889100008AD100008D30200085F
:10018000D3020008A7100008D3020008D302000819
:10019000D3020008D3020008D3020008D3020008EB
:1001A0009310000895100008971000089910000897
:1001B0009B1000089D1000089F1000088710000881
:1001C00000F002F800F050F80CA030C808382418ED
:1001D0002D18671EA246AB4654465D46AC4201D17F
:1001E00000F042F87E460F3EB6460FCC0126334261
:1001F00000D0FB1A3343A246AB461847246F0000D9
:10020000846F0000103A02D378C878C1FAD8520738
:1002100001D330C830C101D504680C6070470000BC
:100220000023002400250026103A01D378C1FBD812
:10023000520700D330C100D50B60704710B5642958
:1002400002D100F089F910BD782902D100F0BAF985
:1002500010BD732902D100F0ACFE10BD002010BD0E
:100260001FB51FBD10B510BD03488546FFF7F8FF49
:1002700004F0BAF800F0E2FE0000022003B4FFF739
:10028000F1FF03BC00F04BFF70B505460C46164667
:1002900002E00FCC0FC5103E102EFAD2082E02D36A
:1002A00003CC03C5083E042E07D301CC01C5361F7D
:1002B00003E021782970641C6D1C761EF9D270BD94
:1002C0000748804707480047FEE7FEE7FEE7FEE7EE
:1002D000FEE7FEE704480549054A064B7047000063
:1002E000BD100008C1010008000301200006012024
:1002F0000004012000040120704710B5202A04DB0F
:100300000146203A9140002010BD914020239C1AC4
:100310000346E3401943904010BD10B5202A04DB8A
:100320000846203AD040002110BD0B462024D3407F
:10033000D040A21A91400843194610BD434351438F
:1003400030B55C18010C130C0D4692B25D4380B2BF
:1003500051432C19054655430A0C09044D196241B5
:100360005843010C00044019514130BDFEB504460C
:1003700010460D46184373D0A6468C460020A41A9A
:1003800001469D4167D36646002701243D46B61AC3
:100390009D4102D313463A462124654676462F04F2
:1003A000360C3E432D0CB61A9D4104D3150C1B048C
:1003B0002B4312041034654676462F06360A3E4318
:1003C0002D0AB61A9D4104D3150E1B022B431202AF
:1003D0000834654676462F0736093E432D09B61A7E
:1003E0009D4104D3150F1B012B431201241D6546AB
:1003F0007646AF07B6083E43AD08B61A9D4104D312
:10040000950F9B002B439200A41C65467646EF0790
:1004100076083E436D08B61A9D411AD392185B4187
:10042000641C16E00018764665464941B71A9D419E
:100430000191009009D36046B11A98418E468446D6
:10044000009801990025401C6941DD0752082A43A4
:100450005B08641EE6D57246634603B0F0BDFFE755
:100460002046284307D00020C0430146C046C0466E
:1004700022462B46F1E700200146F7E70FB4054975
:1004800010B503AA029800F099FD10BC08BC04B096
:1004900018470000D8010120F8B50E460446002098
:1004A00020622046E1688847002829D0252802D00C
:1004B0006268A16820E0E1682046002788470500BF
:1004C0001ED028464138192802D80127FF022035BE
:1004D0003246204627602946FFF7B0FE002808D0A4
:1004E000012804D0F61DF608F6000836D9E7361DB7
:1004F000D7E762682846A1689047206A401CCFE78A
:10050000206AF8BD70B50C460546012A05D028784A
:10051000800600D5EA69002302E0012305E05B1CA8
:10052000934202D2E05C0028F9D1A869E618C01A0B
:10053000A861286AC01828622846C046C04604E060
:100540006A682078A968641C9047B442F8D32846AA
:10055000C046C04670BD0000F7B50025752910687B
:10056000009914A611D0C046C046002802DA4042C5
:1005700011A608E0009909688A0701D50FA602E0D4
:10058000490704D50EA6012501E0C046C046009FDC
:100590000024243704E000F025FD30313955641C77
:1005A0000028F8D12B4632462146009800F096FCF0
:1005B000FEBD0000000000002D0000002B00000028
:1005C0002000000070B504460D4621461068C04664
:1005D000C0462188090502D50F4A7A4402E00E4A36
:1005E0007A440E3223460021243305E00607000931
:1005F000360F965D5E54491C0028F7D12078002301
:10060000000705D5702D03D0002901D00223113237
:10061000204600F063FC70BDDE3E000010B50446CD
:1006200003E001F035FE401C08D020780549641C29
:100630000028F6D10A2001F02BFE10BD0020C04397
:1006400010BD0000D8010120F8B5042A2CD383077F
:1006500012D00B78491C0370401C521E83070BD02C
:100660000B78491C0370401C521E830704D00B7882
:10067000491C0370401C521E8B079B0F05D0C91AE2
:10068000DF002023DE1B08C90AE0FFF7FDFDF8BDEF
:100690001D4608C9FD401C46B4402C4310C0121F23
:1006A000042AF5D2F308C91A521EF0D40B78491C5B
:1006B0000370401C521EEAD40B78491C0370401C86
:1006C000012AE4D409780170F8BD431A70B5934249
:1006D0001BD28918801804E0491E401E0B78521E58
:1006E00003709307F8D106E01039103878C9103933
:1006F00078C01038103A102AF6D203E0091F001F04
:100700000B680360121FF9D570BDFFF7BDFD70BD0A
:10071000F8B5064614460843800707D0751AA54267
:1007200019D20819102D13D2311907E03046FFF7FE
:10073000CCFFF8BD401E491E02780A70641EF9D233
:10074000F8BD471B2A463946FFF77EFF641B384633
:10075000A542F6D3011B22463046FFF775FFF8BDD0
:10076000D2B210B513029A1813049A1800F00EF8BA
:1007700010BD01E004C0091F0429FBD28B0701D57D
:100780000280801CC90700D00270704700290BD07E
:10079000C30702D00270401C491E022904D38307FC
:1007A00002D50280801C891EE3E70022EEE70022CA
:1007B000DFE70000002203098B422CD3030A8B429F
:1007C00011D300239C464EE003460B433CD4002249
:1007D00043088B4231D303098B421CD3030A8B425B
:1007E00001D394463FE0C3098B4201D3CB01C01A29
:1007F000524183098B4201D38B01C01A52414309F4
:100800008B4201D34B01C01A524103098B4201D3E1
:100810000B01C01A5241C3088B4201D3CB00C01A4E
:10082000524183088B4201D38B00C01A52414308C6
:100830008B4201D34B00C01A5241411A00D20146EB
:100840005241104670475DE0CA0F00D04942031084
:1008500000D3404253409C46002203098B422DD3D3
:10086000030A8B4212D38901FC2212BA030A8B427B
:100870000CD3890192118B4208D3890192118B42CA
:1008800004D389013AD0921100E08909C3098B424F
:1008900001D3CB01C01A524183098B4201D38B0192
:1008A000C01A524143098B4201D34B01C01A524135
:1008B00003098B4201D30B01C01A5241C3088B427A
:1008C00001D3CB00C01A524183088B4201D38B0065
:1008D000C01A5241D9D243088B4201D34B00C01AEF
:1008E0005241411A00D201465241104663465B1004
:1008F00001D34042002B00D54942704763465B104C
:1009000000D3404201B50549002802DC491C0840DB
:1009100000E00846C046C04602BD00BFFFFFFF7FA3
:100920007047704770470000F0B50C46871A9C412D
:100930000D46861A9D4103D2C01BA141D2196341C5
:100940000D0D1F0DC94EEC1BAE435CD07F057F0D16
:100950000026002F51D02D05AC46A943DD0201230E
:10096000ED0A1B051D4320231B1B24D41746E7401B
:10097000381871412F46E740CC199D402818314660
:1009800061410C0D27D161449A4013D50023401CCE
:10099000594152000ED14008400001224B0052053F
:1009A000D34207D305204007C14201D5B04900E03A
:1009B000B0493046F0BD6B00002A00D001229A18E1
:1009C0001F23203C1B1B01D5002302E0E540281813
:1009D00071410C0DD7D0012424050919C407CD0796
:1009E00040084908E40F28436144002CD5D0002476
:1009F000401C61419A40D0D1CDE76A05520DD9D152
:100A0000C90FC907D5E79C4D4E00002801D001242D
:100A100000E0002434195F00002A01D0012600E024
:100A20000026BE19954FAC420CD8AE420AD8B4424B
:100A300006D001256D05EC42BCD010461946F0BD2C
:100A40009942FCD000203946F0BDF0B51FB40C46E9
:100A50000F46811A9F412546861A9D4106D20125DF
:100A6000ED076F40401ABC4152187B41210D1E0D0D
:100A70008D1BAC467D4D8D437ED075056D0D7CD0B4
:100A80000D05AE46AC431B031B0B794D52429D41F5
:100A9000202366469B1B14D31746F74038180026C0
:100AA0000090744160462F460741E41900989D402C
:100AB0002818664116D4714671189A4025D501232D
:100AC00020E093182A466A415200002B00D0521CA5
:100AD0001E23203E9B1B002B61DD3541EE1728189D
:100AE0006641E8D5001876415B1C9A4000D3401C53
:100AF0004B05F3181524E34010D3002B52D0714658
:100B00007118D30FC01802D3491C05B0F0BD0123E2
:100B1000DB079A42F9D140084000F6E7012252056E
:100B2000B21801D1002853D00123CC0ADB0299432B
:100B3000891E002A08D1020C03D0020C00041039CF
:100B400002E00246002020390023550B05D1120295
:100B50000823550B01D152010D23550C01D112016F
:100B60001B1DD50C01D192009B1C150D01D152000B
:100B70005B1C2025EE1A01E02CE022E00546F54042
:100B800015439840CA1AE10769181305C918002AC5
:100B9000BBDA032040070818C10FC9070FE07146F0
:100BA0006118B2E7F10740080843711071444A0028
:100BB0000CD001235B059A42A7D2C90FC9070020B8
:100BC000A3E74905490D26D1002001E00028F4D112
:100BD00000219AE7284D6600002801D0012100E09D
:100BE000002171185F00002A01D0012600E00026D4
:100BF000BE19224FA94210D8AE420ED8B14208D039
:100C000001256D05E94206D01946A802414010466B
:100C10007BE79C4201D0214677E70020394674E704
:100C200010B50C465C4005D50124E4076340FFF78E
:100C30000CFF10BDFFF778FE10BD30B40C465C40D1
:100C400004D50124E407634030BC6DE630BCFCE60B
:100C500070B50124E40761400D465D4002D4FFF702
:100C600063FE70BD6340FFF7F0FE70BDFF0700003C
:100C70000000F0FF0000F07F0000E0FF0000F87FC0
:100C80000346CA02400D10B510430A1504D00124D2
:100C9000E4072043002A05DB0A4CA21A04D4D04002
:100CA000FF2A00DD002010BD4A00002B01D00120EA
:100CB00000E00020101801225205D042F2D8C817D7
:100CC000C04310BD1E0400000121C90501234118C5
:100CD00042001B06D3185B0E0AD0C1100722D206B1
:100CE000891840075242D14201D5520089187047F5
:100CF000090208D50146002A03D0C10FC907002008
:100D0000704710467047420202D0002002497047E7
:100D1000072109050143F4E70000F87FF0B5FF253E
:100D20002D04C609C209FF2704462E400137CB090E
:100D30003E4348402A402B400746002A6BD0002BF8
:100D400069D0AA4267D0AB4265D0002800DA3246AB
:100D50000125ED0529432C4309022002090AD21A74
:100D60004B0C7F24E31A434C000A7C44E35C7D2453
:100D70002404121914145B00A218884201D3521CD7
:100D800000E0400049420C465C4324115C43DB0117
:100D90006415E318040A5C43C502200D0C46444365
:100DA0006419250A5D432303EC0C0D4665430003DB
:100DB0000019EB184C42A34201D35B18401CD40528
:100DC0002018002B07D05B00C91804D3401C002951
:100DD00001D1400840003F2189048A4209D3002AFA
:100DE00008DC1106090F04D0032149074018C00F81
:100DF000C007F0BD01224100120689187F22520669
:100E00009142F6D205214907C84201D59010F0BDA4
:100E1000FF20C005F0BD002F00DA32461648AA4276
:100E200007D2AB4205D21902090E17D0F80FC0073E
:100E3000F0BDFF2563002D06AB42F9D84900A94259
:100E4000F6D8AB4201D1A942F2D0A94201D100218A
:100E500001E061004908D0050843F0BD1102090E08
:100E6000FBD0FF200243D005F0BD0A4601461046E4
:100E700054E70000763700000000C07F1F22030CFB
:100E800002D10F2200041CD0030E01D10002083A47
:100E9000030F01D10001121F830F01D18000921EA8
:100EA000002801DB4000521ED205511802125118D1
:100EB0001922904004D3491C002801D14908490057
:100EC00008467047C10FC90700D04042012292076F
:100ED0001143D3E701218907D0E77047FFB50446E6
:100EE0000D4681B0243000902168880604D5102278
:100EF000E0699143216000E00120A84201DD471B29
:100F000000E000270498A1697A191018081AA06156
:100F10002078C00602D42046C046C046002608E01D
:100F200003986268A168805D9047206A401C761C27
:100F3000206204988642F3DB2078C0060AD520465A
:100F4000C046C04606E06268A16830209047206A2B
:100F5000401C206238467F1E0028F4DC07E0009821
:100F60006268A168405D9047206A401C2062284664
:100F70006D1E0028F3DC2046C046C04620780006DF
:100F800002D5022005B0F0BD0120FBE710B5436992
:100F9000002B02D0C046C04601E0FFF7B3FA0120A3
:100FA00010BD1278014624310A7000224A700122D5
:100FB000ECE711680022D243E8E70000084B70B567
:100FC0000D467B4400F027F80446284600F0C4FE96
:100FD000002802D00020C04370BD204670BD000034
:100FE000CB12000001468008081A02091018020AF4
:100FF0001018020C1018C008820012185200891A2A
:1010000001E0401C0A390A29FBD2704701694A1CD9
:1010100002610878704700B58FB0029100210591F8
:101020000549019379440391114604906846FFF7FE
:1010300033FA0FB000BD0000E5FFFFFF10B5044616
:10104000C046C0462046FFF719F910BD30B58C18D0
:101050000278401C13071B0F01D10378401C1209B2
:1010600006D10278401C03E00578401C0D70491C35
:101070005B1EF9D101E00B70491C521EFBD1A1424D
:10108000E6D3002030BD7047704780B500F020FEE9
:1010900080BD704770477047704770477047704712
:1010A00070477047704770477047704780B502F0CF
:1010B000D1FB80BD704770477047704707480849AB
:1010C0000160084820210160BFF34F8FBFF36F8F8D
:1010D00062B60548054901607047C04608ED00E06A
:1010E0000001000880E100E07C00012000E1F5053E
:1010F00080B5002002F02AFE80BD80B5012002F0FC
:1011000025FE80BD80B5022002F020FE80BD80B5A6
:10111000032002F01BFE80BD704770477047FEE75A
:10112000F0B593B0540DD902091901240A94E607C9
:101130000F91B143D20207925A00550D189CF94AFB
:1011400095420ED1002B054602D52D220270451C7A
:10115000079A0A43413C002A16D0192C21D8412174
:1011600020E02F460894462C01D166220892079A67
:101170003A430A430DD0EC497F180F9931430F9140
:10118000002B1CD40F9B05E0192C00D9C4E146228A
:10119000C3E10B463E46089A1A99002909D02B2133
:1011A00011E06121192C01D84E2300E06E231A466C
:1011B00023E21B99002900D128E2202103E02D2100
:1011C0000F9B3E46089A0170411C039108920490BF
:1011D0000021C84311900420C04312900220C04354
:1011E000099086423ADC0021CC43D04D079F1094F1
:1011F0000C91E01B284698410AD20120384079081A
:10120000DA0789185A08002347185341761CF0E77B
:1012100005220024384619462346FFF78FF80B466F
:10122000129A151D11996141761C0746281A994199
:101230000CDA119D101D29466141FA0F5B009B18C5
:10124000129A761E7F00C01B9941F3DB0C99491E50
:1012500009988642109CEE4DCADD00E0079F012EE2
:1012600040DBEC480D960C910025BE1C6B412F46CF
:101270002C460F93425D0E9230461946FFF74DF80B
:101280000521FFF797FA002110910E9AFFF735F824
:10129000C7194C41129A119BFFF750F80F9B861902
:1012A000DC484B416D1C032DE3D1119A0D9E204665
:1012B0003D461299091D0F9111461746109A51414A
:1012C000EA0F63009C183A4603466F00761E0F989B
:1012D000401B9941EBDB0C99491C701C01282F46DF
:1012E000CC48BFDC0C911C9D19980690301F1E46FF
:1012F0000A9B79081F40F2078918760800247F1896
:101300006641401CF5D30F96002D089900D506259F
:10131000202208469043472803D1672903D045215E
:1013200002E0681C14E065210C9E681C0B9086424C
:10133000084600DC6620099CA64200DB0146002D21
:10134000184600DC0020069E7442744104400B984D
:10135000662904D10C984619F017864330462E466C
:101360000797102800DB1020DD06002700280997CA
:10137000089101920294059633D00B90A54A384605
:10138000871C09984541044606461090125D0E924E
:1013900038462946FEF7C1FF0521FFF70BFA002169
:1013A0000D910E9AFEF7A9FF8619109A4A411092E4
:1013B000129A119BFEF7C2FF964AC7194D41641C51
:1013C000032CE3D170080A9B1E40109CE1074018D3
:1013D000650830180D994D410B99491E0B91CFD1DD
:1013E00000E03846D9438C4A0E91891C099B534131
:1013F000079A80180F9A5541411A2946994102D2FD
:1014000012950C9E2DE00027841C7D413E461097CE
:101410008048C25D0F9220462946FEF77EFF0521D7
:10142000FFF7C8F900210D910F9AFEF766FF8619A4
:10143000109A4A411092129A119BFEF77FFF0419ED
:101440004D417F1C032FE3D10A9A32407008109E51
:10145000F1074018710810180D9A514112910C9E15
:10146000761C089C662C059D21D1012E039B5FDB19
:10147000751C1024129E012C0FDB0A221F4600232C
:101480003146FEF75BFF3B460E460E990840310F92
:10149000614A16403031641E00E0302119706D1E23
:1014A0005B1C012DE7DC12960026059D44E00A2214
:1014B00000231299FEF742FF0A0F3032039B1A7085
:1014C000302A00D0761E069A002A03D1012D01DAB7
:1014D0005B1C02E02E225A709B1C012D57DB4E4AEA
:1014E00011400E9A10406C1C0F25012D0DDB0A22B5
:1014F0001F460023FEF722FF3B460E9A10400A0FBC
:10150000454F394030326D1E00E030221A70641EA3
:101510005B1C012CE9DC3AE06622192C67D84E21CD
:1015200066E0C046FF07000002FCFFFF32333333A2
:10153000302119705B1C10240699002901D1012D5E
:1015400002DB2E2119705B1C012D20DB6D1C002E8F
:1015500012D4012C14DB0A221F4600231299FEF735
:10156000EDFE3B460E460E990840310F2A4A1640C2
:1015700012963031641E04E030211970761C02E0AE
:101580003021197000266D1E5B1C012DDFDC0298D6
:1015900000280BD00020C043195C1B183029FBD059
:1015A0002E290199089A03D05B1C01E00199089A41
:1015B00010468843452818D11A70002E01D42B20DC
:1015C00000E02D205870F017341844400A252046BA
:1015D00029461F46FFF7EEF83B4645433030B870CA
:1015E000601B30210143F9703B1D049809E06E2116
:1015F000192C01D8492300E06923AA7069702B7067
:10160000EB1C00211970181A13B0F0BD0146DCE57F
:101610003233333316710008FFFFFF0FF0B581B08E
:10162000009316460F460546002438463146FFF71C
:10163000C1F831464143791A092900DD273130319B
:101640002955641CB7420746EFD22E1900988442F0
:1016500008DA0098071B302230463946FFF780F839
:10166000F619009C00213170701EA84208D9C943A8
:1016700002782B7803702A7040186D1CA842F7D8A6
:10168000204601B0F0BD000070B586B0002502957F
:10169000019500950224204600F09CFE00F0D4FE47
:1016A00002F014FB69468D710120C87211488880D0
:1016B000E12000030090284601F092FA02F0ECFBD2
:1016C00000F0ECFE01F006FC284800F0E7FD01F018
:1016D0007FFE2248057000F04DF8214869460A4611
:1016E00068C868C268C868C2204600F0EBFE06B051
:1016F00070BDC0460302000070B586B002F07AFEED
:101700001648057802F07CFE0024002D22D01448F3
:1017100069460A4668C868C268C868C2022000F004
:10172000D1FE012085030F4824492A46FEF7ACFD6F
:10173000032000F0D9FC0C4801680029FCD00460AB
:101740002320C100094801F02DFC0948294601F079
:1017500029FC00E0E443204606B070BD40020120B1
:101760003045000800400220FC020120C00001209A
:101770000080022080B588B00D480168406807905D
:101780000691032006A900F09DFE0A48C21C01A98B
:101790004A8008800848029008480390084805904D
:1017A00000200490042000F08DFE08B080BDC046EB
:1017B0002845000801100000400040000000022001
:1017C000ED1F000870B504460020072C01D9C04366
:1017D00070BD049D14266643254CA251CA18A41955
:1017E0006160A260E1602361002D09D00C2200201D
:1017F000204C183B11C108390D4608351CC54861FD
:1018000070BDC046B0B50024072828D81422424332
:1018100017488018C268002A21D00C2900DC0C214E
:10182000CB1C0320834315689D421146104608DAFD
:10183000104601468068002811D0855880189D42C6
:10184000F7DB1C460C34A5420BDD2D1B255024185C
:10185000084D65608568A5600360A21A02E0204615
:10186000B0BD82688A60044941600C30B0BDC0469A
:101870005C020120F0F00000F1F1000010B501F071
:10188000F3FB0446002803D06C2C14D06A2C0FD133
:101890000A4802680A480B49FEF7D6FE6C2001F0A0
:1018A000FFFB012001F00EFC1F2001F0E9FB02E02C
:1018B000002001F0F5FB204610BDC046B0700008C6
:1018C00000800020AC460008014908607047C0460F
:1018D0002800014010B503239C0780030019074C22
:1018E000044018040918890889B20919044B1960C1
:1018F0001018800880B2586010BDC0460000FFFF7D
:101900002C00014048490A6801239A4310180860D6
:101910007047C046104908607047C046411E884164
:1019200040010C490A6820239A4302430A600120BF
:10193000800301490860704700E100E080B50120A4
:10194000400304490A6802430A600348006880476C
:1019500080BDC0463400014034020120B0B50722EA
:101960000240FF21CB01440A1C40A21843097824FD
:10197000234078332340D2182B4B5C68054D25401B
:1019800052195A6009041A688A43000E000410189C
:101990001860B0BD0080FFFFB0B5441A012C04D020
:1019A000022C04D10120850705E07F2002E0062CEF
:1019B0001AD28120C5051046FFF78CFA0146284649
:1019C00002F024FD05462046FFF784FA014628462A
:1019D000FFF7A4F9FFF778F90022074BFFF720F98A
:1019E000FFF74EF980B2B0BD092C01D30025E2E724
:1019F00041200506DFE7C0460000E03F81090C22D8
:101A00000A40C107890F8918020E12028918000BBB
:101A1000F0220240F032D0B2081803490A68034BA2
:101A20001340C01808607047200001400100FFFF0C
:101A3000104800687047C0460B49022806D00128AC
:101A400009D000280ED10868086009E0012042078B
:101A50000868104305E0012000070A6802430A6095
:101A6000086808607047C0460850104001480249A5
:101A7000016070474C020120005A6202002070474A
:101A800080B500F0BDFC80BD80B500F0C1FC80BD1C
:101A9000164A515C6722D2008150801800214160B3
:101AA0007047C046114A515C0A0251181D2252016A
:101AB00081508018002141607047C046B0B5732145
:101AC000C9004218536844580125254345505360C6
:101AD000B0BD00001D22520183185B68034B595CA6
:101AE00080580840411E88417047C0468C46000817
:101AF00049006F4B595A0818C16983698361034BC8
:101B00001340034A0A40D118C1617047FF0F00001B
:101B100000F0FFFF4900664B595A08188168C168F8
:101B2000C16082607047C0464900614B595A08182D
:101B30008169C369C3610323DB0199439207D20D15
:101B4000891881617047C0464900594B595A081895
:101B50008169C369C3610723DB0299435207920C71
:101B6000891881617047C0464900514B595A08187D
:101B7000416C036C03640F23DB0299431207520C80
:101B8000891841647047C0464900494B595A0818A2
:101B9000016C436C436401239B029943D207520DAD
:101BA000891801647047C0464900414B595A0818CA
:101BB0008169C369C36101239B049943D207520B16
:101BC000891881617047C0464900394B595A081835
:101BD0008169C369C3610E2399435207120F8918A3
:101BE000816170474900324B595A08188169C369AD
:101BF000C36107231B0599435207520A8918816163
:101C00007047C04649002A4B595A08188169C36970
:101C1000C36101231A409943891881617047C04606
:101C200010B54900224B595A0B580B185C680A50E2
:101C30005C6010BD49001E4B595A08188169C36980
:101C4000C36103235B0299439207520D8918816196
:101C50007047C0464900164B595A08188169C36934
:101C6000C36107239B0399435207D20B89188161F3
:101C70007047C04649000E4B595A08188169C3691C
:101C8000C36101235B049943D207920B89188161D8
:101C90007047C0464900064B595A08188169C36904
:101CA000C361702399435207520E891881617047AE
:101CB000904600080021024A026041607047C04619
:101CC00002010001C00023490818406840687047BD
:101CD00010B5204C60684169002905D00121C16020
:101CE0002068002800D08047E0684169002905D0BD
:101CF0000121C160A068002800D0804710BDC04607
:101D000080B501F0EDFF80BD10B5C900114A511832
:101D1000496842680A6003789C1E62426241002B57
:101D200001D0920100E0412283789B001343C278E6
:101D30005207120E1A43407840001043886010BDCD
:101D4000C000044908184068816880220A43826004
:101D50007047C046880001200020C0437047000043
:101D6000F0B5A14C25680226B54325600504174E41
:101D70002E401E2505400F07FF0A7D19AD19666824
:101D8000134F3740ED196560050C6D1E624E2E40F5
:101D90009202384D52192A409219E26089015F4A35
:101DA00089181140A16003218A07059DAD03AA1877
:101DB0003F4D154009045918890889B24919216114
:101DC000C007800F216801432160F0BD0000E07F63
:101DD000E1FF010071490A6801239A431018086065
:101DE0007047C046F0B581B0009313460A460146DD
:101DF0000F246604C4033440C50B1E272F403F192F
:101E0000794C60681A4D28403818401C6060080200
:101E10003040CE07B60A1707FF0EBE1930189201E0
:101E20003E4E9219324080186A1CA5681540401930
:101E3000A060180C401EE24A02409802E24BC01813
:101E400018408018E06003208207069B9B039A18C5
:101E5000DE4B13400004009A1018800880B2C018AE
:101E600020610220084021680143216001B0F0BDDB
:101E7000E0FF010000FC0F0003490A6801239A43B8
:101E8000101808607047C0460800014010B5074AA6
:101E9000136803239C0789030919CC4C0C401904CF
:101EA0004018800880B22018106010BD100001405A
:101EB0000000FFFF4C490A68164B134003229204AE
:101EC00080008018164A0240981808607047C04683
:101ED000B0B5454B1C680225AC431C601C680D4D19
:101EE00025401D60040C641EB54D2540DD6089054C
:101EF0000A4C09199960C007800F196801431960DD
:101F0000032080049100081805490140186808431F
:101F10001860B0BD0F00F0FFFF0300000000C0FF1D
:101F2000F0FF0F00411E884180002F490A680423FA
:101F30009A4302430A607047B0B5012214040A4B69
:101F4000164A0A4D012907D11168294000010019DC
:101F5000184008431060B0BD5168294000010019C5
:101F6000184008435060B0BDC0FF01003F00FEFFB5
:101F70000A4A012908D1411E8841400111682023E5
:101F80009943014311607047411E884140015168E7
:101F900020239943014351607047C046040001402B
:101FA000411E8841C00010490A6808239A43024331
:101FB0000A6070470C48026801218A430260026887
:101FC0000A430260FF221202436B13434363436BD5
:101FD00093434363426B802313434E2293434363F3
:101FE000880332490860704700000140034802211D
:101FF000017003488168491C8160704740020120DC
:10200000C000012080B54A1E022A0AD21C224A437F
:10201000064909688918C96849080918FFF736FF91
:1020200080BD0029FCD1FFF745FF80BD3C020120A7
:102030007B490A6804239A43C007400F10180860C0
:102040007047C046274908607047C046134A0028B9
:1020500010D04B1ED9B201200229014603D859B233
:1020600089000FA3595813680B43136080030F496D
:1020700008607047032906D0022907D0012908D13A
:102080001068022107E01068082104E010680421AC
:1020900001E010680121884310607047340001405E
:1020A00002000000040000000800000000E100E061
:1020B000F0B581B004460025094E0A4F2046E8409D
:1020C000C00708D03968E8B2884701200002A8405C
:1020D0003168014331606D1C042DEFD101B0F0BDBA
:1020E000340001403802012080B5032801D100F0FE
:1020F0006FF880BD3F2809DC072815DD08281FD0B0
:1021000010281FD0202827D105207047FF2811DD77
:1021100001210A02904217D08A02904216D0490249
:10212000884219D109207047022811D0042813D100
:102130000220704740280DD080280DD1072070471D
:102140000320704704207047082070470A2070471A
:1021500001207047062070470020C04370470000F0
:10216000F0B58408082525400C07240A0601F6B2BC
:10217000341965192A4C2668104F3740ED1925602F
:10218000090C491E0E4D0D4011050E4A89181140CB
:10219000491980090C4A10408018104008186060E6
:1021A00003208107059A92035118084A0A40000447
:1021B0001818800880B28018A060F0BD07FF0FFFDC
:1021C000FF0300000000F03F00FC0F000000FFFFD5
:1021D00013480168022211430160016891430160C4
:1021E0007047C0460E490A68054B13400122D204CD
:1021F000C0018018034A0240981808607047C04622
:10220000FF01F0FF00FE0F00411E88410002012186
:102210000902034A13688B43034313607047C046A7
:102220001400014070B5154D29787F242140297094
:10223000800013A10858144E7070010AB170C003D9
:10224000C00FF070FFF71AFC400010A1085A30715F
:10225000C005C00F1030707130780121014331701A
:10226000B079C007FCD03078FE2101403170F079A0
:102270008021014329700440204670BD3C3010404D
:10228000259600004391000061301040D601860180
:1022900080B5C1B2002001F0C3FD80BD70B5044619
:1022A000FA20A07400266674FF2020740125E573CF
:1022B0000220A0736073257310481149216060608B
:1022C000A660204613302121FEF76FFA3420C42186
:1022D0002154E6630B48A063204634303C22C27090
:1022E0008170427065756421074A084B084D05618D
:1022F00043618261C1610748206470BD3E004608A9
:10230000FF7F026208002800E803E8030200B80B20
:1023100028A0A00F80969800F0B50B78032B01D071
:10232000302200E070225C1E651EAC416400121970
:102330004C78651E6E426E41B5005219A41E65426E
:102340006541EC001219092807D801258540204C69
:10235000022B0FD16668AE430EE010281AD804464F
:102360000A3CE4B20126A640184CA579022B13D0F2
:10237000354312E066682E4366608507ED0EFF2642
:10238000AE40FC270740E419E768B743AA403A4348
:10239000E26006E0012217E0B543A571035D025536
:1023A0000B7800220C280FD0022B0DD10C2800D95D
:1023B000401E4006000E8978814003238340044874
:1023C00004689C430C4304601046F0BD4438104040
:1023D0002C50104010B50446FFF748FB0648012179
:1023E0000170FFF74BFB0549087000F001FE204625
:1023F00000F068FB10BDC0464402012048020120E5
:1024000080B57D21C900484300F002F880BD00007E
:10241000B0B582B00546FFF70BFB0A49FEF7CAF9D3
:1024200004466C430BD00120FFF74CFC054601200D
:10243000FFF748FC01900198281AA042F7D302B098
:10244000B0BDC04640420F0070B582B0FFF758FCE7
:102450006D462846FFF72EFC01242C706C80002668
:1024600028463146FFF750FC2846FFF723FCEE7064
:102470002C7028462146FFF747FC3046FFF760FCEA
:102480002046FFF75DFC034810210160024801600F
:1024900002B070BD80E200E000E100E080B5002005
:1024A0007021FFF7AFF90146D5480160012001F026
:1024B00045FDFFF77FFD0248FFF7C4FD80BDC04624
:1024C000052D0008F0B58BB0062800D996E10C4622
:1024D000800001A108588746F5240008012500085E
:1024E0001F2500087925000897250008A325000866
:1024F000972600082588E80700D0F0E0002012E1C8
:102500002078411E88416178FFF77EFE2078002800
:1025100000D173E161786068FFF764FE6EE1608866
:10252000FFF7E8FD0790A0880A902788B448006864
:1025300061698166208801252840E1680991218927
:102540000891E6882469FFF773FD00941F2007991E
:102550000840390120220A4010180A99090440183D
:10256000B90832045118089A099BFFF7F9FD0321B5
:102570002846FFF76BFD41E12078411E88416178D4
:10258000FFF7F6FC2078002800D137E16178606819
:10259000FFF7D2FC32E12788F80700D0CCE000201A
:1025A00010E12178C80700D123E1954805686078DB
:1025B0000591A17809020818E178227912025118D0
:1025C00009040F18380E6179A27912025118E279C4
:1025D00012048E183102401880B2FFF78BFD0A906A
:1025E000300AFFF787FD0790A0896189089009915B
:1025F0004843810069642078824A2A6526692E64EE
:10260000AE630007C00F484340186864FA087F2390
:102610005B02134006937A06D20D04928919039146
:1026200005998F08218905912178202902D36169B4
:10263000A96440008019E863A069E8642078022159
:1026400001404808FFF7ACFC03980090079880B25F
:1026500005990904091808980004099A82180320AA
:1026600007400A980004C019049B1843069B1843AE
:102670003346FFF7B7FB2078C00600D5ABE0002556
:102680002846FFF73FF92846FFF748F901200221C5
:10269000FFF7DCFCADE0A278657820784608284694
:1026A0003146FFF779F9A070E27828463146FFF706
:1026B00073F9E070E2796179A079FFF76DF9E07163
:1026C0006068FFF79BF92068FFF748F9A068FFF7FB
:1026D000FBF822460C3207CAFFF7FCF88EE04848A8
:1026E00000686388E9081A464A435600C66027888E
:1026F000444A8261626882600260BF07FF0F7743CD
:10270000BE19C660AD07ED0F27787F0702D5A76811
:1027100007617600B6184660E668466118044019FD
:10272000FFF7D6FB01200021FFF790FC2188012054
:102730000840FFF7F7FB61E0314805683809FFF70B
:10274000D9FC0790E188A2880A91099251438A0036
:1027500060880690AA6221882A4E6E63A6686E621F
:10276000EE614907C90F51438918A9620F2303403D
:1027700008937F07FF0F07980007C00EC019079046
:1027800097190698000906902078000702D5E0689E
:10279000E86249008819286220692863208802219C
:1027A00001404808FFF7FCFB0097099800040799CF
:1027B000401806990904089A89180A9A3346FFF7BF
:1027C000CFFA012001252946FFF740FC2088284048
:1027D000FFF700FB12E000200221FFF737FC0A4858
:1027E000FFF798F801252846FFF78CF82846FFF7F1
:1027F00095F8217801200840FFF73EFB0BB0F0BDB3
:102800003C02012005200008D52C0008F0B5ADB031
:1028100006460BA80027877007802520C50001F019
:1028200069FA3720000105905F200A90C0430390A9
:10283000B468974884423B462ED805987830099072
:1028400044437069B16941430819924988423B4643
:1028500022D808953546303500231C46072B15D065
:10286000039880004019172109014158884A914274
:102870000CD8631C099A51430A9A920080582A681E
:1028800042435018183583498842E6D9062C01D8AE
:10289000002300E00123089D701902902AAD2B70DF
:1028A00030786870A81C711C0722FDF7CDFE284601
:1028B00000F0FCFD28A90220888001242894FDB2A4
:1028C000284601F04DF97F1C072DF3D3039A5F32A0
:1028D00019200001049000231D461F460A93079605
:1028E0000694099216A804751D9306201E90502088
:1028F0001C9070198268C1680469436986691692E0
:102900001791189419931A96734363498B4201D80F
:102910000A9E00E08226079C0699089621965E4E44
:10292000B34202D80A9B1A4603E07D231B01D2184A
:102930000A9B26460C462092C06900281A4609D0F8
:10294000089A059B1A439042049A03D90899401AA1
:10295000524942181F92F8B216A900F0C9FB1F98FD
:10296000099A9042014600D31146002800D1114631
:1029700018357F1CC02D0A460A9BB2D10191304602
:10298000CC300A903046CB3009903046CA3008909F
:102990003046C93006903046C8300590002427469E
:1029A0003546039E12A9CC80059880196022805C70
:1029B000087006988019805C487008988019805CBF
:1029C000887009988019805CC8700A988019805AAC
:1029D00088801494A8191322120180581590F8B217
:1029E00001F07EF80C367F1C002EDBD1029C217C8E
:1029F0000CA8017500260E9606CC0C910D9221793B
:102A0000627912025118A279E3791B029A18120412
:102A1000511810912178627812025118A278E37847
:102A20001B029A18120451180F91083C00F0F4FC94
:102A300004980199814201D2142006E008098E28E9
:102A400001D9FF2001E0C8081E38C0B200F062FCC6
:102A500022A88670217D4170079949780170E18A2A
:102A6000C180217EC170617E01710D4927910D49A0
:102A700026910D4925910F21C904249100F056FC9F
:102A80000BA8067000F08EFC30462DB0F0BDC0469D
:102A900060EA00000087930380841E0020FEFFFF91
:102AA000401FD007D007E8037800A00F80B500F0E2
:102AB000E1FF00F0EDFC80BD80B500F0EFFC00F020
:102AC000D3FF80BDF0B581B00024052822D83C4A50
:102AD0003C4B3D4E800003A1085835461F46114629
:102AE0008746C046FF2A0008FD2A00081B2B000865
:102AF000192B0008352B0008332B00081D463448DD
:102B000001210170002001F03BF80220FEF794FF44
:102B1000FF2421E0E44350E017462D4801210170D5
:102B200020461E4601F02CF80220FEF785FF3D46A8
:102B300012E026490F46264E01253570204601F049
:102B40001FF80220FEF778FF30780028284600D1D1
:102B5000E0431B4E3D46044660B201F055F81D4867
:102B600006601D4885420BDC1848854215D0144884
:102B700085420DD116480078002812D0012016E0B9
:102B80001148854210D00F48854201D100200EE047
:102B90000024E04301F016F80FE00D48007800280B
:102BA00004D10020C04302E0FF2000E0022040B238
:102BB00001F008F8094805600024204601B0F0BD86
:102BC000005A620200B4C40400688909002D310172
:102BD0004402012080000120FFB3C40484000120CE
:102BE000F0B581B0022801D9022062E00D4604460A
:102BF0008120400069460880012C0BD0002C1BD19D
:102C00006E460027B77006203146FFF785FBB77088
:102C100007270DE06E460120B07009203146FFF70E
:102C20007BFB0327B77002203146FFF775FBB770B7
:102C300069463846FFF770FBA0001FA1085880477F
:102C4000204601F0E3F8204601F016F929682046F5
:102C500001F08CF82979204601F0AAF8697920461C
:102C600001F0C0F8A979204601F0FAF829460B31A5
:102C7000204601F0A7F8E979204601F0EBF811A011
:102C8000005D297A002906D01F21084001218140DA
:102C90000D48016009E01F210840012181400B48D7
:102CA0000160BFF34F8FBFF36F8F0948202101559B
:102CB000002001B0F0BDC0460D3D0008213D0008D8
:102CC000353D00080506070000E100E080E100E076
:102CD0005502012010B51F4C2068416C026C511840
:102CE0000164C26B914205D1C06C80472168886B3A
:102CF000086403E0806C80472168086C0A6D02213B
:102D0000904710BD70B50446124E3068032C05D3B1
:102D10001C21614340184069804770BD1C256543F4
:102D20004019C1688268511881604268914206D199
:102D30004069804731684A194859906004E0006949
:102D4000804731684819806849198A692146904747
:102D500070BDC0463C02012082B0F0B5C3B00C4645
:102D600006464892499302AFF81C01210D022946FC
:102D7000FDF71BFD5D20B8705B203870052E16D85E
:102D80000DA0805D02A948700D480078B0420ED3B6
:102D900048AB019302A8C01C2946224601F0DAF88C
:102DA000401EFE2803D8002002A901F043F843B0DA
:102DB000F0BC01BC02B00047616577726976000023
:102DC0009800012084B0FEF75FFC21A027A12AA271
:102DD000FDF754FBFEF752FD00200421FEF712FD23
:102DE000002804D00146002001F0A8F803E025A047
:102DF0000421FDF743FB2F4C2168402301200202F0
:102E0000009201900293039318322B48FDF736FB92
:102E1000FFF74CFEFEF770FC0028FBD1FFF74CFEDD
:102E2000002001F035F8A16801600C20FEF728FEB3
:102E30007D2000F053F9042000F0FEF8012000F09E
:102E400041F91F2000F01CF900F0FEF8FEE7C04633
:102E5000554C5020466C61736852756E202D2D20A4
:102E600025732C202573200D0A0000004465632083
:102E7000323420323032340031353A31313A33385D
:102E8000000000004572726F723A2061745F6D61DC
:102E90006C6C6F635F706F6F6C20504F4F4C2030C5
:102EA00020666F7220256420627974657321212168
:102EB0000D0A0000C0000120B4700008431E002A63
:102EC00006D0581C521E5B788B420346F7D17047E0
:102ED00000207047F0B583B0002402940194009460
:102EE0002C4D2846FEF7EAFD2B4A28462146FEF7E0
:102EF00011FE0226284621463246FEF735FE694677
:102F00000720C8720C7225480190254800900127BF
:102F10003846FFF765FE284621462246FEF772FE38
:102F2000284621463A46FEF75DFE102228462146F5
:102F3000FEF7DEFD284621462246FEF725FE2846FE
:102F400021462246FEF740FE284621462246FEF74D
:102F5000FBFD284621463246FEF7E6FD284621467F
:102F60002246FEF721FE284621462246FEF792FE23
:102F7000284621462246FEF76DFE28462146224677
:102F8000FEF758FE284621462246FEF773FE03B0A0
:102F9000F0BDC04600001040007000400302000178
:102FA000404B4C00F0B581B00E460546080B15D0DD
:102FB0000E4FF40A3E40009600F0E0FF7E1C2846CB
:102FC000314600F05FFEAD19641EF5D1009C002C67
:102FD0000AD000F0D3FF2846214603E000F0CEFFE0
:102FE0002846314600F04EFE01B0F0BDFF0700005C
:102FF0007047000070B504460E4D6E1F00F0CEFF06
:10300000317808220A433270001940082146FDF742
:10301000D1FB297807220A40C000801808382870A0
:1030200028780221014329702878FD210140297068
:1030300070BDC0460534104002490A7802430A7048
:103040007047C046183410400C48017820220A43CB
:1030500002704179BF220A4042711F480178012263
:103060000A4302707047C0460F4800787047C04658
:1030700002480178DF220A40027070474A3410404B
:10308000024900220A7048707047C046153410404B
:103090000248017880220A4302707047663410406B
:1030A000014908707047C0462A341040072101408A
:1030B00003480278F8231340591801707047C0463E
:1030C0004F34104041424141880003490A78FB23B4
:1030D0001340181808707047063410404101034A25
:1030E0001170C1085170C00A9070704724341040AC
:1030F000F0B58DB00F460490096878680590B868FF
:103100000190FE683C6906966643386A0A90786AC0
:10311000BD6ABB6900220C918D420B900893079405
:103120001DD9F86A09907D20C10030461446FDF78C
:1031300041FB22460C994018854221462C4610D866
:10314000E000001D0A21FDF735FB02460999002920
:1031500002D00804CC4941180120024301E0114685
:103160002C462720C301387D002809920391029341
:1031700010D0002A0C9D03D0601B7D21CE00464359
:103180007001181808302549FDF714FB4000441C55
:10319000019F09E0F8694003C0182049FDF70AFBC8
:1031A0001F4C0440019F0C9D690BE804001D0A227E
:1031B00000263346FDF7DAF804994901194A885088
:1031C0008D183804B04FC0190599491E89B20143C2
:1031D000696006984003029940181049FDF7EAFA21
:1031E00007990904C91980B20843A8602004089906
:1031F000491E89B24018E8600A98401E80B22861D2
:10320000FF2000060B9981436961AE61099880B285
:1032100003990843E8610DB0F0BDC04610270000D7
:10322000FEFF070000280140F0B582B036494A7A17
:10323000BB2313404B72CA7BEF2300931A40CA731F
:103240008A7EDE252A408A760C7FFE2214400C7787
:10325000CC7F7F262640CE772C4C267816402670D1
:103260002B4CE67E1640E676267FDF273740277711
:10327000677FBF26374067778F7E37408F7623780A
:10328000F8273B402370237A1340237201900128D2
:1032900005D123793B402371237B134023730B7BA0
:1032A00033400B734B7BF72633404B738B7B2B40A8
:1032B0008B73CB7B3340CB73A37F1F261E40A67737
:1032C0008B78FD261E408E70A67C0198002806D0C3
:1032D0002E40A674637C00980340637402E016409D
:1032E000A6740098237C03402374207DFB230340B5
:1032F0002375E07F1040E0770878104008708878E8
:103300001040887002B0F0BD2130104041301040B4
:1033100000301040FF210904034A13688B43000466
:10332000181810607047C0466020014002780121E3
:103330000A404378DB079B0F9A1883789B071B0F83
:10334000D218C3781B019A1803791B03D218C388BB
:103350005B1E9B059B08D218037ADB075B08D2181B
:10336000437ADB0713430E4A1360C90413690B4306
:103370001361418983891B0459185160C189038AEB
:103380001B0459189160418A838A1B045918D16023
:1033900011693D4B0B40C08A181810617047C04638
:1033A0000030014007210904084A13688B43017863
:1033B000C907C90BC9184378DB079B0BC91880786C
:1033C000C007400B081810607047C046103001401D
:1033D00010B5D2B05120820001AC07492046FCF75D
:1033E00053FF2046FFF712FA002802D003A0FDF792
:1033F00015F952B010BDC046484500084552524F1D
:10340000523A20726164617220696E69742066614B
:10341000696C210D000000000521890142684A43C2
:103420000121C9035118184A0A400168491E89B28E
:103430008A1816490A60027B07231340427B520711
:10344000920ED218837B5B07DB0D9A18C37B5B0758
:103450001B0DD218037C5B075B0CD218437C5B0707
:103460009B0BD218837C5B07DB0AD218C37C5B07FB
:103470001B0A1343027D521E920692081A438A6069
:103480008068C8607047C0460000FFFF0020014010
:103490000548016805220A43026070470248016836
:1034A000052291430160704704200140F0B58FB0C0
:1034B0000B9001263046314600F0F8FBFFF7E8FD9F
:1034C000FFF7D6FDDC48FFF795FDDC4DA87A182103
:1034D00002910843A872687BE0210D9108400830F2
:1034E00068733046FEF7D0FA00F084FF28780E901B
:1034F0000720FFF7DBFD3046FEF7C6FAD049C87F4C
:103500003043C877CF4F387830433870B87830437D
:10351000B870022004460A90FEF7B6FAF8200E9919
:103520000840C01C287000F06BFF387B40210E91D2
:1035300008433873787B082108437873B87B2122CD
:103540000C921043B873F87B0843F873BC49887F2A
:103550000D9A10438877B8782043B870387B80255F
:1035600028433873787B1021099108437873B87B1E
:10357000422100910843B87305242046FEF784FADF
:10358000387B7F21079108403873787BEF210691C3
:1035900008407873B87BBD210140B973787A442123
:1035A000039108437872F87B099B1843F873B87E3F
:1035B0000C990843B876387F30433877F87F089500
:1035C0002843F877A04D2878304328709C4AD07E55
:1035D00001963043D076107F202101431177507F30
:1035E0000E9908435077387F0A9908433877E8786E
:1035F0000843E870049420461C46FEF745FA387FDD
:10360000FD2108403877E8780C910840E8700B9865
:1036100002460078002800D0029CF97A0323194062
:103620000919F9720028099301D0062100E004214C
:1036300016460D9D824C3A7BC023134059183973AE
:10364000397C29401E313974797C1F2211437974E9
:10365000B97C29401231B974F97C1143F9740028FE
:10366000059202D00A9B029A01E00B220A9B397D47
:10367000294089183975797D294018317975B97DC6
:103680000028039A00D01122BA75F97DFA75397EA7
:10369000002801D00D2100E0192139767A7E797653
:1036A000002800D0019BB87FFC210140C818B877E2
:1036B0000498FEF7E9F93078FEF7B4FD6349087025
:1036C000B87E0E990843B8763220FEF7DDF9B01CBB
:1036D0000E90A07CB178002906D063210843A07425
:1036E000617C5020084309E009990843A074A07C3C
:1036F0009F210140A174607C502188436074207C2C
:10370000502101432174207D0C21014321750520A6
:10371000FEF7BAF90E980078012801D0022000E0E7
:103720000098C043A17C0140A174207DF721014095
:1037300021750E9D284600F0A5F921781720014338
:103740002170217A099A114321722978012905D122
:10375000217901432171207B10432073207D0121B9
:103760000A91084320757078400039490A5C059E2B
:103770003240A37D25460D9C2340D318AB75EB7DCD
:1037800023409A18EA75081840783040297E214075
:103790002C4640182876687DFE2630406875A87D46
:1037A000BF252840A075E07D2840E0750520FEF784
:1037B0006BF9207C284020742078069908402070FE
:1037C000207A0C9A104020720B988078012809D139
:1037D000607C28406074207908402071207B0C991F
:1037E00008402073207D304020750520FEF74CF9FD
:1037F000207AFB21084020720E980078012802D11F
:10380000227B0A402273217D0C9A11402175954A32
:103810009178079B19409170B97A0A9A1143B9724D
:10382000797A089A11437972217E19402176944958
:1038300008700FB0F0BDC046601823004F34104030
:10384000003010402130104041301040580201201B
:103850009846000810B50C4C6068010702D0FEF7CE
:1038600027FC10BD81060CD4000609D50748006866
:10387000002800D080470120C00321680143216057
:1038800010BDFEF75BF810BD34000140500201206E
:10389000F0B583B0029000F0ADFD6F480078009065
:1038A0000720FFF703FC012501952846FEF7ECF8F9
:1038B0006A4FF87F2843F877694C207828432070B6
:1038C000A0782843A07002263046FEF7DDF8F820E5
:1038D00000990840C01C6049087000F091FD217BF0
:1038E0008020009001432173617B1022114361739A
:1038F000A17B42230B43A373217F31432177594896
:10390000C1783143C170237B40210B432373637B18
:10391000082003436373A57B21231D43A573E57B27
:103920000543E573B87FE0250543BD77A0783043B4
:10393000A070607A442505436572E07B1043E07314
:10394000A07E1843019BA076207F18432077E07F5C
:10395000009A1043E077434A107818431070F87EBD
:103960001843F876387F202202433A77787F08435D
:103970007877A07E0843A076B87C0299002906D00B
:1039800063210843B874797C5020084309E003217F
:103990000843B874B87C9F210140B974787C5021E9
:1039A00088437874387C502101433974387D0C2168
:1039B0000143397539781720014339703A7A032168
:1039C0000A433A72FD26029A012A354606D13A790F
:1039D00002433A71387B08433873BD25387D18435C
:1039E00038751846FEF750F8207B7F21014021737F
:1039F000617BEF2001406173A17BBD220A40A2736D
:103A0000217F31402177174AD1783140D170B97C7C
:103A10002940B974397DF7220A403A753A7CBF21B2
:103A20000A403A743A7802403A703A7A32403A722E
:103A3000029A012A09D17A7C0A407A7439790140C4
:103A40003971387BFD2101403973387DFE210140F9
:103A5000397503B0F0BDC0464F34104000301040FF
:103A6000213010404130104080B505480078FFF704
:103A7000DBFB80BD80B502480078FFF709FF80BD01
:103A800054020120F0B581B01449842200920A70DA
:103A9000427807252A4083785B079B0E9B184B7062
:103AA00010248C7002792A40C6787607B60EB618B4
:103AB0000E728279D207970E10374F7242792A40E0
:103AC0008A720078012806D1009808714B718C71B8
:103AD0000E734F738A7301B0F0BDC04601301040C1
:103AE00010B50A781F2313404A78D206920DD218D7
:103AF0008B78DB065B0CD218CB78DB061B0BD2185D
:103B00008B885B1E9B059B08D2188B79DB075B08B3
:103B1000D218CB79DB07D318C4000E4AA350A318E0
:103B20008C685C6001230340C9680A244C438034DC
:103B3000210A002B00D00904002B01D0074B00E024
:103B4000054B400880008018026C1A400A4302644A
:103B500010BDC046102001400000FFFFFFFF000025
:103B60000A794B799B00DBB213431A040968491E9A
:103B700089B251188000014A8150704700290140E4
:103B800010B5012293040E490C681C430C600B68AD
:103B9000002811D4FF242405A343C0B2000518183F
:103BA000086050040B6803430B600B6883430B6091
:103BB00010040B68834301E0100403430B6010BD45
:103BC0000850104010B524490B68002816D4012273
:103BD000940323430B60FF231B040C689C43C0B277
:103BE00000042018086050030B6803430B600B6847
:103BF00083430B6010030B68834302E00120000342
:103C000003430B6010BDC04680B513490A68002805
:103C10001AD404231A430A60FF2212010B6893434B
:103C2000C0B202019A180A600A6802231A430A60A5
:103C30000A689A430A600A6801239A430A60411C91
:103C40000748FCF7B7FD03E0012002430A60034880
:103C50000449086080BDC0460C50104000688909C6
:103C600000B4C4044C0201204A68022A07DB0A6837
:103C700010700868401C08604868401E48600020BA
:103C80007047000070B50C460246C34D002628461A
:103C90003146FDF7C5FF284631462246FDF728FF8D
:103CA00028463146FDF7FEFE70BDC04610B5064AF7
:103CB00013680C24A343C007400FC907090F081855
:103CC0001818106010BDC046045010400E4801681E
:103CD0000122114301608168114381607047C04631
:103CE00019480168202211430160816811438160F5
:103CF0007047C0460120000203490A6802430A6077
:103D00008A6802438A607047185010400E48016864
:103D10004022114301608168114381607047C046B1
:103D20000948016880221143016081681143816064
:103D30007047C0460120000203490A6802430A6036
:103D40008A6802438A6070471C501040B0B5C400B6
:103D5000054D2959002901D00020884728194068BD
:103D60000121C160B0BDC0469C000120F0B581B00A
:103D70000C46800045490E58FDF75AFEF168802731
:103D80003943F160050928462146FCF713FDC1B20D
:103D90003160010A71606043281A80012146FCF7F6
:103DA00009FDC0217050F068B843F06001B0F0BD6B
:103DB000032211408000354B1858C36893435918AB
:103DC000C1607047097801220A40C90030230B40C6
:103DD0009A18C0230B40D11880002C4A10588160DB
:103DE0007047C0468000294A1058C268002903D095
:103DF000022906D1082102E008210A4310218A4342
:103E000001E018210A43C2607047C04680001F4984
:103E10000858882142580223134343507047C04634
:103E200080001A4A1058C26F9207FCD501600846FC
:103E30007047C0460A78002A0BD08000134B1858F0
:103E4000C36F9B07FCD502604B1C4A78002A1946B9
:103E5000F6D1704780000D4A105894228150704767
:103E60004A1E914189008000084A1058C268042304
:103E70009A435118C160704780000449085888214E
:103E800042580423134343507047C046A0460008DD
:103E900080002C4908587047F0B581B00126009683
:103EA0000F27FB010024114920460A46FDF78AFC32
:103EB000002803D0054601200DA10BE00096FB026F
:103EC000144930460A46FDF77DFC002807D0054618
:103ED000012011A1FEF740FF284601B0F0BD1948AE
:103EE0008021FCF764FC2546F6E7C04680400020B0
:103EF00061745F6D616C6C6F635F696E69745F7034
:103F00006F6F6C2030206661696C6564212121200F
:103F10000D0A00000048002061745F6D616C6C6FD9
:103F2000635F696E69745F706F6F6C2031206661CA
:103F3000696C6564212121200D0A00008000014A7E
:103F40001150704700400020014801210160704776
:103F5000FC02012010B584B0039101AC002900D00F
:103F600004460294044802A900F01CF80021029AB9
:103F7000117004B010BDC046693C000810B5064C75
:103F800000212046FDF7A6FD0128F9D0002120469A
:103F9000FDF77EFD10BDC046000010400048704790
:103FA000005A6202F0B5C5B01F4614460991089048
:103FB00012A8811C0591401C069000200790C04368
:103FC0000B900D972078671C252800D0E2E06578DB
:103FD0000622574E30462946FEF770FFA41C0028E3
:103FE0002FD0002020270E90109011900F902A2D96
:103FF00008DD2B2D0DD0302D0ED02D2D14D101200C
:10400000109011E0202D09D0232D0AD101200F900E
:104010000AE001200E9007E0302705E00120119012
:1040200002E0002D00D1D3E1257806223046294652
:10403000FEF744FF641C0028D9D10A970B98271873
:1040400006E020200A90002010900E900F90119012
:104050002A2D0ED10D9F01CF002801D501211091ED
:10406000C11746184E402578641CC72E0CD9C826A7
:104070000AE028463038092804D82846303809286C
:1040800014D97C1C00260D9F2E2D05D121782A29BC
:1040900005D101CF641C24E00B980C9028E0084661
:1040A0003038092810D900200C901FE000260A2083
:1040B00070432E18303E7C1C7D78284630380A2804
:1040C0002746F4D30D9FCFE700200A2242438818E9
:1040D0003038621C61780B46303B0A2B1446F4D30F
:1040E0001446C8280B9900DC01460C912578641C05
:1040F0000522BAA02946FEF7E1FE002801D0257866
:10410000641C2846572D22DD6338152851D8C04637
:1041100078440079400087447F0D1E1E1EDD0DDDB2
:10412000DDDDDD878BA3DDDDB3DDCBDDDD4FC0461F
:1041300019710008384680C80D90002F00D5CCE0DA
:104140000E98002800D1CDE012A82B21D1E04538EF
:10415000032800D3BAE0FF1D072087430D970CCF3B
:1041600000950F9801900E980290119D03950C995F
:1041700004910543681E854112AF3846FCF7D0FF15
:10418000034638780D9F2D38414241410D4311952A
:104190000837CDE0002800D11AE10999089A904724
:1041A000401C00D116E10798401C07903C460D9F2B
:1041B00007E7582D00D08DE002CF12AB0F980028F2
:1041C00003D012A8874A0280059B10220E9318463E
:1041D0000C9BFDF723FA12A9582D0ED1097800295E
:1041E0000BD012AA0B46613BDBB2192B01D8203948
:1041F00011705178521C0029F4D10C99491C01D03E
:1042000020210A910F9A511E8A415100119112A941
:104210000E9A511A0B188BE001CF12A900221192AD
:104220004A700870012385E001CF07990160C8E654
:1042300002CF12AB0F98002806D012A830220270CD
:104240000029069B00D1B3E01193082218460C9D6B
:104250002B46FDF7E3F912A9119A511A0B182FE01A
:1042600002CF12A85F4A0280102208230598FDF7AA
:10427000D5F90C99491C01D020210A91831C23E017
:1042800002CF00200C9D0A5C002A03D0401CC828E5
:10429000F9D1C820854200D30546012D00DA90E609
:1042A00012A82A46FCF7D0F9002011902B463FE0D7
:1042B00002CF12A80A220C9D2B46FDF7AFF9034648
:1042C000681C01D020200A90002030E0002D7FD013
:1042D000252D73D0C82D7DDC73E612A82D21017029
:1042E000794208E012AD11980028394604D012A88E
:1042F000202101703946069D0A2228460C9BFDF7B5
:104300008DF912A9119B0E9A13435A1E93411193D2
:10431000002F01D4002200E001220D9F28180C9BE1
:104320005B1C01D020230A93431A1198104311906B
:10433000C82B4FDC9E4207DD1098002806D012A83B
:10434000C018F11A20221DE01E461DE00D97F71A35
:1043500012A9C8191D465A1CFCF7DAF90A98C2B20C
:10436000202A01D100201190012F1FDB12A8119BE0
:10437000C0189919491B5B1C99420D9F00DC194616
:10438000119BC91AFCF7ECF9012E00DA19E607981F
:104390003018079012AD28780999089A9047401C68
:1043A00018D0761E6D1C002EF5D10AE60D9FEBE7A6
:1043B00012A80021417001230C9D81E72520099955
:1043C000089A9047401C05D00798401C0790F8E5D4
:1043D000079800E00B9845B0F0BDC046686C4C7A79
:1043E000000000003078000003B40148019001BDD6
:1043F0000100012003B40148019001BD2D000120FE
:1044000003B40148019001BD5100012070B5420084
:1044100064414B005C41120E39D01B0E38D0FF2A8C
:104420003CD0FF2B3AD0D2187F3A40024902400AD2
:10443000490A4518ED0106004E43000A090A48439F
:104440000104731A4019190C4318990F04D05B0822
:10445000012149075B1A521CD80904D3401CF503FB
:1044600001D19D0607D0FF2A08D2D50506D0E40762
:104470002043401970BD0125A843F4E7002A01DC60
:10448000E00770BD2402FF202043C00570BD1B0E55
:10449000FF2A03D0FF2B01D0E00770BDFF263606B0
:1044A0004500B54206D84D00B54203D8D218FF2AC0
:1044B00000D0E7E7004870BD0000C07F30313233E4
:1044C0003435363738394142434445464030580048
:1044D000303132333435363738396162636465667A
:1044E000403078008182838485868788898B8C8D93
:1044F0008E8F919293959697999A9C9D9FA0A2A337
:10450000A5A7A8AAACAEB0B2B3B5B7B9BCBEC0C27D
:10451000C5C7C9CCCED1D4D7D9DCDFE2E6E9ECF00F
:10452000F3F7FAFE00000000010100000010014056
:104530001000400040004000400000000040022009
:1045400000800220493F0008000003040603040124
:10455000000000000000000000000000000000005B
:10456000000000000000000000000000000000004B
:10457000000000000000000000000000000000003B
:10458000000000000000000000000000000000002B
:10459000000000000000000000000000000000001B
:1045A000000000000000000000000000000000000B
:1045B00000000000000000000000000000000000FB
:1045C00000000000000000000000000000000000EB
:1045D00000000000000000000000000000000000DB
:1045E00000000000000000000000000000000000CB
:1045F000000000000000000030F200004000000059
:10460000020000004D010000B00400007003000033
:104610000000000000000000000000000707020288
:104620000100000064000000000000000000000025
:10463000000000000000000000000000000000007A
:10464000000000000000000000000000000000006A
:10465000000000000000000000000000000000005A
:10466000000000000000000000000000000000004A
:1046700001000000B45F0000010000000000000025
:1046800001000000010000010AFA00000102040814
:1046900000005800B00008010A10011001080101D3
:1046A00000600040007000400080004028050120AC
:1046B000AD810020218B00201B8B0020000000001A
:1046C00000000000000000000000000000000000EA
:1046D0000000000000000000318B002000000000FE
:1046E00000000000238B0020338B0020698B00200A
:1046F000738B00207D8B0020878B0020038B002094
:10470000918B0020938B0020958B00202D8B002017
:104710002F8B00201D8B0020198B0020BF810020D3
:10472000018B0020258B0020BF810020BF8100204D
:104730001F8B0020BF810020BF810020BF8100208F
:10474000BF810020BF810020BF8100200B8B002093
:104750000D8B00200F8B0020118B0020138B00206D
:10476000158B0020178B0020FF8A002000F002F834
:1047700000F046F80CA030C8083824182D18671E21
:10478000A246AB4654465D46AC4201D100F038F833
:104790007E460F3EB6460FCC0126334200D0FB1AB0
:1047A0003343A246AB461847A0260000E02600008F
:1047B000103A02D378C878C1FAD8520701D330C86A
:1047C00030C101D504680C6070470000002300244C
:1047D00000250026103A01D378C1FBD8520700D338
:1047E00030C100D50B60704710B5732902D100F0BD
:1047F00086FC10BD002010BD1FB51FBD10B510BD3B
:1048000003488546FFF7F8FF01F054FE00F0A8FCCE
:104810000000022003B4FFF7F1FF03BC00F011FD1C
:1048200070B505460C46164602E00FCC0FC5103E8B
:10483000102EFAD2082E02D303CC03C5083E042E54
:1048400007D301CC01C5361F03E021782970641C11
:104850006D1C761EF9D270BD074880470748004797
:10486000FEE7FEE7FEE7FEE7FEE7FEE70448054950
:10487000054A064B70470000358B0020C1800020A0
:1048800028020120280501202803012028030120F7
:10489000704700000FB4054910B503AA029800F054
:1048A00033FC10BC08BC04B018470000A001012074
:1048B000F8B50E460446002020622046E16888478D
:1048C000002829D0252802D06268A16820E0E1688C
:1048D00020460027884705001ED028464138192861
:1048E00002D80127FF02203532462046276029469C
:1048F000FFF77AFF002808D0012804D0F61DF6083B
:10490000F6000836D9E7361DD7E762682846A16861
:104910009047206A401CCFE7206AF8BD70B50C466E
:104920000546012A05D02878800600D5EA690023CB
:1049300002E0012305E05B1C934202D2E05C002808
:10494000F9D1A869E618C01AA861286AC0182862B7
:104950002846C046C04604E06A682078A968641CFE
:104960009047B442F8D32846C046C04670BD01E027
:1049700004C0091F0429FBD28B0701D50280801CCB
:10498000C90700D00270704700290BD0C30702D0BE
:104990000270401C491E022904D3830702D50280FD
:1049A000801C891EE3E70022EEE70022DFE700001B
:1049B000002203098B422CD3030A8B4211D300231C
:1049C0009C464EE003460B433CD4002243088B42F6
:1049D00031D303098B421CD3030A8B4201D3944683
:1049E0003FE0C3098B4201D3CB01C01A5241830976
:1049F0008B4201D38B01C01A524143098B4201D330
:104A00004B01C01A524103098B4201D30B01C01A5A
:104A10005241C3088B4201D3CB00C01A52418308D4
:104A20008B4201D38B00C01A524143088B4201D301
:104A30004B00C01A5241411A00D201465241104661
:104A400070475DE0CA0F00D04942031000D34042D6
:104A500053409C46002203098B422DD3030A8B420C
:104A600012D38901FC2212BA030A8B420CD38901AA
:104A700092118B4208D3890192118B4204D3890190
:104A80003AD0921100E08909C3098B4201D3CB01CE
:104A9000C01A524183098B4201D38B01C01A524183
:104AA00043098B4201D34B01C01A524103098B4287
:104AB00001D30B01C01A5241C3088B4201D3CB0072
:104AC000C01A524183088B4201D38B00C01A524155
:104AD000D9D243088B4201D34B00C01A5241411A2C
:104AE00000D201465241104663465B1001D340425A
:104AF000002B00D54942704763465B1000D340420B
:104B000001B50549002802DC491C084000E00846C0
:104B1000C046C04602BD00BFFFFFFF7F7047704721
:104B200070470000F0B50C46871A9C410D46861A66
:104B30009D4103D2C01BA141D21963410D0D1F0D30
:104B4000C94EEC1BAE435CD07F057F0D0026002FC5
:104B500051D02D05AC46A943DD020123ED0A1B050A
:104B60001D4320231B1B24D41746E74038187141EE
:104B70002F46E740CC199D402818314661410C0D65
:104B800027D161449A4013D50023401C594152005B
:104B90000ED14008400001224B005205D34207D3FA
:104BA00005204007C14201D5B04900E0B049304678
:104BB000F0BD6B00002A00D001229A181F23203C70
:104BC0001B1B01D5002302E0E540281871410C0DA4
:104BD000D7D0012424050919C407CD074008490886
:104BE000E40F28436144002CD5D00024401C6141CF
:104BF0009A40D0D1CDE76A05520DD9D1C90FC90766
:104C0000D5E79C4D4E00002801D0012400E000248F
:104C100034195F00002A01D0012600E00026BE19E9
:104C2000954FAC420CD8AE420AD8B44206D001250A
:104C30006D05EC42BCD010461946F0BD9942FCD03F
:104C400000203946F0BDF0B51FB40C460F46811A5E
:104C50009F412546861A9D4106D20125ED076F40EA
:104C6000401ABC4152187B41210D1E0D8D1BAC46D4
:104C70007D4D8D437ED075056D0D7CD00D05AE4606
:104C8000AC431B031B0B794D52429D4120236646CA
:104C90009B1B14D31746F740381800260090744128
:104CA00060462F460741E41900989D402818664148
:104CB00016D4714671189A4025D5012320E0931827
:104CC0002A466A415200002B00D0521C1E23203E6F
:104CD0009B1B002B61DD3541EE1728186641E8D596
:104CE000001876415B1C9A4000D3401C4B05F3181A
:104CF0001524E34010D3002B52D071467118D30F06
:104D0000C01802D3491C05B0F0BD0123DB079A424D
:104D1000F9D140084000F6E701225205B21801D14E
:104D2000002853D00123CC0ADB029943891E002AB4
:104D300008D1020C03D0020C0004103902E0024634
:104D4000002020390023550B05D112020823550BF2
:104D500001D152010D23550C01D112011B1DD50C9F
:104D600001D192009B1C150D01D152005B1C202526
:104D7000EE1A01E02CE022E00546F540154398408C
:104D8000CA1AE10769181305C918002ABBDA0320FB
:104D900040070818C10FC9070FE071466118B2E754
:104DA000F10740080843711071444A000CD00123F8
:104DB0005B059A42A7D2C90FC9070020A3E749059E
:104DC000490D26D1002001E00028F4D100219AE706
:104DD000284D6600002801D0012100E00021711853
:104DE0005F00002A01D0012600E00026BE19224FF4
:104DF000A94210D8AE420ED8B14208D001256D05A7
:104E0000E94206D01946A802414010467BE79C4281
:104E100001D0214677E70020394674E710B50C46EB
:104E20005C4005D50124E4076340FFF70CFF10BD8B
:104E3000FFF778FE10BD30B40C465C4004D5012469
:104E4000E407634030BC6DE630BCFCE670B501247D
:104E5000E40761400D465D4002D4FFF763FE70BD7C
:104E60006340FFF7F0FE70BDFF0700000000F0FF99
:104E70000000F07F0000E0FF0000F87F0346CA0258
:104E8000400D10B510430A1504D00124E407204357
:104E9000002A05DB0A4CA21A04D4D040FF2A00DD08
:104EA000002010BD4A00002B01D0012000E00020AE
:104EB000101801225205D042F2D8C817C04310BDC5
:104EC0001E0400000121C9050123411842001B06F0
:104ED000D3185B0E0AD0C1100722D20689184007EA
:104EE0005242D14201D5520089187047090208D5B3
:104EF0000146002A03D0C10FC907002070471046A1
:104F00007047420202D0002002497047072109057C
:104F10000143F4E70000F87FF0B5FF252D04C60932
:104F2000C209FF2704462E400137CB093E434840C3
:104F30002A402B400746002A6BD0002B69D0AA429A
:104F400067D0AB4265D0002800DA32460125ED0576
:104F500029432C4309022002090AD21A4B0C7F2450
:104F6000E31A434C000A7C44E35C7D2424041219B8
:104F700014145B00A218884201D3521C00E04000C8
:104F800049420C465C4324115C43DB016415E31881
:104F9000040A5C43C502200D0C4644436419250AEB
:104FA0005D432303EC0C0D46654300030019EB1829
:104FB0004C42A34201D35B18401CD4052018002B9F
:104FC00007D05B00C91804D3401C002901D1400858
:104FD00040003F2189048A4209D3002A08DC1106D7
:104FE000090F04D0032149074018C00FC007F0BDC6
:104FF00001224100120689187F2252069142F6D200
:1050000005214907C84201D59010F0BDFF20C00519
:10501000F0BD002F00DA32461648AA4207D2AB4252
:1050200005D21902090E17D0F80FC007F0BDFF25F1
:1050300063002D06AB42F9D84900A942F6D8AB422D
:1050400001D1A942F2D0A94201D1002101E06100C1
:105050004908D0050843F0BD1102090EFBD0FF201E
:105060000243D005F0BD0A460146104654E7000051
:10507000861E00000000C07F1F22030C02D10F22F9
:1050800000041CD0030E01D10002083A030F01D125
:105090000001121F830F01D18000921E002801DB46
:1050A0004000521ED2055118021251181922904088
:1050B00004D3491C002801D149084900084670471B
:1050C000C10FC90700D04042012292071143D3E724
:1050D00001218907D0E7704710B54369002B02D042
:1050E000C046C04601E0FFF719FC012010BD127850
:1050F000014624310A7000224A700122ECE711684F
:105100000022D243E8E70000084B70B50D467B440F
:1051100000F013F80446284600F05AFB002802D09D
:105120000020C04370BD204670BD0000530B00003E
:1051300001694A1C02610878704700B58FB002917E
:10514000002105910549019379440391114604908A
:105150006846FFF7ADFB0FB000BD0000E5FFFFFFA5
:1051600010B50446C046C0462046FFF753FB10BDAD
:1051700030B58C180278401C13071B0F01D103783F
:10518000401C120906D10278401C03E00578401C3F
:105190000D70491C5B1EF9D101E00B70491C521EB9
:1051A000FBD1A142E6D3002030BD7047704780B5E7
:1051B00000F0CAFA80BD704770477047704770476B
:1051C0007047704770477047704770477047704727
:1051D00080B501F015FB80BD704770477047704780
:1051E000074808490160084820210160BFF34F8F3C
:1051F000BFF36F8F62B60548054901607047C0462E
:1052000008ED00E00080002080E100E04400012083
:1052100000E1F50580B5002001F0E2FC80BD80B51D
:10522000012001F0DDFC80BD80B5022001F0D8FC3A
:1052300080BD80B5032001F0D3FC80BD704770476E
:105240007047FEE7B0B584B0002403940294019443
:10525000022000F0A9FD00F0E1FD01F081FC01A9B0
:105260008C710125CD720E488880E12000030190E9
:10527000204601F061F800F0A7FF0A4A28462146BF
:1052800000F0F6FD0320084A214600F0F1FD01F090
:1052900057F9294800F0ECFC01F09EFA04B0B0BDCB
:1052A000030200008593002069A6002070B586B037
:1052B00007F0FCF91648057807F00AFA0024002DDB
:1052C00022D014A069460A4668C868C268C868C285
:1052D000022000F0D7FD01208503144814492A4616
:1052E000FFF79EFA032000F01FFC12480168002916
:1052F000FCD004602320C1000F4801F089F90F4859
:10530000294601F085F900E0E443204606B070BD6F
:105310000802012010004000400040004000000052
:10532000004002200080022069A6002000400220E8
:1053300000000220200201208800012000800220BD
:10534000014908607047C0462800014010B503239A
:105350009C0780030019074C0440180409188908A9
:1053600089B20919044B19601018800880B258607E
:1053700010BDC0460000FFFF2C00014048490A68EC
:1053800001239A43101808607047C046104908600E
:105390007047C046411E884140010C490A682023DD
:1053A0009A4302430A600120800301490860704764
:1053B00000E100E080B50120400304490A6802438F
:1053C0000A6003480068804780BDC0463400014041
:1053D000FC010120B0B507220240FF21CB01440AA5
:1053E0001C40A21843097824234078332340D21864
:1053F0002B4B5C68054D254052195A6009041A6808
:105400008A43000E000410181860B0BD0080FFFF32
:10541000B0B5441A012C04D0022C04D10120850718
:1054200005E07F2002E0062C1AD28120C505104637
:10543000FFF74EFE0146284601F082FC0546204655
:10544000FFF746FE01462846FFF766FDFFF73AFDE7
:105450000022074BFFF7E2FCFFF710FD80B2B0BD62
:10546000092C01D30025E2E741200506DFE7C0460D
:105470000000E03F81090C220A40C107890F89180A
:10548000020E12028918000BF0220240F032D0B254
:10549000081803490A68034B1340C0180860704796
:1054A000200001400100FFFF104800687047C0461F
:1054B0000B49022806D0012809D000280ED108681F
:1054C000086009E0012042070868104305E0012058
:1054D00000070A6802430A60086808607047C0460F
:1054E0000850104001480249016070471402012031
:1054F000005A62020020704780B500F06BFC80BD4E
:1055000080B500F06FFC80BD164A515C6722D20066
:1055100081508018002141607047C046114A515C9B
:105520000A0251181D225201815080180021416049
:105530007047C046B0B57321C9004218536844583B
:105540000125254345505360B0BD00001D22520186
:1055500083185B68034B595C80580840411E8841A2
:105560007047C04684A7002049006F4B595A08185D
:10557000C16983698361034B1340034A0A40D11810
:10558000C1617047FF0F000000F0FFFF4900664B4C
:10559000595A08188168C168C16082607047C04666
:1055A0004900614B595A08188169C369C3610323D3
:1055B000DB0199439207D20D891881617047C0467B
:1055C0004900594B595A08188169C369C3610723B7
:1055D000DB0299435207920C891881617047C046DB
:1055E0004900514B595A0818416C036C03640F234E
:1055F000DB0299431207520C891841647047C04678
:105600004900494B595A0818016C436C4364012303
:105610009B029943D207520D891801647047C04616
:105620004900414B595A08188169C369C361012374
:105630009B049943D207520B891881617047C04679
:105640004900394B595A08188169C369C3610E234F
:1056500099435207120F8918816170474900324BF4
:10566000595A08188169C369C36107231B05994307
:105670005207520A891881617047C04649002A4B77
:10568000595A08188169C369C36101231A409943B3
:10569000891881617047C04610B54900224B595A9C
:1056A0000B580B185C680A505C6010BD49001E4B1B
:1056B000595A08188169C369C36103235B0299437E
:1056C0009207520D891881617047C0464900164BF8
:1056D000595A08188169C369C36107239B03994319
:1056E0005207D20B891881617047C04649000E4BA2
:1056F000595A08188169C369C36101235B0499433E
:10570000D207920B891881617047C0464900064B49
:10571000595A08188169C369C361702399435207B4
:10572000520E89188161704788A700200021024A23
:10573000026041607047C04602010001C000234979
:10574000081840684068704710B5204C606841698F
:10575000002905D00121C1602068002800D08047C1
:10576000E0684169002905D00121C160A0680028D6
:1057700000D0804710BDC04680B501F0FBF980BD68
:1057800010B5C900114A5118496842680A60037887
:105790009C1E62426241002B01D0920100E0412236
:1057A00083789B001343C2785207120E1A43407845
:1057B00040001043886010BDC000044908184068CC
:1057C000816880220A4382607047C04650000120F1
:1057D0000020C04370470000F0B5944C25680226B5
:1057E000B54325600504174E2E401E2505400F07C2
:1057F000FF0A7D19AD196668134F3740ED196560D2
:10580000050C6D1E624E2E409202384D52192A40F0
:105810009219E26089015F4A89181140A160032151
:105820008A07059DAD03AA183F4D15400904591874
:10583000890889B249192161C007800F2168014395
:105840002160F0BD0000E07FE1FF010071490A68BE
:1058500001239A43101808607047C046F0B581B024
:10586000009313460A4601460F246604C4033440DD
:10587000C50B1E272F403F196C4C60681A4D2840FD
:105880003818401C606008023040CE07B60A17077F
:10589000FF0EBE19301892013E4E92193240801808
:1058A0006A1CA56815404019A060180C401ED44A17
:1058B00002409802D44BC01818408018E0600320C2
:1058C0008207069B9B039A18D04B13400004009A52
:1058D0001018800880B2C01820610220084021689A
:1058E0000143216001B0F0BDE0FF010000FC0F00AA
:1058F00003490A6801239A43101808607047C0469C
:105900000800014010B5074A136803239C07890368
:105910000919BE4C0C4019044018800880B22018A8
:10592000106010BD100001400000FFFF3F490A68F1
:10593000164B13400322920480008018164A02403E
:10594000981808607047C046B0B5384B1C680225EF
:10595000AC431C601C680D4D25401D60040C641E8A
:10596000A74D2540DD6089050A4C09199960C007DB
:10597000800F196801431960032080049100081802
:1059800005490140186808431860B0BD0F00F0FFDA
:10599000FF0300000000C0FFF0FF0F00411E884120
:1059A000800022490A6804239A4302430A60704730
:1059B000B0B5012214040A4B164A0A4D012907D139
:1059C0001168294000010019184008431060B0BD5B
:1059D0005168294000010019184008435060B0BDCB
:1059E000C0FF01003F00FEFF0A4A012908D1411E05
:1059F0008841400111682023994301431160704799
:105A0000411E884140015168202399430143516060
:105A10007047C04604000140411E8841C000034950
:105A20000A6808239A4302430A6070470000014055
:105A300003480221017003488168491C8160704756
:105A4000080201208800012080B54A1E022A0AD2DD
:105A50001C224A43064909688918C9684908091877
:105A6000FFF750FF80BD0029FCD1FFF75FFF80BD2D
:105A7000040201207A490A6804239A43C007400FB0
:105A8000101808607047C046264908607047C04635
:105A9000134A002810D04B1ED9B20120022901461A
:105AA00003D859B289000FA3595813680B431360E8
:105AB0008003EE4908607047032906D0022907D009
:105AC000012908D11068022107E01068082104E0CC
:105AD0001068042101E010680121884310607047BC
:105AE0003400014002000000040000000800000033
:105AF000F0B581B004460025094E0A4F2046E84023
:105B0000C00708D03968E8B2884701200002A840E1
:105B10003168014331606D1C042DEFD101B0F0BD3F
:105B2000340001400002012080B5032801D100F0BB
:105B30006FF880BD3F2809DC072815DD08281FD035
:105B400010281FD0202827D105207047FF2811DDFD
:105B500001210A02904217D08A02904216D04902CF
:105B6000884219D109207047022811D0042813D186
:105B70000220704740280DD080280DD107207047A3
:105B80000320704704207047082070470A207047A0
:105B900001207047062070470020C0437047000076
:105BA000F0B58408082525400C07240A0601F6B242
:105BB000341965192A4C2668104F3740ED192560B5
:105BC000090C491E0E4D0D4011050E4A8918114051
:105BD000491980090C4A104080181040081860606C
