:020000040800F2
:1001000090120020C10200087D2D00087F2D0008FC
:1001100000000000000000000000000000000000DF
:10012000000000000000000000000000812D000819
:100130000000000000000000832D0008852D00084D
:10014000872D0008912D00089B2D0008A52D000883
:10015000AF2D0008B72D0008B92D0008BB2D0008F1
:10016000BD2D0008BF2D0008C12D0008C32D0008BB
:10017000D3020008C52D0008C72D0008D3020008CF
:10018000D3020008CF2D0008D3020008D3020008D4
:10019000D3020008D3020008D3020008D3020008EB
:1001A000D12D0008D32D0008D52D0008D72D00082B
:1001B000D92D0008DB2D0008DD2D0008DF2D0008FB
:1001C00000F002F800F050F80CA030C808382418ED
:1001D0002D18671EA246AB4654465D46AC4201D17F
:1001E00000F042F87E460F3EB6460FCC0126334261
:1001F00000D0FB1A3343A246AB4618475C5F0000B1
:10020000AC5F0000103A02D378C878C1FAD8520720
:1002100001D330C830C101D504680C6070470000BC
:100220000023002400250026103A01D378C1FBD812
:10023000520700D330C100D50B60704710B5642958
:1002400002D103F077FA10BD782902D103F0A8FAA1
:1002500010BD732902D103F03CFF10BD002010BD7A
:100260001FB51FBD10B510BD03488546FFF7F8FF49
:1002700000F076F803F072FF0010002003B4FFF7DF
:10028000F1FF03BC00F061F870B505460C46164658
:1002900002E00FCC0FC5103E102EFAD2082E02D36A
:1002A00003CC03C5083E042E07D301CC01C5361F7D
:1002B00003E021782970641C6D1C761EF9D270BD94
:1002C0000748804707480047FEE7FEE7FEE7FEE7EE
:1002D000FEE7FEE704480549034A044B7047000067
:1002E00025050008C101000890120020901200208E
:1002F00080B5C1B2002002F057F980BD10B50024CE
:10030000204602F081F90146204602F04DF910BD69
:100310000020C04370470120000270470020704752
:10032000002070470020704780B5C1B2002002F065
:100330003BF980BD012070470020C043704700207A
:1003400070470020704700207047FEE7002070478C
:1003500080B500F077F980BD80B500F08FF980BDE1
:100360008EB000240894079406940594414802AE88
:1003700031462CC82CC12320C00001903E4F3818B4
:100380003E49086002253E49284602F0D3FA20463D
:10039000314600F06BFA00F0DFF802F085FB02F066
:1003A00077FB02F0F5FB00F091FB384603F090F884
:1003B00000F00AFE3348016840680D900C91032656
:1003C0000CAF3046394600F0DBFB7D702E480D90B7
:1003D0003046394600F0D4FB05A910258D812B4805
:1003E00007902B4806902B480B902B480A902B48DF
:1003F0000590224800680990052000F0C1FB1E48C6
:1004000001686846056026A04023019A03F024F99C
:1004100002F0D8FF204604F0D1FF04F0C3FF012012
:1004200047032F4D2868002801D100BFFAE705F0E7
:100430003FFC2868012802D11048066805E02868BA
:10044000022812D10D480068C6192C6005F036FC50
:10045000002EE7D00848019902F0F2FF30463946F5
:1004600002F0EEFF04F09EFFDCE72C6005F026FCB6
:10047000D8E7C046E85D00080000012058110020C0
:1004800000B4C404E05D0008001401400002400014
:1004900000021000FD040008E50400082B023000F3
:1004A0006672616D655F686561643A2030782578B1
:1004B0002C20686561642073697A653A2025642C74
:1004C000206666745F6F75745F72623A25642C20D3
:1004D0006666745F6F75745F76623A25640D0A0014
:1004E0006011002003480121016003488168491C14
:1004F0008160704760110020000001200348022144
:10050000016003488168491C8160704760110020C8
:10051000000001200148024901607047441000209A
:1005200000E1F50580B503F051FE07480749016079
:10053000684820210160BFF34F8FBFF36F8F62B611
:1005400003480449016080BD08ED00E00001000897
:100550004410002000E1F50570B582B001F008FFFD
:100560006D46284601F01AFF01242C706C8000268D
:100570002846314601F01AFF284601F00FFFEE70C1
:100580002C702846214601F011FF304601F038FF5B
:10059000204601F035FF0348102101600248016048
:1005A00002B070BD80E200E000E100E0F0B583B091
:1005B000009316460F46054601F052FF002808D06A
:1005C000284601F029FF104810210160284601F05B
:1005D0002FFF01AC204601F0E1FE2770204629469E
:1005E00001F0E4FE02F03EFA084903F07CF94643CC
:1005F00000212846324601F0F7FE2846009901F016
:1006000029FF03B0F0BDC04680E200E040420F0089
:1006100070B514460D46064602F024FA044903F06C
:1006200062F9444330462946224601F0DDFE70BDA2
:1006300040420F0080B501F0E3FE80BD80B501F0BF
:10064000EBFE80BDB0B582B0054602F00BFA0A4958
:1006500003F049F904466C430BD0012001F0F2FE8F
:100660000546012001F0EEFE01900198281AA042F3
:10067000F7D302B0B0BDC04640420F0080B57D2127
:10068000C9004843FFF7DEFF80BD80B5012001F0BF
:10069000D9FE80BD70B5044602F0E4F9054601209C
:1006A00001F0D0FE06460449284603F01CF9014635
:1006B000A01B03F018F970BD40420F0080B5A4489C
:1006C00010210160BFF34F8FBFF36F8F01F054FE15
:1006D00080BDC04680E100E010B5044602F07EF81F
:1006E00006480121017002F081F80549087002F006
:1006F0007FF8204600F006F810BDC046C811002063
:10070000CC110020F0B581B00024052822D83C4A45
:100710003C4B3D4E800003A1085835461F4611460C
:100720008746C0463F0700083D0700085B070008F2
:100730005907000875070008730700081D4634486C
:1007400001210170002002F055F8022002F07EF82D
:10075000FF2421E0E44350E017462D4801210170B9
:1007600020461E4602F046F8022002F06FF83D4691
:1007700012E026490F46264E01253570204602F02C
:1007800039F8022002F062F830780028284600D1BB
:10079000E0431B4E3D46044660B202F071F81D482E
:1007A00006601D4885420BDC1848854215D0144868
:1007B00085420DD116480078002812D0012016E09D
:1007C0001148854210D00F48854201D100200EE02B
:1007D0000024E04302F084F80FE00D480078002880
:1007E00004D10020C04302E0FF2000E0022040B21C
:1007F00002F076F8094805600024204601B0F0BDFB
:10080000005A620200B4C40400688909002D310155
:10081000C811002048100020FFB3C4044C10002071
:10082000014800687047C0464C100020014800682D
:100830007047C04648100020014800787047C04605
:10084000CC11002080B50248007802F06DF880BD20
:10085000CC11002010B50446034800687D21C90072
:1008600003F041F8604310BD48100020F0B583B09C
:10087000022801D902245EE00E46054602A80024A3
:100880008470812149000180012D0AD0002D16D1EC
:1008900002AFBC700620394602F0D4FBBC700720C2
:1008A0000AE002AF00200190B8700820394602F03B
:1008B000C9FB0198B8700920394602F0C3FBA800B3
:1008C0001EA108588047284601F076FF284601F00F
:1008D00067FF3168284601F0E7FD3179284601F0CD
:1008E0002BFE7179284601F033FEB179284601F0DC
:1008F00045FE31460B31284601F040FFF17928468C
:1009000001F04AFE10A0405D317A002906D01F2177
:100910000840012181400D48016009E01F21084085
:10092000012181400A480160BFF34F8FBFF36F8FF1
:10093000084820214155204603B0F0BD292C00086D
:10094000592C0008892C00080506070000E100E08A
:1009500080E100E07412002010B50446800003A17D
:100960000858804704480021015510BD412C00085B
:10097000712C0008A12C0008741200200149085CA9
:100980007047C04674120020B0B50446074D2120C0
:100990002855204601F014FE0021204601F040FEBB
:1009A0000028F9D0202028550020B0BD7412002066
:1009B000F0B581B0022801D9022017E004460C4F9F
:1009C000385C202811D1154622203855002A08D03D
:1009D0000E46204601F018FE30706D1E761C002D6C
:1009E000F7D120203855002000E00A2001B0F0BDEA
:1009F0007412002070B582B00D46014600780228BE
:100A000001D902200FE014460E6901F0E1FE024612
:100A100001206946086030462946234601F079FAEC
:100A2000002800D00A2002B070BD70B582B00D461B
:100A300001460078022801D902200FE014464E69D1
:100A400001F0C6FE014601206A46106030462A4683
:100A5000234601F05EFA002800D00A2002B070BDE3
:100A600070B582B00D4601460078022801D90220F7
:100A70000FE014460E6901F0ABFE02460120694604
:100A8000086030462946234601F082F9002800D04C
:100A90000A2002B070BD70B582B00D4601460078E4
:100AA000022801D902200FE014464E6901F090FEA1
:100AB000014601206A46106030462A46234601F06E
:100AC00067F9002800D00A2002B070BD80B504F09C
:100AD0002FF9024804F052F980BDC046E10A00082F
:100AE000F0B581B00446032806D31C2060431049AA
:100AF00008184069804718E01C2666430C48851991
:100B0000E868A9680818A8602F460837696888420D
:100B100005D16869804706488059386002E0286935
:100B200080473868AA692146904701B0F0BDC046A9
:100B3000DC1000201C2343430248C018024B103035
:100B40000EC07047DC1000204D0B000880B54A1E17
:100B5000022A09D21C224A4306498918C968490851
:100B6000091804F039F804E0002902D104F046F82D
:100B700080BD80BDDC10002080B504F0BFF880BDD2
:100B8000F0B589B0062800D979E10C46784400799F
:100B900040008744030A1A48585FA2002068C10732
:100BA00000D0BEE000200146DCE02078002800D024
:100BB0000120617804F088F92078002800D15EE1F6
:100BC0006178606804F06EF959E12568280C00F03E
:100BD00061F90590E06808902769606921890791AB
:100BE000E1880691A688A749886601242846204006
:100BF00004F0BAF8684607602801202101401F2050
:100C0000059A10404018310440182904890C069AAE
:100C100012045118079A089B04F002F90321204698
:100C200004F0B0F82BE12078002800D00120617892
:100C300004F042F82078002800D120E16178606853
:100C400004F01EF81BE12768F80700D092E00020AE
:100C50000121D0E02668F00700D10BE16568A8B259
:100C600000F018F90490280C00F014F90590208980
:100C700007906189A3892269824D83482865AA6308
:100C80000693184608914843810002913007C00F2F
:100C9000484340182A6403906864B0080123034065
:100CA0007F27BD00B1092940C9187B02F50A1D4004
:100CB00049191546022318400818049909044718D1
:100CC0000298801804903006400F00D19BE06069C4
:100CD0006C4988640398400097E0A2786578207892
:100CE00046082846314600F03DF9A070E2782846D3
:100CF000314600F037F9E070E2796179A07900F0CF
:100D000031F9E071606803F0DFFA206803F0BEFAA1
:100D1000A06803F071FA22460C3207CA03F072FA97
:100D2000ADE06268574B584999619A601A60050CAA
:100D30000104C90C4D436E008507ED0F2F46774324
:100D4000BE19DE60470702D5A7681F617600B61896
:100D50005E60E6685E614E4B1840281803F05CFF49
:100D60000120002104F00EF821680120084003F062
:100D70007DFF84E03804000D00F08CF86268A568FF
:100D80004049414B4B634D62CD61160C12040892F1
:100D9000930B039673437A07D60F32465A43D21801
:100DA0008A620007C00E8619581904903B0D38035B
:100DB000000F059038070796069302D5E068C862D1
:100DC0005200039E50190862206908630220074000
:100DD000780803F089FF684604990160089807992C
:100DE000081806990904059A891832462B4603F01B
:100DF0005DFE0120014603F0C5FF21680120084087
:100E000003F08EFE3BE01F4903984019C863A069B8
:100E1000C8641E40700803F067FF684604990160CB
:100E2000059880B207990904091806980004089AE1
:100E3000821838462B4603F07BFE2078C0060BD480
:100E40000025284603F0F6F9284603F0FFF90120B3
:100E5000022103F097FF0DE00020022103F092FF32
:100E60000A4803F0EFF90125284603F0E3F9284684
:100E700003F0ECF921680120084003F0A3FE09B05B
:100E8000F0BDC046DC1000204D0B0008350F0008F7
:100E90000000FFFF3F2809DC072815DD08281FD0C8
:100EA00010281FD0202827D105207047FF2811DDEA
:100EB00001210A02904217D08A02904216D04902BC
:100EC000884219D109207047022811D0042813D173
:100ED0000220704740280DD080280DD10720704790
:100EE0000320704704207047082070470A2070478D
:100EF00001207047062070470020C043704780B52E
:100F0000002003F00DFE80BD80B5012003F008FE37
:100F100080BD80B5002003F055FE80BD80B5012066
:100F200003F050FE80BD80B5032801D103F0B0FF6F
:100F300080BDC04610B50A4C606C216C0818206456
:100F4000E16B884204D1E06C8047A06B206402E032
:100F5000A06C8047206C226D0221904710BDC046D6
:100F6000DC100020B0B5441A012C04D0022C04D1AE
:100F70000120850705E07F2002E0062C1AD281209F
:100F8000C505104603F036F80146284604F09CFEDD
:100F90000546204603F02EF80146284602F04EFF93
:100FA00002F022FF0022074B02F0CAFE02F0F8FE18
:100FB00080B2B0BD092C01D30025E2E7412005062F
:100FC000DFE7C0460000E03F10B5D2B051208200FC
:100FD00001AC07492046FFF757F9204600F018F802
:100FE000002802D003A002F007FC52B010BDC0469A
:100FF000F45D00084552524F523A207261646172AA
:1010000020696E6974206661696C210D0000000022
:10101000F0B5ABB0054609A800248470048001F047
:1010200037FD0895284618303721090103915F21C3
:10103000CE432546B300C71817231B01FB58934A1C
:10104000934210D8039A78325A438B00FB580768B2
:101050005F43BA188E4B9A4205D26D1C1830072D8B
:10106000E8D9012000E02046089F28AD2870387894
:101070006870A81C791C072202F0D4FB284604F0F3
:10108000A9F926A90220888001252695E0B204F05E
:10109000EBFD641CE0B20828F3D3049532465F32BE
:1010A00019200001019000252C4607950296069212
:1010B00038198668C268076943698169059614967C
:1010C00015921697179314AA049F1775079F1B97DD
:1010D000189106221C9250221A924B436D498B4262
:1010E00001D83A4600E08222089F029E1F928B425E
:1010F00002D8079B194604E07D210901059B591878
:10110000079B1E91C0690028194608D01146039B11
:1011100019438842019902D95F49891A09181D911A
:10112000E8B214A903F068FF1D98069A90420146A0
:1011300000D31146002800D1114618346D1CC02C74
:101140000A46B4D100913846CC3007903846CB30AF
:1011500006903846CA3005903846C9300490384663
:10116000C830039000242746039880196022805CD1
:1011700010A9087004988019805C4870059880193F
:10118000805C887006988019805CC8700798801908
:10119000805A888008988019132215014059CC8004
:1011A00012941390F8B204F01FFD0C367F1C002E31
:1011B000DAD12520C000089F38580A904B208000C3
:1011C00038580B90785DFF2421463231795C090252
:1011D000081899214900795C22463432BA5C12021F
:1011E0005118090408189B214900795C22463832BD
:1011F000BA5C4D239B00FB5C254636357D5D0D902A
:101200002802C01812025118090408180E9027204D
:10121000C000395C0AA8017500260C9604F05EF83F
:101220000198009981423D4601D2142005E0080949
:101230008E28204601D8C8081E38C0B203F0F0FF3F
:101240004F208000295C20A84170697801709F219F
:101250004900695AC18005218901695CC170423425
:10126000295D867001710D4925910D4924910D4923
:1012700023910F21C904229103F0DEFF09A8067013
:1012800004F016F830462BB0F0BDC04660EA00000E
:101290000187930380841E0020FEFFFF401FD007BC
:1012A000D007E8037800A00F10B5044601F0F0FB6A
:1012B000204603F095FE002010BD80B504F078F8BC
:1012C00004F054FC80BD80B504F058FC04F06AF8CA
:1012D00080BD80B501F0E8FB002080BD10B584B072
:1012E000002002900190009004F0B4FA03A9087065
:1012F000FF280AD103AC204600F0D8F8054800903A
:101300002078694600F02AF8207804F06BFA04B0DF
:1013100010BDC0460400000180B504F075FA80BD20
:1013200080B504F0BDFC80BD80B504F0ADFC80BD8F
:1013300080B5C000024A125808469047002080BD80
:10134000585F000810B50C46C000034908184068F3
:1013500080472060002010BD585F000870B50D4622
:101360000446032817D8A00001A108588746C046A4
:1013700081130008871300088D13000893130008D9
:1013800001F09CFC07E001F0A5FC04E001F0AEFCDC
:1013900001E001F0B7FC2978204601F069FF032045
:1013A00060432978164A1154101869780122827016
:1013B0004170E878002807D06968204601F0ECFF0A
:1013C000204601F06BFF02E0204601F081FFA96892
:1013D000481C04D0204600F015F8064601E0002025
:1013E000C6432046314601F0BDFF2046314601F09C
:1013F000A9FFA878002802D0204601F083FF70BD25
:101400001D120020B0B50C4603254543FFF70EFA28
:1014100012494D5D124902F066FA042D0AD8C04601
:101420007D442D796D00AF4402080B0E1500444336
:10143000240910E00020C4430DE0444364090AE09D
:101440004443A40907E060017D21C90002F04BFA82
:10145000044600E044432046B0BDC0461D120020B3
:1014600040420F0010B50446032816D8A00001A181
:1014700008588746851400088B140008911400084A
:101480009714000801F04AFC07E001F053FC04E067
:1014900001F05CFC01E001F065FC032060430249BF
:1014A00008180021817010BD1D12002010B5002108
:1014B000074B0A46032454431C19A478002C04D07B
:1014C000521C042AF6D30A21FF220270084610BDDE
:1014D0001D12002070B514460E46054601F01EFF91
:1014E000284601F047FF28463146FFF78BFF0146AB
:1014F000284601F037FF0021284601F023FF284647
:10150000214601F049FF70BD80B501F0FBFE80BDB2
:1015100080B501F003FF80BD10B503214143054AAA
:10152000541801F007FF6178002901D00021C94358
:10153000484010BD1D120020F0B583B0002800D136
:1015400083E0054600683C4CA04200D0E6E16E68AE
:10155000042E00D3E7E1E8680C2101400C2900D1FA
:10156000E6E160210140602900D1E6E10321CA01E2
:1015700003461340934200D1E4E149020840884207
:1015800000D1E4E1402000212954412002212954C6
:101590002046314602F0F0FE2846413002902046B7
:1015A000314602F0C1FF0028F9D100222046314621
:1015B000019203F02BF92046314602F00FFF20463E
:1015C000314602F0E3FE2046314602F0F3FE2046AB
:1015D000314602F0F9FE2046314602F0E1FE204697
:1015E000314602F0BFFE2046314602F093FE20460F
:1015F000314602F0A3FE2046314602F0A9FE204605
:10160000314602F091FEA868471E0A2F00D3A3E1DD
:101610002046314602F088FF002800D0A6E0092FBE
:1016200000D9A3E07F443F797F00BF4407173044CF
:10163000106D81568960C04600001040002720468A
:1016400031463A4603F0F0F802E0012064E1002759
:10165000204631463A4603F0DBF944E000272046B5
:1016600031463A4603F0E0F8204631463A4603F068
:10167000CFF9204631463A4603F02CF82046314651
:101680003A4603F0D7F90122204631466CE00027A4
:10169000204631463A4603F0C7F8204631463A46DE
:1016A00003F0B6F9204631463A4603F013F801221A
:1016B0002046314636E00027204631463A4603F0C0
:1016C000B3F8204631463A4603F0A2F920463146A7
:1016D0003A4602F0FFFF012721E001222046314671
:1016E00003F096F90027204631463A4615E00127D7
:1016F000204631463A4603F08BF9204631463A46B9
:1017000002F0E8FF00270AE00027204631463A466B
:1017100003F07EF901222046314602F0DBFF20462D
:1017200031463A4603F086F9204631463A461BE0F8
:10173000002200922046314603F06AF9012706E0B4
:10174000012200922046314603F062F9002720462C
:1017500031463A4602F0BEFF204631463A4603F093
:1017600069F920463146009A02F0C4FFEA69204632
:10177000314603F059F8E8684006420F20463146EA
:1017800003F084F9E8680007420F2046314603F071
:1017900003F8E8684005820F2046314603F0AAF8B6
:1017A000E868C005820F2046314602F041FFE86834
:1017B000C003420F2046314603F0ACF8E8688004CD
:1017C000420F2046314602F043FFE8688003C20F13
:1017D0002046314603F0C0F82A6A100B00D0C0E062
:1017E000686A000D00D0C1E0012738030090204650
:1017F000314603F0A1F86A6A2046314603F0BEF88C
:10180000E8684003C20F2046314602F08FFFAA6A03
:101810000098824200D3AEE000973F05E86AB842E4
:1018200000D3ADE02046314602F072FFEA6A20465E
:10183000314602F08BFFE8684002420F20463146F5
:1018400002F0D4FF6869072202402046314602F0C8
:10185000C7FE68690007C20F2046314603F0C6F88C
:101860006869C006C20F2046314602F023FF68694E
:1018700001070CD4020C2046314603F093F8A86906
:10188000C003C20F2046314603F09EF86869C006C7
:101890000BD42A8B2046314602F0ECFEA869800367
:1018A000C20F2046314602F0F5FEA869C002C20F01
:1018B0002046314603F0DAF8A8698002C20F2046BC
:1018C000314602F05BFFA869384201D02A6B00E084
:1018D00000222046314603F0BDF8009FA87E800616
:1018E00001D4002200E06A6B2046314602F03CFF42
:1018F000A8694002C20F2046314602F05BFFA8698A
:101900000002C20F2046314602F062FF204602F07C
:101910007BFD02980770019803B0F0BD6D201B4954
:101920001BA200F075F86E2018491FA200F070F895
:1019300070201649354A00F06BF871201349324A7D
:1019400000F066F8722011492E4A00F061F8732009
:101950000E492B4A00F05CF898200C4918A200F0C0
:1019600057F8A6200949224A00F052F8A720074953
:10197000204A00F04DF8AC2004491F4A00F048F816
:10198000AD2002491D4A00F043F8C0464A610008F4
:1019900049535F444D415F494E5354414E4345289E
:1019A000646D61782900000049535F444D415F43F5
:1019B00048414E4E454C286368616E78290000000E
:1019C00049535F444D415F5452414E534645525F27
:1019D000545950452868646D612D3E696E69742EB6
:1019E0007472616E736665725F7479706529000048
:1019F000E66000086E60000817610008A960000832
:101A0000A05F0008D65F00080C6000083D60000879
:101A100082B00B4604466846026003A009A1224634
:101A200001F01AFEFEE7C0465B25733A25645D5B54
:101A300025735D2061737365727420402025730DDA
:101A40000A0000002E2E2F2E2E2F2E2E2F2E2E2F60
:101A50002E2E2F706C6174666F726D2F68616C2F03
:101A60007372632F68616C5F646D612E63000000A8
:101A7000F0B583B0002806D001464120085C02285A
:101A800003D1022502E1012500E14E68042E00D3B6
:101A9000FFE00846413002900F6838460191314618
:101AA00002F06AFC0025384631462A4602F018FF4B
:101AB000384631462A4602F0B1FD02223846314608
:101AC00002F07CFD384631462A4602F0A1FF384636
:101AD00031462A4602F0FEFD03223846314602F026
:101AE00085FE384631462A4602F020FE3846314609
:101AF0002A4602F031FF012438463146224602F0E0
:101B000009FF38463146224602F0A2FD38463146EA
:101B10002A4602F0EFFE384631462A4602F088FD9A
:101B2000384631462A4602F0B1FF384631462A4649
:101B300002F032FE38463146224602F067FE384651
:101B400031462A4602F02EFF384631462A4602F038
:101B500091FD384631462A4602F088FF3846314624
:101B60002A4602F00BFE38463146224602F0AAFE13
:101B7000384631462A4602F01DFE384631462A468E
:101B800002F026FE384631462A4602F0B3FD3846BA
:101B900031462A4602F04EFF384631462A4602F0C8
:101BA00013FF384631462A4602F074FD3846314666
:101BB0002A4602F047FE384631462A4602F062FEC7
:101BC000384631462A4602F04DFE384631462A460E
:101BD00002F068FE38463146224602F007FF3846DA
:101BE0003146224602F066FD384631462A4602F06A
:101BF00005FD384631462A4602F0F2FC38463146A9
:101C00002A4602F099FE384631462A4602F0B6FED0
:101C1000384631462A4602F07BFD384631462A4690
:101C200002F094FD3846314602F0D8FB3846314682
:101C300002F0ACFB3846314602F0C6FB384631466E
:101C400002F0AEFB3846314602F0B4FB019C204660
:101C50004830182101F045FE3846314602F082FB3B
:101C60003846314602F056FB3846314602F070FBEA
:101C70003846314602F058FB3846314602F05EFBEA
:101C8000214625660298057040202554284603B059
:101C9000F0BDFD2001A105A2FFF7BAFE68616C5FEF
:101CA000646D615F6465696E6974000049535F44E7
:101CB0004D415F4348414E4E454C2868646D612D4F
:101CC0003E696E69742E6368616E6E656C290000F2
:101CD00010B500281ED00024046001214160C168B5
:101CE0000E4A0A40C26081680D4A0A400521090275
:101CF0005118816001690B4A0A400B495118016172
:101D000041690A4A0A400932426118301C2101F037
:101D1000E8FD00E00124204610BDC04600E0FFFFC2
:101D2000000088E7E0FF000018000800000003C082
:101D3000F0B581B0002823D000291FD01C304A1EE6
:101D400000920623DC430023A4001F46035105191B
:101D50006B60AB606B61AB612E690B4A16402E6104
:101D6000EE680A4A1640761CEE60009A974201D24D
:101D7000083528601C307F1CB942E7D1002000E004
:101D8000012001B0F0BDC04600E0FFFF000088E781
:101D9000F0B583B005464020285C0224012829D0F4
:101DA000284640302E6802966F680126067041264C
:101DB000AE5D012E1CD108980190284641300224C6
:101DC000047000242C66284600F017F8029E304666
:101DD000394602F093FA0198A863EC63304639461D
:101DE000224602F013FD3046394602F001FB01E0C5
:101DF00000210170204603B0F0BDF0B581B01C4653
:101E000015460A46C0C83046394602F069FD3046DC
:101E100039462A4602F002FC30463946224602F094
:101E2000CDFB01B0F0BDF0B581B0002831D0044643
:101E30004120205C02282ED120464130009060CC09
:101E400028463146083C02F0C9FA2846314602F0DD
:101E50009DFA2846314602F0B7FA2846314602F08C
:101E600095FA2846314602F0A5FA2846314602F096
:101E700083FA3120C7432846314602F055FB00283B
:101E80000DD07F1CF7D10420206603200099087034
:101E90001DE001201EE010202066012017E02846EA
:101EA000314602F05FFA2846314602F033FA2846FE
:101EB000314602F04DFA2846314602F035FA2846FE
:101EC000314602F03BFA01200099087000204021C1
:101ED0000022625401B0F0BD70B5044660C80838F5
:101EE0002846314602F020FB0028F9D12846314629
:101EF00002F0D2FA002801D0012100E004214122A1
:101F0000A1544021002262544142414121660846C9
:101F100070BDF0B583B007464020385C022401282C
:101F200000D18CE00194384640303E687C680294D1
:101F30000125057041243C5D012C45D1019508988F
:101F40000090384641300224047000243C66384634
:101F5000FFF753FF3046029D294602F0CFF9009863
:101F6000B863FC633046294602F0E8F9304629465A
:101F700002F0F8F93046294602F0CCF930462946FD
:101F800002F0E6F93046294602F0CEF930462946FD
:101F900002F05EFA3046294602F042FA30462946FF
:101FA00002F06EFA78690107354611D4020C284612
:101FB000029E314602F0F6FCB869C003C20F284603
:101FC000314602F001FD13E000210170019C36E072
:101FD000F8684002400F0728019A029E09D811466E
:101FE0008140B420014204D02846314602F03CFA38
:101FF000019A387DC0060CD43A8B2846314602F04F
:1020000039FBB8698003C20F2846314602F042FB13
:102010000CE0F8684002400F072807D88240E22011
:10202000024203D02846314602F006FA0122284631
:10203000314602F0EBFB2846314602F0D9F9204642
:1020400003B0F0BD80B50146012000290BD041222C
:102050008A5C022A08D10A46413203C9052313705B
:1020600002F08AF9002080BD10220A6680BDC046B9
:10207000F0B581B0044660C82846314602F030FA17
:1020800000280FD02846314602F072FA002809D005
:102090002846314602F08EF92846314602F04EF9C4
:1020A000012020662846314602F032FA002869D025
:1020B0002846314602F074FA002863D0E06B401CD9
:1020C000E063A16804291ED1A16B884200D2E8E038
:1020D000A16C002901D020468847002228463146BD
:1020E00002F094FB2846314602F03CF9284631467E
:1020F00002F02EF92846314602F016F928463146FC
:1021000002F008F9CDE0A16C002901D020468847F3
:102110002846314602F026F92846314602F0FAF800
:102120002846314602F014F92846314602F0FCF800
:102130002846314602F052F92846314602F026F987
:102140002846314602F040F92846314602F028F987
:102150002846314602F02EF94120205C27464137BF
:1021600005280AD1E16D002901D0204688470120C9
:10217000387040200021215493E001203870402025
:10218000002121542846314602F092F900283FD020
:102190002846314602F0D4F9002839D0E06B401CC3
:1021A000E063A16B491E884221D1A068801E0728E8
:1021B0001DD8C046784400794000874403070D18B5
:1021C000180718030022284631460EE00022284650
:1021D000314602F02FFC0AE00027284631463A46F5
:1021E00002F028FC284631463A4602F083FA216D77
:1021F000002901D0204688472846314602F0A8F839
:102200002846314602F090F82846314602F082F81E
:102210002846314602F070F900280ED02846314693
:1022200002F0B2F9002808D0616D002901D02046E3
:1022300088472846314602F08BF82846314602F09E
:1022400043F900280ED02846314602F085F90028CF
:1022500008D0A16D002901D0204688472846314684
:1022600002F062F8206E00281BD0206EC00713D049
:102270004120052121542846314602F07DF82746A9
:1022800041372846314602F04FF90028F9D10120A4
:102290003870402000212154E16C002901D02046F3
:1022A000884701B0F0BDC046B0B503464020185C79
:1022B000012801D10220B0BD1C464034012020700D
:1022C00041255D5D012D14D1052912D87944097984
:1022D00049008F44020406080A0C9A6408E0DA6494
:1022E00006E01A6504E05A6502E09A6500E0DA65E6
:1022F000002000212170B0BDB0B54022825C012ACF
:1023000001D102222CE004464034012323704122F3
:10231000825C0025012A2A4621D106291A461ED8A8
:102320007944097949008F440306090C0F121500FE
:102330000022826413E00022C26410E000220265E1
:102340000DE0002242650AE00022826507E00022DB
:10235000C26504E04830182101F0C3FA2A4625700E
:102360001046B0BD4121405C7047006E70470000D0
:1023700080B500F0A7FB80BD80B58020C043064932
:102380004A68936803409360C9688A6802408A601B
:1023900000F0A4FB80BDC046501000200021024A7E
:1023A000026041607047C0460201000170B5C9007B
:1023B0000C4A511849684278C37884780578406897
:1023C0000860AE1E70427041002D01D0800100E017
:1023D0004120A40004435807000E2043520002434A
:1023E0008A6070BD50100020C000044B181840686F
:1023F000002900D0183002607047C04650100020FD
:10240000C000044908184068816880220A4382603D
:102410007047C04650100020C000044908184068AA
:1024200081688022914381607047C046501000202F
:10243000C0000349081840680121C1607047C046C8
:1024400050100020C00002490818406840687047DA
:1024500050100020C000014A115070475010002059
:10246000C0000349081840688068C0B2C0097047BE
:102470005010002010B50B4C60684169002905D050
:102480000121C1602068002800D08047E0684169D0
:10249000002905D00121C160A068002800D0804734
:1024A00010BDC04650100020F0B581B00C46800031
:1024B0000E490E5800F0D6FAF16880273943F160D2
:1024C00005092846214601F00EFAC1B23160010A21
:1024D00071606043281A8001214601F004FAC0218E
:1024E0007050F068B843F06001B0F0BD4C5F000878
:1024F000B0B582000C4B9C58E26F5207FCD5E26FDE
:10250000D207FCD1094A20231360BFF34F8FBFF3DA
:102510006F8F074A1360656800226260054A136086
:10252000FFF7C2FF6560B0BD4C5F000880E100E0CE
:1025300080E200E000E100E0032211408000034B54
:102540001858C36893435918C16070474C5F00081E
:102550008000094A1058C268002903D0022906D118
:10256000082102E008210A4310218A4301E01821D2
:102570000A43C2607047C0464C5F00088000054AAD
:102580001058C2680423002901D01A4300E09A437E
:10259000C26070474C5F00088000024A10589422C5
:1025A000815070474C5F00088000044A1058C26F89
:1025B0009207FCD5016008467047C0464C5F000892
:1025C000B0B5002A0BD08000054B18580023CC5C16
:1025D000C56FAD07FCD504605B1C9342F7D1B0BD5D
:1025E0004C5F00080A78002A0BD08000054B185871
:1025F000C36F9B07FCD502604B1C4A78002A194622
:10260000F6D170474C5F0008800004490858C16F3C
:102610000907FCD50068C0B27047C0464C5F00088F
:1026200005290DD87944097949008F44020B101708
:102630001F2680001449085840694006C00F7047A3
:102640000020704780001049085841690BE0800065
:102650000D49085840698007C00F704780000A493B
:102660000858C06F41080120884370478000064920
:102670000858C06FC006C00F704780000249085854
:10268000C16F0120084070474C5F00081823434386
:102690000248C018890042507047C0462C120020E2
:1026A000042909D849B2890004A251588000084A77
:1026B000105842680A4342607047C046020000005A
:1026C00001000000010000000400000008000000FC
:1026D0004C5F0008042909D849B2890004A2515866
:1026E0008000084A105842680A4042607047C0465D
:1026F000FDFFFFFFFEFFFFFFFEFFFFFFFBFFFFFFF2
:10270000F7FFFFFF4C5F000880B581000B4A51586E
:102710008A680F2111400C290FD8094ACA40D207F4
:102720000BD01822424307488018890006A251584E
:1027300089004058002800D0804780BD4C5F0008C9
:10274000D51000002C12002004000000040000003E
:102750000000000004000000010000000400000070
:102760000300000005000000040000000400000059
:1027700004000000040000000200000009780122AB
:102780000A40C90030230B409A18C0230B40D118CF
:102790008000024A105881607047C0464C5F0008B4
:1027A00080000449085888214258042313434350A9
:1027B0007047C0464C5F00088000044908588821D3
:1027C00042580223134343507047C0464C5F0008F1
:1027D00080000149085870474C5F000801480249D1
:1027E00001607047D0110020005A6202002070473B
:1027F0007047C04610B5012293040E490C681C4373
:102800000C600B68002811DBFF242405A343C0B231
:1028100000051818086050040B6803430B600B6830
:1028200083430B6010040B68834301E010040343EF
:102830000B6010BD085010400120800402490A6856
:1028400082430A607047C046085010400B49022876
:1028500006D0012809D000280ED10868086009E0D8
:10286000012042070868104305E0012000070A68BC
:1028700002430A60086808607047C046085010406C
:1028800080B513490A6800281ADB04231A430A603A
:10289000FF2212010B689343C0B202019A180A602A
:1028A0000A6802231A430A600A689A430A600A689F
:1028B00001239A430A60411C074801F014F803E021
:1028C000012002430A6003480449086080BDC046F5
:1028D0000C5010400068890900B4C404D0110020D5
:1028E00010B510490B68002816DB0122940323431E
:1028F0000B60FF231B040C689C43C0B2000420182B
:10290000086050030B6803430B600B6883430B6044
:1029100010030B68834302E00120000303430B60B4
:1029200010BDC0460C5010407047C046004870476C
:10293000005A620270B5022829D0012810D0002860
:102940007ED1012001073F4A13688B431360400783
:102950001168814311607D2000023E49086070BD0E
:10296000384D2868042202432A603B4C204600F080
:10297000BAFF364902040A4600D0421893B22868CA
:102980008B421CD1012108432860354830E00126E4
:10299000B0042C4D2A6802432A602B4C204600F0DC
:1029A000A2FF2A4902040A4600D0421893B22868BE
:1029B0008B4228D1491C0843286025483AE0274B20
:1029C000103318400B460F3B16011E4006432E6085
:1029D00028680223184328602868984328602868DC
:1029E0000123984328600A40511C204600F07BFFD9
:1029F00018490860012001072A680A432A60400735
:102A0000296881431BE0FF231B05984313061B091C
:102A10001818286070042B6803432B602B688343CD
:102A20002B6030042B6883432B601140491C2046E7
:102A300000F059FF074908607007296801432960C1
:102A400070BDC0460850104000688909FFFF0000B3
:102A500000D01213D0110020002D3101FFFFFEFF26
:102A6000005A6202014800687047C046D011002039
:102A700010B5064A13680C24A343C007400FC907CA
:102A8000090F08181818106010BDC04604501040F7
:102A90000120000203490A6802430A608A6802436F
:102AA0008A6070471850104004480168044A114079
:102AB00001608168114081607047C0461850104025
:102AC000FFFEFFFF04480168202211430160816876
:102AD000114381607047C0461C5010402020C04305
:102AE00003490A6802400A608A6802408A607047A7
:102AF0001C5010400120400303490A6802430A6049
:102B00008A6802438A607047185010400448016880
:102B1000044A114001608168114081607047C046DD
:102B200018501040FFDFFFFF0120400203490A68F0
:102B300002430A608A6802438A6070471850104056
:102B40000120800203490A6802430A608A6802433E
:102B50008A6070471850104004480168044A1140C8
:102B600001608168114081607047C0461850104074
:102B7000FFFDFFFF04480168044A114001608168BD
:102B8000114081607047C04618501040FFFBFFFFA6
:102B9000044801680122114301608168114381608A
:102BA0007047C046185010400120C04303490A68CE
:102BB00002400A608A6802408A60704718501040DC
:102BC0000120800203490A6802430A608A680243BE
:102BD0008A6070471C50104004480168044A114044
:102BE00001608168114081607047C0461C501040F0
:102BF000FFFBFFFF0120400203490A6802430A600D
:102C00008A6802438A6070471C501040044801687B
:102C1000044A114001608168114081607047C046DC
:102C20001C501040FFFDFFFF044801684022114383
:102C300001608168114381607047C0461C5010409C
:102C40004020C04303490A6802400A608A68024083
:102C50008A6070471C50104004480168802211436C
:102C600001608168114381607047C0461C5010406C
:102C70008020C04303490A6802400A608A68024013
:102C80008A6070471C5010400120000203490A6806
:102C900002430A608A6802438A6070471C501040F1
:102CA00004480168044A1140016081681140816054
:102CB0007047C0461C501040FFFEFFFF04480168EB
:102CC0000222114301608168114381607047C04650
:102CD0001C501040044801680422114301608168BF
:102CE000114381607047C0461C5010400448016881
:102CF0000822114301608168114381607047C0461A
:102D00001C50104004480168102211430160816882
:102D1000114381607047C0461C5010400220C043E0
:102D200003490A6802400A608A6802408A60704764
:102D30001C5010400420C04303490A6802400A6046
:102D40008A6802408A6070471C5010400820C043C7
:102D500003490A6802400A608A6802408A60704734
:102D60001C5010401020C04303490A6802400A600A
:102D70008A6802408A6070471C5010407047704754
:102D800070477047704780B5002000F00BFB80BD96
:102D900080B5012000F006FB80BD80B5022000F068
:102DA00001FB80BD80B5032000F0FCFA80BD80B53A
:102DB000FFF760FB80BD70477047704770477047F2
:102DC00070477047704780B502F0D8FC80BD7047EF
:102DD000704770477047704770477047704770473B
:102DE000092809D8FC210140094A89588007C00EEA
:102DF000C1400F20084005E0102802D80349405C7C
:102E000000E000204108012088437047443810400A
:102E10003850104070B509280FD8FC2202400E4BE4
:102E2000D4588007C00E02252E468640B443490080
:102E30008D4385402543D55070BD102809D8054ADB
:102E4000835CFD241C40C907890F611802234B4095
:102E5000835470BD44381040385010400C2802D1C3
:102E60000848017807E00B2802D9102806D8401E30
:102E700003490968C140012008407047002070479D
:102E80000040104050381040B0B509280DD8FC2241
:102E900002400C4BD4588007C00E012529408540C4
:102EA000AC4381402143D150B0BD102807D8012246
:102EB0001140034A835CFE241C4061188154B0BD5C
:102EC000443810403850104010B500242146FFF718
:102ED000A1FF204610BD10B50446C9B2FFF7D4FFCC
:102EE00001212046FFF796FF002010BD092809D8D0
:102EF000C2B2012090400E4A01290FD1116801434E
:102F00001160704710280FD8F630C2B201209040EF
:102F1000064A1378012905D1034304E0116881436F
:102F200011607047834313707047C0464A381040A1
:102F30003050104010280ED80C280CD00C2800D986
:102F4000401E4006000E8140032282400248036872
:102F500093430B43036070472C501040B0B50928D1
:102F60000ED8FC2202400D4BD4588007C00E4025DD
:102F70008540AC43C907490E81402143D150B0BDC3
:102F8000102807D8044A835CBF241C40C907490E97
:102F900061188154B0BDC0464438104038501040CC
:102FA0000123834004480268002901D01A4300E04D
:102FB0009A4302607047C04608401040B0B50928E7
:102FC0000ED8FC2202400D4BD4588007C00E0425B9
:102FD0008540AC43C907490F81402143D150B0BD62
:102FE000102807D8044A835CFB241C40C907490FFA
:102FF00061188154B0BDC04644381040385010406C
:10300000B0B509280ED8FC2202400D4BD4588007D9
:10301000C00E08258540AC43C907090F81402143F4
:10302000D150B0BD102807D8044A835CF7241C4057
:10303000C907090F61188154B0BDC046443810401B
:1030400038501040F0B50B785A1E541EA241520061
:10305000DC1E65426541AC01A2184C78651E6E42CB
:103060006E41B5005219A41E65426541EC0012196B
:103070003032092807D801258540204C022B0FD07B
:1030800066682E430EE010281AD804460A3CE4B2C3
:103090000126A640184CA579022B13D1B54312E0A6
:1030A0006668AE4366608507ED0EFF26AE40FC27DE
:1030B00007403C19E768B743AA403A43E26006E09C
:1030C000012217E03543A571035D02550B780022FC
:1030D0000C280FD0022B0DD10C2800D9401E400621
:1030E000000E8978814003238340044804689C4390
:1030F0000C4304601046F0BD443810402C50104082
:103100000B2800D9401E491E042924D87944097986
:1031100049008F4402070C131900012181400E4819
:1031200001600FE0012181400B48016010E00121A6
:103130008140094801600904816070470121814094
:1031400005484160816004E00121814002484160FE
:10315000C1600904C16070472840104080B58000FC
:1031600002490858002800D0804780BDD4110020B3
:1031700070B5084805680024074EE80703D03059A9
:10318000002800D08047241D2804450C402CF4D191
:1031900070BDC04638401040D41100200B2800D923
:1031A000401E8000014A11507047C046D4110020D3
:1031B0000B2800D9401E0121814001480160704761
:1031C000204010400B2800D9401E012181400148B9
:1031D00001607047244010400B2800D9401E012197
:1031E0008140014801607047384010400B2800D9E9
:1031F000401E03490968C140012008407047C0468D
:10320000384010400B2800D9401E03490968C140CE
:10321000C803C00F7047C0463840104080B5102822
:1032200015D8092807D8C1B201228A4009490B687C
:1032300013430B6008E00146F631C9B201228A400F
:1032400003490B7813430B700121FFF7E3FD80BDA9
:103250004A3810403050104010B5102807D80446A6
:10326000FFF7FCFD012141402046FFF70DFE10BD98
:10327000C000094A101840680268042902D10621DA
:103280008A4307E030239A430260090103680B4335
:1032900006221A430260704764100020C100094AE8
:1032A000511849680A68082313430B6041B200298A
:1032B00007DB1F21084001218140034801600348CA
:1032C000016070476410002080E200E000E100E04F
:1032D000C1000A4A511849680A6808239A430A60DB
:1032E00041B2002909DB1F21084001218140044827
:1032F0000160BFF34F8FBFF36F8F704764100020E2
:1033000080E100E0C000044908184068016801221B
:103310000A4302607047C04664100020C0000449A0
:103320000818406801680122914301607047C04657
:1033300064100020C00002490818406840687047C7
:1033400064100020C000024A1018406841607047B5
:1033500064100020C0000249081840688068704767
:1033600064100020C000024A101840688160704755
:1033700064100020C0000349081840680121C160A2
:103380007047C04664100020C00002490818406819
:10339000C068704764100020C000014A1150704797
:1033A00064100020B0B5C400054D2959002901D092
:1033B00000208847281940680121C160B0BDC0467F
:1033C0006410002070B5184E184800253570E121B2
:1033D00009037160B060F07B07210143F173311D77
:1033E0002846FDF743FA124C34616664201DFEF74F
:1033F0006FFC0120A06065600E48206060691721A5
:1034000088436061608B0004A061E0680A49014064
:103410000A480818E060FFF7C7FBFFF7B9FB204632
:10342000FEF78AF870BDC046781200200302000142
:10343000641100200000104000008EFF0001100009
:10344000F0B581B00E460446080B16D0154930463B
:1034500008400090F00A16D0454200270E4600F0C2
:1034600023F8E1190120C2020D48FDF7F9FA3146AF
:10347000B819471C6D1CF1D106E000F015F8B2B286
:103480000748214608E00027009D002D06D000F0E7
:103490000BF8391902482A46FDF7E2FA01B0F0BDEF
:1034A00078120020FF07000010B5084C2069FEF7D5
:1034B00059FF022803D120696421FEF70DFD206920
:1034C000FEF750FF0128FAD110BDC0467812002047
:1034D000F0B581B004461920A07400256574FF2062
:1034E00020740126E6730220A073607326731248CD
:1034F000124921606060A56020461330212100F050
:10350000EEF937203C2121543620C42222543520A4
:103510002154342022540A4866756421094A0A4B12
:103520000A4E0B4FA063E56327646664A364E264FC
:10353000216501B0F0BDC0463C004608FF7F026235
:1035400005000001E803E8030200B80B349E1027D1
:10355000809698007047FEB5054610460C46184305
:1035600073D0AE468C460020AD1A01469C4167D30D
:103570006646002701243D46B61A9D4102D31346F4
:103580003A462124654676462F04360C3E432D0CE0
:10359000B61A9D4104D3150C1B042B43120410349E
:1035A000654676462F06360A3E432D0AB61A9D41D9
:1035B00004D3150E1B022B431202083465467646CF
:1035C0002F0736093E432D09B61A9D4104D3150F26
:1035D0001B012B431201241D65467646AF07B60832
:1035E0003E43AD08B61A9D4104D3950F9B002B4373
:1035F0009200A41C65467646EF0776083E436D08A8
:10360000B61A9D411AD392185B41641C16E000184B
:10361000764665464941B71A9D410191009009D30C
:103620006046B11A98418E4684460098019900255B
:10363000401C6941DD0752082A435B08641EE6D539
:103640007246634603B0F0BDFFE700200146C04666
:10365000C0462A462346F5E70FB4054910B503AA2C
:10366000029800F03BFD10BC08BC04B018470000F5
:1036700088100020F8B50E4604460020206220463F
:10368000E1688847002829D0252802D06268A1680F
:1036900020E0E16820460027884705001ED0284624
:1036A0004138192802D80127FF022035324620462A
:1036B00027602946FCF7C2FD002808D0012804D065
:1036C000F61DF608F6000836D9E7361DD7E762681A
:1036D0002846A1689047206A401CCFE7206AF8BDC1
:1036E00070B50C460546012A05D02878800600D51D
:1036F000EA69002302E0012305E05B1C934202D249
:10370000E05C0028F9D1A869E618C01AA861286A07
:10371000C01828622846C046C04604E06A6820787F
:10372000A968641C9047B442F8D32846C046C046F6
:1037300070BD0000F7B5002575291068009914A622
:1037400011D0C046C046002802DA404211A608E067
:10375000009909688A0701D50FA602E0490704D538
:103760000EA6012501E0C046C046009F0024243774
:1037700004E000F0C7FC30313955641C0028F8D152
:103780002B4632462146009800F038FCFEBD000072
:10379000000000002D0000002B00000020000000B1
:1037A00070B504460D4621461068C046C0462188C3
:1037B000090502D50F4A7A4402E00E4A7A440E32D5
:1037C00023460021243305E006070009360F965DE5
:1037D0005E54491C0028F7D120780023000705D546
:1037E000702D03D0002901D002231132204600F0B1
:1037F00005FC70BDBE25000010B5044603E0FCF7D3
:1038000077FD401C08D020780549641C0028F6D1BB
:103810000A20FCF76DFD10BD0020C04310BD000064
:1038200088100020F8B5042A2CD3830712D00B7817
:10383000491C0370401C521E83070BD00B78491C97
:103840000370401C521E830704D00B78491C037080
:10385000401C521E8B079B0F05D0C91ADF00202386
:10386000DE1B08C90AE0FCF70FFDF8BD1D4608C9BC
:10387000FD401C46B4402C4310C0121F042AF5D250
:10388000F308C91A521EF0D40B78491C0370401C6F
:10389000521EEAD40B78491C0370401C012AE4D460
:1038A00009780170F8BD01E004C0091F0429FBD2AA
:1038B0008B0701D50280801CC90700D002707047B9
:1038C00000290BD0C30702D00270401C491E0229F8
:1038D00004D3830702D50280801C891EE3E70022FF
:1038E000EEE70022DFE7002203098B422CD3030A14
:1038F0008B4211D300239C464EE003460B433CD43D
:10390000002243088B4231D303098B421CD3030AA4
:103910008B4201D394463FE0C3098B4201D3CB01D4
:10392000C01A524183098B4201D38B01C01A524104
:1039300043098B4201D34B01C01A524103098B4208
:1039400001D30B01C01A5241C3088B4201D3CB00F3
:10395000C01A524183088B4201D38B00C01A5241D6
:1039600043088B4201D34B00C01A5241411A00D286
:1039700001465241104670475DE0CA0F00D04942EF
:10398000031000D3404253409C46002203098B425F
:103990002DD3030A8B4212D38901FC2212BA030AE7
:1039A0008B420CD3890192118B4208D38901921169
:1039B0008B4204D389013AD0921100E08909C309EE
:1039C0008B4201D3CB01C01A524183098B4201D3F0
:1039D0008B01C01A524143098B4201D34B01C01ADB
:1039E000524103098B4201D30B01C01A5241C30853
:1039F0008B4201D3CB00C01A524183088B4201D3C2
:103A00008B00C01A5241D9D243088B4201D34B00DC
:103A1000C01A5241411A00D2014652411046634633
:103A20005B1001D34042002B00D5494270476346EA
:103A30005B1000D3404201B50020C046C04602BD25
:103A40007047704770470000F0B50C46871A9C41DC
:103A50000D46861A9D4103D2C01BA141D219634174
:103A60000D0D1F0DC94EEC1BAE435CD07F057F0DC5
:103A70000026002F51D02D05AC46A943DD020123BD
:103A8000ED0A1B051D4320231B1B24D41746E740CA
:103A9000381871412F46E740CC199D40281831460F
:103AA00061410C0D27D161449A4013D50023401C7D
:103AB000594152000ED14008400001224B005205EE
:103AC000D34207D305204007C14201D5B04900E0E9
:103AD000B0493046F0BD6B00002A00D001229A1890
:103AE0001F23203C1B1B01D5002302E0E5402818C2
:103AF00071410C0DD7D0012424050919C407CD0745
:103B000040084908E40F28436144002CD5D0002424
:103B1000401C61419A40D0D1CDE76A05520DD9D100
:103B2000C90FC907D5E79C4D4E00002801D00124DC
:103B300000E0002434195F00002A01D0012600E0D3
:103B40000026BE19954FAC420CD8AE420AD8B442FA
:103B500006D001256D05EC42BCD010461946F0BDDB
:103B60009942FCD000203946F0BDF0B51FB40C4698
:103B70000F46811A9F412546861A9D4106D201258E
:103B8000ED076F40401ABC4152187B41210D1E0DBC
:103B90008D1BAC467D4D8D437ED075056D0D7CD063
:103BA0000D05AE46AC431B031B0B794D52429D41A4
:103BB000202366469B1B14D31746F740381800266F
:103BC0000090744160462F460741E41900989D40DB
:103BD0002818664116D4714671189A4025D50123DC
:103BE00020E093182A466A415200002B00D0521C54
:103BF0001E23203E9B1B002B61DD3541EE1728184C
:103C00006641E8D5001876415B1C9A4000D3401C01
:103C10004B05F3181524E34010D3002B52D0714606
:103C20007118D30FC01802D3491C05B0F0BD012391
:103C3000DB079A42F9D140084000F6E7012252051D
:103C4000B21801D1002853D00123CC0ADB029943DA
:103C5000891E002A08D1020C03D0020C000410397E
:103C600002E00246002020390023550B05D1120244
:103C70000823550B01D152010D23550C01D112011E
:103C80001B1DD50C01D192009B1C150D01D15200BA
:103C90005B1C2025EE1A01E02CE022E00546F540F1
:103CA00015439840CA1AE10769181305C918002A74
:103CB000BBDA032040070818C10FC9070FE071469F
:103CC0006118B2E7F10740080843711071444A00D7
:103CD0000CD001235B059A42A7D2C90FC907002067
:103CE000A3E74905490D26D1002001E00028F4D1C1
:103CF00000219AE7284D6600002801D0012100E04C
:103D0000002171185F00002A01D0012600E0002682
:103D1000BE19224FA94210D8AE420ED8B14208D0E7
:103D200001256D05E94206D01946A802414010461A
:103D30007BE79C4201D0214677E70020394674E7B3
:103D400010B50C465C4005D50124E4076340FFF73D
:103D50000CFF10BDFFF778FE10BD30B40C465C4080
:103D600004D50124E407634030BC6DE630BCFCE6BA
:103D700070B50124E40761400D465D4002D4FFF7B1
:103D800063FE70BD6340FFF7F0FE70BDFF070000EB
:103D90000000F0FF0000F07F0000E0FF0000F87F6F
:103DA0000346CA02400D10B510430A1504D0012481
:103DB000E4072043002A05DB0A4CA21A04D4D040B1
:103DC000FF2A00DD002010BD4A00002B01D0012099
:103DD00000E00020101801225205D042F2D8C81786
:103DE000C04310BD1E0400000121C9050123411874
:103DF00042001B06D3185B0E0AD0C1100722D20660
:103E0000891840075242D14201D5520089187047A3
:103E1000090208D50146002A03D0C10FC9070020B6
:103E2000704710467047420202D000200249704796
:103E3000072109050143F4E70000F87FF0B5FF25ED
:103E40002D04C609C209FF2704462E400137CB09BD
:103E50003E4348402A402B400746002A6BD0002BA7
:103E600069D0AA4267D0AB4265D0002800DA32465A
:103E70000125ED0529432C4309022002090AD21A23
:103E80004B0C7F24E31A434C000A7C44E35C7D2402
:103E90002404121914145B00A218884201D3521C86
:103EA00000E0400049420C465C4324115C43DB01C6
:103EB0006415E318040A5C43C502200D0C46444314
:103EC0006419250A5D432303EC0C0D46654300038A
:103ED0000019EB184C42A34201D35B18401CD405D7
:103EE0002018002B07D05B00C91804D3401C002900
:103EF00001D1400840003F2189048A4209D3002AA9
:103F000008DC1106090F04D0032149074018C00F2F
:103F1000C007F0BD01224100120689187F22520617
:103F20009142F6D205214907C84201D59010F0BD53
:103F3000FF20C005F0BD002F00DA32461648AA4225
:103F400007D2AB4205D21902090E17D0F80FC007ED
:103F5000F0BDFF2563002D06AB42F9D84900A94208
:103F6000F6D8AB4201D1A942F2D0A94201D1002139
:103F700001E061004908D0050843F0BD1102090EB7
:103F8000FBD0FF200243D005F0BD0A460146104693
:103F900054E70000121F00000000C07F1F22030C26
:103FA00002D10F2200041CD0030E01D10002083AF6
:103FB000030F01D10001121F830F01D18000921E57
:103FC000002801DB4000521ED20551180212511880
:103FD0001922904004D3491C002801D14908490006
:103FE00008467047C10FC90700D04042012292071E
:103FF0001143D3E701218907D0E77047FFB5044695
:104000000D4681B0243000902168880604D5102226
:10401000E0699143216000E00120A84201DD471BD7
:1040200000E000270498A1697A191018081AA06105
:104030002078C00602D42046C046C046002608E0CC
:1040400003986268A168805D9047206A401C761CD6
:10405000206204988642F3DB2078C0060AD5204609
:10406000C046C04606E06268A16830209047206ADA
:10407000401C206238467F1E0028F4DC07E00098D0
:104080006268A168405D9047206A401C2062284613
:104090006D1E0028F3DC2046C046C046207800068E
:1040A00002D5022005B0F0BD0120FBE710B5436941
:1040B000002B02D0C046C04601E0FFF711FB0120F3
:1040C00010BD1278014624310A7000224A70012284
:1040D000ECE711680022D243E8E70000084B70B516
:1040E0000D467B4400F027F804462846FCF710F9FB
:1040F000002802D00020C04370BD204670BD0000E3
:104100000BC2FFFF01468008081A02091018020AB4
:104110001018020C1018C008820012185200891AD8
:1041200001E0401C0A390A29FBD2704701694A1C88
:1041300002610878704700B58FB0029100210591A7
:104140000549019379440391114604906846FFF7AD
:1041500091FA0FB000BD0000E5FFFFFF10B5044667
:10416000C046C0462046FCF789F810BD30B58C1813
:104170000278401C13071B0F01D10378401C120961
:1041800006D10278401C03E00578401C0D70491CE4
:104190005B1EF9D101E00B70491C521EFBD1A142FC
:1041A000E6D3002030BD000006480021016006492A
:1041B0000160012141607D20C00000BF401EFCD194
:1041C0007047C0460070104040B00000B0B50320FA
:1041D0000649814306483CC93CC03CC93CC03CC977
:1041E0003CC03CC93CC003488047B0BDA941000861
:1041F0000080002001800020014908607047C0460F
:104200002800014010B503239C0780030019074CC8
:10421000044018040918890889B20919044B196067
:104220001018800880B2586010BDC0460000FFFF23
:104230002C0001402F490A6801239A431018086096
:104240007047C046104908607047C046411E88410B
:1042500040010C490A6820239A4302430A60012066
:10426000800301490860704700E100E080B501204B
:10427000400304490A6802430A6003480068804713
:1042800080BDC0463400014054110020B0B5072263
:104290000240FF21CB01440A1C40A21843097824A4
:1042A000234078332340D218124B5C68054D2540DB
:1042B00052195A6009041A688A43000E0004101843
:1042C0001860B0BD0080FFFF81090C220A40C107C1
:1042D000890F8918020E12028918000BF022024081
:1042E000F032D0B2081803490A68034B1340C018D3
:1042F00008607047200001400100FFFF4900DC4AD0
:10430000515A0818C16982698261012212039143DE
:10431000C1617047A84A515C0D22920181508018FA
:10432000002141607047C046A34A515C352212010A
:1043300081508018002141607047C0469E4A515C00
:104340006B22D20081508018002141607047C04626
:10435000994A515C6922D200815080180021416045
:104360007047C046944A515C6722D2008150801841
:10437000002141607047C0468F4A515C09021D22EE
:104380005201815080180021416070478A4A515C77
:1043900009026322D20081508018002141607047D9
:1043A000854A515C09026522D200815080180021A3
:1043B00041607047804A515C0902332212018150EA
:1043C00080180021416070477B4A515C0902192224
:1043D000520181508018002141607047764A515C3B
:1043E000090231221201815080180021416070477A
:1043F000714A515C0A0251181D22520181508018E5
:10440000002141607047C046B0B57321C900421811
:10441000536844580125254345505360B0BD000002
:10442000654A515C0A0251186322D20081508018FB
:10443000002141607047C0465F4A515C0A02511832
:104440006522D20081508018002141607047C0462B
:10445000594A515C0A0251183322120181508018C6
:10446000002141607047C046534A515C0A0251180E
:104470001922520181508018002141607047C046C6
:104480004D4A515C0A0251183122120181508018A4
:10449000002141607047C0460B22920183185B687F
:1044A000454B595C80580840411E88417047C046C2
:1044B0002F22120183185B683F4B595C80580840DB
:1044C000411E88417047C0460322120283185B6870
:1044D000394B595C80580840411E88417047C0469E
:1044E0006122D20083185B68334B595C80580840C6
:1044F000411E88417047C0465F22D20083185B6826
:104500002D4B595C80580840411E88417047C04679
:104510005D22D20083185B68274B595C80580840A5
:10452000411E88417047C0461D22520183185B68B6
:10453000214B595C80580840411E88417047C04655
:104540006322D20083185B681B4B595C805808407B
:10455000411E88417047C0466522D20083185B68BF
:10456000154B595C80580840411E88417047C04631
:104570003322120183185B680F4B595C8058084046
:10458000411E88417047C0461922520183185B685A
:10459000094B595C80580840411E88417047C0460D
:1045A0003122120183185B68034B595C8058084024
:1045B000411E88417047C046385F00084900DD4B06
:1045C000595A0818C16983698361034B1340034A30
:1045D0000A40D118C1617047FF0F000000F0FFFFD3
:1045E0004900DC4B595A0818016C436C4364E023C2
:1045F00099435207120E8918016470474900DE4B37
:10460000595A0818016C436C436401231B029943F7
:10461000D207D20D891801647047C0464900DE4BAD
:10462000595A08188168C168C16082607047C046E5
:104630004900D94B595A08188169C369C3610323DA
:10464000DB0199439207D20D891881617047C046FA
:104650004900DC4B595A08188169C369C3610723B3
:10466000DB0299435207920C891881617047C0465A
:104670003C5F00084900DC4B595A0818416C036C38
:1046800003640F23DB0299431207520C891841641B
:104690007047C0464900DD4B595A0818016C436CFD
:1046A000436401239B049943D207520B8918016488
:1046B0007047C0464900DE4B595A0818016C436CDC
:1046C000436401239B029943D207520D8918016468
:1046D0007047C0464900E44B595A08188169C369BC
:1046E000C3610123DB069943D2071209891881614E
:1046F0007047C0464900E44B595A0818016C436C96
:1047000043640123DB079943D2078918016470478A
:104710004900E54B595A0818016D436D43659F4B9D
:104720000B401105591801657047C0464900DE4B22
:10473000595A08188169C369C36101239B049943CD
:10474000D207520B891881617047C0464900D64B89
:10475000595A0818016D436D4365904B1340904AB8
:104760000A40D118016570474900CF4B595A0818C3
:10477000816BC16BC16382637047C0464900CA4BFD
:10478000595A0818416C036C036420239943D207DB
:10479000920E8918416470474900C34B595A081852
:1047A0008169C369C3610E2399435207120F8918A7
:1047B000816170474900BC4B595A0818416C036C21
:1047C000036402239943D207920F8918416470470A
:1047D0004900B54B595A0818416C036C0364012316
:1047E0001A409943891841647047C0464900AE4B4E
:1047F000595A08188169C369C36107231B05994386
:104800005207520A891881617047C0464900A64B79
:10481000595A08188169C369C36101231A40994331
:10482000891881617047C04649009F4B595A081842
:1048300001694369436103239A431940891801615F
:104840007047C0464900984B595A0818016C436C90
:10485000436401235B049943D207920B89180164D6
:104860007047C0464900904B595A0818016C436C78
:10487000436403239B0399439207120C8918016434
:104880007047C0464900884B595A0818016C436C60
:10489000436401231B049943D207D20B8918016496
:1048A0007047C0464900804B595A0818016C436C48
:1048B000436403231B0399439207920C89180164F4
:1048C0007047C0464900784B595A0818416C036C30
:1048D00003641C2399435207D20E89184164704720
:1048E00010B54900704B595A0B580B185C680A50A8
:1048F0005C6010BD49006C4B595A08188169C36946
:10490000C36103235B0299439207520D89188161A9
:104910007047C0464900644B595A08188169C369F9
:10492000C36107239B0399435207D20B8918816106
:104930007047C0463C5F000849005B4B595A081855
:10494000816CC36CC364154B0B401105591881640D
:104950007047C0463C5F00084900534B595A08183D
:104960008169C369C36101235B049943D207920B38
:10497000891881617047C0463C5F000849004A4B76
:10498000595A0818816CC36CC364044B1340044A21
:104990000A40D118816470473C5F0008FFFF0F0098
:1049A0000000F0FF4900404B595A0818416C036C55
:1049B00003640F23DB0199431207520D89184164E8
:1049C0007047C0463C5F00084900374B595A0818E9
:1049D000016C436C43640123DB049943D207120B3F
:1049E000891801647047C0463C5F000849002E4B9F
:1049F000595A0818016C436C43640123DB02994344
:104A0000D207120D891801647047C0463C5F000848
:104A10004900254B595A08188169C369C3610123AC
:104A20001B079943D207D208891881617047C04695
:104A30003C5F000849001C4B595A0818016C436C34
:104A4000436401239B079943D207520889180164E4
:104A50007047C0464900144B595A0818016B416B06
:104A6000416302637047C0463C5F000849000E4B3B
:104A7000595A0818416C036C036440239943D207C8
:104A8000520E8918416470473C5F00084900064B8C
:104A9000595A08188169C369C36170239943520741
:104AA000520E8918816170473C5F0008F0B5AD4C2B
:104AB00025680226B54325600504174E2E401E25A5
:104AC00005400F07FF0A7D19AD196668134F37407F
:104AD000ED196560050C6D1E614E2E409202384D39
:104AE00052192A409219E26089015E4A89181140E0
:104AF000A16003218A07059DAD03AA18E34D154067
:104B000009045918890889B249192161C007800F21
:104B1000216801432160F0BD0000E07FE1FF01005A
:104B200070490A6801239A43101808607047C0460C
:104B3000F0B581B0009313460A4601460F2466047F
:104B4000C4033440C50B1E272F403F19854C6068B5
:104B50001A4D28403818401C606008023040CE07CB
:104B6000B60A1707FF0EBE19301892013D4E921972
:104B7000324080186A1CA56815404019A060180CC6
:104B8000401EBF4A02409802BF4BC0181840801810
:104B9000E06003208207069B9B039A18BB4B1340DF
:104BA0000004009A1018800880B2C018206102200A
:104BB000084021680143216001B0F0BDE0FF010021
:104BC00000FC0F0003490A6801239A43101808608B
:104BD0007047C0460800014010B5074A1368032318
:104BE0009C0789030919A94C0C4019044018800836
:104BF00080B22018106010BD1000014059490A68A9
:104C0000164B13400322920480008018164A02407B
:104C1000981808607047C046B0B5524B1C68022512
:104C2000AC431C601C680D4D25401D60040C641EC7
:104C3000934D2540DD6089050A4C09199960C0072C
:104C4000800F19680143196003208004910008183F
:104C500005490140186808431860B0BD0F00F0FF17
:104C6000FF0300000000C0FFF0FF0F00411E88415D
:104C700080003C490A6804239A4302430A60704753
:104C8000B0B5012214040A4B164A0A4D012907D176
:104C90001168294000010019184008431060B0BD98
:104CA0005168294000010019184008435060B0BD08
:104CB000C0FF01003F00FEFF0A4A012908D1411E42
:104CC00088414001116820239943014311607047D6
:104CD000411E88414001516820239943014351609E
:104CE0007047C04604000140411E8841C0001D4974
:104CF0000A6808239A4302430A6070470120C043B0
:104D000018490A6802400A604A6B02239A434A63C0
:104D10004A6B04239A434A634A6B08239A434A63C3
:104D20004A6802404A608A6802408A607047C0460A
:104D30000C48026801218A43026002680A4302604B
:104D4000FF221202436B13434363436B934343635A
:104D5000426B802313434E229343436388032149CC
:104D600008607047000001405D490A6804239A43C7
:104D7000C007400F101808607047C04627490860F8
:104D80007047C046134A002810D04B1ED9B20120EC
:104D90000229014603D859B289000FA35958136854
:104DA0000B43136080030F4908607047032906D046
:104DB000022907D0012908D11068022107E01068F4
:104DC000082104E01068042101E0106801218843F3
:104DD0001060704734000140020000000400000031
:104DE0000800000000E100E0F0B581B004460025B5
:104DF000094E0A4F2046E840C00708D03968E8B29B
:104E0000884701200002A8403168014331606D1CD1
:104E1000042DEFD101B0F0BD340001405C11002041
:104E2000F0B58408082525400C07240A0601F6B2CF
:104E3000341965192A4C2668104F3740ED19256042
:104E4000090C491E0E4D0D4011050E4A89181140DE
:104E5000491980090C4A10408018104008186060F9
:104E600003208107059A92035118AE4A0A400004B4
:104E70001818800880B28018A060F0BD07FF0FFFEF
:104E8000FF0300000000F03F00FC0F000000FFFFE8
:104E900013480168022211430160016891430160D7
:104EA0007047C0460E490A68054B13400122D204E0
:104EB000C0018018034A0240981808607047C04635
:104EC000FF01F0FF00FE0F00411E8841000201219A
:104ED0000902034A13688B43034313607047C046BB
:104EE0001400014070B5154D29787F2421402970A8
:104EF000800013A10858144E7070010AB170C003ED
:104F0000C00FF070FDF772FC400010A1085A30711C
:104F1000C005C00F1030707130780121014331702D
:104F2000B079C007FCD03078FE2101403170F079B3
:104F30008021014329700440204670BD3C30104060
:104F4000259600004391000061301040D601860193
:104F500070B504460E4D6E1FFDF7E8FC317808224F
:104F60000A433270001940082146FEF7BCFC29783C
:104F700007220A40C00080180838287028780221CB
:104F8000014329702878FD210140297070BDC04679
:104F90000534104002480178DF220A400270704751
:104FA0004A3410400248017880220A430270704758
:104FB000663410400721014003480278F82313406B
:104FC000591801707047C0464F34104009480078A6
:104FD0007047C046401E411E884106490870704710
:104FE00010B5044601200146FDF742FD014804705A
:104FF00010BDC0461C120020F0B58DB00F460490C5
:10500000096878680590B8680190FE683C69069662
:105010006643386A0A90786ABD6ABB6900220C91BF
:105020008D420B90089307941DD9F86A09907D2052
:10503000C10030461446FEF756FC22460C99401833
:10504000854221462C4610D8E000001D0A21FEF7BB
:105050004AFC02460999002902D00804D0494118A7
:105060000120024301E011462C462720C301387D70
:10507000002809920391029310D0002A0C9D03D0BE
:10508000601B7D21CE004643700118180830264968
:10509000FEF729FC4000441C019F09E0F869400329
:1050A000C0182149FEF71FFC204C0440019F0C9DB5
:1050B000690BE804001D0A2200263346FEF74BFA6E
:1050C000049949011A4A88508D183804B44FC01900
:1050D0000599491E89B20143696006984003029907
:1050E00040181149FEF7FFFB07990904C91980B25E
:1050F0000843A86020040899491E89B24018E86056
:105100000A98401E80B22861FF2000060B99814357
:105110006961AE61099880B203990843E8610DB0F6
:10512000F0BDC0460000FFFF10270000FEFF070093
:1051300000280140F0B582B036494A7ABB231340BB
:105140004B72CA7BEF2300931A40CA738A7EDE2516
:105150002A408A760C7FFE2214400C77CC7F7F2673
:105160002640CE772C4C2678164026702B4CE67EB7
:105170001640E676267FDF2737402777677FBF26F2
:10518000374067778F7E37408F762378F8273B400C
:105190002370237A134023720190012805D12379CB
:1051A0003B402371237B134023730B7B33400B73F2
:1051B0004B7BF72633404B738B7B2B408B73CB7B26
:1051C0003340CB73A37F1F261E40A6778B78FD2626
:1051D0001E408E70A67C0198002806D02E40A67432
:1051E000637C00980340637402E01640A674009844
:1051F000237C03402374207DFB2303402375E07F41
:105200001040E07708781040087088781040887067
:1052100002B0F0BD2130104041301040003010404D
:10522000FF210904034A13688B4300041818106017
:105230007047C04660200140027801210A4043784F
:10524000DB079B0F9A1883789B071B0FD218C37834
:105250001B019A1803791B03D218C3885B1E9B0598
:105260009B08D218037ADB075B08D218437ADB0766
:1052700013430E4A1360C90413690B431361418938
:1052800083891B0459185160C189038A1B0459186A
:105290009160418A838A1B045918D1601169404B7F
:1052A0000B40C08A181810617047C046003001409A
:1052B00007210904084A13688B430178C907C90B01
:1052C000C9184378DB079B0BC9188078C007400BCF
:1052D000081810607047C046103001400521890150
:1052E00042684A430121C90351182D4A0A40016806
:1052F000491E89B28A1829490A60027B0723134094
:10530000427B5207920ED218837B5B07DB0D9A1803
:10531000C37B5B071B0DD218037C5B075B0CD218A9
:10532000437C5B079B0BD218837C5B07DB0AD2189C
:10533000C37C5B071B0A1343027D521E9206920830
:105340001A438A608068C8607047C04680B51348B9
:105350000068000CC002001D0A21FEF7C4FA80BDDF
:105360000521890141430120C00308180C4901406F
:105370000A48026892B251180160704707480068F5
:1053800080B2401C7047C04604490A68044B134071
:10539000401E80B2181808607047C04600200140C7
:1053A0000000FFFF0A48016805220A4302607047B7
:1053B00007480168052291430160704704490A6863
:1053C00002239A43C007800F101808607047C04638
:1053D00004200140F0B58FB00B90012630463146D5
:1053E000FDF746FBFFF7DEFDFFF7D4FDDC48FFF7D6
:1053F000AFFDDC4DA87A182102910843A872687BA2
:10540000E0210D910840083068733046FAF7A0FF9C
:1054100000F04EFC28780E900720FFF7CBFD3046B9
:10542000FAF796FFD049C87F3043C877CF4F387816
:1054300030433870B8783043B870022004460A9080
:10544000FAF786FFF8200E990840C01C287000F07B
:1054500035FC387B40210E9108433873787B082156
:1054600008437873B87B21220C921043B873F87B01
:105470000843F873BC49887F0D9A10438877B87841
:105480002043B870387B802528433873787B1021FF
:10549000099108437873B87B422100910843B8739F
:1054A00005242046FAF754FF387B7F2107910840F6
:1054B0003873787BEF21069108407873B87BBD2163
:1054C0000140B973787A4421039108437872F87BDC
:1054D000099B1843F873B87E0C990843B876387F57
:1054E00030433877F87F08952843F877A04D28781F
:1054F000304328709C4AD07E01963043D076107F8E
:10550000202101431177507F0E9908435077387F4F
:105510000A9908433877E8780843E87004942046ED
:105520001C46FAF715FF387FFD2108403877E878E8
:105530000C910840E8700B9802460078002800D0D3
:10554000029CF97A032319400919F972002809937A
:1055500001D0062100E0042116460D9D824C3A7BC5
:10556000C023134059183973397C29401E313974CE
:10557000797C1F2211437974B97C29401231B974A6
:10558000F97C1143F9740028059202D00A9B029A13
:1055900001E00B220A9B397D294089183975797DF4
:1055A000294018317975B97D0028039A00D011225D
:1055B000BA75F97DFA75397E002801D00D2100E019
:1055C000192139767A7E7976002800D0019BB87F40
:1055D000FC210140C818B8770498FAF7B9FE307872
:1055E000FFF780FC63490870B87E0E990843B876CF
:1055F0003220FAF7ADFEB01C0E90A07CB1780029E5
:1056000006D063210843A074617C5020084309E060
:1056100009990843A074A07C9F210140A174607C7B
:10562000502188436074207C502101432174207DE7
:105630000C21014321750520FAF78AFE0E980078A7
:10564000012801D0022000E00098C043A17C014065
:10565000A174207DF721014021750E9D284600F0A0
:1056600095FA2178172001432170217A099A114374
:1056700021722978012905D1217901432171207BEB
:1056800010432073207D01210A9108432075707812
:10569000400039490A5C059E3240A37D25460D9C99
:1056A0002340D318AB75EB7D23409A18EA75081890
:1056B00040783040297E21402C4640182876687D6D
:1056C000FE2630406875A87DBF252840A075E07D86
:1056D0002840E0750520FAF73BFE207C2840207426
:1056E0002078069908402070207A0C9A1040207289
:1056F0000B988078012809D1607C2840607420795B
:1057000008402071207B0C9908402073207D304098
:1057100020750520FAF71CFE207AFB210840207234
:105720000E980078012802D1227B0A402273217D45
:105730000C9A114021750E4A9178079B194091707F
:10574000B97A0A9A1143B972797A089A114379722F
:10575000217E194021768E4908700FB0F0BDC046F9
:10576000601823004F3410400030104021301040AA
:105770004130104077120020445F000810B50C4CF7
:105780006068010702D0FFF72FFB10BD81060CD423
:10579000000609D519480068002800D0804701207C
:1057A000C00321680143216010BDFEF75FFD10BDFD
:1057B0003400014080B525480078012807D12748EA
:1057C0000078FDF79FFD72480078FFF7B3FC80BDBD
:1057D00080B5E948007800F0DDF820480078FDF752
:1057E0009DFD80BD80B50549054A0A601B490870CA
:1057F0000449FDF7D1FD00F011F880BD181200201A
:10580000B5570008D157000880B514480078FDF757
:1058100085FD0E480021017080BDC046B0B5FFF780
:1058200095FD0446FDF71EF9084901220A70084952
:10583000FEF759F805466543084C20782946FDF7E0
:1058400091FD20782946FDF77DFDB0BD14120020A2
:1058500040420F00014800787047C04660100020A9
:10586000174800788006400F7047C04614490B78EF
:10587000C72213404007800E1B180B70C24B1B78C9
:10588000012B03D10B79134003430B717047C046C2
:105890000B480178072008407047C04607210140A7
:1058A00007480378F82213405B180370B64B1B7847
:1058B000012B03D103791340591801717047C04679
:1058C0000230104017480178072008407047C04652
:1058D0000721014013480378F82213405B18037036
:1058E000EE4B1B78012B03D103791340591801713A
:1058F0007047C0460B4800788006400F7047C0468E
:1059000008490B78C72213404007800E1B180B7004
:10591000E24B1B78012B03D10B79134003430B712E
:105920007047C046093010400B4800788006C00F11
:105930007047C04608490B78DF221340C007800E2D
:105940001B180B70D54B1B78012B03D10B7913401F
:1059500003430B717047C0460A3010400B48017872
:10596000072008407047C0460721014007480378D8
:10597000F82213405B180370C84B1B78012B03D12E
:1059800003791340591801717047C0460B3010401D
:105990001C120020F0B583B0029000F089F96F4826
:1059A000007800900720FFF705FB012501952846A8
:1059B000FAF7CEFC6A4FF87F2843F877694C2078D5
:1059C00028432070A0782843A07002263046FAF7BA
:1059D000BFFCF82000990840C01C6049087000F026
:1059E0006DF9217B8020009001432173617B10229F
:1059F00011436173A17B42230B43A373217F314386
:105A000021775948C1783143C170237B40210B4332
:105A10002373637B082003436373A57B21231D430A
:105A2000A573E57B0543E573B87FE0250543BD77A6
:105A3000A0783043A070607A442505436572E07B0E
:105A40001043E073A07E1843019BA076207F18438B
:105A50002077E07F009A1043E077434A107818439C
:105A60001070F87E1843F876387F202202433A7788
:105A7000787F08437877A07E0843A076B87C0299A7
:105A8000002906D063210843B874797C502008436C
:105A900009E003210843B874B87C9F210140B97420
:105AA000787C502188437874387C502101433974C4
:105AB000387D0C210143397539781720014339703D
:105AC0003A7A03210A433A72FD26029A012A3546A0
:105AD00006D13A7902433A71387B08433873BD25C1
:105AE000387D184338751846FAF732FC207B7F2141
:105AF00001402173617BEF2001406173A17BBD22D6
:105B00000A40A273217F31402177174AD178314072
:105B1000D170B97C2940B974397DF7220A403A75B1
:105B20003A7CBF210A403A743A7802403A703A7A95
:105B300032403A72029A012A09D17A7C0A407A7478
:105B4000397901403971387BFD2101403973387D45
:105B5000FE210140397503B0F0BDC0464F341040FE
:105B600000301040213010404130104080B54B488B
:105B70000078FFF7DFFA80BD1C12002080B547488F
:105B80000078FFF707FF80BD1C120020F0B581B040
:105B90001449842200920A70427807252A408378AB
:105BA0005B079B0E9B184B7010248C7002792A4067
:105BB000C6787607B60EB6180E728279D207970E9F
:105BC00010374F7242792A408A720078012806D134
:105BD000009808714B718C710E734F738A7301B00A
