:020000042000DA
:108000002005012075810020358500202F85002066
:108010000000000000000000000000000000000060
:108020000000000000000000000000004585002066
:108030000000000000000000378500204785002078
:108040007D85002087850020918500209B8500206C
:1080500017850020A5850020A7850020A985002080
:108060004185002043850020318500202D8500209A
:108070008781002015850020398500208781002018
:1080800087810020338500208781002087810020A0
:108090008781002087810020878100208781002040
:1080A0001F850020218500202385002025850020B4
:1080B00027850020298500202B850020138500209E
:1080C00000F002F800F046F80CA030C80838241878
:1080D0002D18671EA246AB4654465D46AC4201D100
:1080E00000F038F87E460F3EB6460FCC01263342EC
:1080F00000D0FB1A3343A246AB461847DC160000FB
:108100001C170000103A02D378C878C1FAD8520779
:1081100001D330C830C101D504680C60704700003D
:108120000023002400250026103A01D378C1FBD893
:10813000520700D330C100D50B60704710B57329CA
:1081400002D100F090F910BD002010BD1FB51FBD79
:1081500010B510BD03488546FFF7F8FF00F0EAFEB2
:1081600000F0B2F90000022003B4FFF7F1FF03BCF6
:1081700000F01BFA0748804707480047FEE7FEE784
:10818000FEE7FEE7FEE7FEE704480549054A064B21
:108190007047000049850020C18000202002012096
:1081A000200501202003012020030120704700004A
:1081B0000FB4054910B503AA029800F059F910BC94
:1081C00008BC04B018470000A0010120F8B50E4615
:1081D0000446002020622046E1688847002829D014
:1081E000252802D06268A16820E0E16820460027C7
:1081F000884705001ED028464138192802D8012793
:10820000FF0220353246204627602946FFF796FFB9
:10821000002808D0012804D0F61DF608F60008361C
:10822000D9E7361DD7E762682846A1689047206ADB
:10823000401CCFE7206AF8BD70B50C460546012A00
:1082400005D02878800600D5EA69002302E00123E2
:1082500005E05B1C934202D2E05C0028F9D1A869DA
:10826000E618C01AA861286AC01828622846C046C5
:10827000C04604E06A682078A968641C9047B4424C
:10828000F8D32846C046C04670BD01E004C0091FAF
:108290000429FBD28B0701D50280801CC90700D0BE
:1082A0000270704700290BD0C30702D00270401C37
:1082B000491E022904D3830702D50280801C891E2F
:1082C000E3E70022EEE70022DFE7000000220309D7
:1082D0008B422CD3030A8B4211D300239C464EE0E1
:1082E00003460B433CD4002243088B4231D303099D
:1082F0008B421CD3030A8B4201D394463FE0C3094F
:108300008B4201D3CB01C01A524183098B4201D366
:108310008B01C01A524143098B4201D34B01C01A51
:10832000524103098B4201D30B01C01A5241C308C9
:108330008B4201D3CB00C01A524183088B4201D338
:108340008B00C01A524143088B4201D34B00C01A24
:108350005241411A00D201465241104670475DE039
:10836000CA0F00D04942031000D3404253409C46FC
:10837000002203098B422DD3030A8B4212D38901B9
:10838000FC2212BA030A8B420CD3890192118B4250
:1083900008D3890192118B4204D389013AD09211FA
:1083A00000E08909C3098B4201D3CB01C01A5241B5
:1083B00083098B4201D38B01C01A524143098B427E
:1083C00001D34B01C01A524103098B4201D30B0167
:1083D000C01A5241C3088B4201D3CB00C01A52418C
:1083E00083088B4201D38B00C01A5241D9D2430873
:1083F0008B4201D34B00C01A5241411A00D20146B0
:108400005241104663465B1001D34042002B00D519
:108410004942704763465B1000D3404201B50549AD
:10842000002802DC491C084000E00846C046C0465F
:1084300002BD00BFFFFFFF7F704770477047704766
:1084400010B54369002B02D0C046C04601E0FFF7DB
:10845000F3FE012010BD1278014624310A7000227B
:108460004A700122ECE711680022D243E8E70000DD
:10847000084B70B50D467B4400F013F804462846BF
:1084800000F084FA002802D00020C04370BD2046CE
:1084900070BD0000EB05000001694A1C026108780C
:1084A000704700B58FB002910021059105490193F5
:1084B00079440391114604906846FFF787FE0FB098
:1084C00000BD0000E5FFFFFF10B50446C046C046F2
:1084D0002046FFF749FE10BD30B58C180278401CCD
:1084E00013071B0F01D10378401C120906D1027833
:1084F000401C03E00578401C0D70491C5B1EF9D13F
:1085000001E00B70491C521EFBD1A142E6D30020B2
:1085100030BD7047704780B500F0F4F980BD7047FA
:108520007047704770477047704770477047704793
:10853000704770477047704780B500F09DFE80BD62
:1085400070477047704770470748084901600848FE
:1085500020210160BFF34F8FBFF36F8F62B60548D4
:10856000054901607047C04608ED00E0008000202A
:1085700080E100E04400012000E1F50580B5002025
:1085800001F074F880BD80B5012001F06FF880BD66
:1085900080B5022001F06AF880BD80B5032001F0AB
:1085A00065F880BD704770477047FEE710B584B02E
:1085B000022000F0F9FA00F02FFB01F00DF801F0B5
:1085C0001FF80024029401A98C7103940120C87241
:1085D0000B4A8A80E1221203019200F007FC00F0AE
:1085E0004FFB084A2046214600F03EFB00F0EAFC23
:1085F000124800F03DFA00F02BFE04B010BDC0465A
:1086000003020000E5890020B0B507F0F9FC0A4834
:10861000057807F007FD0024002D0AD02320C100B3
:10862000064800F031FD0120C103054800F02CFD93
:1086300000E0E4432046B0BD08020120880001208C
:108640000000022080B50120400304490A6802436B
:108650000A6003480068804780BDC046340001407E
:10866000FC010120104800687047C0460B490228F1
:1086700006D0012809D000280ED10868086009E05A
:10868000012042070868104305E0012000070A683E
:1086900002430A60086808607047C04608501040EE
:1086A000014802490160704714020120005A620229
:1086B0000020704780B500F08BFA80BD80B500F0D7
:1086C0008FFA80BD164A515C6722D2008150801813
:1086D000002141607047C046114A515C0A0251189E
:1086E0001D22520181508018002141607047C04610
:1086F000B0B57321C9004218536844580125254379
:1087000045505360B0BD00001D22520183185B68C4
:10871000034B595C80580840411E88417047C04651
:10872000C097002049006F4B595A0818C1698369E6
:108730008361034B1340034A0A40D118C16170475B
:10874000FF0F000000F0FFFF4900664B595A081860
:108750008168C168C16082607047C0464900614B52
:10876000595A08188169C369C3610323DB0199431E
:108770009207D20D891881617047C0464900594B54
:10878000595A08188169C369C3610723DB029943F9
:108790005207920C891881617047C0464900514BBD
:1087A000595A0818416C036C03640F23DB02994388
:1087B0001207520C891841647047C0464900494B62
:1087C000595A0818016C436C436401239B02994376
:1087D000D207520D891801647047C0464900414BC9
:1087E000595A08188169C369C36101239B049943DD
:1087F000D207520B891881617047C0464900394B36
:10880000595A08188169C369C3610E2399435207F5
:10881000120F8918816170474900324B595A081864
:108820008169C369C36107231B0599435207520A33
:10883000891881617047C04649002A4B595A081867
:108840008169C369C36101231A4099438918816111
:108850007047C04610B54900224B595A0B580B18A7
:108860005C680A505C6010BD49001E4B595A0818DC
:108870008169C369C36103235B0299439207520D67
:10888000891881617047C0464900164B595A08182B
:108890008169C369C36107239B0399435207D20BC4
:1088A000891881617047C04649000E4B595A081813
:1088B0008169C369C36101235B049943D207920BA9
:1088C000891881617047C0464900064B595A0818FB
:1088D0008169C369C361702399435207520E891895
:1088E00081617047C49700200021024A0260416004
:1088F0007047C04602010001C000234908184068C3
:108900004068704710B5204C60684169002905D067
:108910000121C1602068002800D08047E0684169DB
:10892000002905D00121C160A068002800D080473F
:1089300010BDC04680B500F059FE80BD10B5C9001D
:10894000114A5118496842680A6003789C1E6242C5
:108950006241002B01D0920100E0412283789B000C
:108960001343C2785207120E1A4340784000104356
:10897000886010BDC00004490818406881688022E2
:108980000A4382607047C046500001200020C04367
:108990007047000010B5074A136803239C0789033A
:1089A0000919054C0C4019044018800880B22018A1
:1089B000106010BD100001400000FFFF06490A686A
:1089C000064B13400322920480008018044A0240A0
:1089D000981808607047C046000001400F00F0FF83
:1089E000F0FF0F0003480221017003488168491C11
:1089F00081607047080201208800012080B54A1E6E
:108A0000022A0AD21C224A43A44909688918C96863
:108A100049080918FFF7BEFF80BD0029FCD1FFF708
:108A2000CDFF80BD0E4908607047C046F0B581B0EB
:108A300004460025094E0A4F2046E840C00708D0EA
:108A40003968E8B2884701200002A8403168014334
:108A500031606D1C042DEFD101B0F0BD3400014038
:108A60000002012080B5C1B2012000F069FE80BD86
:108A700070B504460125C573857345730573FA20E7
:108A8000A07400266674FF202074114811492160EB
:108A90006060A660204613302121FFF712FC3420CD
:108AA000C4212154E6630C48A063204634303C22A4
:108AB000C2708170427065756421084A084B094D87
:108AC000056143618261C1610748206470BDC04691
:108AD0003E004608FF7F026220000002E803E80330
:108AE0000200B80B28A0A00F80969800F0B50B7874
:108AF000032B01D0302200E070225C1E651EAC41C9
:108B0000640012194C78651E6E426E41B500521910
:108B1000A41E65426541EC001219092807D80125F9
:108B20008540204C022B0FD16668AE430EE0102822
:108B30001AD804460A3CE4B20126A640184CA5798E
:108B4000022B13D0354312E066682E43666085071A
:108B5000ED0EFF26AE40FC270740E419E768B74357
:108B6000AA403A43E26006E0012217E0B543A5714E
:108B7000035D02550B7800220C280FD0022B0DD17B
:108B80000C2800D9401E4006000E8978814003233E
:108B90008340044804689C430C4304601046F0BDC5
:108BA000443810402C50104010B50446FFF778FDB3
:108BB0008A4801210170FFF77BFD0449087000F02D
:108BC00089FA204600F084F810BDC046100201204A
:108BD00080B57D21C900484300F002F880BD000047
:108BE000B0B582B00546FFF73DFD0A49FFF76EFBC1
:108BF00004466C430BD00120FFF77EFE05460120A2
:108C0000FFF77AFE01900198281AA042F7D302B02C
:108C1000B0BDC04640420F0070B582B0FFF78AFE7B
:108C20006D462846FFF760FE01242C706C800026FC
:108C300028463146FFF782FE2846FFF755FEEE70C4
:108C40002C7028462146FFF779FE3046FFF792FE4A
:108C50002046FFF78FFE0348102101609D48016008
:108C600002B070BD80E200E01C234343B0480068BE
:108C7000C018024B10300EC07047C046FD8900205E
:108C800010B50124204600F083FDA949086004487E
:108C9000FFF7C8FEA0038F49086010BD0402012041
:108CA000E18E002010B5044600F0B4FC204600F030
:108CB00055FA002010BD80B500F0EEFB00F0CEFAB2
:108CC00080BD80B500F0D0FA00F0E0FB80BD000070
:108CD000F0B581B00024052822D83C4A3C4B3D4EDB
:108CE000800003A1085835461F4611468746C046F6
:108CF0000B8D0020098D0020278D0020258D002060
:108D0000418D00203F8D00201D4634480121017017
:108D1000002000F0C9FB0220FFF7A8FCFF2421E09F
:108D2000E44350E017462D480121017020461E46BD
:108D300000F0BAFB0220FFF799FC3D4612E02649FD
:108D40000F46264E01253570204600F0ADFB02206F
:108D5000FFF78CFC30780028284600D1E0431B4EFA
:108D60003D46044660B200F0E3FB1D4806601D4826
:108D700085420BDC1848854215D0144885420DD138
:108D800016480078002812D0012016E011488542CC
:108D900010D00F48854201D100200EE00024E043AE
:108DA00000F0A4FB0FE00D480078002804D100205B
:108DB000C04302E0FF2000E0022040B200F096FB3A
:108DC000094805600024204601B0F0BD005A620247
:108DD00000B4C40400688909002D31010C0201208F
:108DE00048000120FFB3C4044C000120F0B581B05D
:108DF000022801D9022062E00D460446812040008D
:108E000069460880012C0BD0002C1BD16E46002730
:108E1000B77006203146FFF769FEB77007270DE0EF
:108E20006E460120B07009203146FFF75FFE032730
:108E3000B77002203146FFF759FEB77069463846D1
:108E4000FFF754FEA0001FA108588047204600F0FD
:108E50006DFC204600F090FC2968204600F016FCCE
:108E60002979204600F034FC6979204600F04AFC5C
:108E7000A979204600F074FC29460B31204600F009
:108E800031FCE979204600F065FC11A0005D297AEB
:108E9000002906D01F210840012181400D480160B2
:108EA00009E01F210840012181400B480160BFF308
:108EB0004F8FBFF36F8F094820210155002001B06B
:108EC000F0BDC0462D96002041960020559600200A
:108ED0000506070000E100E080E100E01D0201203E
:108EE00070B50446124E3068032C05D31C21614333
:108EF00040184069804770BD1C2565434019C16812
:108F00008268511881604268914206D14069804769
:108F100031684A194859906004E000698047316817
:108F20004819806849198A692146904770BDC04632
:108F300004020120FFF73AFB15A01BA11DA2FFF7B9
:108F400037F9002000F024FC00681D4CA060FFF7FA
:108F5000B2FEFFF759FB0028FBD1FFF7B2FE00205D
:108F600000F016FCA16801600C20FFF7A3FBFA20BB
:108F700000F0EAF8042000F0AFF8012000F0D8F883
:108F80001F2000F0C3F800F00BFC00F0ADF8FEE786
:108F9000554C502052616D52756E202D2D20257339
:108FA0002C202573200D0A004465632032342032C2
:108FB0003032340031353A31303A3133000000007C
:108FC00088000120B0B584B0002403942A4D2846BF
:108FD000FFF78EFB294A28462146FFF7B5FB2846B6
:108FE00021462246FFF7DAFB01A90720C872244870
:108FF0000290244801902046FFF7F8FE28462146BB
:109000002246FFF719FC012228462146FFF704FCFF
:10901000102228462146FFF785FB28462146224696
:10902000FFF7CCFB284621462246FFF7E7FB284600
:1090300021462246FFF7A2FB022228462146FFF7DF
:109040008DFB284621462246FFF7C8FB28462146CD
:109050002246FFF739FC284621462246FFF714FC3A
:10906000284621462246FFF7FFFB28462146224696
:10907000FFF71AFC04B0B0BD0000104000600040D3
:1090800003020001404B4C00F0B581B00E4605468E
:10909000080B15D00E4FF40A3E40009600F080FBFE
:1090A0007E1C2846314600F073FAAD19641EF5D1D6
:1090B000009C002C0AD000F073FB2846214603E0F8
:1090C00000F06EFB2846314600F062FA01B0F0BDB8
:1090D000FF0700007047000002490A7802430A7047
:1090E0007047C046183410400748017820220A43D0
:1090F00002704179BF220A40427112480178012270
:109100000A4302707047C0464A34104002490022A8
:109110000A7048707047C04615341040072101405E
:10912000D6480278F8231340591801707047C0469A
:1091300041424141880003490A78FB231340181833
:1091400008707047063410404101034A1170C1088D
:109150005170C00A907070472434104010B5044616
:109160000120014600F028FACE48047010BDC04628
:10917000F0B582B0C3494A7ABB2313404B72CA7B15
:10918000EF2300931A40CA738A7EDE252A408A762E
:109190000C7FFE2214400C77CC7F7F262640CE77B2
:1091A000B94C267816402670B54CE67E1640E67619
:1091B000267FDF2737402777677FBF2637406777CF
:1091C0008F7E37408F762378F8273B402370237AB1
:1091D000134023720190012805D123793B4023716C
:1091E000237B134023730B7B33400B734B7BF7269E
:1091F00033404B738B7B2B408B73CB7B3340CB73D8
:10920000A37F1F261E40A6778B78FD261E408E70FA
:10921000A67C0198002806D02E40A674637C009896
:109220000340637402E01640A6740098237C034058
:109230002374207DFB2303402375E07F1040E077FB
:1092400008781040087088781040887002B0F0BD2F
:1092500080B50020FFF726FD80BD000005480168AD
:1092600005220A43026070470248016805229143C3
:10927000016070470420014010B50C4C6068010784
:1092800002D0FFF7D3FB10BD81060CD4000609D530
:1092900007480068002800D080470120C0032168EB
:1092A0000143216010BDFFF7CDF910BD340001402E
:1092B00018020120F0B583B0029006F0A1FE6F48BD
:1092C000007800900720FFF729FF01250195284627
:1092D000FFF7F4F96A4FF87F2843F877694C207854
:1092E00028432070A0782843A07002263046FFF75C
:1092F000E5F9F82000990840C01C6049087006F0A4
:1093000091FE217B8020009001432173617B10221C
:1093100011436173A17B42230B43A373217F31432C
:1093200021775948C1783143C170237B40210B43D9
:109330002373637B082003436373A57B21231D43B1
:10934000A573E57B0543E573B87FE0250543BD774D
:10935000A0783043A070607A442505436572E07BB5
:109360001043E073A07E1843019BA076207F184332
:109370002077E07F009A1043E077434A1078184343
:109380001070F87E1843F876387F202202433A772F
:10939000787F08437877A07E0843A076B87C02994E
:1093A000002906D063210843B874797C5020084313
:1093B00009E003210843B874B87C9F210140B974C7
:1093C000787C502188437874387C5021014339746B
:1093D000387D0C21014339753978172001433970E4
:1093E0003A7A03210A433A72FD26029A012A354647
:1093F00006D13A7902433A71387B08433873BD2568
:10940000387D184338751846FFF758F9207B7F21BF
:1094100001402173617BEF2001406173A17BBD227C
:109420000A40A273217F31402177174AD178314019
:10943000D170B97C2940B974397DF7220A403A7558
:109440003A7CBF210A403A743A7802403A703A7A3C
:1094500032403A72029A012A09D17A7C0A407A741F
:10946000397901403971387BFD2101403973387DEC
:10947000FE210140397503B0F0BDC0464F341040A5
:1094800000301040213010404130104080B5054878
:109490000078FFF76DFE80BD80B502480078FFF7C9
:1094A00009FF80BD1C02012010B5012293040E4962
:1094B0000C681C430C600B68002811D4FF242405A1
:1094C000A343C0B200051818086050040B6803439A
:1094D0000B600B6883430B6010040B68834301E04F
:1094E000100403430B6010BD0850104010B5244910
:1094F0000B68002816D40122940323430B60FF233A
:109500001B040C689C43C0B2000420180860500380
:109510000B6803430B600B6883430B6010030B68FD
:10952000834302E00120000303430B6010BDC046EB
:1095300080B513490A6800281AD404231A430A6024
:10954000FF2212010B689343C0B202019A180A600D
:109550000A6802231A430A600A689A430A600A6882
:1095600001239A430A60411C0748FEF7AFFE03E05F
:10957000012002430A6003480449086080BDC046D8
:109580000C5010400068890900B4C4041402012082
:1095900070B50C460246894D002628463146FFF735
:1095A00059F9284631462246FFF7BCF8284631468D
:1095B000FFF792F870BDC04610B5064A13680C2438
:1095C000A343C007400FC907090F081818181060F7
:1095D00010BDC046045010401348016801221143D9
:1095E00001608168114381607047C0461E48016870
:1095F0002022114301608168114381607047C04699
:109600000120400308490A6802430A608A6802434D
:109610008A6070470120000203490A6802430A6019
:109620008A6802438A607047185010400E480168EB
:109630004022114301608168114381607047C04638
:1096400009480168802211430160816811438160EB
:109650007047C0460120000203490A6802430A60BD
:109660008A6802438A6070471C501040B0B5C4003D
:10967000054D2959002901D0002088472819406844
:109680000121C160B0BDC04660000120F0B581B0CD
:109690000C4680003D490E58FEF7E4FFF168802734
:1096A0003943F160050928462146FEF70FFEC1B295
:1096B0003160010A71606043281A80012146FEF77B
:1096C00005FEC0217050F068B843F06001B0F0BDF5
:1096D0000322114080002D4B1858C368934359183A
:1096E000C1607047097801220A40C90030230B404D
:1096F0009A18C0230B40D1188000244A105881606A
:109700007047C0468000214A1058C268002903D023
:10971000022906D1082102E008210A4310218A43C8
:1097200001E018210A43C2607047C0468000174913
:109730000858882142580223134343507047C046BB
:109740008000124A1058C26F9207FCD5016008468B
:109750007047C04680000D4A1058942281507047CF
:109760004A1E914189008000084A1058C2680423AB
:109770009A435118C16070478000044908588821F5
:1097800042580423134343507047C046CC970020EF
:1097900080000249096808587047C04680000120CF
:1097A00010B5064C00212046FEF7AEFF0128F9D087
:1097B00000212046FEF786FF10BDC0460000104085
:1097C0000102040800005800B000080100600040D9
:1097D0000070004000800040189800200000012028
:1097E00044000000048100205C9800204400012017
:1097F0004400000004810020A09800200000022006
:1098000000800000D8840020A0980020880001205B
:10981000980400002081002006480168002905D135
:10982000EFF3108172B6044A11600168491C0160AF
:109830007047C046F4010120F80101200548016885
:10984000491E016000D070470348006880F310880B
:109850007047C046F4010120F801012000E1F50540
:1098600000B4C40400B4C404000000000050004070
:1098700000000000205000400000000000100040E8
:109880000000000000200040000000000030004008
:1098900000000000004000400040002000000000E8
:1098A00001FF01FF01FF01FF01FF01FF01FF01FFB8
:1098B00001FF01FF01FF01FF01FF01FF01FF01FFA8
:1098C00001FF01FF01FF01FF01FF01FF01FF01FF98
:1098D00001FF01FF01FF01FF01FF01FF01FF01FF88
:1098E00001FF01FF01FF01FF01FF01FF01FF01FF78
:1098F00001FF01FF01FF01FF01FF01FF01FF01FF68
:1099000001FF01FF01FF01FF01FF01FF01FF01FF57
:1099100001FF01FF01FF01FF01FF01FF01FF01FF47
:1099200001FF01FF01FF01FF01FF01FF01FF01FF37
:1099300001FF01FF01FF01FF01FF01FF01FF01FF27
:1099400001FF01FF01FF01FF01FF01FF01FF01FF17
:1099500001FF01FF01FF01FF01FF01FF01FF01FF07
:1099600001FF01FF01FF01FF01FF01FF01FF01FFF7
:1099700001FF01FF01FF01FF01FF01FF01FF01FFE7
:1099800001FF01FF01FF01FF01FF01FF01FF01FFD7
:1099900001FF01FF01FF01FF01FF01FF01FF01FFC7
:0499A00001FF310092
:04000005200080C196
:00000001FF
