:020000040800F2
:10010000F0120020D1020008692E00086B2E0008B2
:1001100000000000000000000000000000000000DF
:100120000000000000000000000000006D2E00082C
:1001300000000000000000006F2E0008712E000873
:10014000732E00087D2E0008872E0008912E0008CF
:100150009B2E0008A32E0008A52E0008A72E00083D
:10016000A92E0008AB2E0008AD2E0008AF2E000807
:10017000E3020008B12E0008B32E0008E3020008D5
:10018000E3020008BB2E0008E3020008E3020008B7
:10019000E3020008E3020008E3020008E3020008AB
:1001A000BD2E0008BF2E0008C12E0008C32E000877
:1001B000C52E0008C72E0008C92E0008CB2E000847
:1001C00000F002F800F058F80CA030C808382418E5
:1001D0002D18671EA246AB4654465D46AC4201D17F
:1001E00000F04AF87E460F3EB6460FCC0126334259
:1001F00000D0FB1A3343A246AB4618478474000074
:10020000D4740000103A02D378C878C1FAD85207E3
:1002100001D330C830C101D504680C6070470000BC
:100220000023002400250026103A01D378C1FBD812
:10023000520700D330C100D50B60704710B5662956
:1002400002D106F0C5FF10BD642902D103F082FB84
:1002500010BD732902D104F086FB10BD002010BD33
:100260001FB504F02DFC04000020002106F0DEFE86
:10027000E0601FBD10B510BD03488546FFF7F0FFD5
:1002800000F0B6F805F03AF80010002003B4FFF7CC
:10029000F1FF03BC00F061F870B505460C46164648
:1002A00002E00FCC0FC5103E102EFAD2082E02D35A
:1002B00003CC03C5083E042E07D301CC01C5361F6D
:1002C00003E021782970641C6D1C761EF9D270BD84
:1002D0000748804707480047FEE7FEE7FEE7FEE7DE
:1002E000FEE7FEE704480549034A044B7047000057
:1002F00031070008C1010008F0120020F0120020B0
:1003000080B5C1B2002002F0C5F980BD10B500244F
:10031000204602F0EFF90146204602F0BBF910BD7D
:100320000020C04370470120000270470020704742
:10033000002070470020704780B5C1B2002002F055
:10034000A9F980BD012070470020C04370470020FC
:1003500070470020704700207047FEE7002070477C
:1003600080B501F0B1F980BD80B501F0C9F980BD5B
:100370000120704780B502A003F022FB80BDC0467B
:1003800053797374656D206973204C6974746C655E
:100390002D456E6469616E0070B588B06B46D321DF
:1003A000D9700A219970A521597055211970458875
:1003B00000249C715D710122002D164600D12E464D
:1003C000DE712D0A1D7185885D722D0A1D724078BF
:1003D000DC7298726846805C89B20918521C0C2A3B
:1003E000F8D1684601730D2103F03CF908B070BDE7
:1003F00098B02320C000524C261802F0CBFB02F02C
:10040000BDFB02F03BFC4F4D2E6002204E4902F036
:1004100007FB15A900268E71FF20C8724B48888003
:10042000E12040021590304600F064FA01F0D6F861
:1004300002F0B0FB02F0A2FB02F020FC204603F029
:1004400059F900F095FB00F011FE41480168406841
:1004500011901091032010A900F0E4FB3D48119089
:100460003D4814903D4810903D48139028681290E4
:10047000042010A900F0D6FB03F0B6F8304606F0D1
:10048000D9F806F0CBF8374F0B96099603E0002019
:10049000386006F049FD3868002801D100BFFAE74E
:1004A00006F048FD3868012801D12C6806E038685C
:1004B0000228ECD10120000229680C1800263E60B9
:1004C00006F032FD002CE6D00F960D960C960CA887
:1004D000694648600FA808604022012120460B466B
:1004E00000F060F80F98079003F083FD1E4A1F4B41
:1004F00003F08AFD02460B460B98099C21460892A0
:100500000A9306F063FD0C9A0D9B69468A60CB60E6
:10051000079A0A60002800D10A9C4C610028089CB8
:1005200000D10B940B98086111483146324633468E
:1005300003F0A2F906F072F80B940A9EA5E7C046F4
:1005400000000120D412002000B4C4040302000003
:10055000B872000801004000750500080920042059
:100560008D050008BC110020C3F5285C8FC209402E
:100570006C74000803480221016003488168491C2B
:1005800081607047BC110020000001200348012158
:10059000016003488168491C81607047BC110020DC
:1005A00000000120F0B593B00E92089103900193E2
:1005B000012B00DA94E01998069018980590089A93
:1005C00010460E9948438000009090000D90002046
:1005D00002900898012878DB089902984143079116
:1005E00000200399049003466A460E9801280B9157
:1005F0000A9309924DDB0027F8430F903948119078
:100600000C9712910C6820B203F0F3FC02460B46E3
:1006100003F0FAFC05460E46201403F0EAFC0246FD
:100620000B4603F0F1FC2A46334603F06DFC06F05E
:10063000D9FC04460E4600252A462B4B06F0B9FC91
:1006400000281ED11094204631460F9C2246119B53
:1006500006F0A4FC012100280A4600D10246062F1C
:1006600000D829461140002900D1119E002900D14F
:1006700010940029384600D10C9810990F911196CA
:100680000C9012990D9809187F1C0E98B842B8D199
:1006900005E00499C8430F90124811900C910798F7
:1006A0000A9B18188100059A0C9C5450C0000699AA
:1006B0000F9A0A500818119941600B99091D5B1C8B
:1006C00009988546089883428ED10398009940186E
:1006D00003900299491C01980291814200D078E769
:1006E00013B0F0BDFFFFEFFF00409F4070B50C4618
:1006F00003F07FFC02460B4603F086FC05460E46DF
:10070000204603F076FC02460B4603F07DFC0246D1
:100710000B462846314603F0F7FB06F063FC70BD3C
:1007200001480249016070474410002000E1F505CE
:10073000074808490160AF4820210160BFF34F8F8F
:10074000BFF36F8F62B60448044901607047C0462A
:1007500008ED00E0000100084410002000E1F5056C
:1007600010B5044602F0B0F806480121017002F00D
:10077000B3F80549087002F0B1F8204600F006F819
:1007800010BDC0462412002028120020F0B581B010
:100790000024052822D83C4A3C4B3D4E800003A152
:1007A000085835461F4611468746C046C707000809
:1007B000C5070008E3070008E1070008FD07000877
:1007C000FB0700081D46344801210170002002F09B
:1007D00087F8022002F0B0F8FF2421E0E44350E063
:1007E00017462D480121017020461E4602F078F878
:1007F000022002F0A1F83D4612E026490F46264E9F
:1008000001253570204602F06BF8022002F094F8C2
:1008100030780028284600D1E0431B4E3D46044670
:1008200060B202F0A3F81D4806601D4885420BDC4B
:100830001848854215D0144885420DD116480078D5
:10084000002812D0012016E01148854210D00F4830
:10085000854201D100200EE00024E04302F0B6F80A
:100860000FE00D480078002804D10020C04302E0CA
:10087000FF2000E0022040B202F0A8F8094805601D
:100880000024204601B0F0BD005A620200B4C40446
:1008900000688909002D3101241200204810002031
:1008A000FFB3C4044C100020014800687047C046E4
:1008B0004C100020014800687047C04648100020D6
:1008C000014800787047C0462812002080B50248D1
:1008D000007802F09FF880BD2812002010B5044671
:1008E000034800687D21C90003F0E1F8604310BDB2
:1008F00048100020F0B583B0022801D902246BE033
:100900000E46054602A8002484708121490001801A
:10091000022D0CD0012D10D0002D21D102AFBC70C2
:100920000620394602F004FCBC70072015E002AF37
:1009300001200190B87000200AE002AF0120B870D9
:100940000920394602F0F4FB03200190B870022020
:10095000394602F0EDFB0198B870394602F0E8FB29
:10096000A8001FA108588047284601F09BFF284691
:1009700001F08CFF3168284601F00CFE31792846E1
:1009800001F050FE7179284601F058FEB1792846F1
:1009900001F06AFE31460B31284601F065FFF1791E
:1009A000284601F06FFE11A0405D317A002906D083
:1009B0001F210840012181400D48016009E01F21ED
:1009C0000840012181400B480160BFF34F8FBFF306
:1009D0006F8F094820214155204603B0F0BDC04625
:1009E000152D0008452D0008752D00080506070087
:1009F00000E100E080E100E0D012002010B50446E4
:100A0000800003A10858804704480021015510BD0B
:100A10002D2D00085D2D00088D2D0008D01200201E
:100A20000149085C7047C046D0120020B0B50446AA
:100A3000074D21202855204601F038FE0021204690
:100A400001F064FE0028F9D0202028550020B0BD18
:100A5000D0120020F0B581B0022801D9022017E0A1
:100A600004460C4F385C202811D1154622203855F9
:100A7000002A08D00E46204601F03CFE30706D1E64
:100A8000761C002DF7D120203855002000E00A20E8
:100A900001B0F0BDD012002070B582B00D46014605
:100AA0000078022801D902200FE014460E6901F0F7
:100AB00005FF024601206946086030462946234664
:100AC00001F039FB002800D00A2002B070BD70B5DB
:100AD00082B00D4601460078022801D902200FE0BD
:100AE00014464E6901F0EAFE014601206A46106094
:100AF00030462A46234601F01EFB002800D00A207B
:100B000002B070BD70B582B00D4601460078022873
:100B100001D902200FE014460E6901F0CFFE024613
:100B200001206946086030462946234601F042FA12
:100B3000002800D00A2002B070BD70B582B00D460A
:100B400001460078022801D902200FE014464E69C0
:100B500001F0B4FE014601206A46106030462A4684
:100B6000234601F027FA002800D00A2002B070BD09
:100B700080B505F019FA024805F03CFA80BDC04680
:100B8000850B0008F0B581B00446032806D31C206D
:100B90006043104908184069804718E01C266643E6
:100BA0000C488519E868A9680818A8602F46083716
:100BB0006968884205D1686980470648805938606D
:100BC00002E0286980473868AA692146904701B049
:100BD000F0BDC0463C1100201C2343430248C0180E
:100BE000024B10300EC070473C110020F10B000882
:100BF00080B54A1E022A09D21C224A430649891896
:100C0000C9684908091805F023F904E0002902D150
:100C100005F030F980BD80BD3C11002080B505F0A5
:100C2000A9F980BDF0B589B0062800D979E10C4654
:100C30007844007940008744030A1A48585FA200AC
:100C40002068C10700D0BEE000200146DCE020782B
:100C5000002800D00120617805F072FA2078002881
:100C600000D15EE16178606805F058FA59E12568C5
:100C7000280C00F061F90590E06808902769606928
:100C800021890791E1880691A688A74988660124F1
:100C90002846204005F0A4F9684607602801202175
:100CA00001401F20059A10404018310440182904C3
:100CB000890C069A12045118079A089B05F0ECF962
:100CC0000321204605F09AF92BE12078002800D076
:100CD0000120617805F02CF92078002800D120E16E
:100CE0006178606805F008F91BE12768F80700D013
:100CF00092E000200121D0E02668F00700D10BE14E
:100D00006568A8B200F018F90490280C00F014F9F6
:100D10000590208907906189A3892269824D8348C3
:100D20002865AA63069318460891484381000291FA
:100D30003007C00F484340182A6403906864B00825
:100D4000012303407F27BD00B1092940C9187B0258
:100D5000F50A1D4049191546022318400818049940
:100D6000090447180298801804903006400F00D1FB
:100D70009BE060696C4988640398400097E0A27822
:100D80006578207846082846314600F03DF9A07085
:100D9000E2782846314600F037F9E070E27961796F
:100DA000A07900F031F9E071606804F0C9FB2068B7
:100DB00004F0A8FBA06804F05BFB22460C3207CAD3
:100DC00004F05CFBADE06268574B584999619A604A
:100DD0001A60050C0104C90C4D436E008507ED0F28
:100DE0002F467743BE19DE60470702D5A7681F610B
:100DF0007600B6185E60E6685E614E4B18402818B3
:100E000005F046F80120002105F0F8F821680120DE
:100E1000084005F067F884E03804000D00F08CF815
:100E20006268A5684049414B4B634D62CD61160C29
:100E300012040892930B039673437A07D60F324637
:100E40005A43D2188A620007C00E861958190490B6
:100E50003B0D3803000F059038070796069302D51F
:100E6000E068C8625200039E501908622069086356
:100E700002200740780805F073F86846049901607D
:100E800008980799081806990904059A891832469E
:100E90002B4604F047FF0120014605F0AFF821681A
:100EA0000120084004F078FF3BE01F4903984019F7
:100EB000C863A069C8641E40700805F051F8684610
:100EC00004990160059880B20799090409180698E9
:100ED0000004089A821838462B4604F065FF2078F3
:100EE000C0060BD40025284604F0E0FA284604F09A
:100EF000E9FA0120022105F081F80DE0002002212D
:100F000005F07CF80A4804F0D9FA0125284604F0D7
:100F1000CDFA284604F0D6FA21680120084004F0F2
:100F20008DFF09B0F0BDC0463C110020F10B000858
:100F3000D90F00080000FFFF3F2809DC072815DD56
:100F400008281FD010281FD0202827D1052070473F
:100F5000FF2811DD01210A02904217D08A02904237
:100F600016D04902884219D109207047022811D0B1
:100F7000042813D10220704740280DD080280DD1BD
:100F800007207047032070470420704708207047EF
:100F90000A20704701207047062070470020C04398
:100FA000704780B5002004F0F7FE80BD80B50120B9
:100FB00004F0F2FE80BD80B5002004F03FFF80BD4C
:100FC00080B5012004F03AFF80BD80B5032801D12F
:100FD00005F09AF880BDC04610B50A4C606C216CD3
:100FE00008182064E16B884204D1E06C8047A06B54
:100FF000206402E0A06C8047206C226D02219047A3
:1010000010BDC0463C110020B0B5441A012C04D0DC
:10101000022C04D10120850705E07F2002E0062C88
:101020001AD28120C505104603F018FA0146284659
:1010300006F076F80546204603F010FA01462846E9
:1010400003F030F903F004F90022074B02F05CFFD3
:1010500002F08AFF80B2B0BD092C01D30025E2E77F
:1010600041200506DFE7C0460000E03F10B5D2B0E2
:101070005120820001AC07492046FFF70DF92046B8
:1010800000F018F8002802D003A002F099FC52B03A
:1010900010BDC046C07200084552524F523A2072ED
:1010A0006164617220696E6974206661696C210DEA
:1010B00000000000F0B5ABB0054609A8002484701C
:1010C000048001F05BFD089528461830372109019E
:1010D00003915F21CE432546B300C71817231B0198
:1010E000FB58934A934210D8039A78325A438B00A4
:1010F000FB5807685F43BA188E4B9A4205D26D1CA5
:101100001830072DE8D9012000E02046089F28ADBF
:10111000287038786870A81C791C072202F066FCD9
:10112000284605F093FA26A90220888001252695F5
:10113000E0B205F0D5FE641CE0B20828F3D30495B4
:1011400032465F3219200001019000252C46079598
:101150000296069238198668C268076943698169F0
:101160000596149615921697179314AA049F17754F
:10117000079F1B97189106221C9250221A924B43EC
:101180006D498B4201D83A4600E08222089F029EB8
:101190001F928B4202D8079B194604E07D2109016A
:1011A000059B5918079B1E91C0690028194608D055
:1011B0001146039B19438842019902D95F49891A54
:1011C00009181D91E8B214A905F052F81D98069A65
:1011D0009042014600D31146002800D11146183430
:1011E0006D1CC02C0A46B4D100913846CC30079013
:1011F0003846CB3006903846CA3005903846C9305C
:1012000004903846C830039000242746039880197C
:101210006022805C10A9087004988019805C487076
:1012200005988019805C887006988019805CC87069
:1012300007988019805A8880089880191322150110
:101240004059CC8012941390F8B205F009FE0C3688
:101250007F1C002EDAD12520C000089F38580A9044
:101260004B20800038580B90785DFF2421463231A6
:10127000795C0902081899214900795C22463432C8
:10128000BA5C12025118090408189B214900795CC4
:1012900022463832BA5C4D239B00FB5C254636352E
:1012A0007D5D0D902802C01812025118090408181B
:1012B0000E902720C000395C0AA8017500260C9604
:1012C00005F048F90198009981423D4601D2142069
:1012D00005E008098E28204601D8C8081E38C0B28B
:1012E00005F0DAF84F208000295C20A84170697869
:1012F00001709F214900695AC18005218901695CFB
:10130000C1704234295D867001710D4925910D49E6
:1013100024910D4923910F21C904229105F0C8F8A9
:1013200009A8067005F000F930462BB0F0BDC046A4
:1013300060EA00000187930380841E0020FEFFFF07
:10134000401FD007D007E8037800A00F10B504466F
:1013500001F014FC204604F07FFF002010BD80B592
:1013600005F062F905F03EFD80BD80B505F042FD57
:1013700005F054F980BD80B501F00CFC002080BD63
:1013800010B584B0002002900190009005F09EFB03
:1013900003A90870FF280AD103AC204600F0D8F852
:1013A000054800902078694600F02AF8207805F07A
:1013B00055FB04B010BDC0460400000180B505F027
:1013C0005FFB80BD80B505F0A7FD80BD80B505F051
:1013D00097FD80BD80B5C000024A1258084690476C
:1013E000002080BD2474000810B50C46C0000349DD
:1013F0000818406880472060002010BD2474000851
:1014000070B50D460446032817D8A00001A108585E
:101410008746C046251400082B1400083114000824
:101420003714000801F0C0FC07E001F0C9FC04E03B
:1014300001F0D2FC01E001F0DBFC2978204601F04C
:101440008DFF032060432978164A115410186978DB
:10145000012282704170E878002807D06968204630
:1014600002F010F8204601F08FFF02E0204601F064
:10147000A5FFA968481C04D0204600F015F80646D0
:1014800001E00020C6432046314601F0E1FF20463E
:10149000314601F0CDFFA878002802D0204601F0A7
:1014A000A7FF70BD79120020B0B50C460325454357
:1014B000FFF700FA12494D5D124902F0F8FA042DC7
:1014C0000AD8C0467D442D796D00AF4402080B0E4A
:1014D00015004443240910E00020C4430DE04443B8
:1014E00064090AE04443A40907E060017D21C900C2
:1014F00002F0DDFA044600E044432046B0BDC04699
:101500007912002040420F0010B50446032816D877
:10151000A00001A108588746291500082F150008CA
:10152000351500083B15000801F06EFC07E001F0DE
:1015300077FC04E001F080FC01E001F089FC03206D
:101540006043024908180021817010BD7912002003
:1015500010B50021074B0A46032454431C19A478F4
:10156000002C04D0521C042AF6D30A21FF22027058
:10157000084610BD7912002070B514460E46054687
:1015800001F042FF284601F06BFF28463146FFF785
:101590008BFF0146284601F05BFF0021284601F041
:1015A00047FF2846214601F06DFF70BD80B501F070
:1015B0001FFF80BD80B501F027FF80BD10B503215E
:1015C0004143054A541801F02BFF6178002901D0EE
:1015D0000021C943484010BD7912002070B582B087
:1015E00001F066FF6D46284601F078FF01242C705B
:1015F0006C8000262846314601F078FF284601F02D
:101600006DFFEE702C702846214601F06FFF3046CA
:1016100001F096FF204601F093FF0348102101607E
:101620000248016002B070BD80E200E000E100E02D
:10163000F0B583B0009316460F46054601F0B0FFA3
:10164000002808D0284601F087FF104810210160CB
:10165000284601F08DFF01AC204601F03FFF2770C6
:101660002046294601F042FF01F072FA084902F0D3
:101670001EFA464300212846324601F055FF28460F
:10168000009901F087FF03B0F0BDC04680E200E0A2
:1016900040420F0070B514460D46064601F058FA58
:1016A000044902F004FA444330462946224601F038
:1016B0003BFF70BD40420F0080B501F041FF80BD8F
:1016C00080B501F049FF80BDB0B582B0054601F09C
:1016D0003FFA0A4902F0EBF904466C430BD00120B3
:1016E00001F050FF0546012001F04CFF01900198E8
:1016F000281AA042F7D302B0B0BDC04640420F0046
:1017000080B57D21C9004843FFF7DEFF80BD80B56D
:10171000012001F037FF80BD70B5044601F018FAD2
:101720000546012001F02EFF06460449284602F036
:10173000BEF90146A01B02F0BAF970BD40420F008D
:1017400080B5054810210160BFF34F8FBFF36F8F45
:1017500001F0B2FE80BDC04680E100E0F0B583B08C
:10176000002800D183E0054600683C4CA04200D030
:10177000E6E16E68042E00D3E7E1E8680C21014041
:101780000C2900D1E6E160210140602900D1E6E1A9
:101790000321CA0103461340934200D1E4E1490208
:1017A0000840884200D1E4E1402000212954412032
:1017B000022129542046314603F01AFF28464130C1
:1017C00002902046314603F0EBFF0028F9D10022B9
:1017D00020463146019204F055F92046314603F087
:1017E00039FF2046314603F00DFF2046314603F015
:1017F0001DFF2046314603F023FF2046314603F00B
:101800000BFF2046314603F0E9FE2046314603F047
:10181000BDFE2046314603F0CDFE2046314603F0A2
:10182000D3FE2046314603F0BBFEA868471E0A2FB0
:1018300000D3A3E12046314603F0B2FF002800D0D8
:10184000A6E0092F00D9A3E07F443F797F00BF4481
:1018500007173044106D81568960C0460000104063
:101860000027204631463A4604F01AF902E00120EA
:1018700064E10027204631463A4604F005FA44E088
:101880000027204631463A4604F00AF92046314600
:101890003A4604F0F9F9204631463A4604F056F843
:1018A000204631463A4604F001FA012220463146EC
:1018B0006CE00027204631463A4604F0F1F8204615
:1018C00031463A4604F0E0F9204631463A4604F003
:1018D0003DF801222046314636E0002720463146B9
:1018E0003A4604F0DDF8204631463A4604F0CCF999
:1018F000204631463A4604F029F8012721E001222A
:101900002046314604F0C0F90027204631463A46C9
:1019100015E00127204631463A4604F0B5F9204645
:1019200031463A4604F012F800270AE00027204624
:1019300031463A4604F0A8F901222046314604F027
:1019400005F8204631463A4604F0B0F920463146C3
:101950003A461BE0002200922046314604F094F9FA
:10196000012706E0012200922046314604F08CF95E
:101970000027204631463A4603F0E8FF204631462C
:101980003A4604F093F920463146009A03F0EEFF00
:10199000EA692046314604F083F8E8684006420FC1
:1019A0002046314604F0AEF9E8680007420F2046B1
:1019B000314604F02DF8E8684005820F2046314694
:1019C00004F0D4F8E868C005820F2046314603F0E1
:1019D0006BFFE868C003420F2046314604F0D6F89A
:1019E000E8688004420F2046314603F06DFFE86846
:1019F0008003C20F2046314604F0EAF82A6A100B31
:101A000000D0C0E0686A000D00D0C1E001273803B3
:101A100000902046314604F0CBF86A6A20463146F1
:101A200004F0E8F8E8684003C20F2046314603F0AE
:101A3000B9FFAA6A0098824200D3AEE000973F0542
:101A4000E86AB84200D3ADE02046314603F09CFF7F
:101A5000EA6A2046314603F0B5FFE8684002420FCB
:101A60002046314603F0FEFF686907220240204607
:101A7000314603F0F1FE68690007C20F2046314687
:101A800004F0F0F86869C006C20F2046314603F042
:101A90004DFF686901070CD4020C2046314604F062
:101AA000BDF8A869C003C20F2046314604F0C8F84B
:101AB0006869C0060BD42A8B2046314603F016FF16
:101AC000A8698003C20F2046314603F01FFFA869B2
:101AD000C002C20F2046314604F004F9A869800212
:101AE000C20F2046314603F085FFA869384201D075
:101AF0002A6B00E000222046314604F0E7F8009F00
:101B0000A87E800601D4002200E06A6B20463146A0
:101B100003F066FFA8694002C20F2046314603F079
:101B200085FFA8690002C20F2046314603F08CFFF2
:101B3000204603F0A5FD02980770019803B0F0BDA0
:101B40006D201B491BA200F075F86E2018491FA2DA
:101B500000F070F870201649354A00F06BF87120DB
:101B60001349324A00F066F8722011492E4A00F0FB
:101B700061F873200E492B4A00F05CF898200C495C
:101B800018A200F057F8A6200949224A00F052F89E
:101B9000A7200749204A00F04DF8AC2004491F4A0D
:101BA00000F048F8AD2002491D4A00F043F8C04655
:101BB0007276000849535F444D415F494E5354418A
:101BC0004E434528646D61782900000049535F4405
:101BD0004D415F4348414E4E454C286368616E78E5
:101BE0002900000049535F444D415F5452414E5318
:101BF0004645525F545950452868646D612D3E69D1
:101C00006E69742E7472616E736665725F7479703A
:101C1000652900000E760008967500083F760008DA
:101C2000D1750008C8740008FE74000834750008F7
:101C30006575000882B00B4604466846026003A042
:101C400009A1224601F018FEFEE7C0465B25733A63
:101C500025645D5B25735D2061737365727420403C
:101C60002025730D0A0000002E2E2F2E2E2F2E2E33
:101C70002F2E2E2F2E2E2F706C6174666F726D2F8B
:101C800068616C2F7372632F68616C5F646D612E85
:101C900063000000F0B583B0002806D00146412063
:101CA000085C022803D1022502E1012500E14E680B
:101CB000042E00D3FFE00846413002900F683846FA
:101CC0000191314603F094FC0025384631462A46FE
:101CD00003F042FF384631462A4603F0DBFD02227C
:101CE0003846314603F0A6FD384631462A4603F011
:101CF000CBFF384631462A4603F028FE03223846F9
:101D0000314603F0AFFE384631462A4603F04AFE1C
:101D1000384631462A4603F05BFF012438463146F7
:101D2000224603F033FF38463146224603F0CCFD0D
:101D3000384631462A4603F019FF384631462A46CE
:101D400003F0B2FD384631462A4603F0DBFF384641
:101D500031462A4603F05CFE38463146224603F0FF
:101D600091FE384631462A4603F058FF3846314640
:101D70002A4603F0BBFD384631462A4603F0B2FF3F
:101D8000384631462A4603F035FE3846314622466B
:101D900003F0D4FE384631462A4603F047FE384663
:101DA00031462A4603F050FE384631462A4603F0B3
:101DB000DDFD384631462A4603F078FF3846314685
:101DC0002A4603F03DFF384631462A4603F09EFD81
:101DD000384631462A4603F071FE384631462A46D7
:101DE00003F08CFE384631462A4603F077FE38462B
:101DF00031462A4603F092FE38463146224603F029
:101E000031FF38463146224603F090FD38463146D0
:101E10002A4603F02FFD384631462A4603F01CFDC2
:101E2000384631462A4603F0C3FE384631462A4634
:101E300003F0E0FE384631462A4603F0A5FD384659
:101E400031462A4603F0BEFD3846314603F002FC17
:101E50003846314603F0D6FB3846314603F0F0FBF6
:101E60003846314603F0D8FB3846314603F0DEFBF6
:101E7000019C20464830182101F017FE38463146B3
:101E800003F0ACFB3846314603F080FB3846314660
:101E900003F09AFB3846314603F082FB3846314660
:101EA00003F088FB214625660298057040202554E2
:101EB000284603B0F0BDFD2001A105A2FFF7BAFE40
:101EC00068616C5F646D615F6465696E6974000070
:101ED00049535F444D415F4348414E4E454C28684D
:101EE000646D612D3E696E69742E6368616E6E6506
:101EF0006C29000010B500281ED0002404600121C8
:101F00004160C1680E4A0A40C26081680D4A0A40B9
:101F1000052109025118816001690B4A0A400B49E9
:101F20005118016141690A4A0A4009324261183078
:101F30001C2101F0BAFD00E00124204610BDC0467E
:101F400000E0FFFF000088E7E0FF00001800080045
:101F5000000003C0F0B581B0002823D000291FD0B5
:101F60001C304A1E00920623DC430023A4001F46B7
:101F7000035105196B60AB606B61AB612E690B4A55
:101F800016402E61EE680A4A1640761CEE60009AF2
:101F9000974201D2083528601C307F1CB942E7D136
:101FA000002000E0012001B0F0BDC04600E0FFFFCE
:101FB000000088E7F0B583B005464020285C022485
:101FC000012829D0284640302E6802966F680126E5
:101FD00006704126AE5D012E1CD10898019028465E
:101FE00041300224047000242C66284600F017F8C3
:101FF000029E3046394603F0BDFA0198A863EC63AF
:1020000030463946224603F03DFD3046394603F05E
:102010002BFB01E000210170204603B0F0BDF0B5BC
:1020200081B01C4615460A46C0C83046394603F002
:1020300093FD304639462A4603F02CFC304639469B
:10204000224603F0F7FB01B0F0BDF0B581B00028E7
:1020500031D004464120205C02282ED12046413058
:10206000009060CC28463146083C03F0F3FA28463D
:10207000314603F0C7FA2846314603F0E1FA284614
:10208000314603F0BFFA2846314603F0CFFA28461E
:10209000314603F0ADFA3120C7432846314603F0FC
:1020A0007FFB00280DD07F1CF7D104202066032081
:1020B000009908701DE001201EE01020206601201C
:1020C00017E02846314603F089FA2846314603F0E6
:1020D0005DFA2846314603F077FA2846314603F088
:1020E0005FFA2846314603F065FA0120009908702E
:1020F000002040210022625401B0F0BD70B50446BA
:1021000060C808382846314603F04AFB0028F9D158
:102110002846314603F0FCFA002801D0012100E0F6
:1021200004214122A15440210022625441424141F4
:102130002166084670BDF0B583B007464020385C84
:102140000224012800D18CE00194384640303E68DA
:102150007C6802940125057041243C5D012C45D129
:1021600001950898009038464130022404700024FC
:102170003C663846FFF753FF3046029D294603F080
:10218000F9F90098B863FC633046294603F012FA67
:102190003046294603F022FA3046294603F0F6F984
:1021A0003046294603F010FA3046294603F0F8F984
:1021B0003046294603F088FA3046294603F06CFA87
:1021C0003046294603F098FA78690107354611D45C
:1021D000020C2846029E314603F020FDB869C00378
:1021E000C20F2846314603F02BFD13E00021017099
:1021F000019C36E0F8684002400F0728019A029ED1
:1022000009D811468140B420014204D02846314605
:1022100003F066FA019A387DC0060CD43A8B284642
:10222000314603F063FBB8698003C20F284631468C
:1022300003F06CFB0CE0F8684002400F072807D859
:102240008240E220024203D02846314603F030FAB1
:1022500001222846314603F015FC2846314603F09A
:1022600003FA204603B0F0BD80B5014601200029E5
:102270000BD041228A5C022A08D10A46413203C9A6
:102280000523137003F0B4F9002080BD10220A6604
:1022900080BDC046F0B581B0044660C828463146CE
:1022A00003F05AFA00280FD02846314603F09CFA72
:1022B000002809D02846314603F0B8F928463146AF
:1022C00003F078F9012020662846314603F05CFAD5
:1022D000002869D02846314603F09EFA002863D0D2
:1022E000E06B401CE063A16804291ED1A16B884209
:1022F00000D2E8E0A16C002901D0204688470022E6
:102300002846314603F0BEFB2846314603F066F905
:102310002846314603F058F92846314603F040F983
:102320002846314603F032F9CDE0A16C002901D0F6
:10233000204688472846314603F050F92846314662
:1023400003F024F92846314603F03EF92846314689
:1023500003F026F92846314603F07CF92846314639
:1023600003F050F92846314603F06AF92846314611
:1023700003F052F92846314603F058F94120205C19
:102380002746413705280AD1E16D002901D02046B2
:1023900088470120387040200021215493E001201B
:1023A00038704020002121542846314603F0BCF902
:1023B00000283FD02846314603F0FEF9002839D0E6
:1023C000E06B401CE063A16B491E884221D1A068EC
:1023D000801E07281DD8C0467844007940008744F5
:1023E00003070D18180718030022284631460EE08F
:1023F00000222846314603F059FC0AE0002728460F
:1024000031463A4603F052FC284631463A4603F03C
:10241000ADFA216D002901D0204688472846314673
:1024200003F0D2F82846314603F0BAF82846314680
:1024300003F0ACF82846314603F09AF900280ED094
:102440002846314603F0DCF9002808D0616D0029E8
:1024500001D0204688472846314603F0B5F8284683
:10246000314603F06DF900280ED02846314603F0BE
:10247000AFF9002808D0A16D002901D02046884777
:102480002846314603F08CF8206E00281BD0206EC1
:10249000C00713D04120052121542846314603F0BE
:1024A000A7F8274641372846314603F079F9002836
:1024B000F9D101203870402000212154E16C00291D
:1024C00001D02046884701B0F0BDC046B0B50346F4
:1024D0004020185C012801D10220B0BD1C464034C8
:1024E0000120207041255D5D012D14D1052912D8F0
:1024F0007944097949008F44020406080A0C9A6459
:1025000008E0DA6406E01A6504E05A6502E09A65BC
:1025100000E0DA65002000212170B0BDB0B5402296
:10252000825C012A01D102222CE0044640340123BE
:1025300023704122825C0025012A2A4621D10629E6
:102540001A461ED87944097949008F440306090CBC
:102550000F1215000022826413E00022C26410E012
:10256000002202650DE0002242650AE00022826539
:1025700007E00022C26504E04830182101F095FA16
:102580002A4625701046B0BD4121405C7047006E60
:1025900070470000F0B581B00C4680000E490E581F
:1025A00000F0D6FAF16880273943F1600509284622
:1025B000214601F07CFAC1B23160010A71606043CA
:1025C000281A8001214601F072FAC0217050F0688B
:1025D000B843F06001B0F0BD18740008B0B58200D7
:1025E0000C4B9C58E26F5207FCD5E26FD207FCD12E
:1025F000094A20231360BFF34F8FBFF36F8F074A41
:102600001360656800226260054A1360FFF7C2FF2D
:102610006560B0BD1874000880E100E080E200E071
:1026200000E100E0032211408000034B1858C3680A
:1026300093435918C1607047187400088000094A14
:102640001058C268002903D0022906D1082102E0EF
:1026500008210A4310218A4301E018210A43C2607D
:102660007047C046187400088000054A1058C268B8
:102670000423002901D01A4300E09A43C260704746
:10268000187400088000024A105894228150704744
:10269000187400088000044A1058C26F9207FCD5D5
:1026A000016008467047C04618740008B0B5002A9B
:1026B0000BD08000054B18580023CC5CC56FAD07CC
:1026C000FCD504605B1C9342F7D1B0BD18740008C0
:1026D0000A78002A0BD08000054B1858C36F9B075F
:1026E000FCD502604B1C4A78002A1946F6D1704787
:1026F00018740008800004490858C16F0907FCD508
:102700000068C0B27047C0461874000805290DD88B
:102710007944097949008F44020B10171F26800065
:102720001449085840694006C00F704700207047A0
:1027300080001049085841690BE080000D49085895
:1027400040698007C00F704780000A490858C06F71
:102750004108012088437047800006490858C06F2F
:10276000C006C00F7047800002490858C16F0120A1
:102770000840704718740008182343430248C018E3
:10278000890042507047C04688120020042909D8A9
:1027900049B2890004A251588000084A1058426882
:1027A0000A4342607047C04602000000010000007A
:1027B0000100000004000000080000001874000878
:1027C000042909D849B2890004A251588000084A56
:1027D000105842680A4042607047C046FDFFFFFF44
:1027E000FEFFFFFFFEFFFFFFFBFFFFFFF7FFFFFF07
:1027F0001874000880B581000B4A51588A680F216F
:1028000011400C290FD8094ACA40D2070BD0182210
:10281000424307488018890006A251588900405851
:10282000002800D0804780BD18740008D510000033
:1028300088120020040000000400000000000000D6
:10284000040000000100000004000000030000007C
:102850000500000004000000040000000400000067
:102860000400000002000000097801220A40C900AB
:1028700030230B409A18C0230B40D1188000024A25
:10288000105881607047C0461874000880000449E1
:102890000858882142580423134343507047C046C8
:1028A00018740008800004490858882142580223FF
:1028B000134343507047C046187400088000014914
:1028C00008587047187400080148024901607047B1
:1028D0002C120020005A6202002070477047C04648
:1028E00010B5012293040E490C681C430C600B6860
:1028F000002811DBFF242405A343C0B200051818EB
:10290000086050040B6803430B600B6883430B6043
:1029100010040B68834301E0100403430B6010BDF7
:10292000085010400120800402490A6882430A606E
:102930007047C046085010400B49022806D00128B5
:1029400009D000280ED10868086009E0012042077C
:102950000868104305E0012000070A6802430A6086
:10296000086808607047C0460850104080B5134999
:102970000A6800281ADB04231A430A60FF221201A6
:102980000B689343C0B202019A180A600A680223D6
:102990001A430A600A689A430A600A6801239A4344
:1029A0000A60411C074801F082F803E0012002435D
:1029B0000A6003480449086080BDC0460C501040BE
:1029C0000068890900B4C4042C12002010B5104915
:1029D0000B68002816DB0122940323430B60FF23BE
:1029E0001B040C689C43C0B200042018086050030C
:1029F0000B6803430B600B6883430B6010030B6889
:102A0000834302E00120000303430B6010BDC04676
:102A10000C5010407047C04600487047005A620290
:102A200070B5022829D0012810D000287ED10120BD
:102A300001073F4A13688B431360400711688143C5
:102A400011607D2000023E49086070BD384D286845
:102A5000042202432A603B4C204601F028F8364904
:102A600002040A4600D0421893B228688B421CD157
:102A7000012108432860354830E00126B0042C4D80
:102A80002A6802432A602B4C204601F010F82A499C
:102A900002040A4600D0421893B228688B4228D11B
:102AA000491C0843286025483AE0274B103318405A
:102AB0000B460F3B16011E4006432E60286802237A
:102AC00018432860286898432860286801239843A1
:102AD00028600A40511C204600F0E9FF18490860B0
:102AE000012001072A680A432A60400729688143B8
:102AF0001BE0FF231B05984313061B0918182860C9
:102B000070042B6803432B602B6883432B603004D5
:102B10002B6883432B601140491C204600F0C7FFFF
:102B200007490860700729680143296070BDC046E5
:102B30000850104000688909FFFF000000D0121300
:102B40002C120020002D3101FFFFFEFF005A62020F
:102B5000014800687047C0462C12002010B5064A94
:102B600013680C24A343C007400FC907090F0818B6
:102B70001818106010BDC04604501040012000021B
:102B800003490A6802430A608A6802438A60704700
:102B90001850104004480168044A114001608168DF
:102BA000114081607047C04618501040FFFEFFFF83
:102BB000044801682022114301608168114381604B
:102BC0007047C0461C5010402020C04303490A688B
:102BD00002400A608A6802408A6070471C501040B8
:102BE0000120400303490A6802430A608A680243DD
:102BF0008A6070471850104004480168044A114028
:102C000001608168114081607047C04618501040D3
:102C1000FFDFFFFF0120400203490A6802430A6008
:102C20008A6802438A607047185010400120800271
:102C300003490A6802430A608A6802438A6070474F
:102C40001850104004480168044A1140016081682E
:102C5000114081607047C04618501040FFFDFFFFD3
:102C600004480168044A1140016081681140816094
:102C70007047C04618501040FFFBFFFF0448016832
:102C80000122114301608168114381607047C04691
:102C9000185010400120C04303490A6802400A60EE
:102CA0008A6802408A6070471850104001208002F4
:102CB00003490A6802430A608A6802438A607047CF
:102CC0001C50104004480168044A114001608168AA
:102CD000114081607047C0461C501040FFFBFFFF51
:102CE0000120400203490A6802430A608A680243DD
:102CF0008A6070471C50104004480168044A114023
:102D000001608168114081607047C0461C501040CE
:102D1000FFFDFFFF04480168402211430160816804
:102D2000114381607047C0461C5010404020C04392
:102D300003490A6802400A608A6802408A60704754
:102D40001C501040044801688022114301608168D2
:102D5000114381607047C0461C5010408020C04322
:102D600003490A6802400A608A6802408A60704724
:102D70001C5010400120000203490A6802430A6007
:102D80008A6802438A6070471C50104004480168FA
:102D9000044A114001608168114081607047C0465B
:102DA0001C501040FFFEFFFF04480168022211433F
:102DB00001608168114381607047C0461C5010401B
:102DC0000448016804221143016081681143816055
:102DD0007047C0461C501040044801680822114347
:102DE00001608168114381607047C0461C501040EB
:102DF0000448016810221143016081681143816019
:102E00007047C0461C5010400220C04303490A6866
:102E100002400A608A6802408A6070471C50104075
:102E20000420C04303490A6802400A608A680240DD
:102E30008A6070471C5010400820C04303490A684C
:102E400002400A608A6802408A6070471C50104045
:102E50001020C04303490A6802400A608A680240A1
:102E60008A6070471C501040704770477047704729
:102E7000704780B5002000F00BFB80BD80B50120BD
:102E800000F006FB80BD80B5022000F001FB80BD94
:102E900080B5032000F0FCFA80BD80B500F08AFB0D
:102EA00080BD7047704770477047704770477047E4
:102EB000704780B503F09EFD80BD70477047704736
:102EC000704770477047704770477047092809D8A6
:102ED000FC210140094A89588007C00EC1400F20DB
:102EE000084005E0102802D80349405C00E00020BB
:102EF0004108012088437047443810403850104042
:102F000070B509280FD8FC2202400E4BD458800718
:102F1000C00E02252E468640B44349008D438540AD
:102F20002543D55070BD102809D8054A835CFD247F
:102F30001C40C907890F611802234B40835470BDA0
:102F400044381040385010400C2802D1084801780D
:102F500007E00B2802D9102806D8401E034909684B
:102F6000C1400120084070470020704700401040D9
:102F700050381040B0B509280DD8FC2202400C4B47
:102F8000D4588007C00E012529408540AC438140BC
:102F90002143D150B0BD102807D801221140034A67
:102FA000835CFE241C4061188154B0BD443810403D
:102FB0003850104010B500242146FFF7A1FF2046ED
:102FC00010BD10B50446C9B2FFF7D4FF0121204659
:102FD000FFF796FF002010BD092809D8C2B20120D2
:102FE00090400E4A01290FD11168014311607047CA
:102FF00010280FD8F630C2B201209040064A13784C
:10300000012905D1034304E0116881431160704731
:10301000834313707047C0464A3810403050104008
:1030200010280ED80C280CD00C2800D9401E4006C1
:10303000000E8140032282400248036893430B4301
:10304000036070472C501040B0B509280ED8FC2200
:1030500002400D4BD4588007C00E40258540AC433C
:10306000C907490E81402143D150B0BD102807D86F
:10307000044A835CBF241C40C907490E611881546F
:10308000B0BDC04644381040385010400123834042
:1030900004480268002901D01A4300E09A43026004
:1030A0007047C04608401040B0B509280ED8FC2231
:1030B00002400D4BD4588007C00E04258540AC4318
:1030C000C907490F81402143D150B0BD102807D80E
:1030D000044A835CFB241C40C907490F61188154D2
:1030E000B0BDC0464438104038501040B0B5092833
:1030F0000ED8FC2202400D4BD4588007C00E082584
:103100008540AC43C907090F81402143D150B0BD70
:10311000102807D8044A835CF7241C40C907090F0C
:1031200061188154B0BDC04644381040385010403A
:10313000F0B50B785A1E541EA2415200DC1E6542A7
:103140006541AC01A2184C78651E6E426E41B50017
:103150005219A41E65426541EC001219303209284B
:1031600007D801258540204C022B0FD066682E43DE
:103170000EE010281AD804460A3CE4B20126A64004
:10318000184CA579022B13D1B54312E06668AE4303
:1031900066608507ED0EFF26AE40FC2707403C1910
:1031A000E768B743AA403A43E26006E0012217E02D
:1031B0003543A571035D02550B7800220C280FD012
:1031C000022B0DD10C2800D9401E4006000E897834
:1031D000814003238340044804689C430C430460FB
:1031E0001046F0BD443810402C5010400B2800D938
:1031F000401E491E042924D87944097949008F4486
:1032000002070C131900012181400E4801600FE0F4
:10321000012181400B48016010E0012181400948F3
:1032200001600904816070470121814005484160C7
:10323000816004E00121814002484160C1600904CD
:10324000C16070472840104080B58000024908588E
:10325000002800D0804780BD3012002070B508489B
:1032600005680024074EE80703D03059002800D035
:103270008047241D2804450C402CF4D170BDC04665
:1032800038401040301200200B2800D9401E80002A
:10329000014A11507047C046301200200B2800D957
:1032A000401E0121814001480160704720401040CC
:1032B0000B2800D9401E0121814001480160704760
:1032C000244010400B2800D9401E012181400148B4
:1032D00001607047384010400B2800D9401E034958
:1032E0000968C140012008407047C046384010407E
:1032F0000B2800D9401E03490968C140C803C00F0C
:103300007047C0463840104080B5102815D80928AD
:1033100007D8C1B201228A4009490B6813430B60E8
:1033200008E00146F631C9B201228A4003490B7810
:1033300013430B700121FFF7E3FD80BD4A381040B5
:103340003050104010B5102807D80446FFF7FCFD98
:10335000012141402046FFF70DFE10BDC000094A83
:10336000101840680268042902D106218A4307E048
:1033700030239A430260090103680B4306221A4373
:103380000260704764100020C100094A5118496862
:103390000A68082313430B6041B2002907DB1F2191
:1033A00008400121814003480160034801607047E3
:1033B0006410002080E200E000E100E0C1000A4A61
:1033C000511849680A6808239A430A6041B20029E3
:1033D00009DB1F2108400121814004480160BFF33F
:1033E0004F8FBFF36F8F70476410002080E100E0C3
:1033F000C000044908184068016801220A430260BD
:103400007047C04664100020C00004490818406896
:1034100001680122914301607047C046641000209A
:10342000C0000249081840684068704764100020D6
:10343000C000024A101840684160704764100020C4
:10344000C000024908184068806870476410002076
:10345000C000024A10184068816070476410002064
:10346000C0000349081840680121C1607047C04688
:1034700064100020C000024908184068C068704706
:1034800064100020C000014A1150704764100020F1
:10349000B0B5C400054D2959002901D00020884746
:1034A000281940680121C160B0BDC04664100020E9
:1034B00080B5FFF77DFB80BD80B58020C043064905
:1034C0004A68936803409360C9688A6802408A60CA
:1034D000FFF77AFB80BDC046501000200021024A51
:1034E000026041607047C0460201000170B5C9002A
:1034F0000C4A511849684278C37884780578406846
:103500000860AE1E70427041002D01D0800100E0C5
:103510004120A40004435807000E204352000243F8
:103520008A6070BD50100020C000044B181840681D
:10353000002900D0183002607047C04650100020AB
:10354000C000044908184068816880220A438260EC
:103550007047C04650100020C00004490818406859
:1035600081688022914381607047C04650100020DE
:10357000C0000349081840680121C1607047C04677
:1035800050100020C0000249081840684068704789
:1035900050100020C000014A115070475010002008
:1035A000C0000349081840688068C0B2C00970476D
:1035B0005010002010B50B4C60684169002905D0FF
:1035C0000121C1602068002800D08047E06841697F
:1035D000002905D00121C160A068002800D08047E3
:1035E00010BDC0465010002070B5184E1848002578
:1035F0003570E12109037160B060F07B0721014360
:10360000F173311D2846FDF775F9124C346166647B
:10361000201DFEF76FFC0120A06065600E48206051
:103620006069172188436061608B0004A061E068D5
:103630000A4901400A480818E060FFF72BFBFFF732
:103640001DFB2046FEF78AF870BDC046D812002048
:1036500003020001C01100200000104000008EFF96
:1036600000011000F0B581B00E460446080B16D0DC
:103670001549304608400090F00A16D04542002710
:103680000E4600F023F8E1190120C2020D48FDF7B3
:1036900039FA3146B819471C6D1CF1D106E000F02B
:1036A00015F8B2B20748214608E00027009D002D1A
:1036B00006D000F00BF8391902482A46FDF722FA25
:1036C00001B0F0BDD8120020FF07000010B5084C73
:1036D0002069FEF759FF022803D120696421FEF713
:1036E0000DFD2069FEF750FF0128FAD110BDC0463C
:1036F000D8120020F0B581B004460125C57385734A
:10370000457305731920A07400266674FF20207489
:103710001148124921606060A660204613302121C3
:1037200000F0C1F937203C2121543620C422225414
:103730003520215434202254094865756421094AF2
:10374000094B0A4D0A4FA063E66327646564A364CE
:10375000E264216501B0F0BD3C004608FF7F0262D3
:1037600001004000E803E8030200B80B349E102774
:10377000809698007047FEB5054610460C461843E3
:1037800073D0AE468C460020AD1A01469C4167D3EB
:103790006646002701243D46B61A9D4102D31346D2
:1037A0003A462124654676462F04360C3E432D0CBE
:1037B000B61A9D4104D3150C1B042B43120410347C
:1037C000654676462F06360A3E432D0AB61A9D41B7
:1037D00004D3150E1B022B431202083465467646AD
:1037E0002F0736093E432D09B61A9D4104D3150F04
:1037F0001B012B431201241D65467646AF07B60810
:103800003E43AD08B61A9D4104D3950F9B002B4350
:103810009200A41C65467646EF0776083E436D0885
:10382000B61A9D411AD392185B41641C16E0001829
:10383000764665464941B71A9D410191009009D3EA
:103840006046B11A98418E46844600980199002539
:10385000401C6941DD0752082A435B08641EE6D517
:103860007246634603B0F0BDFFE700200146C04644
:10387000C0462A462346F5E70FB4054910B503AA0A
:10388000029801F075F810BC08BC04B0184700009D
:10389000E8100020F8B50E460446002020622046BD
:1038A000E1688847002829D0252802D06268A168ED
:1038B00020E0E16820460027884705001ED0284602
:1038C0004138192802D80127FF0220353246204608
:1038D00027602946FCF7B2FC002808D0012804D054
:1038E000F61DF608F6000836D9E7361DD7E76268F8
:1038F0002846A1689047206A401CCFE7206AF8BD9F
:1039000070B50C460546012A05D02878800600D5FA
:10391000EA69002302E0012305E05B1C934202D226
:10392000E05C0028F9D1A869E618C01AA861286AE5
:10393000C01828622846C046C04604E06A6820785D
:10394000A968641C9047B442F8D32846C046C046D4
:1039500070BD0000F7B5002575291068009914A600
:1039600011D0C046C046002802DA404211A608E045
:10397000009909688A0701D50FA602E0490704D516
:103980000EA6012501E0C046C046009F0024243752
:1039900004E001F001F830313955641C0028F8D1F9
:1039A0002B4632462146009800F067FDFEBD000020
:1039B000000000002D0000002B000000200000008F
:1039C00010B5044603E0FCF79BFC401C08D02078AF
:1039D0000549641C0028F6D10A20FCF791FC10BDB3
:1039E0000020C04310BD0000E8100020F8B5042AF4
:1039F0002CD3830712D00B78491C0370401C521E35
:103A000083070BD00B78491C0370401C521E8307A0
:103A100004D00B78491C0370401C521E8B079B0F6F
:103A200005D0C91ADF002023DE1B08C90AE0FCF715
:103A300033FCF8BD1D4608C9FD401C46B4402C436C
:103A400010C0121F042AF5D2F308C91A521EF0D46E
:103A50000B78491C0370401C521EEAD40B78491C99
:103A60000370401C012AE4D409780170F8BD01E01C
:103A700004C0091F0429FBD28B0701D50280801CDA
:103A8000C90700D00270704700290BD0C30702D0CD
:103A90000270401C491E022904D3830702D502800C
:103AA000801C891EE3E70022EEE70022DFE7002208
:103AB00003098B422CD3030A8B4211D300239C466B
:103AC0004EE003460B433CD4002243088B4231D3E3
:103AD00003098B421CD3030A8B4201D394463FE077
:103AE000C3098B4201D3CB01C01A524183098B42D7
:103AF00001D38B01C01A524143098B4201D34B01C0
:103B0000C01A524103098B4201D30B01C01A524122
:103B1000C3088B4201D3CB00C01A524183088B42A9
:103B200001D38B00C01A524143088B4201D34B0092
:103B3000C01A5241411A00D2014652411046704704
:103B40005DE0CA0F00D04942031000D34042534009
:103B50009C46002203098B422DD3030A8B4212D3C9
:103B60008901FC2212BA030A8B420CD389019211FB
:103B70008B4208D3890192118B4204D389013AD038
:103B8000921100E08909C3098B4201D3CB01C01A0D
:103B9000524183098B4201D38B01C01A5241430920
:103BA0008B4201D34B01C01A524103098B4201D30E
:103BB0000B01C01A5241C3088B4201D3CB00C01A7B
:103BC000524183088B4201D38B00C01A5241D9D293
:103BD00043088B4201D34B00C01A5241411A00D214
:103BE00001465241104663465B1001D34042002B10
:103BF00000D54942704763465B1000D3404201B58F
:103C00000020C046C04602BD7047704770470000A4
:103C1000F0B50C46871A9C410D46861A9D4103D289
:103C2000C01BA141D21963410D0D1F0DC94EEC1BE4
:103C3000AE435CD07F057F0D0026002F51D02D05AF
:103C4000AC46A943DD020123ED0A1B051D432023D9
:103C50001B1B24D41746E740381871412F46E74014
:103C6000CC199D402818314661410C0D27D1614483
:103C70009A4013D50023401C594152000ED14008F0
:103C8000400001224B005205D34207D305204007D4
:103C9000C14201D5B04900E0B0493046F0BD6B00EB
:103CA000002A00D001229A181F23203C1B1B01D59B
:103CB000002302E0E540281871410C0DD7D0012403
:103CC00024050919C407CD0740084908E40F284313
:103CD0006144002CD5D00024401C61419A40D0D1D1
:103CE000CDE76A05520DD9D1C90FC907D5E79C4D5B
:103CF0004E00002801D0012400E0002434195F00A8
:103D0000002A01D0012600E00026BE19954FAC42E2
:103D10000CD8AE420AD8B44206D001256D05EC425B
:103D2000BCD010461946F0BD9942FCD0002039465F
:103D3000F0BDF0B51FB40C460F46811A9F412546D1
:103D4000861A9D4106D20125ED076F40401ABC41FD
:103D500052187B41210D1E0D8D1BAC467D4D8D43B0
:103D60007ED075056D0D7CD00D05AE46AC431B03B2
:103D70001B0B794D52429D41202366469B1B14D359
:103D80001746F740381800260090744160462F46C9
:103D90000741E41900989D402818664116D47146E1
:103DA00071189A4025D5012320E093182A466A41CC
:103DB0005200002B00D0521C1E23203E9B1B002BC8
:103DC00061DD3541EE1728186641E8D500187641C7
:103DD0005B1C9A4000D3401C4B05F3181524E340AC
:103DE00010D3002B52D071467118D30FC01802D3D4
:103DF000491C05B0F0BD0123DB079A42F9D1400808
:103E00004000F6E701225205B21801D1002853D034
:103E10000123CC0ADB029943891E002A08D1020C37
:103E200003D0020C0004103902E0024600202039C1
:103E30000023550B05D112020823550B01D1520165
:103E40000D23550C01D112011B1DD50C01D192007F
:103E50009B1C150D01D152005B1C2025EE1A01E0C0
:103E60002CE022E00546F54015439840CA1AE107C8
:103E700069181305C918002ABBDA0320400708187F
:103E8000C10FC9070FE071466118B2E7F10740089A
:103E90000843711071444A000CD001235B059A421B
:103EA000A7D2C90FC9070020A3E74905490D26D1AC
:103EB000002001E00028F4D100219AE7284D660097
:103EC000002801D0012100E0002171185F00002AC4
:103ED00001D0012600E00026BE19224FA94210D8C9
:103EE000AE420ED8B14208D001256D05E94206D098
:103EF0001946A802414010467BE79C4201D021466A
:103F000077E70020394674E710B50C465C4005D5CC
:103F10000124E4076340FFF70CFF10BDFFF778FEB4
:103F200010BD30B40C465C4004D50124E407634066
:103F300030BC6DE630BCFCE670B50124E40761409E
:103F40000D465D4002D4FFF763FE70BD6340FFF78E
:103F5000F0FE70BDFF0700000000F0FF0000F07FE2
:103F60000000E0FF0000F87F0346CA02400D10B5D4
:103F700010430A1504D00124E4072043002A05DB7E
:103F80000A4CA21A04D4D040FF2A00DD002010BD44
:103F90004A00002B01D0012000E00020101801226F
:103FA0005205D042F2D8C817C04310BD1E0400000D
:103FB0001F22030C02D10F22000402D0030E03D0F3
:103FC00004E00020014670470002083A030F01D1C7
:103FD0000001121F830F01D18000921E002801DB17
:103FE0004000521E120551184205C01241181046D9
:103FF0007047C10FC90700D0404201229207114308
:10400000D6E701218907D3E7F0B58B4C0F09254688
:1040100089B0BD437BD01D092646AE43FAD00E467B
:104020005E402740F60F3E43254071D024012142D7
:10403000FBD0FF24AD19A4042D1B039501252D05EC
:10404000DB02DB0AC9022B43C90A29431E0109010D
:10405000040F130F050121431701880B82039143BD
:104060002D098C46A90B1E438A039543B30B9A0373
:1040700096433F09BA0B9403A74302962E467E430C
:104080000497B6464E19D7190C4601965443059726
:104090007E43371B7646BF1B3601B646BE0B36192C
:1040A00000967646BC043719009C01D3641C00942A
:1040B0006400002F01D001263443029E049F754303
:1040C00066467E430496760034196E0034190094D7
:1040D000029C019E1C196643751BAE4606946546FC
:1040E0004519059C05956C43594375460891691A15
:1040F0000191049E01465143A41B0491611A009C46
:104100000791E10605D061090122114302E072E046
:104110006EE06109089D00272C0A2D066918049D90
:104120007C412A0A2D066918019D6241AC0DAD0241
:104130006D185441079A910D920255196141029AE6
:10414000644658435443069B059A5A43121A131B5C
:104150009A0E9B015B187A41010B0005C31851416F
:10416000220A200644195A419A4200D2491C0120D1
:104170004002814203D315230226F64302E01423B2
:104180000326F6432020C51AA9401746AF40DA405F
:104190000A4320460399D840091473181905511889
:1041A000039A3843D2075140AC4009D001229440D1
:1041B00006D30022401C5141002C01D14008400090
:1041C0001E4A934212D3012203989206904207DBC3
:1041D0000520400709181A480143C012414004E075
:1041E000032040070818C10FC907002009B0F0BD1F
:1041F0000020F107FAE705180C464C4111486D42C2
:10420000A04115D394181A465A410E486442904171
:104210000ED301204A004005824209D35A0082424F
:1042200006D35940C90F084AC90700201143DDE7EA
:1042300000200649DAE700000000FF07FE07000043
:10424000FFFFFF7F0000E0FF0000F07F0000F87F2D
:104250000121C9050123411842001B06D3185B0E3A
:104260000AD0C1100722D206891840075242D14213
:1042700001D5520089187047090208D50146002A65
:1042800003D0C10FC9070020704710467047420293
:1042900002D0002002497047072109050143F4E7D5
:1042A0000000F87FF0B5FF252D04C609C209FF27DD
:1042B00004462E400137CB093E4348402A402B405C
:1042C0000746002A6BD0002B69D0AA4267D0AB42C8
:1042D00065D0002800DA32460125ED0529432C433C
:1042E00009022002090AD21A4B0C7F24E31A434C1C
:1042F000000A7C44E35C7D242404121914145B003E
:10430000A218884201D3521C00E0400049420C46EA
:104310005C4324115C43DB016415E318040A5C432D
:10432000C502200D0C4644436419250A5D4323034E
:10433000EC0C0D46654300030019EB184C42A342F8
:1043400001D35B18401CD4052018002B07D05B005C
:10435000C91804D3401C002901D1400840003F2166
:1043600089048A4209D3002A08DC1106090F04D007
:10437000032149074018C00FC007F0BD01224100CA
:10438000120689187F2252069142F6D2052149076A
:10439000C84201D59010F0BDFF20C005F0BD002F30
:1043A00000DA32461648AA4207D2AB4205D21902B9
:1043B000090E17D0F80FC007F0BDFF2563002D06CA
:1043C000AB42F9D84900A942F6D8AB4201D1A94283
:1043D000F2D0A94201D1002101E061004908D005D5
:1043E0000843F0BD1102090EFBD0FF200243D005A7
:1043F000F0BD0A460146104654E70000EA2E0000D0
:104400000000C07F1F22030C02D10F2200041CD029
:10441000030E01D10002083A030F01D10001121F5F
:10442000830F01D18000921E002801DB4000521E44
:10443000D2055118021251181922904004D3491C78
:10444000002801D14908490008467047C10FC90733
:1044500000D04042012292071143D3E7012189078E
:10446000D0E7704710B500F02FFB006810BD10B505
:10447000044600F029FB046010BDFFB504460D465C
:1044800081B0243000902168880604D51022E069AC
:104490009143216000E00120A84201DD471B00E0BC
:1044A00000270498A1697A191018081AA0612078C9
:1044B000C00602D42046C046C046002608E0039845
:1044C0006268A168805D9047206A401C761C20626B
:1044D00004988642F3DB2078C0060AD52046C04601
:1044E000C04606E06268A16830209047206A401C00
:1044F000206238467F1E0028F4DC07E000986268DE
:10450000A168405D9047206A401C206228466D1ECD
:104510000028F3DC2046C046C0462078000602D5BD
:10452000022005B0F0BD0120FBE70000FFB50C46FE
:104530001E468FB003CA089009914F007D0D00D12F
:104540006D1E002108460020C0460321099A8905F6
:104550000840002A03DA8200801840080840800DD5
:1045600001280A9002DD0020C0430A900898074302
:104570000DD0F048F049281848430714189800282F
:104580001DD07542291E1DDD0A9842421BE0189875
:10459000012802D00020302104E00020F24305E091
:1045A0002154401CB042FBDB30460022189B002106
:1045B00021540F998B600A60486013B0F0BDBD1B99
:1045C0006D1CDFE70A9A002900DA69420BA800F0A7
:1045D00019FB0BAB07CB03AB07C30899099800F095
:1045E0007DFB6B4607C30146D4480918002D009196
:1045F0000BDDD24903980A9A49424018002303A9C7
:104600000390684600F0DAFD08E003990A9A002357
:10461000081803A90390684600F07AFD6B4607C3AB
:104620000004000C03D00020C043410800E0104605
:10463000189A002A03D00022009215461EE0751E2B
:1046400005D400F045FA303262556D1EF9D50122CD
:104650000843079602D000227F1C04E0207830280F
:1046600001D100227F1E002A069787D01EE0112D5F
:1046700007DA00F02DFA303262556D1C02460A430B
:10468000F5D1084303D00098002819D00EE000218E
:10469000681E05E0235C625C63542254401E491C82
:1046A0008142F7DBA81B401E07950690079A1899D0
:1046B0000020A0540F98079B069A81600CC07CE7ED
:1046C00011260020189059E7D21DF0B50D4604467A
:1046D000D10893B0C90003C90C900D9102F048FCB9
:1046E00002460D98C00F01D02D2007E020688107F9
:1046F00001D52B2002E04007C00F4001032A0F9094
:1047000001D0072A05DB03462946204600F036FA89
:104710000EE12078800601D5E76900E006272846EB
:10472000652D04D0662814D0672D69D12DE00020B6
:10473000112F009001DB112300E07B1C0CAA03A9C0
:1047400010A8FFF7F3FE1199002610987D1C0E911A
:1047500042E001203B460CAAC0070B9001200090CC
:1047600003A910A8FFF7E2FE119D129810990026E8
:1047700000280E9501D1781C0D18781B02D44642F2
:104780007D1C761EE81B00903AE0012F00DA01271D
:104790000020112F009001DD112300E03B460CAA00
:1047A00003A910A8FFF7C2FE11993D4610980026F4
:1047B0000E91217809070BD40E99A94200DA0D4613
:1047C00003A9012D04DD4A19203AD27F302A06D0F0
:1047D000B84201DA011D04DA012100910FE06D1EDB
:1047E000EFE7002802DC86192D1A03E0411CA942DC
:1047F00000DD0D46801B401C00900120C0070B907F
:104800002078000705D40098A84202DB0020C043AE
:10481000009069460020C8720B98012102AF03374F
:10482000C907884225D0022010902B2011900B98A8
:1048300000280BDA40420B902D20119006E00B98D7
:1048400000F0AAF830317F1E0B9039701099481E85
:1048500000291090F3DC0B980028F0D111987F1EEE
:1048600038702088000501D5452000E065207F1EB6
:10487000387001A8C01BC01D0B900F98002800D0F5
:10488000012041190098C01709180B980818A16950
:10489000081A401EA0612078C00602D42046C046F7
:1048A000C0460F98002805D06268A1689047206A2A
:1048B000401C20622078C00625D52046C046C04650
:1048C00021E0002E07DB0E98B04204DD03A86268E9
:1048D000805DA16802E06268A16830209047206A8C
:1048E000761C401C20620098401E002800900AD1CF
:1048F00000F0E6F8C06862680168405CA168904713
:10490000206A401C206228466D1E0028D9DC07E082
:1049100062683878A1687F1C9047206A401C20623A
:104920000B99481E00290B90F2DC2046C046C04679
:10493000032042E601FCFFFF104D0000E1DFFFFF16
:1049400010B54369002B02D0C046C04601E0FEF717
:10495000D7FF012010BD1278014624310A700022D1
:104960004A700122ECE711680022D243E8E7000018
:10497000084B70B50D467B4400F0EDF80446284620
:10498000FBF7CEFC002802D00020C04370BD2046BB
:1049900070BD000087B9FFFF01468008081A0209B0
:1049A0001018020A1018020C1018C0088200121801
:1049B0005200891A01E0401C0A390A29FBD27047CB
:1049C000F0B53D4B02460C461C400020002C63D045
:1049D0003A4D8B4366D000296BDB0B0D1D05A943B7
:1049E00001252D0529430124FD33E34001D392180D
:1049F0004941FF3381339C468B02940D01212343AF
:104A000089074C42920200271B198C105D1A04D4AE
:104A10002D1B02D42B466500491992185B4164088E
:104A2000F4D15C1A08D40125ED07EE17551974412D
:104A300002D42A462346491C94185B41012292075E
:104A40001D46E61B8D4106D4B61A854103D42B467C
:104A5000550034467F1924195B415208802AEFD152
:104A6000234300D0022338460A22D04001D301223A
:104A700013438A0510436246890A12058918002BE0
:104A800009D00122D34002D30022401C5141002B07
:104A900001D140084000F0BD0B03134307D0C90FFC
:104AA000C907F0BD0803104303D1002901DB1046FC
:104AB000F0BD00202946F0BD0000F07F0000F87F27
:104AC00000487047A8100020004870478810002058
:104AD0000B4670B5024689078008084319469D08B1
:104AE000141AA94125090807054308092C1948414A
:104AF000250A01060D43010A2C194141200C0D0421
:104B000028430D0C00194D41002140194D41C008AA
:104B100069070843E908840F8D00254384002418A1
:104B20004D4124196D41121BAB4107E00925ED43AE
:104B30002C11521963410024401C61411C460A2576
:104B40000026551BB441F1D270BD000001694A1C1A
:104B500002610878704700B58FB00291002105917D
:104B60000549019379440391114604906846FEF784
:104B700091FE0FB000BD0000E5FFFFFFF8B51F4636
:104B8000044601230068DB02032601461840072A79
:104B900005DB002801D017A506E017A504E00028D2
:104BA00001D016A500E016A5102081432160A06960
:104BB000C01E002FA06101D0401EA0612046C0464B
:104BC000C046002F09D038466268A1689047206A25
:104BD000401C2062C01C206206E0206AFAE762687E
:104BE0002878A1686D1C9047761EF8D22046C046F2
:104BF000C046F8BD4E414E006E616E00494E460003
:104C0000696E6600F7B516468AB0334878446C463C
:104C100003467C33C06F5A689B680DC42E487844A5
:104C2000763003AC0DC80DC43720C00108183721F9
:104C30001B30FEF746FF05460C46803D1B3C02D567
:104C40006442012000E000200027099010E0E00706
:104C50000CD00C2020497843794432464C39411815
:104C60006846012300F054FA6B4607C364107F1CAA
:104C7000002CECD1184F7F442E3F16E0E80712D0ED
:104C80002001C0190EC80691089307920068F042EF
:104C900001D1981908903246012306A903A800F013
:104CA00037FA03AB07C36D10641C002DE6D10998D9
:104CB000002806D032466946012303A800F07EFA98
:104CC00005E001233246694603A800F021FA0A9B59
:104CD00007C30DB0F0BD00001026000003464000E1
:104CE0000A4610B5400D0BD00121C9070F24A402BC
:104CF00000191C0364082143540D2143D20207E02C
:104D000000210120F2E7D40F490021435200401E48
:104D10000029F8DADB0FDB07184310BDFFB50D469D
:104D2000144685B04868516802F00AF90091019074
:104D3000A868A16802F004F902910390A86861686C
:104D400002F0FEF8029A12188242029201D2012069
:104D500000E00020019A0B18D2180028019202D01E
:104D60008A4202D903E08A4201D2012000E00020F9
:104D70000099081800906868A16802F0E1F8029AAA
:104D800012188242029201D2012000E00020019A12
:104D90000B18D2180028019202D08A4202D903E0EF
:104DA0008A4201D2012000E00020009908180090FA
:104DB0002868216840004900400849084018FA491D
:104DC000471814E001994000C90F0843009001986A
:104DD00002994000C90F08430190029803994000CE
:104DE000C90F08430290039840007F1E039000986B
:104DF0000028E7DA0898002801D0EC4E00E00026F1
:104E0000B74201DA012000E00020002804902AD0F7
:104E1000F71BF806C00E15D0029B2021091A039A31
:104E20008B401A430392029A019BC2408B401A4363
:104E30000292019A009BC2408B4000991A43019252
:104E4000C14000917B110DD06F460320C11A03D5DC
:104E500000218200B95003E08A008100BA587A50DC
:104E6000401EF3D5374603980299002800D0012050
:104E7000014308980291002808460CD0002800D071
:104E800001200199019A490508430121D20AC9026A
:104E9000D202019200E001210E9B0122D207012BD8
:104EA00002D0002B03D013E0002807D120E090426D
:104EB00004D890420CD1019B0B4209D0019B591898
:104EC000019105D10099491C009101D17F1C0092EC
:104ED00000280DD0102108460020C0460498002864
:104EE00006D00F98002803D0082108460020C046AD
:104EF00028682168019B009A4840C10F0598C9079E
:104F000039430EC009B0F0BDFFB587B0099A0898C3
:104F1000089953689268406889689646002203930E
:104F200017469446089A12685300099A5B0812685B
:104F3000520052089A1A9E4BD4180A9A002A01D09D
:104F4000352200E0402206920022012315460492F9
:104F5000DB07059324E0002D05D175460346039E2B
:104F60004D1BB34109D375466646039B491B049DFF
:104F70009841059B7519AC465F4163463B4308D099
:104F8000059B049EDD0776082E435B080496059377
:104F900001E0521E641EC50FED0749184041521C26
:104FA000069B9A42D7DB002D04D17546039A6B1AF3
:104FB000824101D203200CE0039A0B466B40424031
:104FC000134303D0014303D0012002E0022000E09C
:104FD0000020614601910021009702910A99002961
:104FE00005D0614640020143704B019102E0800709
:104FF000002302909C4201DA012000E0002007001B
:105000003AD01A1BD006C00E15D0029D2021019C5B
:10501000091AC5408C402543029C8C4000D00124D5
:105020002543019C0295009DC4408D4000992C436E
:105030000194C140009154111DD06D4602210022FF
:1050400002290CD10320001B07E0002804DB8600A6
:10505000AE59002E00D00122401C0328F5DB081BAE
:1050600002D588002A5004E08000285810438A00A6
:10507000A850491EE3D51C460A98002802980CD077
:10508000002800D001200199019A49050843012117
:10509000D20AC902D202019200E00121109B012232
:1050A000D207012B02D0002B03D013E0002807D138
:1050B0001FE0904204D890420CD1019B0B4209D0D2
:1050C000019B5918019105D10099491C009101D10A
:1050D000641C009200280CD0102108460020C04615
:1050E000002F06D01198002803D008210846002080
:1050F000C04608980999019A009B006809684840D1
:10510000C10F0798C907214382600AC00BB0F0BDE8
:1051100000B585B0019300920A460146002302A81B
:10512000FFF7FCFD02A807C805B000BDFFB50A46A1
:105130001F4685B00799019301230091014602A8FB
:10514000FFF7ECFD02990398049ECA0F4900D207AD
:1051500000920F22490892028C1A0021002800DBDD
:105160000C46450013486D08844214D3079A002A60
:1051700004DA441E0026104DF64302E004460D46B4
:105180000E46102108460020C046002F03D00421FF
:1051900008460020C0462005E90A08430099084354
:1051A0006905F20A1143ADE602C0FFFF013C0000B1
:1051B000FF3F0000FF070000FFFFFF7F00B585B045
:1051C000019300920A460146002302A8FFF79CFEC5
:1051D00002A807C8A8E7FFB50A461F4685B0079989
:1051E000019301230091014602A8FFF78DFE029969
:1051F0000398049ECA0F4900D20700920F22490863
:1052000092028C1A0021002800DB0C464500114850
:105210006D08844214D3079A002A04DA441E00263B
:105220000D4DF64302E004460D460E461021084699
:105230000020C046002F03D0042108460020C046AD
:105240002005E90A0843009908436905F20A114359
:1052500058E60000FF070000FFFFFF7FF8B5264C6F
:105260004E00069DA6420AD8A64201D1002806D1CA
:105270005E00A64203D8A6420AD1002A08D00D2417
:105280002404254233D02946002000F083F8F8BDDD
:105290000C461C4311D4994207D0C81A02D3EFF32D
:1052A0000080F8BDEFF30080F8BD801A02D3EFF361
:1052B0000080F8BDEFF30080F8BD09242407E50065
:1052C0008B4207D0581A02D3EFF3008006E0EFF3C9
:1052D000008007E0101A03D3EFF30080A04303E03F
:1052E000EFF30080A043284380F30088F8BD0095C9
:1052F00000F068F8F8BD00000000E0FF10B50446BB
:10530000C046C0462046FAF7C1FF10BD024670B540
:105310000A4392072AD11E4DEE0104C808C9541B46
:105320009443344017D0D0B2D9B2401A2106014379
:1053300010D190B299B2401A210401430AD110024F
:105340001902000A090A401A2102014302D1100E73
:10535000190E401A70BD9A42DFD010BA19BA8842AD
:1053600001D9012070BD0020C04370BD02780B78C8
:10537000401C491C002A09D09A4207D102780B78B8
:10538000401C491C002A01D09A42EFD0D01A70BDAF
:1053900001010101C80212D54803400F002804D0C2
:1053A000C803C043012188407047EFF3008000012B
:1053B000000903210907084380F300887047002093
:1053C0007047000010B500200249029A00F004F86E
:1053D00010BD00000000F87F10B50C461107090F42
:1053E000092904D00A290AD008290CD104E0114661
:1053F0000820FFF7CFFF06E0510606D501E0510671
:1054000001D50120C007214610BDD10607D50101F5
:105410000909CC084907000E0006044309E0410FC2
:1054200020024907000A0143200E00061D22D14137
:1054300001430846E7E730B58C180278401C130793
:105440001B0F01D10378401C120906D10278401CC1
:1054500003E00578401C0D70491C5B1EF9D101E08A
:105460000B70491C521EFBD1A142E6D3002030BD77
:10547000014908607047C0462800014010B5032369
:105480009C0780030019074C044018040918890878
:1054900089B20919044B19601018800880B258604D
:1054A00010BDC0460000FFFF2C0001402F490A68D4
:1054B00001239A43101808607047C04610490860DD
:1054C0007047C046411E884140010C490A682023AC
:1054D0009A4302430A600120800301490860704733
:1054E00000E100E080B50120400304490A6802435E
:1054F0000A6003480068804780BDC0463400014010
:10550000B4110020B0B507220240FF21CB01440AAC
:105510001C40A21843097824234078332340D21832
:10552000124B5C68054D254052195A6009041A68EF
:105530008A43000E000410181860B0BD0080FFFF01
:1055400081090C220A40C107890F8918020E120234
:105550008918000BF0220240F032D0B2081803493B
:105560000A68034B1340C0180860704720000140D0
:105570000100FFFF4900DC4A515A0818C1698269DD
:105580008261012212039143C1617047A84A515CB4
:105590000D22920181508018002141607047C04661
:1055A000A34A515C352212018150801800214160CC
:1055B0007047C0469E4A515C6B22D20081508018D1
:1055C000002141607047C046994A515C6922D2006F
:1055D00081508018002141607047C046944A515C58
:1055E0006722D20081508018002141607047C04678
:1055F0008F4A515C09021D225201815080180021FE
:10560000416070478A4A515C09026322D20081508E
:105610008018002141607047854A515C090265226B
:10562000D20081508018002141607047804A515C4F
:105630000902332212018150801800214160704715
:105640007B4A515C090219225201815080180021C5
:1056500041607047764A515C090231221201815043
:105660008018002141607047714A515C0A0251184C
:105670001D22520181508018002141607047C046B0
:10568000B0B57321C9004218536844580125254319
:1056900045505360B0BD0000654A515C0A02511884
:1056A0006322D20081508018002141607047C046BB
:1056B0005F4A515C0A0251186522D200815080185D
:1056C000002141607047C046594A515C0A02511896
:1056D0003322120181508018002141607047C0467A
:1056E000534A515C0A025118192252018150801804
:1056F000002141607047C0464D4A515C0A02511872
:105700003122120181508018002141607047C0464B
:105710000B22920183185B68454B595C8058084006
:10572000411E88417047C0462F22120183185B68D2
:105730003F4B595C80580840411E88417047C04625
:105740000322120283185B68394B595C8058084069
:10575000411E88417047C0466122D20083185B68B1
:10576000334B595C80580840411E88417047C04601
:105770005F22D20083185B682D4B595C805808402B
:10578000411E88417047C0465D22D20083185B6885
:10579000274B595C80580840411E88417047C046DD
:1057A0001D22520183185B68214B595C80580840C8
:1057B000411E88417047C0466322D20083185B684F
:1057C0001B4B595C80580840411E88417047C046B9
:1057D0006522D20083185B68154B595C80580840DD
:1057E000411E88417047C0463322120183185B680E
:1057F0000F4B595C80580840411E88417047C04695
:105800001922520183185B68094B595C8058084083
:10581000411E88417047C0463122120183185B68DF
:10582000034B595C80580840411E88417047C04670
:10583000047400084900DD4B595A0818C16983698E
:105840008361034B1340034A0A40D118C16170477A
:10585000FF0F000000F0FFFF4900DC4B595A081809
:10586000016C436C4364E02399435207120E89187C
:10587000016470474900DE4B595A0818016C436CAB
:10588000436401231B029943D207D20D8918016496
:105890007047C0464900DE4B595A08188168C168F4
:1058A000C16082607047C0464900D94B595A0818F8
:1058B0008169C369C3610323DB0199439207D20D58
:1058C000891881617047C0464900DC4B595A081855
:1058D0008169C369C3610723DB0299435207920CB4
:1058E000891881617047C046087400084900DC4B84
:1058F000595A0818416C036C03640F23DB02994367
:105900001207520C891841647047C0464900DD4BAC
:10591000595A0818016C436C436401239B04994352
:10592000D207520B891801647047C0464900DE4B0C
:10593000595A0818016C436C436401239B02994334
:10594000D207520D891801647047C0464900E44BE4
:10595000595A08188169C369C3610123DB06994359
:10596000D2071209891881617047C0464900E44B8B
:10597000595A0818016C436C43640123DB079943AF
:10598000D2078918016470474900E54B595A081835
:10599000016D436D43659F4B0B401105591801651F
:1059A0007047C0464900DE4B595A08188169C369DF
:1059B000C36101239B049943D207520B891881616B
:1059C0007047C0464900D64B595A0818016D436DBF
:1059D0004365904B1340904A0A40D11801657047C7
:1059E0004900CF4B595A0818816BC16BC163826360
:1059F0007047C0464900CA4B595A0818416C036C9D
:105A0000036420239943D207920E8918416470479A
:105A10004900C34B595A08188169C369C3610E23F1
:105A200099435207120F8918816170474900BC4B96
:105A3000595A0818416C036C036402239943D20736
:105A4000920F8918416470474900B54B595A08189C
:105A5000416C036C036401231A4099438918416423
:105A60007047C0464900AE4B595A08188169C3694E
:105A7000C36107231B0599435207520A89188161A4
:105A80007047C0464900A64B595A08188169C36936
:105A9000C36101231A409943891881617047C04648
:105AA00049009F4B595A0818016943694361032310
:105AB0009A431940891801617047C0464900984BC4
:105AC000595A0818016C436C436401235B049943E1
:105AD000D207920B891801647047C0464900904B69
:105AE000595A0818016C436C436403239B03994380
:105AF0009207120C891801647047C0464900884B10
:105B0000595A0818016C436C436401231B049943E0
:105B1000D207D20B891801647047C0464900804BF8
:105B2000595A0818016C436C436403231B039943BF
:105B30009207920C891801647047C0464900784B5F
:105B4000595A0818416C036C03641C23994352078B
:105B5000D20E89184164704710B54900704B595AEC
:105B60000B580B185C680A505C6010BD49006C4B08
:105B7000595A08188169C369C36103235B029943B9
:105B80009207520D891881617047C0464900644BE5
:105B9000595A08188169C369C36107239B03994354
:105BA0005207D20B891881617047C04608740008FB
:105BB00049005B4B595A0818816CC36CC364154B80
:105BC0000B401105591881647047C04608740008DD
:105BD0004900534B595A08188169C369C3610123AD
