:020000040800F2
:1001000090360020DD020008612A0008052700085B
:1001100000000000000000000000000000000000DF
:10012000000000000000000000000000592B000843
:100130000000000000000000632A00081D110020DC
:10014000952B00089F2B0008A92B0008B32B000853
:1001500059250008BD2B0008BF2B0008C12B000843
:10016000552B0008572B0008072700080327000815
:10017000EF020008572500084D2B0008EF02000889
:10018000EF02000809270008EF020008EF0200084C
:10019000EF020008EF020008EF020008EF0200087B
:1001A000F5260008F7260008F9260008FB260008B7
:1001B000FD260008FF260008012700085525000835
:1001C00000F002F800F05DF80CA030C808382418E0
:1001D0002D18671EA246AB4654465D46AC4201D17F
:1001E00000F04FF87E460F3EB6460FCC0126334254
:1001F00000D0FB1A3343A246AB461847186C0000E8
:10020000686C0000103A02D378C878C1FAD8520757
:1002100001D330C830C101D504680C6070470000BC
:100220000023002400250026103A01D378C1FBD812
:10023000520700D330C100D50B60704710B5662956
:1002400002D106F0DBFA10BD642902D100F018F9E2
:1002500010BD752902D100F013F910BD732902D128
:1002600001F0C3FB10BD002010BD1FB501F09AFCCA
:1002700004000020002106F0BDF9E0601FBD10B5AC
:1002800010BD04488546FFF7F0FF04F0C1FD02F001
:10029000A7F800000010002003B4FFF7F0FF03BC34
:1002A00002F0C0FC70B505460C46164602E00FCCC5
:1002B0000FC5103E102EFAD2082E02D303CC03C570
:1002C000083E042E07D301CC01C5361F03E0217878
:1002D0002970641C6D1C761EF9D270BD07488047DA
:1002E00007480047FEE7FEE7FEE7FEE7FEE7FEE71A
:1002F00004480549034A044B704700005D2B000881
:10030000C101000890360020903600207047FEB5ED
:10031000054610460C46184373D0AE468C46002066
:10032000AD1A01469C4167D36646002701243D462D
:10033000B61A9D4102D313463A46212465467646B5
:100340002F04360C3E432D0CB61A9D4104D3150CD8
:100350001B042B4312041034654676462F06360ADA
:100360003E432D0AB61A9D4104D3150E1B022B43A2
:1003700012020834654676462F0736093E432D099A
:10038000B61A9D4104D3150F1B012B431201241DE6
:1003900065467646AF07B6083E43AD08B61A9D419E
:1003A00004D3950F9B002B439200A41C6546764610
:1003B000EF0776083E436D08B61A9D411AD392188E
:1003C0005B41641C16E00018764665464941B71A41
:1003D0009D410191009009D36046B11A98418E4623
:1003E0008446009801990025401C6941DD075208A8
:1003F0002A435B08641EE6D57246634603B0F0BD2F
:10040000FFE700200146C046C0462A462346F5E7DE
:100410000FB4054910B503AA029801F0EBFA10BC1D
:1004200008BC04B0184700002815002070B50C4621
:100430000546012A05D02878800600D5EA69002300
:1004400002E0012305E05B1C934202D2E05C00283D
:10045000F9D1A869E618C01AA861286AC0182862EC
:100460002846C046C04604E06A682078A968641C33
:100470009047B442F8D32846C046C04670BD00003D
:10048000F7B5002575291068009914A611D0C0464B
:10049000C046002802DA404211A608E00099096827
:1004A0008A0701D50FA602E0490704D50EA601254B
:1004B00001E0C046C046009F0024243704E001F05C
:1004C000ADFA30313955641C0028F8D12B4632463C
:1004D0002146009801F013F8FEBD00000000000066
:1004E0002D0000002B00000020000000F3B50446A2
:1004F000002081B020622046E168884700287AD039
:10050000252802D06268A16871E0E16820460025D4
:10051000884706460020E0610746A0612A2E0AD0DF
:10052000304605F025FD002827D0B8000019303EE0
:100530000090866119E00298BA00121902C8916110
:1005400002902046E1688847012F064617D1E069EE
:1005500000281FDA202085431CE000980A218069CA
:10056000484300998019303888612046E1688847FF
:10057000064605F0FDFC0028EFD1012F0AD02E2EF3
:1005800008D12046E16888470646202005437F1CA5
:10059000022FC3DBA069002803DA4042A0610120DA
:1005A0000543E80701D010208543002E23D03046B4
:1005B0004138192803D80120C002054320362046BF
:1005C00025603146029A1546FFF738FE00280BD009
:1005D000012806D0ED1DE808C000083002908AE727
:1005E00009E02D1D029586E762683046A1689047B4
:1005F000206A401C7EE7206AFEBD000010B504465C
:1006000003E003F029FD401C08D020780549641C54
:100610000028F6D10A2003F01FFD10BD0020C043C2
:1006200010BD000028150020F8B5042A2CD383073C
:1006300012D00B78491C0370401C521E83070BD04C
:100640000B78491C0370401C521E830704D00B78A2
:10065000491C0370401C521E8B079B0F05D0C91A02
:10066000DF002023DE1B08C90AE0FFF71BFEF8BDF0
:100670001D4608C9FD401C46B4402C4310C0121F43
:10068000042AF5D2F308C91A521EF0D40B78491C7B
:100690000370401C521EEAD40B78491C0370401CA6
:1006A000012AE4D409780170F8BD01E004C0091FF3
:1006B0000429FBD28B0701D50280801CC90700D01A
:1006C0000270704700290BD0C30702D00270401C93
:1006D000491E022904D3830702D50280801C891E8B
:1006E000E3E70022EEE70022DFE7002203098B4266
:1006F0002CD3030A8B4211D300239C464EE00346C1
:100700000B433CD4002243088B4231D303098B4274
:100710001CD3030A8B4201D394463FE0C3098B42AA
:1007200001D3CB01C01A524183098B4201D38B0103
:10073000C01A524143098B4201D34B01C01A5241A6
:1007400003098B4201D30B01C01A5241C3088B42EB
:1007500001D3CB00C01A524183088B4201D38B00D6
:10076000C01A524143088B4201D34B00C01A524178
:10077000411A00D201465241104670475DE0CA0F4F
:1007800000D04942031000D3404253409C4600220F
:1007900003098B422DD3030A8B4212D38901FC2219
:1007A00012BA030A8B420CD3890192118B4208D3EF
:1007B000890192118B4204D389013AD0921100E051
:1007C0008909C3098B4201D3CB01C01A5241830965
:1007D0008B4201D38B01C01A524143098B4201D392
:1007E0004B01C01A524103098B4201D30B01C01ABD
:1007F0005241C3088B4201D3CB00C01A5241830837
:100800008B4201D38B00C01A5241D9D243088B428C
:1008100001D34B00C01A5241411A00D20146524145
:10082000104663465B1001D34042002B00D549427D
:10083000704763465B1000D3404201B50020C046BC
:10084000C04602BD7047704770470000F0B50C46C7
:10085000871A9C410D46861A9D4103D2C01BA141B7
:10086000D21963410D0D1F0DC94EEC1BAE435CD078
:100870007F057F0D0026002F51D02D05AC46A943E2
:10088000DD020123ED0A1B051D4320231B1B24D47D
:100890001746E740381871412F46E740CC199D4074
:1008A0002818314661410C0D27D161449A4013D577
:1008B0000023401C594152000ED140084000012243
:1008C0004B005205D34207D305204007C14201D552
:1008D000B04900E0B0493046F0BD6B00002A00D0BE
:1008E00001229A181F23203C1B1B01D5002302E084
:1008F000E540281871410C0DD7D0012424050919B1
:10090000C407CD0740084908E40F28436144002C80
:10091000D5D00024401C61419A40D0D1CDE76A0572
:10092000520DD9D1C90FC907D5E79C4D4E000028FB
:1009300001D0012400E0002434195F00002A01D016
:10094000012600E00026BE19954FAC420CD8AE42FD
:100950000AD8B44206D001256D05EC42BCD0104641
:100960001946F0BD9942FCD000203946F0BDF0B5E3
:100970001FB40C460F46811A9F412546861A9D4199
:1009800006D20125ED076F40401ABC4152187B4149
:10099000210D1E0D8D1BAC467D4D8D437ED0750502
:1009A0006D0D7CD00D05AE46AC431B031B0B794D82
:1009B00052429D41202366469B1B14D31746F740A5
:1009C000381800260090744160462F460741E4190C
:1009D00000989D402818664116D4714671189A40B7
:1009E00025D5012320E093182A466A415200002BA6
:1009F00000D0521C1E23203E9B1B002B61DD354185
:100A0000EE1728186641E8D5001876415B1C9A401D
:100A100000D3401C4B05F3181524E34010D3002BE2
:100A200052D071467118D30FC01802D3491C05B0BB
:100A3000F0BD0123DB079A42F9D140084000F6E7F8
:100A400001225205B21801D1002853D00123CC0A4B
:100A5000DB029943891E002A08D1020C03D0020C44
:100A60000004103902E00246002020390023550B13
:100A700005D112020823550B01D152010D23550C4B
:100A800001D112011B1DD50C01D192009B1C150D2B
:100A900001D152005B1C2025EE1A01E02CE022E07F
:100AA0000546F54015439840CA1AE1076918130531
:100AB000C918002ABBDA032040070818C10FC9076C
:100AC0000FE071466118B2E7F10740080843711062
:100AD00071444A000CD001235B059A42A7D2C90F8A
:100AE000C9070020A3E74905490D26D1002001E0F0
:100AF0000028F4D100219AE7284D6600002801D093
:100B0000012100E0002171185F00002A01D00126B8
:100B100000E00026BE19224FA94210D8AE420ED8DE
:100B2000B14208D001256D05E94206D01946A80258
:100B3000414010467BE79C4201D0214677E70020E8
:100B4000394674E710B50C465C4005D50124E4072E
:100B50006340FFF70CFF10BDFFF778FE10BD30B407
:100B60000C465C4004D50124E407634030BC6DE6CC
:100B700030BCFCE670B50124E40761400D465D40E1
:100B800002D4FFF763FE70BD6340FFF7F0FE70BD57
:100B9000FF0700000000F0FF0000F07F0000E0FF12
:100BA0000000F87FF0B5F94D0C091E092C402E40CD
:100BB0002F468BB0A7437DD0B543FCD0002E7AD012
:100BC000002CFCD00D465D40ED0F2543AC1BFF25EE
:100BD000AD0464190894C502440DC9022143500DA7
:100BE000DC0204430120C00701430443D202019107
:100BF000200C110C00958C46010423468B430A916E
:100C000061460904E24D8A430991010A7D4449196C
:100C10008039097805464D4301266D18F605751B88
:100C20006943C90C640B891C4C436418B5012C1B27
:100C3000250C2E04B4434C434D43210C69188909FB
:100C40000591009DE90701D00121C90704912C46B7
:100C500001996708CD072F434C08059DE10B4D43D3
:100C60002D0C29466646754302950D4645432E4692
:100C7000029D7D1BB44100950D465D4301942C0CF3
:100C80002F040D465543AE462D0C3D43029503946B
:100C90007546049C2D04641B049406D2029C039D9B
:100CA000641C002675410395029401AC70CC009F32
:100CB0007D1B01E03EE162E1B4410904009507912A
:100CC00001940599A4086143090C0C464443650B43
:100CD000E7040C4666467443A646640B3C43039502
:100CE00002947446049DE4042C1B049406D2029CD6
:100CF000039D641C002675410395029401AC70CCE1
:100D0000009F7D1BB44101940C465C430095650F28
:100D1000E7000C465443A646640F3C4303950294F7
:100D20007446049DE4002C1B049406D2029C039D8F
:100D3000641C002675410395029401AC70CC009FA1
:100D40007D1BB441AE09AF06049DC900AD092F4318
:100D5000049DA406AD060495079D344369180791C8
:100D6000059DE10B4D432D0C2946664675430295C2
:100D70000D4645432E46029D7D1BB44100950D4610
:100D80005D4301942C0C2F040D465543AE462D0CAB
:100D90003D43029503947546049C2D04641B049402
:100DA00006D2029C039D641C0026754103950294A3
:100DB00001AC70CC009F7D1BB44101948C0506945E
:100DC000079C890A611800950791019C0599A40860
:100DD0006143090C0D464543680BEF040D4664461C
:100DE00065436C0B3C43049FED047D1BAC4602D273
:100DF0000025641C6841009E019D371B8541084603
:100E0000584301950C46460FC5005443600F2843D4
:100E10006546E4002C1B02D20025401C6E41019D5A
:100E20003F1AB5412846BD09800628438446A009DB
:100E3000BF064E020699A40676180743079D0020B8
:100E400068410A99079019430020099B0090604669
:100E5000FF1913434041E20F64003A43A44604469D
:100E6000D71A8C41A04203D90120009020463A466F
:100E7000C70F941840416246D20F22436446640073
:100E80000494009CBE466400D71AA4460446029708
:100E90008C417746002F01D1A04204D96046401C06
:100EA0008446029A2046C40FA64694184041049AEC
:100EB0000546D20F224364466400D31A8D41714621
:100EC000002901D1A84202D928461A46641C1043C1
:100ED0000122002800D0164361020020079B8919D7
:100EE00004465C410223002C02DB4918134664418E
:100EF000089DCE0A2D145D194B056705E10A2C05E6
:100F00000D1908993E43C9076940002B08D093404A
:100F100006D30022761C5141002B01D176087600C1
:100F20001C4A002D43DB154241D0AA433FD0304636
:100F30000BB0F0BD06180D464D41174C7642AC4142
:100F40001AD395181C465C41134A6D42A24113D333
:100F5000012252054C00D4420AD15C00D4420BD08D
:100F60004B4002D592021143E2E749004908DFE70E
:100F70005940C90FC90718E000200849D8E70548BB
:100F800001420DD10342F7D0F2E700000000FF0755
:100F9000FC5B00000000F07F0000E0FF0000F87F35
:100FA000114859400143C01241400020C0E70123CD
:100FB000089A9B069A4205DC032252078918C90F3A
:100FC000C907B5E7052252078918074A1143D2120B
:100FD0005140ADE770B515461C4602460B46284603
:100FE0002146FFF7DFFD70BDFFFFFF7F0346CA020A
:100FF000400D10B510430A1504D00124E407204326
:10100000002A05DB0A4CA21A04D4D040FF2A00DDD6
:10101000002010BD4A00002B01D0012000E000207C
:10102000101801225205D042F2D8C817C04310BD93
:101030001E0400001F22030C02D10F22000402D064
:10104000030E03D004E00020014670470002083A76
:10105000030F01D10001121F830F01D18000921EE6
:10106000002801DB4000521E120551184205C01233
:10107000411810467047C10FC90700D040420122F5
:1010800092071143D6E701218907D3E7F0B58B4CCE
:101090000F09254689B0BD437BD01D092646AE43C6
:1010A000FAD00E465E402740F60F3E43254071D0F1
:1010B00024012142FBD0FF24AD19A4042D1B03956C
:1010C00001252D05DB02DB0AC9022B43C90A29438E
:1010D0001E010901040F130F050121431701880B9D
:1010E000820391432D098C46A90B1E438A03954325
:1010F000B30B9A0396433F09BA0B9403A743029696
:101100002E467E430497B6464E19D7190C460196D3
:10111000544305977E43371B7646BF1B3601B646C0
:10112000BE0B361900967646BC043719009C01D3D5
:10113000641C00946400002F01D001263443029EF9
:10114000049F754366467E430496760034196E000C
:1011500034190094029C019E1C196643751BAE460F
:10116000069465464519059C05956C43594375469B
:101170000891691A0191049E01465143A41B0491F0
:10118000611A009C0791E10605D061090122114313
:1011900002E072E06EE06109089D00272C0A2D062E
:1011A0006918049D7C412A0A2D066918019D624137
:1011B000AC0DAD026D185441079A910D920255196C
:1011C0006141029A644658435443069B059A5A4328
:1011D000121A131B9A0E9B015B187A41010B000532
:1011E000C3185141220A200644195A419A4200D29A
:1011F000491C01204002814203D315230226F643F5
:1012000002E014230326F6432020C51AA9401746FE
:10121000AF40DA400A4320460399D84009147318B6
:1012200019055118039A3843D2075140AC4009D0F0
:101230000122944006D30022401C5141002C01D1D0
:10124000400840001E4A934212D30122039892069E
:10125000904207DB0520400709181A480143C012D5
:10126000414004E0032040070818C10FC9070020CF
:1012700009B0F0BD0020F107FAE705180C464C4113
:1012800011486D42A04115D394181A465A410E4890
:10129000644290410ED301204A004005824209D3A6
:1012A0005A00824206D35940C90F084AC907002094
:1012B0001143DDE700200649DAE700000000FF07E0
:1012C000FE070000FFFFFF7F0000E0FF0000F07F4F
:1012D0000000F87F0121C9050123411842001B06C7
:1012E000D3185B0E0AD0C1100722D2068918400716
:1012F0005242D14201D5520089187047090208D5DF
:101300000146002A03D0C10FC907002070471046CC
:101310007047420202D000200249704707210905A8
:101320000143F4E70000F87FF0B5FF252D04C6095E
:10133000C209FF2704462E400137CB093E434840EF
:101340002A402B400746002A6BD0002B69D0AA42C6
:1013500067D0AB4265D0002800DA32460125ED05A2
:1013600029432C4309022002090AD21A4B0C7F247C
:10137000E31A434C000A7C44E35C7D2424041219E4
:1013800014145B00A218884201D3521C00E04000F4
:1013900049420C465C4324115C43DB016415E318AD
:1013A000040A5C43C502200D0C4644436419250A17
:1013B0005D432303EC0C0D46654300030019EB1855
:1013C0004C42A34201D35B18401CD4052018002BCB
:1013D00007D05B00C91804D3401C002901D1400884
:1013E00040003F2189048A4209D3002A08DC110603
:1013F000090F04D0032149074018C00FC007F0BDF2
:1014000001224100120689187F2252069142F6D22B
:1014100005214907C84201D59010F0BDFF20C00545
:10142000F0BD002F00DA32461648AA4207D2AB427E
:1014300005D21902090E17D0F80FC007F0BDFF251D
:1014400063002D06AB42F9D84900A942F6D8AB4259
:1014500001D1A942F2D0A94201D1002101E06100ED
:101460004908D0050843F0BD1102090EFBD0FF204A
:101470000243D005F0BD0A460146104654E700007D
:10148000125500000000C07F1F22030C02D10F2262
:1014900000041CD0030E01D10002083A030F01D151
:1014A0000001121F830F01D18000921E002801DB72
:1014B0004000521ED20551180212511819229040B4
:1014C00004D3491C002801D1490849000846704747
:1014D000C10FC90700D04042012292071143D3E750
:1014E00001218907D0E7704710B500F05FFB006865
:1014F00010BD10B5044600F059FB046010BDFFB5E7
:1015000004460D4681B0243000902168880604D539
:101510001022E0699143216000E00120A84201DD32
:10152000471B00E000270498A1697A191018081ACF
:10153000A0612078C00602D42046C046C0460026DE
:1015400008E003986268A168805D9047206A401CAB
:10155000761C206204988642F3DB2078C0060AD508
:101560002046C046C04606E06268A1683020904729
:10157000206A401C206238467F1E0028F4DC07E009
:1015800000986268A168405D9047206A401C206214
:1015900028466D1E0028F3DC2046C046C046207851
:1015A000000602D5022005B0F0BD0120FBE70000D7
:1015B000FFB50C461E468FB003CA089009914F0034
:1015C0007D0D00D16D1E002108460020C04603217C
:1015D000099A89050840002A03DA82008018400829
:1015E0000840800D01280A9002DD0020C0430A90C7
:1015F000089807430DD0F048F049281848430714CD
:10160000189800281DD07542291E1DDD0A984242F7
:101610001BE01898012802D00020302104E00020AF
:10162000F24305E02154401CB042FBDB304600226F
:10163000189B002121540F998B600A60486013B0F9
:10164000F0BDBD1B6D1CDFE70A9A002900DA694274
:101650000BA800F049FB0BAB07CB03AB07C3089902
:10166000099800F0ADFB6B4607C30146D448091842
:10167000002D00910BDDD24903980A9A4942401887
:10168000002303A90390684600F00AFE08E00399CE
:101690000A9A0023081803A90390684600F0AAFDDF
:1016A0006B4607C30004000C03D00020C043410870
:1016B00000E01046189A002A03D000220092154636
:1016C0001EE0751E05D400F075FA303262556D1EAD
:1016D000F9D501220843079602D000227F1C04E0BE
:1016E0002078302801D100227F1E002A069787D05B
:1016F0001EE0112D07DA00F05DFA303262556D1CE4
:1017000002460A43F5D1084303D00098002819D0B7
:101710000EE00021681E05E0235C625C63542254E5
:10172000401E491C8142F7DBA81B401E079506900E
:10173000079A18990020A0540F98079B069A816079
:101740000CC07CE711260020189059E7D21DF0B597
:101750000D460446D10893B0C90003C90C900D9101
:1017600004F050FB02460D98C00F01D02D2007E079
:101770002068810701D52B2002E04007C00F4001FF
:10178000032A0F9001D0072A05DB0346294620468D
:1017900000F066FA0EE12078800601D5E76900E0E6
:1017A00006272846652D04D0662814D0672D69D1F8
:1017B0002DE00020112F009001DB112300E07B1CA5
:1017C0000CAA03A910A8FFF7F3FE119900261098A0
:1017D0007D1C0E9142E001203B460CAAC0070B90F5
:1017E0000120009003A910A8FFF7E2FE119D1298B6
:1017F0001099002600280E9501D1781C0D18781B31
:1018000002D446427D1C761EE81B00903AE0012F70
:1018100000DA01270020112F009001DD112300E0E4
:101820003B460CAA03A910A8FFF7C2FE11993D463A
:10183000109800260E91217809070BD40E99A94221
:1018400000DA0D4603A9012D04DD4A19203AD27FA2
:10185000302A06D0B84201DA011D04DA01210091D4
:101860000FE06D1EEFE7002802DC86192D1A03E059
:10187000411CA94200DD0D46801B401C0090012048
:10188000C0070B902078000705D40098A84202DB1F
:101890000020C043009069460020C8720B980121C7
:1018A00002AF0337C907884225D0022010902B20B1
:1018B00011900B9800280BDA40420B902D201190CC
:1018C00006E00B9800F0AAF830317F1E0B903970BB
:1018D0001099481E00291090F3DC0B980028F0D1D5
:1018E00011987F1E38702088000501D5452000E042
:1018F00065207F1E387001A8C01BC01D0B900F987B
:10190000002800D0012041190098C01709180B9831
:101910000818A169081A401EA0612078C00602D4E8
:101920002046C046C0460F98002805D06268A168CE
:101930009047206A401C20622078C00625D52046AA
:10194000C046C04621E0002E07DB0E98B04204DD01
:1019500003A86268805DA16802E06268A168302027
:101960009047206A761C401C20620098401E002888
:1019700000900AD100F016F9C06862680168405C06
:10198000A1689047206A401C206228466D1E0028EE
:10199000D9DC07E062683878A1687F1C9047206A2C
:1019A000401C20620B99481E00290B90F2DC204657
:1019B000C046C046032042E601FCFFFF104D000078
:1019C000E1DFFFFF10B54369002B02D0C046C046DF
:1019D00001E0FEF72BFD012010BD127801462431F5
:1019E0000A7000224A700122ECE711680022D243FB
:1019F000E8E70000084B70B50D467B4400F01DF988
:101A00000446284601F068FD002802D00020C043AB
:101A100070BD204670BD00005B26000001468008B6
:101A2000081A02091018020A1018020C1018C0082F
:101A3000820012185200891A01E0401C0A390A2952
:101A4000FBD2704770B505464800440D124B00208C
:101A5000002C0AD0634008D09A4206DA6642B242AD
:101A600003DD12054019514170BD002C08D0002B38
:101A700009D0C90FC907002AF6DB084A114370BD17
:101A8000C90FC90770BD28460A03104302D00020C1
:101A9000034970BD284670BDFF0700000000F07FBD
:101AA0000000F87FF0B53D4B02460C461C4000207C
:101AB000002C63D03A4D8B4366D000296BDB0B0DB5
:101AC0001D05A94301252D0529430124FD33E340CC
:101AD00001D392184941FF3381339C468B02940D08
:101AE0000121234389074C42920200271B198C10C5
:101AF0005D1A04D42D1B02D42B4665004919921897
:101B00005B416408F4D15C1A08D40125ED07EE1797
:101B10005519744102D42A462346491C94185B4146
:101B2000012292071D46E61B8D4106D4B61A854157
:101B300003D42B46550034467F1924195B415208C3
:101B4000802AEFD1234300D0022338460A22D04016
:101B500001D3012213438A0510436246890A120504
:101B60008918002B09D00122D34002D30022401C47
:101B70005141002B01D140084000F0BD0B0313433D
:101B800007D0C90FC907F0BD0803104303D10029CE
:101B900001DB1046F0BD00202946F0BD0000F07FBB
:101BA0000000F87F0048704750120020004870473E
:101BB000301200200B4670B50246890780080843A2
:101BC00019469D08141AA941250908070543080963
:101BD0002C194841250A01060D43010A2C194141DF
:101BE000200C0D0428430D0C00194D410021401913
:101BF0004D41C00869070843E908840F8D0025435B
:101C0000840024184D4124196D41121BAB4107E09B
:101C10000925ED432C11521963410024401C6141F8
:101C20001C460A250026551BB441F1D270BD0000A8
:101C300001694A1C02610878704700B58FB00291B3
:101C400000210591054901937944039111460490BF
:101C50006846FEF74BFC0FB000BD0000E5FFFFFF3C
:101C6000F8B51F46044601230068DB02032601463F
:101C70001840072A05DB002801D017A506E017A5A4
:101C800004E0002801D016A500E016A5102081432D
:101C90002160A069C01E002FA06101D0401EA0617C
:101CA0002046C046C046002F09D038466268A16869
:101CB0009047206A401C2062C01C206206E0206A17
:101CC000FAE762682878A1686D1C9047761EF8D202
:101CD0002046C046C046F8BD4E414E006E616E00C3
:101CE000494E4600696E6600F7B516468AB033481D
:101CF00078446C4603467C33C06F5A689B680DC4B9
:101D00002E487844763003AC0DC80DC43720C0018E
:101D1000081837211B30FEF7F2FC05460C46803DC3
:101D20001B3C02D56442012000E0002000270990FE
:101D300010E0E0070CD00C2020497843794432466B
:101D40004C3941186846012300F054FA6B4607C32A
:101D500064107F1C002CECD1184F7F442E3F16E0FE
:101D6000E80712D02001C0190EC806910893079207
:101D70000068F04201D1981908903246012306A963
:101D800003A800F037FA03AB07C36D10641C002DE5
:101D9000E6D10998002806D032466946012303A8F7
:101DA00000F07EFA05E001233246694603A800F000
:101DB00021FA0A9B07C30DB0F0BD0000CC4C000017
:101DC000034640000A4610B5400D0BD00121C9075B
:101DD0000F24A40200191C0364082143540D21435D
:101DE000D20207E000210120F2E7D40F490021438D
:101DF0005200401E0029F8DADB0FDB07184310BD44
:101E0000FFB50D46144685B04868516803F0E2FFFF
:101E100000910190A868A16803F0DCFF0291039093
:101E2000A868616803F0D6FF029A121882420292F3
:101E300001D2012000E00020019A0B18D2180028DE
:101E4000019202D08A4202D903E08A4201D20120E3
:101E500000E000200099081800906868A16803F06D
:101E6000B9FF029A12188242029201D2012000E0C8
:101E70000020019A0B18D2180028019202D08A4241
:101E800002D903E08A4201D2012000E0002000993B
:101E90000818009028682168400049004008490857
:101EA0004018FA49471814E001994000C90F084347
:101EB0000090019802994000C90F084301900298D0
:101EC00003994000C90F08430290039840007F1E09
:101ED000039000980028E7DA0898002801D0EC4E1B
:101EE00000E00026B74201DA012000E000200028CF
:101EF00004902AD0F71BF806C00E15D0029B2021B3
:101F0000091A039A8B401A430392029A019BC2401A
:101F10008B401A430292019A009BC2408B40009969
:101F20001A430192C14000917B110DD06F460320EE
:101F3000C11A03D500218200B95003E08A00810054
:101F4000BA587A50401EF3D53746039802990028B4
:101F500000D00120014308980291002808460CD0C7
:101F6000002800D001200199019A49050843012168
:101F7000D20AC902D202019200E001210E9B012285
:101F8000D207012B02D0002B03D013E0002807D189
:101F900020E0904204D890420CD1019B0B4209D022
:101FA000019B5918019105D10099491C009101D15B
:101FB0007F1C009200280DD0102108460020C0464A
:101FC0000498002806D00F98002803D0082108465E
:101FD0000020C04628682168019B009A4840C10F34
:101FE0000598C90739430EC009B0F0BDFFB587B0E9
:101FF000099A0898089953689268406889689646D3
:102000000022039317469446089A12685300099ACF
:102010005B081268520052089A1A9E4BD4180A9A0A
:10202000002A01D0352200E040220692002201233E
:1020300015460492DB07059324E0002D05D1754673
:102040000346039E4D1BB34109D375466646039B69
:10205000491B049D9841059B7519AC465F41634639
:102060003B4308D0059B049EDD0776082E435B08A2
:102070000496059301E0521E641EC50FED07491832
:102080004041521C069B9A42D7DB002D04D1754675
:10209000039A6B1A824101D203200CE0039A0B468B
:1020A0006B404240134303D0014303D0012002E0C0
:1020B000022000E00020614601910021009702917A
:1020C0000A99002905D0614640020143704B0191F5
:1020D00002E08007002302909C4201DA012000E028
:1020E000002007003AD01A1BD006C00E15D0029D62
:1020F0002021019C091AC5408C402543029C8C403C
:1021000000D001242543019C0295009DC4408D40D0
:1021100000992C430194C140009154111DD06D468B
:102120000221002202290CD10320001B07E0002815
:1021300004DB8600AE59002E00D00122401C03288B
:10214000F5DB081B02D588002A5004E080002858DF
:1021500010438A00A850491EE3D51C460A9800285F
:1021600002980CD0002800D001200199019A49055D
:1021700008430121D20AC902D202019200E00121E2
:10218000109B0122D207012B02D0002B03D013E0B9
:10219000002807D11FE0904204D890420CD1019B47
:1021A0000B4209D0019B5918019105D10099491C96
:1021B000009101D1641C009200280CD01021084627
:1021C0000020C046002F06D01198002803D0082117
:1021D00008460020C04608980999019A009B0068AB
:1021E00009684840C10F0798C907214382600AC0A7
:1021F0000BB0F0BD00B585B0019300920A460146D0
:10220000002302A8FFF7FCFD02A807C805B000BD27
:10221000FFB50A461F4685B0079901930123009137
:10222000014602A8FFF7ECFD02990398049ECA0F2D
:102230004900D20700920F22490892028C1A00210D
:10224000002800DB0C46450013486D08844214D377
:10225000079A002A04DA441E0026104DF64302E0D5
:1022600004460D460E46102108460020C046002FA9
:1022700003D0042108460020C0462005E90A08438F
:10228000009908436905F20A1143ADE602C0FFFF59
:10229000013C0000FF3F0000FF070000FFFFFF7F41
:1022A00000B585B0019300920A460146002302A8BA
:1022B000FFF79CFE02A807C8A8E7FFB50A461F461D
:1022C00085B00799019301230091014602A8FFF709
:1022D0008DFE02990398049ECA0F4900D20700920E
:1022E0000F22490892028C1A0021002800DB0C46BC
:1022F000450011486D08844214D3079A002A04DA75
:10230000441E00260D4DF64302E004460D460E46DF
:10231000102108460020C046002F03D004210846A3
:102320000020C0462005E90A0843009908436905D2
:10233000F20A114358E60000FF070000FFFFFF7F8D
:10234000F8B5264C4E00069DA6420AD8A64201D1F9
:10235000002806D15E00A64203D8A6420AD1002A70
:1023600008D00D242404254233D02946002000F053
:1023700083F8F8BD0C461C4311D4994207D0C81A03
:1023800002D3EFF30080F8BDEFF30080F8BD801AB0
:1023900002D3EFF30080F8BDEFF30080F8BD09240D
:1023A0002407E5008B4207D0581A02D3EFF30080D0
:1023B00006E0EFF3008007E0101A03D3EFF300808C
:1023C000A04303E0EFF30080A043284380F300889C
:1023D000F8BD009500F068F8F8BD00000000E0FFCF
:1023E00010B50446C046C0462046FDF755FF10BD57
:1023F000024670B50A4392072AD11E4DEE0104C869
:1024000008C9541B9443344017D0D0B2D9B2401AF3
:102410002106014310D190B299B2401A2104014320
:102420000AD110021902000A090A401A21020143C6
:1024300002D1100E190E401A70BD9A42DFD010BAA8
:1024400019BA884201D9012070BD0020C04370BD77
:1024500002780B78401C491C002A09D09A4207D107
:1024600002780B78401C491C002A01D09A42EFD018
:10247000D01A70BD01010101C80212D54803400FF6
:10248000002804D0C803C043012188407047EFF3FF
:1024900000800001000903210907084380F3008838
:1024A000704700207047000010B500200249029AD2
:1024B00000F004F810BD00000000F87F10B50C46D5
:1024C0001107090F092904D00A290AD008290CD1BB
:1024D00004E011460820FFF7CFFF06E0510606D5BD
:1024E00001E0510601D50120C007214610BDD106EB
:1024F00007D501010909CC084907000E000604436D
:1025000009E0410F20024907000A0143200E00069E
:102510001D22D14101430846E7E730B58C18027807
:10252000401C13071B0F01D10378401C120906D170
:102530000278401C03E00578401C0D70491C5B1EAE
:10254000F9D101E00B70491C521EFBD1A142E6D328
:10255000002030BD7047704780B500F079FF80BD26
:10256000F0B591B0079314460D460890481C904270
:1025700009D2C100089B5858591849680CCBFEF77E
:10258000EEFA079A03C2189B169A611B0020584E58
:1025900001290190039202931CDBE000089A1018B5
:1025A0000691011F083800680968069BDC001219B3
:1025B000131F083A12681B68FEF7D1FA079A1051E8
:1025C0001019416006990020012909D1C3430F90D9
:1025D000109002E0C34310900F900E90344653E0E9
:1025E000C74343490C91012632460D960F900E9039
:1025F00004900595109709905019C100089C6058E7
:1026000061184968D50067193A46083A12683B1FB5
:102610001B68FEF7A4FA079A50515019416060599F
:102620007F680A903946109D2A460C9C234603F089
:102630007CFCB1B206290D9900D8049900280D9AA6
:1026400000D1024611400029384600D12046002919
:102650000A9A144600D12C460B900029109601D1FD
:10266000099810900F980E993B46FEF76BFA0F9061
:102670000E91761CB2B206999142109823462746D5
:102680000B9C0C94059DB5DC17980D900898074697
:102690000837C4CF45690A9585690C95C0690B90C8
:1026A0000298109D0580039818C00C1F002C18DD9F
:1026B0000F980E993346FEF752FA3A460A9BFEF7F8
:1026C0004EFA0C9A0B9BFEF74AFA05460E46204638
:1026D000FEF7D1FC02460B4628463146FEF762FA69
:1026E00001E0019801460D9A03C211B0F0BDC04649
:1026F000FFFFEFFF704770477047704770477047A4
:10270000704770477047704770470000F0B59FB042
:102710001C902898279E1690864200D398E11F4669
:1027200015460B46269810902598179024981E90D1
:1027300000241046394622461A93C64BFEF7A6FCE3
:102740001A9B0690059101200F90C00778400990D0
:10275000E043C1001C980D91401804901798083070
:1027600003901E99481E0790881E0E901D941E947B
:1027700015941B94214619950B971A78052A00D1B8
:1027800066E1C8071BD0B1B20E9888423FD1501CF9
:10279000187050011099081846701D9C1878400157
:1027A00008181C381B9A0280187840010818014646
:1027B00014391E9A0A6018380460002015903004FD
:1027C000440B17990859091949682A463B4603F0F2
:1027D000C4FB02461C99085909194968002A0CD003
:1027E0001D9D2A461E9C234603F0B7FB002800D0FF
:1027F00001201A9B00211B9A1AE1721E1A9B1B785A
:102800005B01109CE25402460B461B96FBE00A92C9
:102810001291C9001C98475813914418656800220A
:10282000384629468C4BFEF78DF902460B461D981B
:102830001E9903F085FB002813D1A068E1683A4691
:102840002B4603F07DFB00280BD10A99481C1A9BEC
:10285000187048011099081846701D9C0B9F199D0F
:102860009CE7119518971799139A88588C186168E6
:102870000127FA079143199D2A460B9B03F055FB4C
:10288000002800D0BCE00025189811992A46734B07
:1028900003F040FB1490211F083C20680968199A36
:1028A000099B03F04DFB002800D10746149800282F
:1028B0001598129900D0A3E00743F80700D19FE0D4
:1028C0000C960E1D0798864200DB079E481C089058
:1028D000B04229460FDA0398139944180025089F3F
:1028E00029460CCC2846083CFEF72CF9054608344E
:1028F0007F1CB742F5DB0120C00781432846069ABA
:10290000059B03F02AFB0899C9001C9A55585118D9
:102910004F6800280C9E159727D028463946189CEA
:102920002246119F3B4603F000FB00902846159974
:1029300022463B46FEF713F90290019120463946A4
:10294000159F2A463B46FEF70AF9009A002A00D155
:102950000290002A019B00D10B46002202981946E2
:102960003C4B03F0FAFA00280ED10A984001109966
:10297000085CC0001C990A58081843682846394664
:1029800003F0C8FA002839D1149504981399461811
:102990001298C01E0C901898119C08990A4605467A
:1029A0000C9881421EDB27463068189074682146D7
:1029B00013922A463B46FEF7C5F8129011911498DF
:1029C000159902460B46FEF7BDF8129A119B03F0CB
:1029D000ACFA139A0D997618511E00281898149580
:1029E0001597DBD10A99481C1A9B18704801109959
:1029F00008184270561E0B9F199DCEE60F98159031
:102A00000B9F1D9A1E9BB0B2C0001C990D58081850
:102A10004468284621461D921E9303F09EFA014603
:102A200000280F9A104600D10846114632461A9BDC
:102A3000002800D11D95002800D11B920028199D67
:102A400000D11E94761CB0B2169A904200D294E641
:102A50001FB0F0BD0000084000001440000010400E
:102A600070477047F0B599B00F930E920646B220AA
:102A7000305C002860D03046B2300D901E980C902B
:102A80002E48183018902E48021D012016901792DB
:102A9000158828461038FEF7EEFA07460C462846F9
:102AA000FEF7F1FA02460B46082D00D33A46082DF0
:102AB00000D323462348014600684968FEF7E6FA3A
:102AC00011901091B7883846FEF7DDFA0E9A0F9BE9
:102AD000FEF7DCFA1390129130781590707814900C
:102AE000B468F368189903C96A469062D162139872
:102AF00090611298D0619460D3601761149810604F
:102B00000020082D014600D010995162082D00D0F8
:102B1000119810620C480C99169C2246159BFDF7E3
:102B200077FC601C179A20321899203118912036B2
:102B30000D9909788C42A9D319B0F0BD90120020EC
:102B40005013002028120020B86B000880B502F056
:102B500061FE80BD704770477047000080B500F08F
:102B600075F8074807490160074820210160BFF355
:102B70004F8FBFF36F8F62B604480549016080BD77
:102B800008ED00E00001000880E100E0F411002001
:102B900000E1F50580B5002003F038F880BD80B570
:102BA000012003F033F880BD80B5022003F02EF839
:102BB00080BD80B5032003F029F880BD70477047C1
:102BC0007047000082B00B4604466846026003A0CE
:102BD00009A12246FDF71CFCFEE7C0465B25733ABF
:102BE00025645D5B25735D2061737365727420409D
:102BF0002025730D0A0000002E2E2F2E2E2F2E2E94
:102C00002F2E2E2F2E2E2F706C6174666F726D2FEB
:102C100068616C2F7372632F68616C5F646D612EE5
:102C200063000000FEE7000006480021016006493D
:102C30000160012141607D20C00000BF401EFCD129
:102C40007047C0460070104040B00000B0B503208F
:102C50000649814306483CC93CC03CC93CC03CC90C
:102C60003CC03CC93CC003488047B0BD292C00088B
:102C70000080002001800020014908607047C046A4
:102C80002800014010B503239C0780030019074C5E
:102C9000044018040918890889B20919044B1960FD
:102CA0001018800880B2586010BDC0460000FFFFB9
:102CB0002C00014048490A6801239A431018086013
:102CC0007047C046104908607047C046411E8841A1
:102CD00040010C490A6820239A4302430A600120FC
:102CE000800301490860704700E100E080B50120E1
:102CF000400304490A6802430A60034800688047A9
:102D000080BDC04634000140F4350020B0B5072234
:102D10000240FF21CB01440A1C40A2184309782439
:102D2000234078332340D2182B4B5C68054D254057
:102D300052195A6009041A688A43000E00041018D8
:102D40001860B0BD0080FFFFB0B5441A012C04D05C
:102D5000022C04D10120850705E07F2002E0062C2B
:102D60001AD28120C5051046FEF7BAFB0146284657
:102D700003F0ECFC05462046FEF7B2FB0146284670
:102D8000FEF7D2FAFEF7A6FA0022074BFDF7DAFEAD
:102D9000FEF72CF980B2B0BD092C01D30025E2E783
:102DA00041200506DFE7C0460000E03F81090C2214
:102DB0000A40C107890F8918020E12028918000BF8
:102DC000F0220240F032D0B2081803490A68034BDF
:102DD0001340C01808607047200001400100FFFF49
:102DE0004D4800687047C04670B5022829D00128B8
:102DF00010D000287ED1012001073F4A13688B4381
:102E0000136040071168814311607D200002424930
:102E1000086070BD384D2868042202432A603A4C8D
:102E20002046FDF762FC364902040A4600D04218EB
:102E300093B228688B421CD101210843286037488F
:102E400030E00126B0042C4D2A6802432A602B4C46
:102E50002046FDF74AFC2A4902040A4600D04218DF
:102E600093B228688B4228D1491C08432860254822
:102E70003AE0264B103318400B460F3B16011E401C
:102E800006432E6028680223184328602868984368
:102E9000286028680123984328600A40511C204676
:102EA000FDF723FC1C490860012001072A680A433A
:102EB0002A604007296881431BE0FF231B059843D4
:102EC00013061B091818286070042B6803432B6035
:102ED0002B6883432B6030042B6883432B601140A5
:102EE000491C2046FDF701FC0B4908607007296862
:102EF0000143296070BDC046085010400068890930
:102F0000FFFF000000D01213002D3101FFFFFEFF74
:102F1000014802490160704764360020005A62028D
:102F20000020704770B50C46FEF7A5F802460B4628
:102F3000FEF7ACF805460E462046FEF79CF8024622
:102F40000B46FEF7A3F802460B4628463146FDF72E
:102F5000F9FD03F02BFB70BD80B501F07DFB80BD5A
:102F6000424A515C0D22920181508018002141603B
:102F70007047C0463D4A515C35221201815080188D
:102F8000002141607047C046384A515C6B22D20034
:102F900081508018002141607047C046334A515C1F
:102FA0006922D20081508018002141607047C046DC
:102FB0002E4A515C6722D200815080180021416066
:102FC0007047C046294A515C09021D2252018150B6
:102FD0008018002141607047244A515C0902632235
:102FE000D200815080180021416070471F4A515C17
:102FF00009026522D200815080180021416070478B
:103000001A4A515C090233221201815080180021B2
:1030100041607047154A515C0902192252018150E2
:103020008018002141607047104A515C090231222A
:10303000120181508018002141607047B0B57321A2
:10304000C900421853684458012525434550536030
:10305000B0BD00001D22520183185B68034B595C10
:1030600080580840411E88417047C046986B000850
:103070004900DA4B595A0818016C436C4364E02349
:1030800099435207120E8918016470474900D94BC1
:10309000595A08188169C369C3610323DB01994345
:1030A0009207D20D891881617047C0464900E04BF4
:1030B000595A08188169C369C3610723DB02994320
:1030C0005207920C891881617047C0464900D84B5D
:1030D000595A0818416C036C03640F23DB029943AF
:1030E0001207520C891841647047C0464900D04B02
:1030F000595A0818016C436C436401239B0499439B
:10310000D207520B891801647047C0464900C84B6A
:10311000595A0818016C436C436401239B0299437C
:10312000D207520D891801647047C0464900C04B50
:10313000595A08188169C369C3610123DB069943A1
:10314000D2071209891881617047C0464900B84BFF
:10315000595A0818016C436C43640123DB079943F7
:10316000D2078918016470474900B14B595A0818B1
:10317000016D436D43656F4B0B4011055918016597
:103180007047C0464900AA4B595A08188169C3695B
:10319000C36101239B049943D207520B89188161B3
:1031A0007047C0464900A24B595A0818016D436D3B
:1031B0004365604B1340604A0A40D118016570476F
:1031C00049009B4B595A0818816BC16BC1638263DC
:1031D0007047C0464900964B595A0818416C036C19
:1031E000036420239943D207920E891841647047E3
:1031F00049008F4B595A08188169C369C3610E236E
:1032000099435207120F8918816170474900884B12
:10321000595A0818416C036C036402239943D2077E
:10322000920F8918416470474900814B595A081818
:10323000416C036C036401231A409943891841646B
:103240007047C04649007A4B595A08188169C369CA
:10325000C36107231B0599435207520A89188161EC
:103260007047C0464900724B595A08188169C369B2
:10327000C36101231A409943891881617047C04690
:1032800049006B4B595A081801694369436103238C
:103290009A431940891801617047C0464900644B40
:1032A000595A08188169C369C36103235B029943B2
:1032B0009207520D891881617047C04649005C4BE6
:1032C000595A08188169C369C36107239B0399434D
:1032D0005207D20B891881617047C0464900544B90
:1032E000595A0818816CC36CC364124B0B4011050A
:1032F000591881647047C04649004D4B595A081807
:103300008169C369C36101235B049943D207920BAE
:10331000891881617047C0464900454B595A0818C1
:10332000816CC36CC364034B1340034A0A40D11839
:1033300081647047FFFF0F000000F0FF49003C4B25
:10334000595A0818416C036C03640F23DB0199433D
:103350001207520D891841647047C0464900344B2A
:10336000595A0818016C436C43640123DB049943E8
:10337000D207120B891801647047C04649002C4BD4
:10338000595A0818016C436C43640123DB029943CA
:10339000D207120D891801647047C0464900244BBA
:1033A000595A08188169C369C36101231B079943EE
:1033B000D207D208891881617047C04649001C4B6A
:1033C000595A0818016C436C436401239B079943C5
:1033D000D2075208891801647047C0469C6B0008E8
:1033E0004900134B595A0818016B416B4163026342
:1033F0007047C0469C6B000849000D4B595A08188D
:10340000416C036C036440239943D207520E891820
:10341000416470474900064B595A08188169C369CD
:10342000C361702399435207520E89188161704716
:103430009C6B00080021024A026041607047C04650
:1034400002010001C0002349081840684068704725
:1034500010B5204C60684169002905D00121C16088
:103460002068002800D08047E0684169002905D025
:103470000121C160A068002800D0804710BDC0466F
:1034800080B502F08DFB80BD70B5C900114A51189E
:1034900049684278C3788478057840680860AE1E31
:1034A00070427041002D01D0800100E04120A40055
:1034B00004435807000E2043520002438A6070BD47
:1034C000C000044908184068816880220A4382606D
:1034D0007047C046F81100200020C043704700002C
:1034E000F0B5A14C25680226B54325600504174EAA
:1034F0002E401E2505400F07FF0A7D19AD1966688D
:10350000134F3740ED196560050C6D1E624E2E405D
:103510009202384D52192A409219E26089015F4A9D
:1035200089181140A16003218A07059DAD03AA18DF
:103530003F4D154009045918890889B2491921617C
:10354000C007800F216801432160F0BD0000E07FCB
:10355000E1FF010071490A6801239A4310180860CD
:103560007047C046F0B581B0009313460A46014645
:103570000F246604C4033440C50B1E272F403F1997
:10358000794C60681A4D28403818401C6060080269
:103590003040CE07B60A1707FF0EBE193018920149
:1035A0003E4E9219324080186A1CA5681540401999
:1035B000A060180C401EDC4A02409802DC4BC01888
:1035C00018408018E06003208207069B9B039A182E
:1035D000D84B13400004009A1018800880B2C0181D
:1035E00020610220084021680143216001B0F0BD44
:1035F000E0FF010000FC0F0003490A6801239A4321
:10360000101808607047C0460800014010B5074A0E
:10361000136803239C0789030919C64C0C4019043D
:103620004018800880B22018106010BD10000140C2
:103630000000FFFF4C490A68164B13400322920416
:1036400080008018164A0240981808607047C046EB
:10365000B0B5454B1C680225AC431C601C680D4D81
:1036600025401D60040C641EAF4D2540DD608905BA
:103670000A4C09199960C007800F19680143196045
:103680000320800491000818054901401868084388
:103690001860B0BD0F00F0FFFF0300000000C0FF86
:1036A000F0FF0F00411E884180002F490A68042363
:1036B0009A4302430A607047B0B5012214040A4BD2
:1036C000164A0A4D012907D1116829400001001945
:1036D000184008431060B0BD51682940000100192E
:1036E000184008435060B0BDC0FF01003F00FEFF1E
:1036F0000A4A012908D1411E88414001116820234E
:103700009943014311607047411E8841400151684F
:1037100020239943014351607047C0460400014093
:10372000411E8841C00010490A6808239A43024399
:103730000A6070470C48026801218A4302600268EF
:103740000A430260FF221202436B13434363436B3D
:1037500093434363426B802313434E22934343635B
:1037600088032C49086070470000014080B54A1E5C
:10377000022A09D21C224A4306498918C968490805
:103780000918FFF743FF04E0002902D1FFF752FFB9
:1037900080BD80BD7C1500207B490A6804239A43C4
:1037A000C007400F101808607047C04627490860DE
:1037B0007047C046134A002810D04B1ED9B20120D2
:1037C0000229014603D859B289000FA3595813683A
:1037D0000B43136080030F4908607047032906D02C
:1037E000022907D0012908D11068022107E01068DA
:1037F000082104E01068042101E0106801218843D9
:103800001060704734000140020000000400000016
:103810000800000000E100E0F0B581B0044600259A
:10382000094E0A4F2046E840C00708D03968E8B280
:10383000884701200002A8403168014331606D1CB7
:10384000042DEFD101B0F0BD34000140F835002067
:1038500080B5032801D100F06FF880BD3F2809DC56
:10386000072815DD08281FD010281FD0202827D1B1
:1038700005207047FF2811DD01210A02904217D070
:103880008A02904216D04902884219D10920704715
:10389000022811D0042813D10220704740280DD0EF
:1038A00080280DD1072070470320704704207047FF
:1038B000082070470A207047012070470620704793
:1038C0000020C04370470000F0B58408082525405B
:1038D0000C07240A0601F6B2341965192A4C266829
:1038E000104F3740ED192560090C491E0E4D0D4053
:1038F00011050E4A89181140491980090C4A1040D7
:10390000801810400818606003208107059A920310
:103910005118084A0A4000041818800880B280181C
:10392000A060F0BD07FF0FFFFF0300000000F03FA5
:1039300000FC0F000000FFFF134801680222114342
:1039400001600168914301607047C0460E490A68F2
:10395000054B13400122D204C0018018034A0240E3
:10396000981808607047C046FF01F0FF00FE0F0086
:10397000411E8841000201210902034A13688B435A
:10398000034313607047C04614000140F0B503AF15
:1039900089B06E46DD006C46651BAD46002B00D13C
:1039A0009BE0B360FB68BC684B431B199B00C318CA
:1039B0004A43900070600020F06135603562B36169
:1039C0001D6828147061FDF756FB0446F16028B2AB
:1039D0003061FDF750FB02460B462046F16802F0CD
:1039E00017FD326A03C200252A46494BFDF74EFBFC
:1039F000484A494BFDF7D6F882B06A4603C247A051
:103A0000F469214632697369FCF702FDB36902B0BB
:103A100070681B18306A08303062641CB068F4614A
:103A2000A042CCD1B068401E3061012856DB30681E
:103A30000CC80020F061401C3062C4003168085995
:103A400009194968B0617161FDF789F805460C46AE
:103A5000304A314B02F074FA00280DD12846214635
:103A60002C4A394BFDF76EF805460C46294A2A4B7D
:103A700002F05BFA0028F1D128462146254A334B53
:103A800002F048FA00280DD128462146214A304B41
:103A9000FDF758F805460C461E4A2C4B02F05DFA1D
:103AA0000028F1D1002228462146194BFDF7EEFAF5
:103AB000184A194BFDF776F882B06A4603C225A072
:103AC000F169326AFCF7A4FC02B03069316A8142C4
:103AD000B26973690846ADD101E000252C46274A3A
:103AE000274B28462146FDF7D1FA264A264BFDF7FB
:103AF00059F802F045FA0022054BFDF7C7FA054ACE
:103B0000054BFDF74FF8FC1F053CA546F0BDC04630
:103B100000806640182D4454FB210940CCECCFDFD7
:103B20002025643A2049203D2025642C2051203D49
:103B30002025642C20CFE0CEBB203D20252E3266F0
:103B400020B6C80A00000000FB2119C0FB2109C0F3
:103B5000FB211940CCECCFDF20256420BACD2025F5
:103B60006420D6AEBCE4B5C4CFE0CEBBB2EE203DFF
:103B700020252E326620B6C80A00000088855AD358
:103B8000BCE3743F86182C711A68903FF0B503AF00
:103B900095B06E46F160B360002B00D10DE1044694
:103BA000F16808465043800070608800F062501E43
:103BB000B062501F00217163904B80B2306072641C
:103BC000F068002800D1EFE068463061D000694617
:103BD0000D1AAD466946081A8546002AF5617461DA
:103BE000B06177D00021C843B0632246F5647548C0
:103BF000306331623264106882B00214B2640B46E2
:103C00003165694605B20D604A6000246EA0214608
:103C1000726BFCF7FDFB02B02846B16CFFF782F92E
:103C2000B4642246724BFDF731FA04460D46024653
:103C30000B46FCF787FF326D002A00D00446002AAD
:103C400000D00D4620462946B56C2A46694BFDF743
:103C50001DFA0446F06C046041602046F1632A4678
:103C6000654B02F06DF9002827D174622046F46B91
:103C70002146B26B356B2B4602F057F90121002823
:103C80000A46234600D10246306D062800D8B16CA2
:103C900011400029706A00D12B460029756C326CE6
:103CA00000D1B06B04460029316D084600D1306A5E
:103CB000B46333633062514B03E0756C4F4B326C2D
:103CC000316DF06A1218F06C0830F064491C8D42B6
:103CD00090D106E000203062C043B06339483063C1
:103CE000756C84B01846B03069461A46A8321C4636
:103CF000A0330B604A6088600121F069F1642A46B4
:103D0000B369FEF72DFC04B0BC2020583065B82004
:103D1000235886B0684602220560B169416084601C
:103D2000C26031680161B234F06921461A46336DD0
:103D3000FEF7ECFC06B00022B46B2046316B134654
:103D400002F0F3F800280ED0F36CB2202B4A115C7D
:103D5000002900D11354A0201450B020316A115210
:103D6000A420316B1150002425A02146726BFCF772
:103D70004FFB002DF5690FD00CCD9948083DFCF79D
:103D800047FBB06A844202DA9648FCF741FB0835EB
:103D9000641C706CA042EFD19348FCF72FFC306993
:103DA00085467469154B726C70682418716B491CD8
:103DB000B0687163814200D002E7FC1F053CA54654
:103DC000F0BDC046FFFFEFFF4368697270202564B5
:103DD0002C2052582025642C2052422025643A2061
:103DE00049203D2025642C2051203D2025640A00D7
:103DF000000050400000603F00001840901200207A
:103E000043686972702025642C2052582025643A3A
:103E1000204D61676E697475646573203D205B0099
:103E2000F0B503AF8DB06E46D4006D462C1BB46068
:103E3000A546BD68002900D1BBE073605A43521902
:103E40004A43920080183560EB01604AD218326212
:103E5000151D00227262D343F1610A461C4633638A
:103E6000A10008C81CB26C50346B1B142B600835C1
:103E7000521EF5D1B162F06900287368356800D12F
:103E800097E0316A0D1DB468F062B06A285829685D
:103E9000FFF748F82060F06A616008350834401E7A
:103EA000F2D1F069002873683568306B00D180E08A
:103EB000316A0A1D4649B161B568736AF360B16A37
:103EC000736230635058F2621168FFF72BF82A468C
:103ED00005460C4610603262516000223D4B02F0F4
:103EE0002FF8002824D13561284674612146326BB1
:103EF000B36902F01AF8012100280A4600D10246EF
:103F0000736A002B356A00D1194611400029B06947
:103F1000746900D104460029F26A306900D1306B1F
:103F20000029194600D1F168B461F160B16A04E07A
:103F3000306B736AB16AF26A356A083208355B1C05
:103F40001446F2699A422246BAD100243063B56918
:103F500029462246234601F0E8FF00280CD0B22073
:103F60001D490A5C5301CB18316B9960DD60F5681F
:103F70009D80521C18490A54184806CE083EFCF78A
:103F800047FAF0690028B56818D0F069401E306320
:103F90000CCD1348083DFCF73BFA306B844202DA43
:103FA0001048FCF735FA0835641CF069A042EFD1DF
:103FB00004E00A4829461A46FCF72AFA0A48FCF7A0
:103FC0001DFBFC1F053CA546F0BDC046F4150020B6
:103FD000FFFFEFFF0000184050130020196C00088D
:103FE0003F6C0008166C00083D6C000870B5154D5C
:103FF00029787F2421402970800013A10858144E8D
:104000007070010AB170C003C00FF070FEF788FF36
:10401000400010A1085A3071C005C00F10307071F7
:104020003078012101433170B079C007FCD030787D
:10403000FE2101403170F079802101432970044054
:10404000204670BD3C301040259600004391000092
:1040500061301040D601860180B5C1B2002001F068
:104060003FFE80BDF0B50B785A1E541EA24152008F
:10407000DC1E65426541AC01A2184C78651E6E429B
:104080006E41B5005219A41E65426541EC0012193B
:104090003032092807D801258540204C022B0FD04B
:1040A00066682E430EE010281AD804460A3CE4B293
:1040B0000126A640184CA579022B13D1B54312E076
:1040C0006668AE4366608507ED0EFF26AE40FC27AE
:1040D00007403C19E768B743AA403A43E26006E06C
:1040E000012217E03543A571035D02550B780022CC
:1040F0000C280FD0022B0DD10C2800D9401E4006F1
:10410000000E8978814003238340044804689C435F
:104110000C4304601046F0BD443810402C50104051
:10412000F0B583B0002800D183E0054600683C4C20
:10413000A04200D0E6E16E68042E00D3E7E1E86813
:104140000C2101400C2900D1E6E1602101406029E9
:1041500000D1E6E10321CA0103461340934200D196
:10416000E4E149020840884200D1E4E14020002116
:10417000295441200221295420463146FEF722FFCE
:1041800028464130029020463146FEF763FF002862
:10419000F9D10022204631460192FFF763F820460C
:1041A0003146FEF741FF20463146FEF715FF204617
:1041B0003146FEF725FF20463146FEF72BFF20460D
:1041C0003146FEF713FF20463146FEF7F1FE20464A
:1041D0003146FEF7C5FE20463146FEF7D5FE2046A5
:1041E0003146FEF7DBFE20463146FEF7C3FEA868E7
:1041F000471E0A2F00D3A3E120463146FEF72AFFCF
:10420000002800D0A6E0092F00D9A3E07F443F7921
:104210007F00BF4407173044106D81568960C04647
:10422000000010400027204631463A46FFF728F8A4
:1042300002E0012064E10027204631463A46FFF7BC
:10424000ADF844E00027204631463A46FFF718F81B
:10425000204631463A46FFF7A1F8204631463A4615
:10426000FEF764FF204631463A46FFF7A7F80122E1
:10427000204631466CE00027204631463A46FEF79C
:10428000FFFF204631463A46FFF788F82046314680
:104290003A46FEF74BFF01222046314636E0002722
:1042A000204631463A46FEF7EBFF204631463A4675
:1042B000FFF774F8204631463A46FEF737FF0127EC
:1042C00021E0012220463146FFF768F8002720460A
:1042D00031463A4615E00127204631463A46FFF777
:1042E0005DF8204631463A46FEF720FF00270AE0F7
:1042F0000027204631463A46FFF750F80122204673
:104300003146FEF713FF204631463A46FFF756F88E
:10431000204631463A461BE00022009220463146B4
:10432000FFF73CF8012706E00122009220463146C3
:10433000FFF734F80027204631463A46FEF7F6FEEE
:10434000204631463A46FFF739F820463146009A72
:10435000FEF7FCFEEA6920463146FEF791FFE86869
:104360004006420F20463146FFF754F8E868000740
:10437000420F20463146FEF73BFFE8684005820FBA
:1043800020463146FEF78AFFE868C005820F2046C6
:104390003146FEF77BFEE868C003420F20463146F7
:1043A000FEF78CFFE8688004420F20463146FEF796
:1043B0007DFEE8688003C20F20463146FEF79CFF71
:1043C0002A6A100B00D0C0E0686A000D00D0C1E07E
:1043D00001273803009020463146FEF77FFF6A6AC6
:1043E00020463146FEF798FFE8684003C20F20469A
:1043F0003146FEF7C7FEAA6A0098824200D3AEE0BB
:1044000000973F05E86AB84200D3ADE02046314648
:10441000FEF7AAFEEA6A20463146FEF7C3FEE868C8
:104420004002420F20463146FEF70CFF6869072222
:10443000024020463146FEF71BFE68690007C20FA6
:1044400020463146FEF79AFF6869C006C20F204633
:104450003146FEF75BFE686901070CD4020C20466A
:104460003146FEF76BFFA869C003C20F20463146F4
:10447000FEF774FF6869C0060BD42A8B20463146CC
:10448000FEF724FEA8698003C20F20463146FEF7DE
:104490002DFEA869C002C20F20463146FEF7ACFFD0
:1044A000A8698002C20F20463146FEF793FEA86934
:1044B000384201D02A6B00E0002220463146FEF748
:1044C0008FFF009FA87E800601D4002200E06A6B67
:1044D00020463146FEF774FEA8694002C20F20460E
:1044E0003146FEF793FEA8690002C20F204631460E
:1044F000FEF79AFE2046FEF7A1FD0298077001988C
:1045000003B0F0BD6D201B491BA2FEF75BFB6E20C4
:1045100018491FA2FEF756FB70201649354AFEF7D0
:1045200051FB71201349324AFEF74CFB72201149AE
:104530002E4AFEF747FB73200E492B4AFEF742FB3B
:1045400098200C4918A2FEF73DFBA6200949224AF3
:10455000FEF738FBA7200749204AFEF733FBAC20C3
:1045600004491F4AFEF72EFBAD2002491D4AFEF703
:1045700029FBC046066E000849535F444D415F4920
:104580004E5354414E434528646D61782900000024
:1045900049535F444D415F4348414E4E454C28636B
:1045A00068616E782900000049535F444D415F54B3
:1045B00052414E534645525F545950452868646DE8
:1045C000612D3E696E69742E7472616E73666572D8
:1045D0005F74797065290000A26D00082A6D0008DB
:1045E000D36D0008656D00085C6C0008926C0008D3
:1045F000C86C0008F96C000810B500281ED0002413
:10460000046001214160C1680E4A0A40C2608168AD
:104610000D4A0A40052109025118816001690B4ABF
:104620000A400B495118016141690A4A0A4009329E
:10463000426118301C21FCF756F800E001242046A6
:1046400010BDC04600E0FFFF000088E7E0FF00006B
:1046500018000800000003C0B0B582B00546FEF7A0
:10466000BFFB0A49FCF741F804466C430BD001201C
:10467000FEF7E8FE05460120FEF7E4FE01900198F2
:10468000281AA042F7D302B0B0BDC04640420F0086
:1046900070B582B0FEF7F4FE6D462846FEF7CAFEFE
:1046A00001242C706C80002628463146FEF7ECFE73
:1046B0002846FEF7BFFEEE702C7028462146FEF716
:1046C000E3FE3046FEF7FCFE2046FEF7F9FE034807
:1046D000102101600248016002B070BD80E200E07C
:1046E00000E100E080B5FFF725F80248FFF75EF82B
:1046F00080BDC046BD4D0008F0B589B0062800D980
:1047000079E10C467844007940008744030A1A484E
:10471000585FA2002068C10700D0BEE0002001461B
:10472000DCE02078002800D001206178FFF720F934
:104730002078002800D15EE161786068FFF706F913
:1047400059E12568280CFFF789F80590E068089082
:104750002769606921890791E1880691A688A749A0
:104760008866012428462040FFF716F8684607604F
:104770002801202101401F20059A104040183104D3
:1047800040182904890C069A12045118079A089BAC
:10479000FFF79AF803212046FFF70CF82BE1207869
:1047A000002800D001206178FEF7A2FF20780028C1
:1047B00000D120E161786068FEF77EFF1BE1276889
:1047C000F80700D092E000200121D0E02668F00731
:1047D00000D10BE16568A8B2FFF740F80490280CFF
:1047E000FFF73CF80590208907906189A389226929
:1047F000824D83482865AA6306931846089148436A
:10480000810002913007C00F484340182A6403908A
:104810006864B008012303407F27BD00B109294027
:10482000C9187B02F50A1D40491915460223184094
:104830000818049909044718029880180490300653
:10484000400F00D19BE060696C4988640398400088
:1048500097E0A27865782078460828463146FEF72A
:1048600073FAA070E27828463146FEF76DFAE070E0
:10487000E2796179A079FEF767FAE0716068FEF786
:1048800095FA2068FEF742FAA068FEF7F5F922468D
:104890000C3207CAFEF7F6F9ADE06268574B58498B
:1048A00099619A601A60050C0104C90C4D436E00B1
:1048B0008507ED0F2F467743BE19DE60470702D507
:1048C000A7681F617600B6185E60E6685E614E4BB1
:1048D00018402818FEF7BCFE01200021FEF76AFFF1
:1048E000216801200840FEF7DDFE84E03804000D59
:1048F000FEF7B4FF6268A5684049414B4B634D62C7
:10490000CD61160C12040892930B039673437A0739
:10491000D60F32465A43D2188A620007C00E861953
:10492000581904903B0D3803000F0590380707967F
:10493000069302D5E068C8625200039E50190862CF
:1049400020690863022007407808FEF7E9FE684600
:104950000499016008980799081806990904059AAE
:10496000891832462B46FEF7BBFD01200146FEF7B3
:1049700021FF216801200840FEF7ECFD3BE01F49C4
:1049800003984019C863A069C8641E407008FEF708
:10499000C7FE684604990160059880B2079909042A
:1049A000091806980004089A821838462B46FEF724
:1049B000D9FD2078C0060BD400252846FEF77AF9E9
:1049C0002846FEF783F901200221FEF7F3FE0DE0F1
:1049D00000200221FEF7EEFE0A48FEF773F90125DA
:1049E0002846FEF767F92846FEF770F9216801208E
:1049F0000840FEF701FE09B0F0BDC0467C1500205E
:104A00006D370008914D00080000FFFFF0B5ABB016
:104A1000054609A800248470048001F0CBF80895AD
:104A2000284618303721090103915F21CE432546DE
:104A3000B300C71817231B01FB58934A934210D8A1
:104A4000039A78325A438B00FB5807685F43BA18C1
:104A50008E4B9A4205D26D1C1830072DE8D90120E3
:104A600000E02046089F28AD287038786870A81CA0
:104A7000791C0722FBF7D8FD284600F0F7FC26A991
:104A80000220888001252695E0B201F049F8641CD7
:104A9000E0B20828F3D3049532465F3219200001B2
:104AA000019000252C4607950296069238198668D3
:104AB000C26807694369816905961496159216972D
:104AC000179314AA049F1775079F1B971891062226
:104AD0001C9250221A924B436D498B4201D83A46A0
:104AE00000E08222089F029E1F928B4202D8079B01
:104AF000194604E07D210901059B5918079B1E9169
:104B0000C0690028194608D01146039B1943884202
:104B1000019902D95F49891A09181D91E8B214A9AF
:104B200000F0C2FA1D98069A9042014600D3114641
:104B3000002800D1114618346D1CC02C0A46B4D18F
:104B400000913846CC3007903846CB300690384636
:104B5000CA3005903846C93004903846C8300390B2
:104B600000242746039880196022805C10A90870F1
:104B700004988019805C487005988019805C887062
:104B800006988019805CC87007988019805A8880C0
:104B900008988019132215014059CC801294139063
:104BA000F8B200F07DFF0C367F1C002EDAD12520F4
:104BB000C000089F38580A904B20800038580B904E
:104BC000785DFF2421463231795C09020818992169
:104BD0004900795C22463432BA5C12025118090449
:104BE00008189B214900795C22463832BA5C4D2373
:104BF0009B00FB5C254636357D5D0D902802C01874
:104C000012025118090408180E902720C000395CC0
:104C10000AA8017500260C9600F0DAFB01980099AD
:104C200081423D4601D2142005E008098E28204625
:104C300001D8C8081E38C0B200F048FB4F208000E1
:104C4000295C20A84170697801709F214900695A48
:104C5000C18005218901695CC1704234295D86707B
:104C600001710D4925910D4924910D4923910F2181
:104C7000C904229100F036FB09A8067000F06EFB13
:104C800030462BB0F0BDC04660EA000001879303B8
:104C900080841E0020FEFFFF401FD007D007E803DE
:104CA0007800A00FF0B583B0022801D902245EE09D
:104CB0000E46054602A80024847081214900018027
:104CC000012D0AD0002D16D102AFBC700620394646
:104CD000FFF7C8F9BC7007200AE002AF002001907E
:104CE000B87008203946FFF7BDF90198B87009205F
:104CF0003946FFF7B7F9A8001EA108588047284693
:104D000000F0E4FF284601F007F83168284600F07B
:104D10008DFF3179284600F0ABFF7179284600F00D
:104D2000C1FFB179284600F0EBFF31460B31284630
:104D300000F0A8FFF179284600F0DCFF10A0405DEC
:104D4000317A002906D01F210840012181400D48F9
:104D5000016009E01F210840012181400A480160EB
:104D6000BFF34F8FBFF36F8F084820214155204676
:104D700003B0F0BDCD5B0008E15B0008F55B000807
:104D80000506070000E100E080E100E06D3600204C
:104D900010B51E4C606C216C08182064E16B8842D1
:104DA00004D1E06C8047A06B206402E0A06C8047D7
:104DB000206C226D0221904710BDC046F0B581B035
:104DC0000446032806D31C20604310490818406994
:104DD000804718E01C2666430C488519E868A968D6
:104DE0000818A8602F4608376968884205D16869A5
:104DF000804706488059386002E028698047386853
:104E0000AA692146904701B0F0BDC0467C1500203C
:104E100088B0FEF77DF800F0ADFE00F0CBFE00F0AC
:104E2000B5FE02204E49FDF7DFFFFFF731FCFDF72D
:104E3000D7FF7D21C900FBF758FC401E010E0DD1A4
:104E40004849494A5060494803680B400321890793
:104E50005918016000209060072010600024444928
:104E60002046FFF71FFF00F0A3F8424D284600F050
:104E70005FFF6220E870FFF735FC00F085FA3E49DD
:104E80002046FFF739FC204600F0E4FA00F0DCFA97
:104E90003A493D4D2246039408688242FCD0086896
:104EA0000290B827364C20463946FBF71CFCC0213F
:104EB0003448FBF718FC01208007BC21605000201B
:104EC0000590E0511021402202232846FEF75EFEA5
:104ED000B221605C002823D025461835059E049138
:104EE0002C46143C20886946086010210691402217
:104EF00007922648059F3B46FEF792FF2088204CEC
:104F000069460F60486002231F480699079AFEF71A
:104F10003DFD03C50499605C1835761C8642DFD3DD
:104F200068461BA1016020461D4A1E4BFDF79AFDF5
:104F30001D48FBF763FB039C6042E143124D1B4E8F
:104F40003268A2420B4600D303469A18C82AF7D308
:104F500000F070FD00F078FA34680849029A9AE788
:104F600000B4C404FFFFFF0010E000E020ED00E00B
:104F7000C81100201014002098110020FC350020DA
:104F80009012002050130020002002200040022038
:104F900072616E67652F76656C6F636979000000DA
:104FA000C3F5285C8FC20940446C00088C36002091
:104FB00070B5184E184800253570E121090371605D
:104FC000B060F07B07210143F173311D2846FFF7E4
:104FD00069FE124C34616664201DFFF70DFB012051
:104FE000A06065600E482060606917218843606199
:104FF000608B0004A061E0680A4901400A48081873
:10500000E06000F0ADFD00F0C1FD2046FFF788F83C
:1050100070BDC04674360020030200010036002037
:105020000000104000008EFF0001100070B5044623
:105030000E4D6E1F00F0BEFE317808220A4332701A
:10504000001940082146FBF750FB297807220A4047
:10505000C000801808382870287802210143297080
:105060002878FD210140297070BDC04605341040EC
:1050700002480178DF220A40027070474A3410402B
:105080000248017880220A4302707047663410405B
:105090000721014003480278F82313405918017092
:1050A0007047C0464F341040F0B58DB00F460490A5
:1050B000096878680590B8680190FE683C690696B2
:1050C0006643386A0A90786ABD6ABB6900220C910F
:1050D0008D420B90089307941DD9F86A09907D20A2
:1050E000C10030461446FBF700FB22460C994018DD
:1050F000854221462C4610D8E000001D0A21FBF70E
:10510000F4FA02460999002902D00804CC49411852
:105110000120024301E011462C462720C301387DBF
:10512000002809920391029310D0002A0C9D03D00D
:10513000601B7D21CE0046437001181808302549B8
:10514000FBF7D3FA4000441C019F09E0F8694003D3
:10515000C0182049FBF7C9FA1F4C0440019F0C9D61
:10516000690BE804001D0A2200263346FBF7CFF83E
:1051700004994901194A88508D183804B04FC01954
:105180000599491E89B20143696006984003029956
:1051900040181049FBF7A9FA07990904C91980B208
:1051A0000843A86020040899491E89B24018E860A5
:1051B0000A98401E80B22861FF2000060B998143A7
:1051C0006961AE61099880B203990843E8610DB046
:1051D000F0BDC04610270000FEFF07000028014078
:1051E000F0B582B036494A7ABB2313404B72CA7B72
:1051F000EF2300931A40CA738A7EDE252A408A76FE
:105200000C7FFE2214400C77CC7F7F262640CE7781
:105210002C4C2678164026702B4CE67E1640E676FF
:10522000267FDF2737402777677FBF26374067779E
:105230008F7E37408F762378F8273B402370237A80
:10524000134023720190012805D123793B4023713B
:10525000237B134023730B7B33400B734B7BF7266D
:1052600033404B738B7B2B408B73CB7B3340CB73A7
:10527000A37F1F261E40A6778B78FD261E408E70CA
:10528000A67C0198002806D02E40A674637C009866
:105290000340637402E01640A6740098237C034028
:1052A0002374207DFB2303402375E07F1040E077CB
:1052B00008781040087088781040887002B0F0BDFF
:1052C000213010404130104000301040FF210904CF
:1052D000034A13688B430004181810607047C046D7
:1052E00060200140027801210A404378DB079B0FD0
:1052F0009A1883789B071B0FD218C3781B019A1842
:1053000003791B03D218C3885B1E9B059B08D21828
:10531000037ADB075B08D218437ADB0713430E4A94
:105320001360C90413690B431361418983891B040A
:1053300059185160C189038A1B0459189160418A28
:10534000838A1B045918D16011693D4B0B40C08AF8
:10535000181810617047C046003001400721090449
:10536000084A13688B430178C907C90BC9184378E9
:10537000DB079B0BC9188078C007400B081810602A
:105380007047C0461030014010B5D2B051208200A5
:1053900001AC07492046FAF785FF2046FFF736FBA8
:1053A000002802D003A0FBF729F952B010BDC04677
:1053B000546A00084552524F523A20726164617239
:1053C00020696E6974206661696C210D000000001F
:1053D0000521890142684A430121C9035118184A2D
:1053E0000A400168491E89B28A1816490A60027B80
:1053F00007231340427B5207920ED218837B5B0730
:10540000DB0D9A18C37B5B071B0DD218037C5B076F
:105410005B0CD218437C5B079B0BD218837C5B0729
:10542000DB0AD218C37C5B071B0A1343027D521EA2
:10543000920692081A438A608068C8607047C04626
:105440000000FFFF002001400748016805220A43D1
:105450000260704704490A6802239A43C007800F1C
:10546000101808607047C04604200140F0B58FB0A6
:105470000B9001263046314600F062FBFFF700FE3C
:10548000FFF7F6FDDC48FFF7D1FDDC4DA87A1821C7
:1054900002910843A872687BE0210D910840083012
:1054A00068733046FDF758FD00F088FC28780E90B0
:1054B0000720FFF7EDFD3046FDF74EFDD049C87FD0
:1054C0003043C877CF4F387830433870B87830439E
:1054D000B870022004460A90FDF73EFDF8200E99B0
:1054E0000840C01C287000F06FFC387B40210E91F2
:1054F00008433873787B082108437873B87B2122EE
:105500000C921043B873F87B0843F873BC49887F4A
:105510000D9A10438877B8782043B870387B80257F
:1055200028433873787B1021099108437873B87B3E
:10553000422100910843B87305242046FDF70CFD75
:10554000387B7F21079108403873787BEF210691E3
:1055500008407873B87BBD210140B973787A442143
:10556000039108437872F87B099B1843F873B87E5F
:105570000C990843B876387F30433877F87F089520
:105580002843F877A04D2878304328709C4AD07E75
:1055900001963043D076107F202101431177507F50
:1055A0000E9908435077387F0A9908433877E8788E
:1055B0000843E870049420461C46FDF7CDFC387F74
:1055C000FD2108403877E8780C910840E8700B9886
:1055D00002460078002800D0029CF97A0323194083
:1055E0000919F9720028099301D0062100E004216D
:1055F00016460D9D824C3A7BC023134059183973CF
:10560000397C29401E313974797C1F221143797409
:10561000B97C29401231B974F97C1143F97400281E
:10562000059202D00A9B029A01E00B220A9B397D67
:10563000294089183975797D294018317975B97DE6
:105640000028039A00D01122BA75F97DFA75397EC7
:10565000002801D00D2100E0192139767A7E797673
:10566000002800D0019BB87FFC210140C818B87702
:105670000498FDF771FC3078FEF7B8FC63490870B8
:10568000B87E0E990843B8763220FDF765FCB01C51
:105690000E90A07CB178002906D063210843A07445
:1056A000617C5020084309E009990843A074A07C5C
:1056B0009F210140A174607C502188436074207C4C
:1056C000502101432174207D0C21014321750520C7
:1056D000FDF742FC0E980078012801D0022000E07E
:1056E0000098C043A17C0140A174207DF7210140B6
:1056F00021750E9D284600F0A5F921781720014359
:105700002170217A099A114321722978012905D142
:10571000217901432171207B10432073207D0121D9
:105720000A91084320757078400039490A5C059E4B
:105730003240A37D25460D9C2340D318AB75EB7DED
:1057400023409A18EA75081840783040297E214095
:105750002C4640182876687DFE2630406875A87D66
:10576000BF252840A075E07D2840E0750520FDF7A5
:10577000F3FB207C28402074207806990840207094
:10578000207A0C9A104020720B988078012809D159
:10579000607C28406074207908402071207B0C993F
:1057A00008402073207D304020750520FDF7D4FB94
:1057B000207AFB21084020720E980078012802D13F
:1057C000227B0A402273217D0C9A11402175954A53
:1057D0009178079B19409170B97A0A9A1143B9726E
:1057E000797A089A11437972217E19402176944979
:1057F00008700FB0F0BDC046601823004F34104051
:1058000000301040213010404130104070360020F0
:10581000A46B000810B50C4C6068010702D0FDF7BE
:10582000FBFF10BD81060CD4000609D507480068AF
:10583000002800D080470120C00321680143216077
:1058400010BDFDF753FA10BD34000140683600204A
:10585000F0B583B0029000F0B1FA6F480078009084
:105860000720FFF715FC012501952846FDF774FB7D
:105870006A4FF87F2843F877694C207828432070D6
:10588000A0782843A07002263046FDF765FBF8207B
:1058900000990840C01C6049087000F095FA217B0F
:1058A0008020009001432173617B102211436173BA
:1058B000A17B42230B43A373217F314321775948B6
:1058C000C1783143C170237B40210B432373637B39
:1058D000082003436373A57B21231D43A573E57B48
:1058E0000543E573B87FE0250543BD77A0783043D5
:1058F000A070607A442505436572E07B1043E07335
:10590000A07E1843019BA076207F18432077E07F7C
:10591000009A1043E077434A107818431070F87EDD
:105920001843F876387F202202433A77787F08437D
:105930007877A07E0843A076B87C0299002906D02B
:1059400063210843B874797C5020084309E003219F
:105950000843B874B87C9F210140B974787C502109
:1059600088437874387C502101433974387D0C2188
:105970000143397539781720014339703A7A032188
:105980000A433A72FD26029A012A354606D13A792F
:1059900002433A71387B08433873BD25387D18437C
:1059A00038751846FDF7D8FA207B7F210140217316
:1059B000617BEF2001406173A17BBD220A40A2738D
:1059C000217F31402177174AD1783140D170B97C9D
:1059D0002940B974397DF7220A403A753A7CBF21D3
:1059E0000A403A743A7802403A703A7A32403A724F
:1059F000029A012A09D17A7C0A407A7439790140E5
:105A00003971387BFD2101403973387DFE21014019
:105A1000397503B0F0BDC0464F341040003010401F
:105A2000213010404130104080B505480078FFF724
:105A3000D7FB80BD80B502480078FFF709FF80BD25
:105A40006C360020F0B581B01449842200920A70AF
:105A5000427807252A4083785B079B0E9B184B7082
:105A600010248C7002792A40C6787607B60EB618D4
:105A70000E728279D207970E10374F7242792A4000
:105A80008A720078012806D1009808714B718C71D8
:105A90000E734F738A7301B0F0BDC04601301040E1
:105AA00010B50A781F2313404A78D206920DD218F7
:105AB0008B78DB065B0CD218CB78DB061B0BD2187D
:105AC0008B885B1E9B059B08D2188B79DB075B08D4
:105AD000D218CB79DB07D318C4000E4AA350A31801
:105AE0008C685C6001230340C9680A244C438034FD
:105AF000210A002B00D00904002B01D0074B00E045
:105B0000054B400880008018026C1A400A4302646A
:105B100010BDC046102001400000FFFFFFFF000045
:105B20000A794B799B00DBB213431A040968491EBA
:105B300089B251188000014A815070470029014004
:105B400010B5064A13680C24A343C007400FC907C9
:105B5000090F08181818106010BDC04604501040F6
:105B60000120C04318490A6802400A608A6802405E
:105B70008A60704714480168034A114001608168D7
:105B8000114081607047C046FFFEFFFF0E4801686C
:105B90000122114301608168114381607047C04652
:105BA0001948016820221143016081681143816016
:105BB0007047C0460120000203490A6802430A6098
:105BC0008A6802438A607047185010400E48016886
:105BD0004022114301608168114381607047C046D3
